{
  "_format": "hh-sol-artifact-1",
  "contractName": "UniswapV2Pair",
  "sourceName": "src/UniswapV2Factory.sol",
  "abi": [
    {
      "inputs": [],
      "stateMutability": "nonpayable",
      "type": "constructor"
    },
    {
      "anonymous": false,
      "inputs": [
        {
          "indexed": true,
          "internalType": "address",
          "name": "owner",
          "type": "address"
        },
        {
          "indexed": true,
          "internalType": "address",
          "name": "spender",
          "type": "address"
        },
        {
          "indexed": false,
          "internalType": "uint256",
          "name": "value",
          "type": "uint256"
        }
      ],
      "name": "Approval",
      "type": "event"
    },
    {
      "anonymous": false,
      "inputs": [
        {
          "indexed": true,
          "internalType": "address",
          "name": "sender",
          "type": "address"
        },
        {
          "indexed": false,
          "internalType": "uint256",
          "name": "amount0",
          "type": "uint256"
        },
        {
          "indexed": false,
          "internalType": "uint256",
          "name": "amount1",
          "type": "uint256"
        },
        {
          "indexed": true,
          "internalType": "address",
          "name": "to",
          "type": "address"
        }
      ],
      "name": "Burn",
      "type": "event"
    },
    {
      "anonymous": false,
      "inputs": [
        {
          "indexed": true,
          "internalType": "address",
          "name": "sender",
          "type": "address"
        },
        {
          "indexed": false,
          "internalType": "uint256",
          "name": "amount0",
          "type": "uint256"
        },
        {
          "indexed": false,
          "internalType": "uint256",
          "name": "amount1",
          "type": "uint256"
        }
      ],
      "name": "Mint",
      "type": "event"
    },
    {
      "anonymous": false,
      "inputs": [
        {
          "indexed": true,
          "internalType": "address",
          "name": "sender",
          "type": "address"
        },
        {
          "indexed": false,
          "internalType": "uint256",
          "name": "amount0In",
          "type": "uint256"
        },
        {
          "indexed": false,
          "internalType": "uint256",
          "name": "amount1In",
          "type": "uint256"
        },
        {
          "indexed": false,
          "internalType": "uint256",
          "name": "amount0Out",
          "type": "uint256"
        },
        {
          "indexed": false,
          "internalType": "uint256",
          "name": "amount1Out",
          "type": "uint256"
        },
        {
          "indexed": true,
          "internalType": "address",
          "name": "to",
          "type": "address"
        }
      ],
      "name": "Swap",
      "type": "event"
    },
    {
      "anonymous": false,
      "inputs": [
        {
          "indexed": false,
          "internalType": "uint112",
          "name": "reserve0",
          "type": "uint112"
        },
        {
          "indexed": false,
          "internalType": "uint112",
          "name": "reserve1",
          "type": "uint112"
        }
      ],
      "name": "Sync",
      "type": "event"
    },
    {
      "anonymous": false,
      "inputs": [
        {
          "indexed": true,
          "internalType": "address",
          "name": "from",
          "type": "address"
        },
        {
          "indexed": true,
          "internalType": "address",
          "name": "to",
          "type": "address"
        },
        {
          "indexed": false,
          "internalType": "uint256",
          "name": "value",
          "type": "uint256"
        }
      ],
      "name": "Transfer",
      "type": "event"
    },
    {
      "inputs": [
        {
          "internalType": "address",
          "name": "",
          "type": "address"
        },
        {
          "internalType": "address",
          "name": "",
          "type": "address"
        }
      ],
      "name": "allowance",
      "outputs": [
        {
          "internalType": "uint256",
          "name": "",
          "type": "uint256"
        }
      ],
      "stateMutability": "view",
      "type": "function"
    },
    {
      "inputs": [
        {
          "internalType": "address",
          "name": "spender",
          "type": "address"
        },
        {
          "internalType": "uint256",
          "name": "value",
          "type": "uint256"
        }
      ],
      "name": "approve",
      "outputs": [
        {
          "internalType": "bool",
          "name": "",
          "type": "bool"
        }
      ],
      "stateMutability": "nonpayable",
      "type": "function"
    },
    {
      "inputs": [
        {
          "internalType": "address",
          "name": "",
          "type": "address"
        }
      ],
      "name": "balanceOf",
      "outputs": [
        {
          "internalType": "uint256",
          "name": "",
          "type": "uint256"
        }
      ],
      "stateMutability": "view",
      "type": "function"
    },
    {
      "inputs": [
        {
          "internalType": "address",
          "name": "to",
          "type": "address"
        }
      ],
      "name": "burn",
      "outputs": [
        {
          "internalType": "uint256",
          "name": "amount0",
          "type": "uint256"
        },
        {
          "internalType": "uint256",
          "name": "amount1",
          "type": "uint256"
        }
      ],
      "stateMutability": "nonpayable",
      "type": "function"
    },
    {
      "inputs": [],
      "name": "factory",
      "outputs": [
        {
          "internalType": "address",
          "name": "",
          "type": "address"
        }
      ],
      "stateMutability": "view",
      "type": "function"
    },
    {
      "inputs": [],
      "name": "getReserves",
      "outputs": [
        {
          "internalType": "uint112",
          "name": "_reserve0",
          "type": "uint112"
        },
        {
          "internalType": "uint112",
          "name": "_reserve1",
          "type": "uint112"
        },
        {
          "internalType": "uint32",
          "name": "_blockTimestampLast",
          "type": "uint32"
        }
      ],
      "stateMutability": "view",
      "type": "function"
    },
    {
      "inputs": [
        {
          "internalType": "address",
          "name": "_token0",
          "type": "address"
        },
        {
          "internalType": "address",
          "name": "_token1",
          "type": "address"
        }
      ],
      "name": "initialize",
      "outputs": [],
      "stateMutability": "nonpayable",
      "type": "function"
    },
    {
      "inputs": [],
      "name": "kLast",
      "outputs": [
        {
          "internalType": "uint256",
          "name": "",
          "type": "uint256"
        }
      ],
      "stateMutability": "view",
      "type": "function"
    },
    {
      "inputs": [
        {
          "internalType": "address",
          "name": "to",
          "type": "address"
        }
      ],
      "name": "mint",
      "outputs": [
        {
          "internalType": "uint256",
          "name": "liquidity",
          "type": "uint256"
        }
      ],
      "stateMutability": "nonpayable",
      "type": "function"
    },
    {
      "inputs": [],
      "name": "price0CumulativeLast",
      "outputs": [
        {
          "internalType": "uint256",
          "name": "",
          "type": "uint256"
        }
      ],
      "stateMutability": "view",
      "type": "function"
    },
    {
      "inputs": [],
      "name": "price1CumulativeLast",
      "outputs": [
        {
          "internalType": "uint256",
          "name": "",
          "type": "uint256"
        }
      ],
      "stateMutability": "view",
      "type": "function"
    },
    {
      "inputs": [
        {
          "internalType": "address",
          "name": "to",
          "type": "address"
        }
      ],
      "name": "skim",
      "outputs": [],
      "stateMutability": "nonpayable",
      "type": "function"
    },
    {
      "inputs": [
        {
          "internalType": "uint256",
          "name": "amount0Out",
          "type": "uint256"
        },
        {
          "internalType": "uint256",
          "name": "amount1Out",
          "type": "uint256"
        },
        {
          "internalType": "address",
          "name": "to",
          "type": "address"
        },
        {
          "internalType": "bytes",
          "name": "data",
          "type": "bytes"
        }
      ],
      "name": "swap",
      "outputs": [],
      "stateMutability": "nonpayable",
      "type": "function"
    },
    {
      "inputs": [],
      "name": "sync",
      "outputs": [],
      "stateMutability": "nonpayable",
      "type": "function"
    },
    {
      "inputs": [],
      "name": "token0",
      "outputs": [
        {
          "internalType": "address",
          "name": "",
          "type": "address"
        }
      ],
      "stateMutability": "view",
      "type": "function"
    },
    {
      "inputs": [],
      "name": "token1",
      "outputs": [
        {
          "internalType": "address",
          "name": "",
          "type": "address"
        }
      ],
      "stateMutability": "view",
      "type": "function"
    },
    {
      "inputs": [],
      "name": "totalSupply",
      "outputs": [
        {
          "internalType": "uint256",
          "name": "",
          "type": "uint256"
        }
      ],
      "stateMutability": "view",
      "type": "function"
    },
    {
      "inputs": [
        {
          "internalType": "address",
          "name": "to",
          "type": "address"
        },
        {
          "internalType": "uint256",
          "name": "value",
          "type": "uint256"
        }
      ],
      "name": "transfer",
      "outputs": [
        {
          "internalType": "bool",
          "name": "",
          "type": "bool"
        }
      ],
      "stateMutability": "nonpayable",
      "type": "function"
    },
    {
      "inputs": [
        {
          "internalType": "address",
          "name": "from",
          "type": "address"
        },
        {
          "internalType": "address",
          "name": "to",
          "type": "address"
        },
        {
          "internalType": "uint256",
          "name": "value",
          "type": "uint256"
        }
      ],
      "name": "transferFrom",
      "outputs": [
        {
          "internalType": "bool",
          "name": "",
          "type": "bool"
        }
      ],
      "stateMutability": "nonpayable",
      "type": "function"
    }
  ],
  "bytecode": "0x6080806040523461002d576001600755600080546001600160a01b03191633179055611a4390816100338239f35b600080fdfe6080604052600436101561001257600080fd5b6000803560e01c8063022c0d9f14610dff5780630902f1ac14610da6578063095ea7b314610d2d5780630dfe168114610d0457806318160ddd14610ce657806323b872dd14610c5d578063485cc95514610b5e5780635909c0d514610b405780635a3d549314610b225780636a627842146107fd57806370a08231146107c45780637464fc3d146107a657806389afcb441461043c578063a9059cbb1461040a578063bc25cf77146102c1578063c45a01551461029a578063d21220a714610271578063dd62ed3e146102225763fff6cae9146100ee57600080fd5b3461021f578060031936011261021f5761010c600160075414611483565b60078190556001546040516370a0823160e01b808252306004830152916020916001600160a01b039183908290602490829086165afa91821561021457839186936101e3575b50600254169360246040518096819382523060048301525afa9182156101d85784926101a1575b506101999250600354916001600160701b03808460701c1693169161165f565b600160075580f35b90915082813d83116101d1575b6101b881836114c3565b810103126101cc5761019991519038610179565b600080fd5b503d6101ae565b6040513d86823e3d90fd5b8281939294503d831161020d575b6101fb81836114c3565b810103126101cc578290519138610152565b503d6101f1565b6040513d87823e3d90fd5b80fd5b503461021f57604036600319011261021f5761023c611457565b604061024661146d565b9260018060a01b038093168152600a6020522091166000526020526020604060002054604051908152f35b503461021f578060031936011261021f576002546040516001600160a01b039091168152602090f35b503461021f578060031936011261021f57546040516001600160a01b039091168152602090f35b503461021f57602080600319360112610406576102dc611457565b906102eb600160075414611483565b60078390556001546002546040516370a0823160e01b80825230600483015290946001600160a01b039283169490939092168286602481845afa9586156103fb5787966103ca575b5061035690846103506001600160701b03988960035416906114fb565b9161153b565b6040519081523060048201528181602481875afa9182156103bf57869261038f575b5050610350906101999460035460701c16906114fb565b90809250813d83116103b8575b6103a681836114c3565b810103126101cc575183610350610378565b503d61039c565b6040513d88823e3d90fd5b9095508281813d83116103f4575b6103e281836114c3565b810103126101cc575194610356610333565b503d6103d8565b6040513d89823e3d90fd5b5080fd5b503461021f57604036600319011261021f57610431610427611457565b60243590336117c0565b602060405160018152f35b503461021f576020908160031936011261021f57610458611457565b90610467600160075414611483565b8060075561048a6003546001600160701b0391828216928260701c169160e01c90565b506001546002546040516370a0823160e01b8082523060048301529794966001600160a01b039384169690949192841686846024818b5afa93841561079b57829461076c575b5060405199808b523060048c0152878b602481855afa988915610761578a9b849b9a61072e575b50308452600989526105336105118660408720549c61181c565b9661052761052c8d610527600854948592611508565b61151b565b9d8d611508565b998b151580610725575b156106cf576024939291858b9230825260098452604082206105608282546114fb565b905561056e816008546114fb565b6008556040519081526000805160206119ee833981519152843092a36105958d8b8361153b565b6105a08c8b8661153b565b604051948580928582523060048301525afa9283156101d857908991859461069e575b5060246040518094819382523060048301525afa928315610692579261065c575b50986105f3929160409a61165f565b610639575b855191858352848484015216907fdccd412f0b1252819cb1fd330b93224ca42612892bb3f4f789976e6d81936496863392a360016007558351928352820152f35b6106546003546001600160701b03808260701c169116611508565b6006556105f8565b929150988683813d831161068b575b61067581836114c3565b810103126101cc579151919890919060406105e4565b503d61066b565b604051903d90823e3d90fd5b8281939295503d83116106c8575b6106b681836114c3565b810103126101cc5788905192386105c3565b503d6106ac565b60405162461bcd60e51b8152600481018b9052602860248201527f556e697377617056323a20494e53554646494349454e545f4c495155494449546044820152671657d0955493915160c21b6064820152608490fd5b508a151561053d565b8980929c50819b503d831161075a575b61074881836114c3565b810103126101cc578a985199386104f7565b503d61073e565b6040513d85823e3d90fd5b9093508681813d8311610794575b61078481836114c3565b810103126101cc575192386104d0565b503d61077a565b6040513d84823e3d90fd5b503461021f578060031936011261021f576020600654604051908152f35b503461021f57602036600319011261021f576020906040906001600160a01b036107ec611457565b168152600983522054604051908152f35b503461021f57602036600319011261021f57610817611457565b90610826600160075414611483565b806007556108496003546001600160701b0391828216928260701c169160e01c90565b509160018060a01b0393846001541690604051956020876024816370a0823160e01b968782523060048301525afa9687156101d8578497610aed575b50602090600254169260246040518095819382523060048301525afa918215610761578392610ab9575b506001600160701b038416946108c586886114fb565b946001600160701b038216936108db85826114fb565b956108e6848461181c565b95600854998a15600014610a82575050610908610903888a611508565b61194f565b6103e719810191908211610a6e5750976103e88101809111610a58576008556000805260096020527fec8156718a8372b1db44bb411437d0870f3e3790d4a08526d024ce1b0b668f6b80546103e881018111610a58576103e80190556000806000805160206119ee83398151915260206040516103e88152a35b8715610a02576020986109988961099d966119ab565b61165f565b6109df575b604051918252838201527f4c209b5fc8ad50758f13e2e1088ba56a560dff690a1c6fef26394f4c03821c4f60403392a26001600755604051908152f35b6109fa6003546001600160701b03808260701c169116611508565b6006556109a2565b60405162461bcd60e51b815260206004820152602860248201527f556e697377617056323a20494e53554646494349454e545f4c495155494449546044820152671657d3525395115160c21b6064820152608490fd5b634e487b7160e01b600052601160045260246000fd5b634e487b7160e01b81526011600452602490fd5b90610527610a99610aa0936105278e979e8e611508565b948a611508565b905080821015610ab257505b96610982565b9050610aac565b9091506020813d602011610ae5575b81610ad5602093836114c3565b810103126101cc575190386108af565b3d9150610ac8565b9096506020813d602011610b1a575b81610b09602093836114c3565b810103126101cc5751956020610885565b3d9150610afc565b503461021f578060031936011261021f576020600554604051908152f35b503461021f578060031936011261021f576020600454604051908152f35b503461021f57604036600319011261021f57610b78611457565b610b8061146d565b82546001600160a01b0392919083163303610c21576001548381161580610c15575b15610bd05783926bffffffffffffffffffffffff60a01b948591169116176001551690600254161760025580f35b60405162461bcd60e51b815260206004820152601e60248201527f556e697377617056323a20414c52454144595f494e495449414c495a454400006044820152606490fd5b50836002541615610ba2565b60405162461bcd60e51b81526020600482015260146024820152732ab734b9bbb0b82b191d102327a92124a22222a760611b6044820152606490fd5b503461021f57606036600319011261021f5761043190610c7b611457565b610c8361146d565b906044359260018060a01b03821690818152600a602052604081203360005260205260001960406000205403610cbb575b50506117c0565b6040918152600a60205220336000526020526040600020610cdd8482546114fb565b90553880610cb4565b503461021f578060031936011261021f576020600854604051908152f35b503461021f578060031936011261021f576001546040516001600160a01b039091168152602090f35b503461021f57604036600319011261021f57610d47611457565b90604060243591338152600a602052209160018060a01b03169182600052602052806040600020556040519081527f8c5be1e5ebec7d5bd14f71427d1e84f3dd0314c0f7b2291e5b200ac8c7c3b92560203392a3602060405160018152f35b503461021f578060031936011261021f57606063ffffffff610ddd6003546001600160701b0391828216928260701c169160e01c90565b909291604051936001600160701b038092168552166020840152166040820152f35b503461021f57608036600319011261021f576044356001600160a01b038116900361021f5767ffffffffffffffff6064351161021f5736602360643501121561021f5767ffffffffffffffff606435600401351161021f573660246064356004013560643501011161021f57610e79600160075414611483565b80600755600435158015809161144c575b156113f957610eae6003546001600160701b0391828216928260701c169160e01c90565b506001600160701b038293921660043510806113e5575b15611396576001546002546001600160a01b039081169391811691906044351682141580611381575b1561134457611330575b60243561131c575b60643560040135611248575b906020602492604051938480926370a0823160e01b82523060048301525afa918215610214578592611211575b506020602493604051948580926370a0823160e01b82523060048301525afa9283156102145785936111dd575b50610f7c6004356001600160701b0386166114fb565b8211156111d657610fa1610f9b6004356001600160701b0387166114fb565b836114fb565b935b610fb86024356001600160701b0384166114fb565b8411156111cf57610fdd610fd76024356001600160701b0385166114fb565b856114fb565b935b85151586156111c6575b1561117557836103e88102046103e8148415171561116157600386028681046003148715171561114d57611021906103e886026114fb565b6103e882028281046103e81483151715611125576003870290878204600314881517156111395761105c9291611056916114fb565b90611508565b6110786001600160701b0385166001600160701b038516611508565b90620f42409182810292818404149015171561112557106110f15761109c9361165f565b60405191825260208201526004356040820152602435606082015260018060a01b0360443516907fd78ad95fa46c994b6551d0da85fc275fe613ce37657fb8d5e3d130840159d82260803392a3600160075580f35b60405162461bcd60e51b815260206004820152600c60248201526b556e697377617056323a204b60a01b6044820152606490fd5b634e487b7160e01b89526011600452602489fd5b634e487b7160e01b8a52601160045260248afd5b634e487b7160e01b88526011600452602488fd5b634e487b7160e01b87526011600452602487fd5b60405162461bcd60e51b8152602060048201526024808201527f556e697377617056323a20494e53554646494349454e545f494e5055545f414d60448201526313d5539560e21b6064820152608490fd5b50841515610fe9565b8593610fdf565b8493610fa3565b9092506020813d602011611209575b816111f9602093836114c3565b810103126101cc57519138610f66565b3d91506111ec565b9291506020833d602011611240575b8161122d602093836114c3565b810103126101cc57915190916020610f39565b3d9150611220565b6044356001600160a01b03163b15611318576040516304347a1760e21b815233600482015260043560248201526024356044820152608060648201526064356004013560848201526064356004013560246064350160a483013760a460643560040135828101820188905287918391601f19601f9091011682018290030181836001600160a01b03604435165af180156103bf576112e7575b50610f0c565b67ffffffffffffffff8196929611611304576040529360206112e1565b634e487b7160e01b82526041600452602482fd5b8480fd5b61132b6024356044358561153b565b610f00565b61133f6004356044358361153b565b610ef8565b60405162461bcd60e51b8152602060048201526015602482015274556e697377617056323a20494e56414c49445f544f60581b6044820152606490fd5b506044356001600160a01b0316841415610eee565b60405162461bcd60e51b815260206004820152602160248201527f556e697377617056323a20494e53554646494349454e545f4c495155494449546044820152605960f81b6064820152608490fd5b506001600160701b03811660243510610ec5565b60405162461bcd60e51b815260206004820152602560248201527f556e697377617056323a20494e53554646494349454e545f4f55545055545f416044820152641353d5539560da1b6064820152608490fd5b506024351515610e8a565b600435906001600160a01b03821682036101cc57565b602435906001600160a01b03821682036101cc57565b1561148a57565b60405162461bcd60e51b8152602060048201526011602482015270155b9a5cddd85c158c8e881313d0d2d151607a1b6044820152606490fd5b90601f8019910116810190811067ffffffffffffffff8211176114e557604052565b634e487b7160e01b600052604160045260246000fd5b91908203918211610a5857565b81810292918115918404141715610a5857565b8115611525570490565b634e487b7160e01b600052601260045260246000fd5b60405163a9059cbb60e01b60208083019182526001600160a01b039094166024830152604480830195909552938152919267ffffffffffffffff9260808101848111828210176114e557604052600092839283809351925af1913d15611657573d90811161130457604051906115ba601f8201601f19168601836114c3565b81523d828583013e5b82611617575b5050156115d35750565b6064906040519062461bcd60e51b82526004820152601a60248201527f556e697377617056323a205452414e534645525f4641494c45440000000000006044820152fd5b8051925082159190848315611633575b505050905038806115c9565b9193818094500103126104065782015190811515820361021f575080388084611627565b5060606115c3565b916001600160701b039081841115806117a9575b1561176e5763ffffffff9360035460e01c8542160391858311610a58577f1c411e9a96e071241c2f21f7726b17ae89e3cab4c78be50e062b03a9fffbbad1966040968594169182151580611763575b80611758575b611712575b505050607093841b6dffffffffffffffffffffffffffff60701b1691169081174260e01b6001600160e01b031916176003819055845191825290921c166020820152a1565b61174891856001600160701b0360701b9185611735838616858460701b1661151b565b0260045401600455169160701b1661151b565b02600554016005553880806116cd565b5084821615156116c8565b5084811615156116c2565b60405162461bcd60e51b8152602060048201526013602482015272556e697377617056323a204f564552464c4f5760681b6044820152606490fd5b5081831115611673565b91908201809211610a5857565b60206000805160206119ee8339815191529160018060a01b0380911693846000526009835260406000206117f58782546114fb565b90551693846000526009825260406000206118118282546117b3565b9055604051908152a3565b60008054604051622fcfcb60e31b815293949392906001600160a01b03906020908590600490829085165afa93841561076157839461190e575b50831615159460065491866000146118fd5782611875575b5050505050565b61090361189291611898936001600160701b038091169116611508565b9161194f565b908181116118a7575b8061186e565b6118b760085461105684846114fb565b92600582029180830460051490151715610a6e57506118e092916118da916117b3565b9061151b565b806118ed575b80806118a1565b6118f6916119ab565b38806118e6565b50509091506119095750565b600655565b9093506020813d602011611947575b8161192a602093836114c3565b8101031261194357518381168103611943579238611856565b8280fd5b3d915061191d565b906000600383111561199e5750816001908060011c60018101809111610a585791905b84831061197e57505050565b9091935061199584611990818461151b565b6117b3565b821c9190611972565b916119a557565b60019150565b6000805160206119ee83398151915260206000926119cb856008546117b3565b60085560018060a01b03169384845260098252604084206118118282546117b356feddf252ad1be2c89b69c2b068fc378daa952ba7f163c4a11628f55a4df523b3efa264697066735822122036a62d924a2ba7d7bd692b9941cb6dc782d7cc9730c6ef304238123c51ac913c64736f6c63430008180033",
  "linkReferences": {},
  "deployedLinkReferences": {}
}