{
  "_format": "hh-sol-artifact-1",
  "contractName": "UniswapV2Router02",
  "sourceName": "src/UniswapV2Router02.sol",
  "abi": [
    {
      "inputs": [
        {
          "internalType": "address",
          "name": "_factory",
          "type": "address"
        },
        {
          "internalType": "address",
          "name": "_WETH",
          "type": "address"
        }
      ],
      "stateMutability": "nonpayable",
      "type": "constructor"
    },
    {
      "inputs": [],
      "name": "WETH",
      "outputs": [
        {
          "internalType": "address",
          "name": "",
          "type": "address"
        }
      ],
      "stateMutability": "view",
      "type": "function"
    },
    {
      "inputs": [
        {
          "internalType": "address",
          "name": "tokenA",
          "type": "address"
        },
        {
          "internalType": "address",
          "name": "tokenB",
          "type": "address"
        },
        {
          "internalType": "uint256",
          "name": "amountADesired",
          "type": "uint256"
        },
        {
          "internalType": "uint256",
          "name": "amountBDesired",
          "type": "uint256"
        },
        {
          "internalType": "uint256",
          "name": "amountAMin",
          "type": "uint256"
        },
        {
          "internalType": "uint256",
          "name": "amountBMin",
          "type": "uint256"
        },
        {
          "internalType": "address",
          "name": "to",
          "type": "address"
        },
        {
          "internalType": "uint256",
          "name": "deadline",
          "type": "uint256"
        }
      ],
      "name": "addLiquidity",
      "outputs": [
        {
          "internalType": "uint256",
          "name": "amountA",
          "type": "uint256"
        },
        {
          "internalType": "uint256",
          "name": "amountB",
          "type": "uint256"
        },
        {
          "internalType": "uint256",
          "name": "liquidity",
          "type": "uint256"
        }
      ],
      "stateMutability": "nonpayable",
      "type": "function"
    },
    {
      "inputs": [],
      "name": "factory",
      "outputs": [
        {
          "internalType": "address",
          "name": "",
          "type": "address"
        }
      ],
      "stateMutability": "view",
      "type": "function"
    },
    {
      "inputs": [
        {
          "internalType": "uint256",
          "name": "amountOut",
          "type": "uint256"
        },
        {
          "internalType": "uint256",
          "name": "reserveIn",
          "type": "uint256"
        },
        {
          "internalType": "uint256",
          "name": "reserveOut",
          "type": "uint256"
        }
      ],
      "name": "getAmountIn",
      "outputs": [
        {
          "internalType": "uint256",
          "name": "amountIn",
          "type": "uint256"
        }
      ],
      "stateMutability": "pure",
      "type": "function"
    },
    {
      "inputs": [
        {
          "internalType": "uint256",
          "name": "amountIn",
          "type": "uint256"
        },
        {
          "internalType": "uint256",
          "name": "reserveIn",
          "type": "uint256"
        },
        {
          "internalType": "uint256",
          "name": "reserveOut",
          "type": "uint256"
        }
      ],
      "name": "getAmountOut",
      "outputs": [
        {
          "internalType": "uint256",
          "name": "amountOut",
          "type": "uint256"
        }
      ],
      "stateMutability": "pure",
      "type": "function"
    },
    {
      "inputs": [
        {
          "internalType": "uint256",
          "name": "amountOut",
          "type": "uint256"
        },
        {
          "internalType": "address[]",
          "name": "path",
          "type": "address[]"
        }
      ],
      "name": "getAmountsIn",
      "outputs": [
        {
          "internalType": "uint256[]",
          "name": "amounts",
          "type": "uint256[]"
        }
      ],
      "stateMutability": "view",
      "type": "function"
    },
    {
      "inputs": [
        {
          "internalType": "uint256",
          "name": "amountIn",
          "type": "uint256"
        },
        {
          "internalType": "address[]",
          "name": "path",
          "type": "address[]"
        }
      ],
      "name": "getAmountsOut",
      "outputs": [
        {
          "internalType": "uint256[]",
          "name": "amounts",
          "type": "uint256[]"
        }
      ],
      "stateMutability": "view",
      "type": "function"
    },
    {
      "inputs": [
        {
          "internalType": "uint256",
          "name": "amountA",
          "type": "uint256"
        },
        {
          "internalType": "uint256",
          "name": "reserveA",
          "type": "uint256"
        },
        {
          "internalType": "uint256",
          "name": "reserveB",
          "type": "uint256"
        }
      ],
      "name": "quote",
      "outputs": [
        {
          "internalType": "uint256",
          "name": "amountB",
          "type": "uint256"
        }
      ],
      "stateMutability": "pure",
      "type": "function"
    },
    {
      "inputs": [
        {
          "internalType": "uint256",
          "name": "amountIn",
          "type": "uint256"
        },
        {
          "internalType": "uint256",
          "name": "amountOutMin",
          "type": "uint256"
        },
        {
          "internalType": "address[]",
          "name": "path",
          "type": "address[]"
        },
        {
          "internalType": "address",
          "name": "to",
          "type": "address"
        },
        {
          "internalType": "uint256",
          "name": "deadline",
          "type": "uint256"
        }
      ],
      "name": "swapExactTokensForTokens",
      "outputs": [
        {
          "internalType": "uint256[]",
          "name": "amounts",
          "type": "uint256[]"
        }
      ],
      "stateMutability": "nonpayable",
      "type": "function"
    },
    {
      "inputs": [
        {
          "internalType": "uint256",
          "name": "amountOut",
          "type": "uint256"
        },
        {
          "internalType": "uint256",
          "name": "amountInMax",
          "type": "uint256"
        },
        {
          "internalType": "address[]",
          "name": "path",
          "type": "address[]"
        },
        {
          "internalType": "address",
          "name": "to",
          "type": "address"
        },
        {
          "internalType": "uint256",
          "name": "deadline",
          "type": "uint256"
        }
      ],
      "name": "swapTokensForExactTokens",
      "outputs": [
        {
          "internalType": "uint256[]",
          "name": "amounts",
          "type": "uint256[]"
        }
      ],
      "stateMutability": "nonpayable",
      "type": "function"
    },
    {
      "stateMutability": "payable",
      "type": "receive"
    }
  ],
  "bytecode": "0x60c0346100aa57601f61172b38819003918201601f19168301916001600160401b038311848410176100af5780849260409485528339810103126100aa57610052602061004b836100c5565b92016100c5565b9060805260a05260405161165190816100da82396080518181816101530152818161049d015281816104e5015281816105a50152818161070a015281816107ee0152611024015260a0518181816024015261054c0152f35b600080fd5b634e487b7160e01b600052604160045260246000fd5b51906001600160a01b03821682036100aa5756fe60406080815260049081361015610054575b5050361561001e57600080fd5b610052337f00000000000000000000000000000000000000000000000000000000000000006001600160a01b031614610a7f565b005b600091823560e01c8063054d50d4146108125780631f00ca74146107d457806338ed1739146106f157806385f8c259146106d55780638803dbee1461057b578063ad5c464814610537578063ad615dec14610514578063c45a0155146104d0578063d06ca61f146104835763e8e33700146100cf5750610011565b3461047f5761010036600319011261047f576001600160a01b03918135838116810361047b5760243593808516850361025c5760443590606435948760c435928084168094036104775788946101294260e43510156109e8565b875163e6a4390560e01b81526001600160a01b0380891686830190815297166020888101919091527f00000000000000000000000000000000000000000000000000000000000000009a90979091848c16918990829081906040010381855afa90811561046d57928c8b938f989693888f918e9d9c9a988e8b92610450575b505016156103ae575b505087846101be9261142f565b908015806103a6575b15610271575050998a919d6101f28f9e6024996101f9966101e792610e09565b9e8f80943390610ece565b3390610ece565b8851998a9586946335313c2160e11b8652850152165af1938415610267578694610230575b50606095508251948552840152820152f35b9080945081813d8311610260575b610248818361084d565b8101031261025c576060955051923861021e565b8580fd5b503d61023e565b83513d88823e3d90fd5b93509450929550939596506102878382866112c5565b9282841161030f5750505060a43581106102bd57899287879695938d93998a919d6101f28f9e6024996101f9966101e792610e09565b875162461bcd60e51b8152808501879052602660248201527f556e69737761705632526f757465723a20494e53554646494349454e545f425f604482015265105353d5539560d21b6064820152608490fd5b8293509061032091610329936112c5565b92831115610a7f565b608435821061035457899287879695938d93998a919d6101f28f9e6024996101f9966101e792610e09565b875162461bcd60e51b8152808501879052602660248201527f556e69737761705632526f757465723a20494e53554646494349454e545f415f604482015265105353d5539560d21b6064820152608490fd5b5081156101c7565b516364e329cb60e11b81526001600160a01b039586168982019081529990951660208a01529899969895979496929591948492915082908990829060400103925af18015610446579288979694926101be8e8c8f8c8297849c9a610418575b50509250508d6101b1565b8161043792903d1061043f575b61042f818361084d565b810190611345565b508c3861040d565b503d610425565b8a513d87823e3d90fd5b6104669250803d1061043f5761042f818361084d565b388e6101a8565b8b513d88823e3d90fd5b5080fd5b8480fd5b8280fd5b505034610477576104cc906104c161049a366108fb565b907f0000000000000000000000000000000000000000000000000000000000000000610d64565b90519182918261093f565b0390f35b505034610477578160031936011261047757517f00000000000000000000000000000000000000000000000000000000000000006001600160a01b03168152602090f35b5050346104775760209061053061052a3661082e565b916112c5565b9051908152f35b505034610477578160031936011261047757517f00000000000000000000000000000000000000000000000000000000000000006001600160a01b03168152602090f35b50919034610477576105a061058f3661097b565b9792949193979590954211156109e8565b6105d77f0000000000000000000000000000000000000000000000000000000000000000916105d036868861089d565b9083610c9c565b966105e188610a34565b511161068257821561066f576105f684610a6b565b9161060085610a6b565b90846001101561065c576104cc89896106528a61064c8b8b6106458c6106338d8d61062d60208801610a6b565b91610e09565b61063c8a610a34565b51913390610ece565b369161089d565b8461101f565b519182918261093f565b634e487b7160e01b815260328a52602490fd5b634e487b7160e01b825260328852602482fd5b855162461bcd60e51b81526020818a0152602760248201527f556e69737761705632526f757465723a204558434553534956455f494e50555460448201526617d05353d5539560ca1b6064820152608490fd5b505034610477576020906105306106eb3661082e565b91611206565b509190346104775761070561058f3661097b565b61073c7f00000000000000000000000000000000000000000000000000000000000000009161073536868861089d565b9083610d64565b96875160001981019081116107c1576107559089610a57565b511061076a57821561066f576105f684610a6b565b855162461bcd60e51b81526020818a0152602b60248201527f556e69737761705632526f757465723a20494e53554646494349454e545f4f5560448201526a1514155517d05353d5539560aa1b6064820152608490fd5b634e487b7160e01b845260118a52602484fd5b505034610477576104cc906104c16107eb366108fb565b907f0000000000000000000000000000000000000000000000000000000000000000610c9c565b505034610477576020906105306108283661082e565b91610b19565b606090600319011261084857600435906024359060443590565b600080fd5b90601f8019910116810190811067ffffffffffffffff82111761086f57604052565b634e487b7160e01b600052604160045260246000fd5b67ffffffffffffffff811161086f5760051b60200190565b92916108a882610885565b916108b6604051938461084d565b829481845260208094019160051b810192831161084857905b8282106108dc5750505050565b81356001600160a01b03811681036108485781529083019083016108cf565b90604060031983011261084857600435916024359067ffffffffffffffff821161084857806023830112156108485781602461093c9360040135910161089d565b90565b602090602060408183019282815285518094520193019160005b828110610967575050505090565b835185529381019392810192600101610959565b9060a060031983011261084857600435916024359160443567ffffffffffffffff9283821161084857806023830112156108485781600401359384116108485760248460051b830101116108485760240191906064356001600160a01b0381168103610848579060843590565b156109ef57565b60405162461bcd60e51b815260206004820152601860248201527f556e69737761705632526f757465723a204558504952454400000000000000006044820152606490fd5b805115610a415760200190565b634e487b7160e01b600052603260045260246000fd5b8051821015610a415760209160051b010190565b356001600160a01b03811681036108485790565b15610a8657565b634e487b7160e01b600052600160045260246000fd5b15610aa357565b60405162461bcd60e51b815260206004820152602860248201527f556e697377617056324c6962726172793a20494e53554646494349454e545f4c604482015267495155494449545960c01b6064820152608490fd5b8115610b03570490565b634e487b7160e01b600052601260045260246000fd5b9190918015610bc557610b4a610b43610b509285151580610bbc575b610b3e90610a9c565b611364565b92836113de565b926113bf565b90810190818111610ba6578110610b6a5761093c91610af9565b60405162461bcd60e51b815260206004820152601460248201527364732d6d6174682d6164642d6f766572666c6f7760601b6044820152606490fd5b634e487b7160e01b600052601160045260246000fd5b50841515610b35565b60405162461bcd60e51b815260206004820152602b60248201527f556e697377617056324c6962726172793a20494e53554646494349454e545f4960448201526a1394155517d05353d5539560aa1b6064820152608490fd5b15610c2557565b60405162461bcd60e51b815260206004820152601e60248201527f556e697377617056324c6962726172793a20494e56414c49445f5041544800006044820152606490fd5b90610c7482610885565b610c81604051918261084d565b8281528092610c92601f1991610885565b0190602036910137565b929192610cad600285511015610c1e565b610cb78451610c6a565b9384519260001993848101908111610ba657610cd39087610a57565b528051838101908111610ba657805b610cec5750505050565b838101818111610d4f57610d40610d39610d286001600160a01b0380610d128689610a57565b511690610d1f8789610a57565b5116908861142f565b90610d33868c610a57565b51611206565b9188610a57565b528015610d4f57830180610ce2565b60246000634e487b7160e01b81526011600452fd5b9291610d74600282511015610c1e565b610d7e8151610c6a565b91610d8883610a34565b5260005b81516000198101908111610ba657811015610e03576001600160a01b039081610db58285610a57565b5116916001820190818311610ba657610df5610de4600195610dfc93610ddb868a610a57565b5116908b61142f565b90610def868a610a57565b51610b19565b9186610a57565b5201610d8c565b50509150565b91610e1391611554565b6040929192519260208401906bffffffffffffffffffffffff199283809260601b16835260601b16603485015260288452606084019367ffffffffffffffff928186108487111761086f5760e092866040528251902090608083019560ff60f81b875260601b16608183015260958201527f22f6b26bba53a3bd65c0fbb30e74b1fd8dde4ec538815f9657cdaf27caf0628160b58201526055855201908382109082111761086f57604052905190206001600160a01b031690565b6040516323b872dd60e01b60208083019182526001600160a01b039485166024840152939094166044820152606480820195909552938452909267ffffffffffffffff929060a081018481118282101761086f57604052600092839283809351925af1913d15611017573d9081116110035760405190610f57601f8201601f191686018361084d565b81523d828583013e5b82610fc0575b505015610f705750565b6084906040519062461bcd60e51b825260048201526024808201527f5472616e7366657248656c7065723a205452414e534645525f46524f4d5f46416044820152631253115160e21b6064820152fd5b8051925082159190848315610fdc575b50505090503880610f66565b91938180945001031261047757820151908115158203611000575080388084610fd0565b80fd5b634e487b7160e01b82526041600452602482fd5b506060610f60565b9192917f0000000000000000000000000000000000000000000000000000000000000000919060005b82516000198101908111610ba6578110156111fe576001600160a01b03806110708386610a57565b51169060018301808411610ba657816110898288610a57565b511690826110a261109a8487611554565b509288610a57565b51911684036111f657600090915b87516001198101908111610ba65784908710156111ea575060028601808711610ba65784916110ef836110e66110f7948d610a57565b5116828d610e09565b965b8b610e09565b1692604093845160208082019367ffffffffffffffff948381108682111761086f57885260008352833b156108485797919290875198899363022c0d9f60e01b855260049788860152602498898601521660448401526080606484015283519081608485015260005b8281106111d3575050600080945083918260a49183838284010152601f801991011681010301925af180156111c8576111a1575b5050505050600101611048565b84116111b557505052600138808080611194565b604190634e487b7160e01b600052526000fd5b84513d6000823e3d90fd5b8086018201518b820160a401528a94508101611160565b906110f7908c966110f1565b6000916110b0565b505050509050565b90811561126b5761122c828261123193151580611262575b61122790610a9c565b6113de565b6113bf565b908203918211610ba65761124761124d92611364565b90610af9565b6001810190818111610ba6578110610b6a5790565b5085151561121e565b60405162461bcd60e51b815260206004820152602c60248201527f556e697377617056324c6962726172793a20494e53554646494349454e545f4f60448201526b155514155517d05353d5539560a21b6064820152608490fd5b80156112f25761093c926112e491831515806112e95761122790610a9c565b610af9565b5081151561121e565b60405162461bcd60e51b815260206004820152602560248201527f556e697377617056324c6962726172793a20494e53554646494349454e545f416044820152641353d5539560da1b6064820152608490fd5b9081602091031261084857516001600160a01b03811681036108485790565b906103e59182810292818404811482151715610ba65783040361138357565b60405162461bcd60e51b815260206004820152601460248201527364732d6d6174682d6d756c2d6f766572666c6f7760601b6044820152606490fd5b906103e89182810292818404811482151715610ba65783040361138357565b6000929180159182156113f5575b50501561138357565b80820294509150811582850482141715610ba6576114139084610af9565b1438806113ec565b51906001600160701b038216820361084857565b9061143a8382611554565b5060405163e6a4390560e01b81526001600160a01b03838116600483015294851660248201529093926020908290604490829087165afa908115611529578391606091600091611535575b50600460405180968193630240bc6b60e21b8352165afa9283156115295760009081946114d0575b5081906001600160701b03809116941694169116146000146114cc5791565b9091565b93506060843d606011611521575b816114eb6060938361084d565b81010312611000576114fc8461141b565b90604061150b6020870161141b565b95015163ffffffff8116036110005750816114ad565b3d91506114de565b6040513d6000823e3d90fd5b61154e915060203d60201161043f5761042f818361084d565b38611485565b90916001600160a01b03918284168382168082146115c85710156115c357925b9183161561157e57565b60405162461bcd60e51b815260206004820152601e60248201527f556e697377617056324c6962726172793a205a45524f5f4144445245535300006044820152606490fd5b611574565b60405162461bcd60e51b815260206004820152602560248201527f556e697377617056324c6962726172793a204944454e544943414c5f41444452604482015264455353455360d81b6064820152608490fdfea2646970667358221220f4f0f7b97601fe618170a54415af1ab094aaa45db199f69397186e2bddafa7bb64736f6c63430008180033",
  "linkReferences": {},
  "deployedLinkReferences": {}
}