{
  "_format": "hh-sol-artifact-1",
  "contractName": "ACTFUNMiner",
  "sourceName": "src/ACTFUNMiner.sol",
  "abi": [
    {
      "inputs": [
        {
          "internalType": "address",
          "name": "_tokenAddress",
          "type": "address"
        }
      ],
      "stateMutability": "nonpayable",
      "type": "constructor"
    },
    {
      "anonymous": false,
      "inputs": [
        {
          "indexed": true,
          "internalType": "address",
          "name": "user",
          "type": "address"
        },
        {
          "indexed": false,
          "internalType": "string",
          "name": "funnyPost",
          "type": "string"
        },
        {
          "indexed": false,
          "internalType": "uint256",
          "name": "amount",
          "type": "uint256"
        },
        {
          "indexed": false,
          "internalType": "uint256",
          "name": "timestamp",
          "type": "uint256"
        }
      ],
      "name": "ActedFun",
      "type": "event"
    },
    {
      "inputs": [],
      "name": "COOLDOWN_SECONDS",
      "outputs": [
        {
          "internalType": "uint256",
          "name": "",
          "type": "uint256"
        }
      ],
      "stateMutability": "view",
      "type": "function"
    },
    {
      "inputs": [],
      "name": "DAILY_MAX",
      "outputs": [
        {
          "internalType": "uint256",
          "name": "",
          "type": "uint256"
        }
      ],
      "stateMutability": "view",
      "type": "function"
    },
    {
      "inputs": [],
      "name": "DAILY_WINDOW",
      "outputs": [
        {
          "internalType": "uint256",
          "name": "",
          "type": "uint256"
        }
      ],
      "stateMutability": "view",
      "type": "function"
    },
    {
      "inputs": [],
      "name": "MINE_AMOUNT",
      "outputs": [
        {
          "internalType": "uint256",
          "name": "",
          "type": "uint256"
        }
      ],
      "stateMutability": "view",
      "type": "function"
    },
    {
      "inputs": [
        {
          "internalType": "string",
          "name": "funnyPost",
          "type": "string"
        }
      ],
      "name": "actFun",
      "outputs": [],
      "stateMutability": "nonpayable",
      "type": "function"
    },
    {
      "inputs": [
        {
          "internalType": "address",
          "name": "",
          "type": "address"
        }
      ],
      "name": "dailyMined",
      "outputs": [
        {
          "internalType": "uint256",
          "name": "",
          "type": "uint256"
        }
      ],
      "stateMutability": "view",
      "type": "function"
    },
    {
      "inputs": [
        {
          "internalType": "address",
          "name": "",
          "type": "address"
        }
      ],
      "name": "dailyWindowStart",
      "outputs": [
        {
          "internalType": "uint256",
          "name": "",
          "type": "uint256"
        }
      ],
      "stateMutability": "view",
      "type": "function"
    },
    {
      "inputs": [
        {
          "internalType": "address",
          "name": "user",
          "type": "address"
        }
      ],
      "name": "getRemainingDailyAllowance",
      "outputs": [
        {
          "internalType": "uint256",
          "name": "",
          "type": "uint256"
        }
      ],
      "stateMutability": "view",
      "type": "function"
    },
    {
      "inputs": [
        {
          "internalType": "address",
          "name": "user",
          "type": "address"
        }
      ],
      "name": "getTimeUntilNextMine",
      "outputs": [
        {
          "internalType": "uint256",
          "name": "",
          "type": "uint256"
        }
      ],
      "stateMutability": "view",
      "type": "function"
    },
    {
      "inputs": [
        {
          "internalType": "address",
          "name": "",
          "type": "address"
        }
      ],
      "name": "lastMineTime",
      "outputs": [
        {
          "internalType": "uint256",
          "name": "",
          "type": "uint256"
        }
      ],
      "stateMutability": "view",
      "type": "function"
    },
    {
      "inputs": [],
      "name": "token",
      "outputs": [
        {
          "internalType": "contract ACTFUN",
          "name": "",
          "type": "address"
        }
      ],
      "stateMutability": "view",
      "type": "function"
    }
  ],
  "bytecode": "0x60a03461007257601f61070d38819003918201601f19168301916001600160401b038311848410176100775780849260209460405283398101031261007257516001600160a01b038116908190036100725760805260405161067f908161008e823960805181818160b1015261019f0152f35b600080fd5b634e487b7160e01b600052604160045260246000fdfe608060408181526004918236101561001657600080fd5b600092833560e01c918263189ab24214610581575081631b583f90146105495781632198af6a1461052457816324a1e060146104ea57816372b49d63146104ce57816379627fa7146104aa57816381481b141461048c578163d83f5cec146103f8578163ee6b373b146103bf578163f484e7ab146100e4575063fc0c546a1461009e57600080fd5b346100e057816003193601126100e057517f00000000000000000000000000000000000000000000000000000000000000006001600160a01b03168152602090f35b5080fd5b8383346100e057602090816003193601126103bb5783359067ffffffffffffffff8083116103b757366023840112156103b75782860135938185116103b357602496368887870101116103af573387528682528387205460b4810180911161034d57421061035f57338752600282528387205462015180810180911161034d57421015610333575b338752600182528387205492683635c9adc5dea00000938481018091116103215769021e19e0c9bab2400000106102c3577f00000000000000000000000000000000000000000000000000000000000000006001600160a01b031690813b156102bf57888560448c838a5196879485936340c10f1960e01b8552338b8601528401525af180156102b557610290575b505033875286825242848820556001825283872080549184830180931161027e575097869798917fbf17f40327ab4320cdfaa84231ada95fb1ba0d2d336edd47510a8207786f9c1297925584519560608752826060880152016080860137866080878601015283015242908201526080813394601f80199101168101030190a280f35b634e487b7160e01b8952601190528888fd5b81989298116102a35784529588806101fb565b634e487b7160e01b8252604188528882fd5b86513d8b823e3d90fd5b8880fd5b5060348860849386519362461bcd60e51b85528401528201527f41435446554e4d696e65723a204461696c792031306b206c696d69742072656160448201527318da195908199bdc881d1a1a5cc81dd85b1b195d60621b6064820152fd5b634e487b7160e01b8952601183528989fd5b33875260028252428488205560018252868481205561016c565b634e487b7160e01b8852601182528888fd5b60278860849386519362461bcd60e51b85528401528201527f41435446554e4d696e65723a20332d6d696e75746520636f6f6c646f776e206e60448201526637ba1037bb32b960c91b6064820152fd5b8680fd5b8580fd5b8480fd5b8280fd5b9050346103bb5760203660031901126103bb57356001600160a01b038116908190036103bb578282916020945280845220549051908152f35b8284346104895760203660031901126104895782356001600160a01b038116908190036100e0578152806020528181205460b48101908181116104765742821161044a57505060209250905b51908152f35b42900360b4019190821161046357506020925090610444565b634e487b7160e01b815260118452602490fd5b634e487b7160e01b835260118552602483fd5b80fd5b5050346100e057816003193601126100e05760209051620151808152f35b5050346100e057816003193601126100e05760209051683635c9adc5dea000008152f35b5050346100e057816003193601126100e0576020905160b48152f35b9050346103bb5760203660031901126103bb57356001600160a01b038116908190036103bb57828291602094526001845220549051908152f35b5050346100e057816003193601126100e0576020905169021e19e0c9bab24000008152f35b9050346103bb5760203660031901126103bb5735916001600160a01b0383168303610489575061057a6020926105bc565b9051908152f35b929150346105b85760203660031901126105b857356001600160a01b038116908190036105b8579260209381526002845220548152f35b8380fd5b6001600160a01b031660008181526002602052604081205490919062015180810190811061063557421015610625578152600160205260408120549069021e19e0c9bab2400000918203918211610611575090565b634e487b7160e01b81526011600452602490fd5b505069021e19e0c9bab240000090565b634e487b7160e01b83526011600452602483fdfea26469706673582212205cb8c0f20d6ce7e640814fe1f01190bc6578f7d06fc8f71eca91195099129da764736f6c63430008180033",
  "linkReferences": {},
  "deployedLinkReferences": {}
}