{
  "_format": "hh-sol-artifact-1",
  "contractName": "ArcLend",
  "sourceName": "src/ArcLend.sol",
  "abi": [
    {
      "inputs": [
        {
          "internalType": "address",
          "name": "_usdc",
          "type": "address"
        }
      ],
      "stateMutability": "nonpayable",
      "type": "constructor"
    },
    {
      "inputs": [
        {
          "internalType": "address",
          "name": "owner",
          "type": "address"
        }
      ],
      "name": "OwnableInvalidOwner",
      "type": "error"
    },
    {
      "inputs": [
        {
          "internalType": "address",
          "name": "account",
          "type": "address"
        }
      ],
      "name": "OwnableUnauthorizedAccount",
      "type": "error"
    },
    {
      "inputs": [],
      "name": "ReentrancyGuardReentrantCall",
      "type": "error"
    },
    {
      "inputs": [
        {
          "internalType": "address",
          "name": "token",
          "type": "address"
        }
      ],
      "name": "SafeERC20FailedOperation",
      "type": "error"
    },
    {
      "anonymous": false,
      "inputs": [
        {
          "indexed": true,
          "internalType": "address",
          "name": "user",
          "type": "address"
        },
        {
          "indexed": false,
          "internalType": "uint256",
          "name": "amount",
          "type": "uint256"
        }
      ],
      "name": "Borrow",
      "type": "event"
    },
    {
      "anonymous": false,
      "inputs": [
        {
          "indexed": true,
          "internalType": "address",
          "name": "user",
          "type": "address"
        },
        {
          "indexed": false,
          "internalType": "uint256",
          "name": "nativeAmount",
          "type": "uint256"
        }
      ],
      "name": "CollateralDeposited",
      "type": "event"
    },
    {
      "anonymous": false,
      "inputs": [
        {
          "indexed": true,
          "internalType": "address",
          "name": "user",
          "type": "address"
        },
        {
          "indexed": false,
          "internalType": "uint256",
          "name": "nativeAmount",
          "type": "uint256"
        }
      ],
      "name": "CollateralWithdrawn",
      "type": "event"
    },
    {
      "anonymous": false,
      "inputs": [
        {
          "indexed": true,
          "internalType": "address",
          "name": "liquidator",
          "type": "address"
        },
        {
          "indexed": true,
          "internalType": "address",
          "name": "borrower",
          "type": "address"
        },
        {
          "indexed": false,
          "internalType": "uint256",
          "name": "debtRepaid",
          "type": "uint256"
        },
        {
          "indexed": false,
          "internalType": "uint256",
          "name": "collateralSeized",
          "type": "uint256"
        }
      ],
      "name": "Liquidated",
      "type": "event"
    },
    {
      "anonymous": false,
      "inputs": [
        {
          "indexed": true,
          "internalType": "address",
          "name": "previousOwner",
          "type": "address"
        },
        {
          "indexed": true,
          "internalType": "address",
          "name": "newOwner",
          "type": "address"
        }
      ],
      "name": "OwnershipTransferred",
      "type": "event"
    },
    {
      "anonymous": false,
      "inputs": [
        {
          "indexed": true,
          "internalType": "address",
          "name": "user",
          "type": "address"
        },
        {
          "indexed": false,
          "internalType": "uint256",
          "name": "amount",
          "type": "uint256"
        }
      ],
      "name": "Repay",
      "type": "event"
    },
    {
      "anonymous": false,
      "inputs": [
        {
          "indexed": true,
          "internalType": "address",
          "name": "to",
          "type": "address"
        },
        {
          "indexed": false,
          "internalType": "uint256",
          "name": "amount",
          "type": "uint256"
        }
      ],
      "name": "ReservesWithdrawn",
      "type": "event"
    },
    {
      "anonymous": false,
      "inputs": [
        {
          "indexed": true,
          "internalType": "address",
          "name": "user",
          "type": "address"
        },
        {
          "indexed": false,
          "internalType": "uint256",
          "name": "amount",
          "type": "uint256"
        }
      ],
      "name": "Supply",
      "type": "event"
    },
    {
      "anonymous": false,
      "inputs": [
        {
          "indexed": true,
          "internalType": "address",
          "name": "user",
          "type": "address"
        },
        {
          "indexed": false,
          "internalType": "uint256",
          "name": "amount",
          "type": "uint256"
        }
      ],
      "name": "Withdraw",
      "type": "event"
    },
    {
      "inputs": [],
      "name": "BASE_RATE",
      "outputs": [
        {
          "internalType": "uint256",
          "name": "",
          "type": "uint256"
        }
      ],
      "stateMutability": "view",
      "type": "function"
    },
    {
      "inputs": [],
      "name": "LIQ_BONUS",
      "outputs": [
        {
          "internalType": "uint256",
          "name": "",
          "type": "uint256"
        }
      ],
      "stateMutability": "view",
      "type": "function"
    },
    {
      "inputs": [],
      "name": "LIQ_THRESHOLD",
      "outputs": [
        {
          "internalType": "uint256",
          "name": "",
          "type": "uint256"
        }
      ],
      "stateMutability": "view",
      "type": "function"
    },
    {
      "inputs": [],
      "name": "LTV",
      "outputs": [
        {
          "internalType": "uint256",
          "name": "",
          "type": "uint256"
        }
      ],
      "stateMutability": "view",
      "type": "function"
    },
    {
      "inputs": [],
      "name": "OPTIMAL_UTIL",
      "outputs": [
        {
          "internalType": "uint256",
          "name": "",
          "type": "uint256"
        }
      ],
      "stateMutability": "view",
      "type": "function"
    },
    {
      "inputs": [],
      "name": "RESERVE_FACTOR",
      "outputs": [
        {
          "internalType": "uint256",
          "name": "",
          "type": "uint256"
        }
      ],
      "stateMutability": "view",
      "type": "function"
    },
    {
      "inputs": [],
      "name": "SLOPE1",
      "outputs": [
        {
          "internalType": "uint256",
          "name": "",
          "type": "uint256"
        }
      ],
      "stateMutability": "view",
      "type": "function"
    },
    {
      "inputs": [],
      "name": "SLOPE2",
      "outputs": [
        {
          "internalType": "uint256",
          "name": "",
          "type": "uint256"
        }
      ],
      "stateMutability": "view",
      "type": "function"
    },
    {
      "inputs": [],
      "name": "USDC",
      "outputs": [
        {
          "internalType": "contract IERC20",
          "name": "",
          "type": "address"
        }
      ],
      "stateMutability": "view",
      "type": "function"
    },
    {
      "inputs": [
        {
          "internalType": "address",
          "name": "",
          "type": "address"
        }
      ],
      "name": "accounts",
      "outputs": [
        {
          "internalType": "uint256",
          "name": "scaledSupply",
          "type": "uint256"
        },
        {
          "internalType": "uint256",
          "name": "scaledBorrow",
          "type": "uint256"
        },
        {
          "internalType": "uint256",
          "name": "collateralNative",
          "type": "uint256"
        }
      ],
      "stateMutability": "view",
      "type": "function"
    },
    {
      "inputs": [
        {
          "internalType": "uint256",
          "name": "amount",
          "type": "uint256"
        }
      ],
      "name": "borrow",
      "outputs": [],
      "stateMutability": "nonpayable",
      "type": "function"
    },
    {
      "inputs": [
        {
          "internalType": "address",
          "name": "user",
          "type": "address"
        }
      ],
      "name": "borrowBalance",
      "outputs": [
        {
          "internalType": "uint256",
          "name": "",
          "type": "uint256"
        }
      ],
      "stateMutability": "view",
      "type": "function"
    },
    {
      "inputs": [],
      "name": "borrowIndex",
      "outputs": [
        {
          "internalType": "uint256",
          "name": "",
          "type": "uint256"
        }
      ],
      "stateMutability": "view",
      "type": "function"
    },
    {
      "inputs": [
        {
          "internalType": "address",
          "name": "user",
          "type": "address"
        }
      ],
      "name": "collateralValue",
      "outputs": [
        {
          "internalType": "uint256",
          "name": "",
          "type": "uint256"
        }
      ],
      "stateMutability": "view",
      "type": "function"
    },
    {
      "inputs": [],
      "name": "currentBorrowIndex",
      "outputs": [
        {
          "internalType": "uint256",
          "name": "",
          "type": "uint256"
        }
      ],
      "stateMutability": "view",
      "type": "function"
    },
    {
      "inputs": [],
      "name": "currentLiquidityIndex",
      "outputs": [
        {
          "internalType": "uint256",
          "name": "",
          "type": "uint256"
        }
      ],
      "stateMutability": "view",
      "type": "function"
    },
    {
      "inputs": [],
      "name": "depositCollateral",
      "outputs": [],
      "stateMutability": "payable",
      "type": "function"
    },
    {
      "inputs": [
        {
          "internalType": "uint256",
          "name": "util",
          "type": "uint256"
        }
      ],
      "name": "getBorrowRate",
      "outputs": [
        {
          "internalType": "uint256",
          "name": "",
          "type": "uint256"
        }
      ],
      "stateMutability": "pure",
      "type": "function"
    },
    {
      "inputs": [],
      "name": "getProtocolStats",
      "outputs": [
        {
          "internalType": "uint256",
          "name": "_totalSupply",
          "type": "uint256"
        },
        {
          "internalType": "uint256",
          "name": "_totalBorrows",
          "type": "uint256"
        },
        {
          "internalType": "uint256",
          "name": "_utilization",
          "type": "uint256"
        },
        {
          "internalType": "uint256",
          "name": "_supplyAPY",
          "type": "uint256"
        },
        {
          "internalType": "uint256",
          "name": "_borrowAPY",
          "type": "uint256"
        },
        {
          "internalType": "uint256",
          "name": "_liquidityIndex",
          "type": "uint256"
        },
        {
          "internalType": "uint256",
          "name": "_borrowIndex",
          "type": "uint256"
        },
        {
          "internalType": "uint256",
          "name": "_reserveBalance",
          "type": "uint256"
        }
      ],
      "stateMutability": "view",
      "type": "function"
    },
    {
      "inputs": [
        {
          "internalType": "uint256",
          "name": "util",
          "type": "uint256"
        },
        {
          "internalType": "uint256",
          "name": "bRate",
          "type": "uint256"
        }
      ],
      "name": "getSupplyRate",
      "outputs": [
        {
          "internalType": "uint256",
          "name": "",
          "type": "uint256"
        }
      ],
      "stateMutability": "pure",
      "type": "function"
    },
    {
      "inputs": [
        {
          "internalType": "address",
          "name": "user",
          "type": "address"
        }
      ],
      "name": "getUserStats",
      "outputs": [
        {
          "internalType": "uint256",
          "name": "_supplyBalance",
          "type": "uint256"
        },
        {
          "internalType": "uint256",
          "name": "_borrowBalance",
          "type": "uint256"
        },
        {
          "internalType": "uint256",
          "name": "_collateralNative",
          "type": "uint256"
        },
        {
          "internalType": "uint256",
          "name": "_collateralValue",
          "type": "uint256"
        },
        {
          "internalType": "uint256",
          "name": "_healthFactor",
          "type": "uint256"
        },
        {
          "internalType": "uint256",
          "name": "_availableToBorrow",
          "type": "uint256"
        }
      ],
      "stateMutability": "view",
      "type": "function"
    },
    {
      "inputs": [
        {
          "internalType": "address",
          "name": "user",
          "type": "address"
        }
      ],
      "name": "healthFactor",
      "outputs": [
        {
          "internalType": "uint256",
          "name": "",
          "type": "uint256"
        }
      ],
      "stateMutability": "view",
      "type": "function"
    },
    {
      "inputs": [],
      "name": "lastUpdateTimestamp",
      "outputs": [
        {
          "internalType": "uint256",
          "name": "",
          "type": "uint256"
        }
      ],
      "stateMutability": "view",
      "type": "function"
    },
    {
      "inputs": [
        {
          "internalType": "address",
          "name": "borrower",
          "type": "address"
        }
      ],
      "name": "liquidate",
      "outputs": [],
      "stateMutability": "nonpayable",
      "type": "function"
    },
    {
      "inputs": [],
      "name": "liquidityIndex",
      "outputs": [
        {
          "internalType": "uint256",
          "name": "",
          "type": "uint256"
        }
      ],
      "stateMutability": "view",
      "type": "function"
    },
    {
      "inputs": [],
      "name": "owner",
      "outputs": [
        {
          "internalType": "address",
          "name": "",
          "type": "address"
        }
      ],
      "stateMutability": "view",
      "type": "function"
    },
    {
      "inputs": [],
      "name": "renounceOwnership",
      "outputs": [],
      "stateMutability": "nonpayable",
      "type": "function"
    },
    {
      "inputs": [
        {
          "internalType": "uint256",
          "name": "amount",
          "type": "uint256"
        }
      ],
      "name": "repay",
      "outputs": [],
      "stateMutability": "nonpayable",
      "type": "function"
    },
    {
      "inputs": [],
      "name": "reserveBalance",
      "outputs": [
        {
          "internalType": "uint256",
          "name": "",
          "type": "uint256"
        }
      ],
      "stateMutability": "view",
      "type": "function"
    },
    {
      "inputs": [
        {
          "internalType": "uint256",
          "name": "amount",
          "type": "uint256"
        }
      ],
      "name": "supply",
      "outputs": [],
      "stateMutability": "nonpayable",
      "type": "function"
    },
    {
      "inputs": [
        {
          "internalType": "address",
          "name": "user",
          "type": "address"
        }
      ],
      "name": "supplyBalance",
      "outputs": [
        {
          "internalType": "uint256",
          "name": "",
          "type": "uint256"
        }
      ],
      "stateMutability": "view",
      "type": "function"
    },
    {
      "inputs": [],
      "name": "totalScaledBorrow",
      "outputs": [
        {
          "internalType": "uint256",
          "name": "",
          "type": "uint256"
        }
      ],
      "stateMutability": "view",
      "type": "function"
    },
    {
      "inputs": [],
      "name": "totalScaledSupply",
      "outputs": [
        {
          "internalType": "uint256",
          "name": "",
          "type": "uint256"
        }
      ],
      "stateMutability": "view",
      "type": "function"
    },
    {
      "inputs": [
        {
          "internalType": "address",
          "name": "newOwner",
          "type": "address"
        }
      ],
      "name": "transferOwnership",
      "outputs": [],
      "stateMutability": "nonpayable",
      "type": "function"
    },
    {
      "inputs": [],
      "name": "utilizationRate",
      "outputs": [
        {
          "internalType": "uint256",
          "name": "",
          "type": "uint256"
        }
      ],
      "stateMutability": "view",
      "type": "function"
    },
    {
      "inputs": [
        {
          "internalType": "uint256",
          "name": "amount",
          "type": "uint256"
        }
      ],
      "name": "withdraw",
      "outputs": [],
      "stateMutability": "nonpayable",
      "type": "function"
    },
    {
      "inputs": [
        {
          "internalType": "uint256",
          "name": "nativeAmount",
          "type": "uint256"
        }
      ],
      "name": "withdrawCollateral",
      "outputs": [],
      "stateMutability": "nonpayable",
      "type": "function"
    },
    {
      "inputs": [
        {
          "internalType": "address",
          "name": "to",
          "type": "address"
        },
        {
          "internalType": "uint256",
          "name": "amount",
          "type": "uint256"
        }
      ],
      "name": "withdrawReserves",
      "outputs": [],
      "stateMutability": "nonpayable",
      "type": "function"
    },
    {
      "stateMutability": "payable",
      "type": "receive"
    }
  ],
  "bytecode": "0x60a03461012e57601f611d6b38819003918201601f19168301916001600160401b038311848410176101335780849260209460405283398101031261012e57516001600160a01b03908181169081900361012e573315610115576000543360018060a01b0319821617600055604051923391167f8be0079c531659141344cd1fd0a4f28419497f9722a3daafe3b4186f6b6457e0600080a360017f9b779b17422d0df92223018b32b4d1fa46e071723d6817e2486d003becc55f00556080526b033b2e3c9fd0803ce80000008060035560045542600555611c21908161014a823960805181818161031a015281816104380152818161066b01528181610df701528181610f55015281816110b501526113770152f35b604051631e4fbdf760e01b815260006004820152602490fd5b600080fd5b634e487b7160e01b600052604160045260246000fdfe6080604081815260049182361015610022575b505050361561002057600080fd5b005b600092833560e01c91826314bcec9f14611500575081631830913c146114e15781632a11a8a0146114a55781632e1a7d4d146112bc5781632f865568146110075781633540302314610f19578163371fd8e614610da257816341910f9014610d7c5781634d73e9ba14610d565781634e43603a14610c6a5781634fb801d714610c4d57816354a6735214610c265781635e5c06e214610bd85781636112fe2e146109c657816362965d8e1461069a57816364922ff0146109a95781636ad9f9df146109835781636c321c8a146109665781636f4d8ada146109405781636f758140146108885781636f8b453014610869578163715018a61461080f57816371f38941146107e957816372d9a1b4146107c35781637544aa441461077c578163771aceef1461069f57816387f015861461069a57816389a30271146106565781638da5cb5b1461062e5781639fa83b5a14610604578163a10954fe146105e5578163aa5af0fd146105c7578163bbf44f33146105a8578163c5ebeaec14610393578163e478795d146102ad578163ea32605b14610287578163f2fde38b146101fc575063f93c6695146101d45780610012565b346101f857816003193601126101f857602090516a422ca8b0a00a42500000008152f35b5080fd5b9050346102835760203660031901126102835761021761151c565b90610220611b9f565b6001600160a01b0391821692831561026d57505082546001600160a01b0319811683178455167f8be0079c531659141344cd1fd0a4f28419497f9722a3daafe3b4186f6b6457e08380a380f35b51631e4fbdf760e01b8152908101849052602490fd5b8280fd5b5050346101f857816003193601126101f857602090516a52b7d2dcc80cd2e40000008152f35b919050346102835780600319360112610283576102c861151c565b90602435926102d5611b9f565b60065490818511610350575091602091610310857fc08dc172be702645aed16b77bdd6b526b8be4dab30d20b4caf5285fd59712fe9956115c8565b60065561033e85837f0000000000000000000000000000000000000000000000000000000000000000611ab1565b519384526001600160a01b031692a280f35b606490602084519162461bcd60e51b8352820152601960248201527f4172634c656e643a2065786365656473207265736572766573000000000000006044820152fd5b8383346101f857602080600319360112610283578335916103b2611990565b82156103be81156116a6565b6103c66119c0565b3360009081526007602052604090206002015464e8d4a5100090046b0295be96e6406697200000009081810291818304149015171561051e57676765c793fa10079d601b1b8091046104208661041b336116e9565b611659565b1161056e5782516370a0823160e01b815230888201527f0000000000000000000000000000000000000000000000000000000000000000929085816024816001600160a01b0388165afa908115610564578891610531575b5061048961049191600654906115c8565b87111561160d565b8186029186830414171561051e5793610502916104f86104d67fcbc04eca7e9da35cb1393a6135a199ca52e450d5e9251cbd99f7847d33a367509784999a54906115a8565b338a52600787526001868b20016104ee828254611659565b9055600254611659565b6002553390611ab1565b519283523392a26001600080516020611bcc8339815191525580f35b634e487b7160e01b865260118752602486fd5b90508581813d831161055d575b61054881836115d5565b810103126105595751610489610478565b8780fd5b503d61053e565b85513d8a823e3d90fd5b825162461bcd60e51b8152808801859052601460248201527320b931a632b7321d1032bc31b2b2b23990262a2b60611b6044820152606490fd5b5050346101f857816003193601126101f8576020906003549051908152f35b90503461028357826003193601126102835760209250549051908152f35b5050346101f857816003193601126101f8576020906006549051908152f35b82843461062b57602036600319011261062b5750610624602092356118d4565b9051908152f35b80fd5b5050346101f857816003193601126101f857905490516001600160a01b039091168152602090f35b5050346101f857816003193601126101f857517f00000000000000000000000000000000000000000000000000000000000000006001600160a01b03168152602090f35b611537565b82843461062b578060031936011261062b576106b961177f565b6106c1611723565b90676765c793fa10079d601b1b806106db83600154611595565b0494816106ea85600254611595565b0494866107435761010097505b610700816118d4565b926107158161070f8487611595565b0461155e565b049160065496815198895260208901528701526060860152608085015260a084015260c083015260e0820152f35b828602908682048414871517156107695750610100975086610764916115a8565b6106f7565b634e487b7160e01b815260118952602490fd5b5050346101f85760203660031901126101f85760209061062461079d61151c565b6001600160a01b031660009081526007602052604090206002015464e8d4a51000900490565b5050346101f85760203660031901126101f8576020906106246107e461151c565b6118a7565b5050346101f857816003193601126101f857602090516a295be96e640669720000008152f35b833461062b578060031936011261062b57610828611b9f565b80546001600160a01b03198116825581906001600160a01b03167f8be0079c531659141344cd1fd0a4f28419497f9722a3daafe3b4186f6b6457e08280a380f35b5050346101f857816003193601126101f8576020906001549051908152f35b9050826003193601126102835761089d611990565b34156108fe575033825260076020526002818320016108bd348254611659565b9055513481527fd7243f6f8212d5188fd054141cf6ea89cfc0d91facb8c3afe2f88a135848014260203392a26001600080516020611bcc8339815191525580f35b6020606492519162461bcd60e51b8352820152601860248201527f4172634c656e643a207a65726f20636f6c6c61746572616c00000000000000006044820152fd5b5050346101f857816003193601126101f85760209051676765c793fa10079d601b1b8152f35b5050346101f857816003193601126101f857602090610624611851565b5050346101f85760203660031901126101f8576020906106246109a461151c565b6117eb565b5050346101f857816003193601126101f85760209061062461177f565b919050346102835760209081600319360112610bd4578235926109e7611990565b6109f28415156116a6565b33855260078352836002838720015410610b9457610a0f336116e9565b80158015610acb575b505033855260078352600282862001610a328582546115c8565b90558480808087335af1610a44611666565b5015610a8a5750907fc30fcfbcaac9e0deffa719714eaa82396ff506a0d0d0eebe170830177288715d91519283523392a26001600080516020611bcc8339815191525580f35b82606492519162461bcd60e51b8352820152601860248201527f4172634c656e643a207472616e73666572206661696c656400000000000000006044820152fd5b3387526007855264e8d4a51000610ae8876002878b2001546115c8565b04906b02bf1a8054a46d009200000091828102928184041490151715610b8157676765c793fa10079d601b1b808402938404141715610b6e5710610b2d573880610a18565b82606492519162461bcd60e51b8352820152601e60248201527f4172634c656e643a20484620776f756c642064726f702062656c6f77203100006044820152fd5b634e487b7160e01b875260118352602487fd5b634e487b7160e01b885260118452602488fd5b8280606493519262461bcd60e51b845283015260248201527f4172634c656e643a20696e73756666696369656e7420636f6c6c61746572616c6044820152fd5b8380fd5b5050346101f85760203660031901126101f85760609181906001600160a01b03610c0061151c565b168152600760205220805491600260018301549201549181519384526020840152820152f35b5050346101f857816003193601126101f857602090516b02bf1a8054a46d00920000008152f35b5050346101f857816003193601126101f857602090610624611723565b8383346101f85760203660031901126101f857610c8561151c565b91610c8f836118a7565b92610c99816116e9565b6001600160a01b038216808452600760205284842060029081015460009283526040909220015491949091610cd69064e8d4a510009004936117eb565b936b0295be96e640669720000000808502908582041485151715610d435760c09850676765c793fa10079d601b1b879104818111600014610d3b57610d1b92506115c8565b945b815196875260208701528501526060840152608083015260a0820152f35b505094610d1d565b634e487b7160e01b825260118952602482fd5b5050346101f85760203660031901126101f857602090610624610d7761151c565b6116e9565b5050346101f857816003193601126101f857602090516a108b2a2c280290940000008152f35b9190503461028357602036600319011261028357813591610dc1611990565b82610dca6119c0565b610dd3336116e9565b908115610ed6578110610ece575b50821590610def82156116a6565b610e1b8430337f0000000000000000000000000000000000000000000000000000000000000000611b32565b676765c793fa10079d601b1b9182850292858404141715610ebb57610e7191610e459154906115a8565b33855260076020526001838620018054808311610eb3575b82610e67916115c8565b90556002546115c8565b600255519081527f5c16de4f8b59bd9caf0f49a545f25819a895ed223294290b408242e72a59423160203392a26001600080516020611bcc8339815191525580f35b915081610e5d565b634e487b7160e01b855260119052602484fd5b925038610de1565b835162461bcd60e51b8152602081850152601960248201527f4172634c656e643a206e6f206465627420746f207265706179000000000000006044820152606490fd5b9190503461028357602036600319011261028357813591610f38611990565b821590610f4582156116a6565b610f4d6119c0565b610f798430337f0000000000000000000000000000000000000000000000000000000000000000611b32565b676765c793fa10079d601b1b9182850292858404141715610ebb5750610fa5610fc591600354906115a8565b3385526007602052828520610fbb828254611659565b9055600154611659565b600155519081527fadacf827efe383160192c092d8658471945c074229a9746679b5e2b74adff19160203392a26001600080516020611bcc8339815191525580f35b919050346102835760209081600319360112610bd45761102561151c565b9261102e611990565b6110366119c0565b61103f846116e9565b928315611289576001600160a01b03851660009081526007602052604090206002015464e8d4a510009004936b02bf1a8054a46d009200000094858102958187041490151715610b6e57676765c793fa10079d601b1b948582029082820487036112355710156112485760011c936110d98530337f0000000000000000000000000000000000000000000000000000000000000000611b32565b84158582028681048314821715611235576110f9611127918654906115a8565b6001600160a01b03909816808a5260078552868a206001018054919991808311610eb35782610e67916115c8565b60025564e8d4a510009081870291878304141715610b8157700315eea4e7b6870f01642a67a0000000008602908082046b03648a260e3486a65a0000001490151715610b8157049185875260078252600284882001805480851161122d575b84611190916115c8565b90558680808086335af16111a2611666565b50156111ec5750825193845283015233917f1f0c6615429d1cdae0dfa233abf91d3b31cdbdd82c8081389832a61e1072f1ea9190a36001600080516020611bcc8339815191525580f35b60649184519162461bcd60e51b8352820152601f60248201527f4172634c656e643a20636f6c6c61746572616c2073656e64206661696c6564006044820152fd5b935083611186565b634e487b7160e01b895260118552602489fd5b50606492519162461bcd60e51b8352820152601c60248201527f4172634c656e643a20706f736974696f6e206973206865616c746879000000006044820152fd5b606492519162461bcd60e51b8352820152601060248201526f105c98d3195b990e881b9bc81919589d60821b6044820152fd5b9190503461028357602080600319360112610bd4578235916112dc611990565b826112e56119c0565b338652600783528186205460035491829161130d676765c793fa10079d601b1b938492611595565b0480911161149d575b50841561145a5780850290858204036114475761135e91611336916115a8565b33875260078452828720805480831161143f575b82611354916115c8565b90556001546115c8565b60015580516370a0823160e01b815230948101949094527f000000000000000000000000000000000000000000000000000000000000000082856024816001600160a01b0385165afa801561143557849587916113fc575b5093610502916113f56113ed7f884edad9ce6fa2440d8a54cc123490eb96d2768479d49ff9c7366125a942436497600654906115c8565b83111561160d565b3390611ab1565b809550848092503d831161142e575b61141581836115d5565b8101031261142a5792518493906105026113b6565b8580fd5b503d61140b565b82513d88823e3d90fd5b91508161134a565b634e487b7160e01b875260118652602487fd5b825162461bcd60e51b8152808701859052601c60248201527f4172634c656e643a206e6f7468696e6720746f207769746864726177000000006044820152606490fd5b945038611316565b82843461062b578160031936011261062b575061070f6114d9602093676765c793fa10079d601b1b92839135602435611595565b049051908152f35b5050346101f857816003193601126101f8576020906002549051908152f35b8490346101f857816003193601126101f8576020906005548152f35b600435906001600160a01b038216820361153257565b600080fd5b346115325760003660031901126115325760206040516b0295be96e6406697200000008152f35b906b02e87669c308736a040000009182810292818404149015171561157f57565b634e487b7160e01b600052601160045260246000fd5b8181029291811591840414171561157f57565b81156115b2570490565b634e487b7160e01b600052601260045260246000fd5b9190820391821161157f57565b90601f8019910116810190811067ffffffffffffffff8211176115f757604052565b634e487b7160e01b600052604160045260246000fd5b1561161457565b60405162461bcd60e51b815260206004820152601f60248201527f4172634c656e643a20696e73756666696369656e74206c6971756964697479006044820152606490fd5b9190820180921161157f57565b3d156116a1573d9067ffffffffffffffff82116115f75760405191611695601f8201601f1916602001846115d5565b82523d6000602084013e565b606090565b156116ad57565b60405162461bcd60e51b8152602060048201526014602482015273105c98d3195b990e881e995c9bc8185b5bdd5b9d60621b6044820152606490fd5b60018060a01b03166000526007602052676765c793fa10079d601b1b61171f600160406000200154611719611723565b90611595565b0490565b61172f600554426115c8565b8015611778576301e1338061175761174d611748611851565b6118d4565b9260045493611595565b0490676765c793fa10079d601b1b91820180831161157f5761171f91611595565b5060045490565b61178b600554426115c8565b80156117e45761070f906301e133806117d16117a5611851565b6117c6676765c793fa10079d601b1b8096836117c183956118d4565b611595565b049260035493611595565b04820180831161157f5761171f91611595565b5060035490565b6117f4816116e9565b908115611849576001600160a01b031660009081526007602052604090206002015464e8d4a510009004906b02bf1a8054a46d00920000009182810292818404149015171561157f57611846916115a8565b90565b505060001990565b61186f600154676765c793fa10079d601b1b91829160035490611595565b0480156118a0578161188660025460045490611595565b0482810292818404149015171561157f57611846916115a8565b5050600090565b60018060a01b03166000526007602052676765c793fa10079d601b1b61171f60406000205461171961177f565b6b0295be96e6406697200000008082111561195957506b0295be96e64066971fffffff19810190811161157f57676765c793fa10079d601b1b908181029080820483149015171561157f576aa56fa5b99019a5c80000009004908082029180830482149015171561157f576a52b7d2dcc80cd2e40000009104810180911161157f5790565b6a422ca8b0a00a42500000009182810292818404149015171561157f576a108b2a2c280290940000009104810180911161157f5790565b600080516020611bcc83398151915260028154146119ae5760029055565b604051633ee5aeb560e01b8152600490fd5b6119cc600554426115c8565b8015611aae576119da611851565b9061070f6119e7836118d4565b92611a01676765c793fa10079d601b1b8093819387611595565b048260045494611a176301e13380928392611595565b04830180841161157f5783611a2f611a3a9288611595565b049460035493611595565b04820180831161157f57611a528391611a7493611595565b0493611a6f83611a6483600254611595565b0461171983876115c8565b6115a8565b906a52b7d2dcc80cd2e40000009182810292818404149015171561157f57611a9f9104600654611659565b60065560045560035542600555565b50565b60405163a9059cbb60e01b60009081526001600160a01b039384166004526024949094529260209060448180855af1600160005114811615611b12575b8360405215611afc57505050565b635274afe760e01b835216600482015260249150fd5b6001811516611b2857813b15153d151616611aee565b833d6000823e3d90fd5b6040516323b872dd60e01b60009081526001600160a01b03938416600452938316602452604494909452909160209060648180855af1600160005114811615611b89575b83604052600060605215611afc57505050565b6001811516611b2857813b15153d151616611b76565b6000546001600160a01b03163303611bb357565b60405163118cdaa760e01b8152336004820152602490fdfe9b779b17422d0df92223018b32b4d1fa46e071723d6817e2486d003becc55f00a264697066735822122005f188d443787fbc1d400654eb402f66f7c072b6afb17f453ffe406cc304e87564736f6c63430008180033",
  "linkReferences": {},
  "deployedLinkReferences": {}
}