{
  "_format": "hh-sol-artifact-1",
  "contractName": "StableSwapPool",
  "sourceName": "src/StableSwapPool.sol",
  "abi": [
    {
      "anonymous": false,
      "inputs": [
        {
          "indexed": true,
          "internalType": "address",
          "name": "owner",
          "type": "address"
        },
        {
          "indexed": true,
          "internalType": "address",
          "name": "spender",
          "type": "address"
        },
        {
          "indexed": false,
          "internalType": "uint256",
          "name": "value",
          "type": "uint256"
        }
      ],
      "name": "Approval",
      "type": "event"
    },
    {
      "anonymous": false,
      "inputs": [
        {
          "indexed": true,
          "internalType": "address",
          "name": "sender",
          "type": "address"
        },
        {
          "indexed": false,
          "internalType": "uint256",
          "name": "amount0",
          "type": "uint256"
        },
        {
          "indexed": false,
          "internalType": "uint256",
          "name": "amount1",
          "type": "uint256"
        },
        {
          "indexed": false,
          "internalType": "uint256",
          "name": "liquidity",
          "type": "uint256"
        }
      ],
      "name": "Burn",
      "type": "event"
    },
    {
      "anonymous": false,
      "inputs": [
        {
          "indexed": true,
          "internalType": "address",
          "name": "sender",
          "type": "address"
        },
        {
          "indexed": false,
          "internalType": "uint256",
          "name": "amount0",
          "type": "uint256"
        },
        {
          "indexed": false,
          "internalType": "uint256",
          "name": "amount1",
          "type": "uint256"
        },
        {
          "indexed": false,
          "internalType": "uint256",
          "name": "liquidity",
          "type": "uint256"
        }
      ],
      "name": "Mint",
      "type": "event"
    },
    {
      "anonymous": false,
      "inputs": [
        {
          "indexed": true,
          "internalType": "address",
          "name": "sender",
          "type": "address"
        },
        {
          "indexed": false,
          "internalType": "uint256",
          "name": "amountIn",
          "type": "uint256"
        },
        {
          "indexed": false,
          "internalType": "uint256",
          "name": "amountOut",
          "type": "uint256"
        },
        {
          "indexed": false,
          "internalType": "bool",
          "name": "zeroForOne",
          "type": "bool"
        }
      ],
      "name": "Swap",
      "type": "event"
    },
    {
      "anonymous": false,
      "inputs": [
        {
          "indexed": true,
          "internalType": "address",
          "name": "from",
          "type": "address"
        },
        {
          "indexed": true,
          "internalType": "address",
          "name": "to",
          "type": "address"
        },
        {
          "indexed": false,
          "internalType": "uint256",
          "name": "value",
          "type": "uint256"
        }
      ],
      "name": "Transfer",
      "type": "event"
    },
    {
      "inputs": [],
      "name": "A",
      "outputs": [
        {
          "internalType": "uint256",
          "name": "",
          "type": "uint256"
        }
      ],
      "stateMutability": "view",
      "type": "function"
    },
    {
      "inputs": [],
      "name": "FEE",
      "outputs": [
        {
          "internalType": "uint256",
          "name": "",
          "type": "uint256"
        }
      ],
      "stateMutability": "view",
      "type": "function"
    },
    {
      "inputs": [],
      "name": "FEE_DENOMINATOR",
      "outputs": [
        {
          "internalType": "uint256",
          "name": "",
          "type": "uint256"
        }
      ],
      "stateMutability": "view",
      "type": "function"
    },
    {
      "inputs": [],
      "name": "PRECISION",
      "outputs": [
        {
          "internalType": "uint256",
          "name": "",
          "type": "uint256"
        }
      ],
      "stateMutability": "view",
      "type": "function"
    },
    {
      "inputs": [
        {
          "internalType": "uint256",
          "name": "amount0",
          "type": "uint256"
        },
        {
          "internalType": "uint256",
          "name": "amount1",
          "type": "uint256"
        },
        {
          "internalType": "address",
          "name": "to",
          "type": "address"
        }
      ],
      "name": "addLiquidity",
      "outputs": [
        {
          "internalType": "uint256",
          "name": "liquidity",
          "type": "uint256"
        }
      ],
      "stateMutability": "nonpayable",
      "type": "function"
    },
    {
      "inputs": [
        {
          "internalType": "address",
          "name": "",
          "type": "address"
        },
        {
          "internalType": "address",
          "name": "",
          "type": "address"
        }
      ],
      "name": "allowance",
      "outputs": [
        {
          "internalType": "uint256",
          "name": "",
          "type": "uint256"
        }
      ],
      "stateMutability": "view",
      "type": "function"
    },
    {
      "inputs": [
        {
          "internalType": "address",
          "name": "spender",
          "type": "address"
        },
        {
          "internalType": "uint256",
          "name": "value",
          "type": "uint256"
        }
      ],
      "name": "approve",
      "outputs": [
        {
          "internalType": "bool",
          "name": "",
          "type": "bool"
        }
      ],
      "stateMutability": "nonpayable",
      "type": "function"
    },
    {
      "inputs": [
        {
          "internalType": "address",
          "name": "",
          "type": "address"
        }
      ],
      "name": "balanceOf",
      "outputs": [
        {
          "internalType": "uint256",
          "name": "",
          "type": "uint256"
        }
      ],
      "stateMutability": "view",
      "type": "function"
    },
    {
      "inputs": [
        {
          "internalType": "uint256",
          "name": "amountIn",
          "type": "uint256"
        },
        {
          "internalType": "bool",
          "name": "zeroForOne",
          "type": "bool"
        }
      ],
      "name": "getAmountOut",
      "outputs": [
        {
          "internalType": "uint256",
          "name": "",
          "type": "uint256"
        }
      ],
      "stateMutability": "view",
      "type": "function"
    },
    {
      "inputs": [
        {
          "internalType": "address",
          "name": "_token0",
          "type": "address"
        },
        {
          "internalType": "address",
          "name": "_token1",
          "type": "address"
        }
      ],
      "name": "initialize",
      "outputs": [],
      "stateMutability": "nonpayable",
      "type": "function"
    },
    {
      "inputs": [
        {
          "internalType": "uint256",
          "name": "liquidity",
          "type": "uint256"
        },
        {
          "internalType": "address",
          "name": "to",
          "type": "address"
        }
      ],
      "name": "removeLiquidity",
      "outputs": [
        {
          "internalType": "uint256",
          "name": "amount0",
          "type": "uint256"
        },
        {
          "internalType": "uint256",
          "name": "amount1",
          "type": "uint256"
        }
      ],
      "stateMutability": "nonpayable",
      "type": "function"
    },
    {
      "inputs": [],
      "name": "reserve0",
      "outputs": [
        {
          "internalType": "uint256",
          "name": "",
          "type": "uint256"
        }
      ],
      "stateMutability": "view",
      "type": "function"
    },
    {
      "inputs": [],
      "name": "reserve1",
      "outputs": [
        {
          "internalType": "uint256",
          "name": "",
          "type": "uint256"
        }
      ],
      "stateMutability": "view",
      "type": "function"
    },
    {
      "inputs": [
        {
          "internalType": "uint256",
          "name": "amountIn",
          "type": "uint256"
        },
        {
          "internalType": "bool",
          "name": "zeroForOne",
          "type": "bool"
        },
        {
          "internalType": "address",
          "name": "to",
          "type": "address"
        }
      ],
      "name": "swap",
      "outputs": [
        {
          "internalType": "uint256",
          "name": "amountOut",
          "type": "uint256"
        }
      ],
      "stateMutability": "nonpayable",
      "type": "function"
    },
    {
      "inputs": [],
      "name": "token0",
      "outputs": [
        {
          "internalType": "address",
          "name": "",
          "type": "address"
        }
      ],
      "stateMutability": "view",
      "type": "function"
    },
    {
      "inputs": [],
      "name": "token1",
      "outputs": [
        {
          "internalType": "address",
          "name": "",
          "type": "address"
        }
      ],
      "stateMutability": "view",
      "type": "function"
    },
    {
      "inputs": [],
      "name": "totalSupply",
      "outputs": [
        {
          "internalType": "uint256",
          "name": "",
          "type": "uint256"
        }
      ],
      "stateMutability": "view",
      "type": "function"
    },
    {
      "inputs": [
        {
          "internalType": "address",
          "name": "to",
          "type": "address"
        },
        {
          "internalType": "uint256",
          "name": "value",
          "type": "uint256"
        }
      ],
      "name": "transfer",
      "outputs": [
        {
          "internalType": "bool",
          "name": "",
          "type": "bool"
        }
      ],
      "stateMutability": "nonpayable",
      "type": "function"
    },
    {
      "inputs": [
        {
          "internalType": "address",
          "name": "from",
          "type": "address"
        },
        {
          "internalType": "address",
          "name": "to",
          "type": "address"
        },
        {
          "internalType": "uint256",
          "name": "value",
          "type": "uint256"
        }
      ],
      "name": "transferFrom",
      "outputs": [
        {
          "internalType": "bool",
          "name": "",
          "type": "bool"
        }
      ],
      "stateMutability": "nonpayable",
      "type": "function"
    }
  ],
  "bytecode": "0x608080604052346100165761107b908161001c8239f35b600080fdfe6040608081526004908136101561001557600080fd5b600091823560e01c90816305fe138b14610a37578163095ea7b3146109c65781630dfe16811461099e57816311106ee21461096c57816318160ddd1461094e57816323b872dd146108ce578163443cb4bc146108af578163485cc955146107fe5781634af0871b146104de5781635a76f25e146104bf57816370a082311461048757816387b21efc14610213578163a9059cbb146101e2578163aaf5eb68146101bf578163c57981b51461019e57508063d21220a714610176578063d73792a91461015a578063dd62ed3e146101125763f446c1d0146100f457600080fd5b3461010e578160031936011261010e576020905160558152f35b5080fd5b503461010e578060031936011261010e578060209261012f610c57565b610137610c3c565b6001600160a01b0391821683526006865283832091168252845220549051908152f35b503461010e578160031936011261010e57602090516127108152f35b503461010e578160031936011261010e5760015490516001600160a01b039091168152602090f35b919050346101bb57826003193601126101bb576020925051908152f35b8280fd5b50503461010e578160031936011261010e5760209051670de0b6b3a76400008152f35b50503461010e578060031936011261010e5760209061020c610202610c57565b6024359033610fd7565b5160018152f35b919050346101bb5760603660031901126101bb57813560243592610235610c6d565b938215158061047e575b1561045057855484516323b872dd60e01b808252338583019081523060208083019190915260408201889052986001600160a01b03949093918a9183918290036060019082908e9089165af1801561044657610429575b5060015487519182523386830190815230602082015260408101869052899183918290036060019082908d9088165af1801561041f57917fb4c03061fb5b7fed76389d5af8f2e0ddb09f8c70d1333abbb62582835e10accb95949391610343999a936103f2575b50845494856103a1576103108589610ec3565b998a80975b610320821515610c92565b61032c8b600254610d72565b60025561033b88600354610d72565b600355610d72565b905516908181526005895286812061035c858254610d72565b90557fddf252ad1be2c89b69c2b068fc378daa952ba7f163c4a11628f55a4df523b3ef898851868152a38451938452602084015260408301523391606090a251908152f35b6103e9886103e4886103df6002546103da6003546103d48d6103ce6103c68487610ec3565b998a96610d72565b92610d72565b90610ec3565b610d15565b610ccc565b610cf5565b998a8097610315565b610411908b3d8d11610418575b6104098183610d22565b810190610d5a565b50386102fd565b503d6103ff565b87513d8b823e3d90fd5b61043f90893d8b11610418576104098183610d22565b5038610296565b88513d8c823e3d90fd5b835162461bcd60e51b815260208184015260086024820152670616d6f756e743d360c41b6044820152606490fd5b5080151561023f565b50503461010e57602036600319011261010e5760209181906001600160a01b036104af610c57565b1681526005845220549051908152f35b50503461010e578160031936011261010e576020906003549051908152f35b919050346101bb5760603660031901126101bb5781356104fc610c83565b610504610c6d565b9382156107ce576001600160a01b0390858216156107a5576105268385610d7f565b9586156107745787841561067a57805487516323b872dd60e01b81523385820190815230602082810191909152604082018a905296928791839185169082908790829060600103925af1801561067057926105d995928795928c95610653575b506105938a600254610d72565b6002556105a285600354610d15565b60035560015416928a519687958694859363a9059cbb60e01b8552840160209093929193604081019460018060a01b031681520152565b03925af18015610649576020975061062b575b50505b825191825283858301521515828201527fcc65e4d9060ece2ecf63011ac580550b04c8daeba63fac4dfe8669353cd8885960603392a251908152f35b8161064192903d10610418576104098183610d22565b5038806105ec565b85513d89823e3d90fd5b61066990873d8911610418576104098183610d22565b5038610586565b89513d85823e3d90fd5b60015487516323b872dd60e01b81523385820190815230602082810191909152604082018a905296928791839185169082908790829060600103925af18015610670579261071f95928795928c95610757575b506106da8a600354610d72565b6003556106e985600254610d15565b600255815416928a519687958694859363a9059cbb60e01b8552840160209093929193604081019460018060a01b031681520152565b03925af180156106495760209750610739575b50506105ef565b8161074f92903d10610418576104098183610d22565b503880610732565b61076d90873d8911610418576104098183610d22565b50386106cd565b855162461bcd60e51b8152602081840152600b60248201526a0616d6f756e744f75743d360ac1b6044820152606490fd5b60649085519062461bcd60e51b82526020818301526024820152630746f3d360e41b6044820152fd5b606490602085519162461bcd60e51b8352820152600a6024820152690616d6f756e74496e3d360b41b6044820152fd5b8391503461010e578260031936011261010e57610819610c57565b610821610c3c565b83546001600160a01b03939192909184831615806108a3575b1561086a5750839495506bffffffffffffffffffffffff60a01b9485911691161784551690600154161760015580f35b606490602088519162461bcd60e51b83528201526013602482015272105b1c9958591e481a5b9a5d1a585b1a5e9959606a1b6044820152fd5b5084600154161561083a565b50503461010e578160031936011261010e576020906002549051908152f35b50503461010e57606036600319011261010e5761020c6020926108ef610c57565b6108f7610c3c565b90846044359360018060a01b038316808252600689528282203383528952600019838320540361092a575b505050610fd7565b815260068852818120338252885220610944848254610d15565b9055843880610922565b9050346101bb57826003193601126101bb5760209250549051908152f35b82843461099b578160031936011261099b575061099460209261098d610c83565b9035610d7f565b9051908152f35b80fd5b50503461010e578160031936011261010e57905490516001600160a01b039091168152602090f35b50503461010e578060031936011261010e57602091816109e4610c57565b91602435918291338152600687528181209460018060a01b0316948582528752205582519081527f8c5be1e5ebec7d5bd14f71427d1e84f3dd0314c0f7b2291e5b200ac8c7c3b925843392a35160018152f35b8391503461010e578260031936011261010e57803590610a55610c3c565b91610a61811515610c92565b60025493610a96610a8060035496610a798882610ec3565b5084610ccc565b6103e4610a8f86548093610cf5565b9785610ccc565b933382528560209460058652888420610ab0868254610d15565b9055610abd858254610d15565b81558389518681527fddf252ad1be2c89b69c2b068fc378daa952ba7f163c4a11628f55a4df523b3ef883392a3610af682600254610d15565b600255610b0587600354610d15565b6003558354895163a9059cbb60e01b8082526001600160a01b038681168584019081526020810196909652909490928991839185169082908a90829060400103925af18015610c325795889492819694928b98610c15575b506001548d519485526001600160a01b0390951692840192835260208301979097529195869316918391829060400103925af1908115610c0a5750610bed575b507f743033787f4738ff4d6a7225ce2bd0977ee5f86b91a902a58f5e4d0b297b4644855180610be033948789846040919493926060820195825260208201520152565b0390a28351928352820152f35b610c0390833d8511610418576104098183610d22565b5085610b9d565b8751903d90823e3d90fd5b610c2b90873d8911610418576104098183610d22565b508d610b5d565b8b513d88823e3d90fd5b602435906001600160a01b0382168203610c5257565b600080fd5b600435906001600160a01b0382168203610c5257565b604435906001600160a01b0382168203610c5257565b602435908115158203610c5257565b15610c9957565b60405162461bcd60e51b815260206004820152600b60248201526a06c69717569646974793d360ac1b6044820152606490fd5b81810292918115918404141715610cdf57565b634e487b7160e01b600052601160045260246000fd5b8115610cff570490565b634e487b7160e01b600052601260045260246000fd5b91908203918211610cdf57565b90601f8019910116810190811067ffffffffffffffff821117610d4457604052565b634e487b7160e01b600052604160045260246000fd5b90816020910312610c5257518015158103610c525790565b91908201809211610cdf57565b91908015610eba57600254905b15610eae57610da3600354935b6103ce8584610ec3565b92610dae8280610ccc565b936001948160011b82810460021483151715610cdf57610dd7856103df60aa93610de395610cf5565b049160aa850490610d72565b908360005b60ff8110610e30575b50505050610e00929350610d15565b6000198101908111610cdf578060021b9080820460041481151715610cdf57612710610e2d920490610d15565b90565b85610e4484610e3f8380610ccc565b610d72565b906001600160ff1b0381168103610cdf578991610e6a856103da89610e7095871b610d72565b90610cf5565b968781811115610e985790610e8491610d15565b1115610e935787905b01610de8565b610df1565b610ea191610d15565b1115610e93578790610e8d565b610da360025493610d99565b60035490610d8c565b610ecd8282610d72565b908115610fcf57819260008360aa029360aa85041415905b60ff8110610ef6575b505050505090565b85610f018180610ccc565b60019160029187841b881589820485141715610cdf576103df8391610f2593610cf5565b9186841b92878404821488151715610cdf578693610f4291610cf5565b92610cdf5782841b908382041483151715610cdf57816103df610f65928b610d72565b9060a99080820291820403610cdf5760039280840293840403610cdf57610f8f92610e6a91610d72565b968781811115610fb85790610fa391610d15565b1115610fb3576001905b01610ee5565b610eee565b610fc191610d15565b1115610fb357600190610fad565b505050600090565b60207fddf252ad1be2c89b69c2b068fc378daa952ba7f163c4a11628f55a4df523b3ef9160018060a01b03809116938460005260058352604060002061101e878254610d15565b905516938460005260058252604060002061103a828254610d72565b9055604051908152a356fea26469706673582212208584bc6da23e2128f08132d7488b3566a4f6ea076889a72410ba2f87c080633564736f6c63430008180033",
  "linkReferences": {},
  "deployedLinkReferences": {}
}