{
  "_format": "hh-sol-artifact-1",
  "contractName": "LaunchToken",
  "sourceName": "src/LaunchToken.sol",
  "abi": [
    {
      "inputs": [
        {
          "internalType": "string",
          "name": "name",
          "type": "string"
        },
        {
          "internalType": "string",
          "name": "symbol",
          "type": "string"
        },
        {
          "internalType": "uint256",
          "name": "_maxSupply",
          "type": "uint256"
        },
        {
          "internalType": "string",
          "name": "_imageUri",
          "type": "string"
        }
      ],
      "stateMutability": "nonpayable",
      "type": "constructor"
    },
    {
      "inputs": [
        {
          "internalType": "address",
          "name": "spender",
          "type": "address"
        },
        {
          "internalType": "uint256",
          "name": "allowance",
          "type": "uint256"
        },
        {
          "internalType": "uint256",
          "name": "needed",
          "type": "uint256"
        }
      ],
      "name": "ERC20InsufficientAllowance",
      "type": "error"
    },
    {
      "inputs": [
        {
          "internalType": "address",
          "name": "sender",
          "type": "address"
        },
        {
          "internalType": "uint256",
          "name": "balance",
          "type": "uint256"
        },
        {
          "internalType": "uint256",
          "name": "needed",
          "type": "uint256"
        }
      ],
      "name": "ERC20InsufficientBalance",
      "type": "error"
    },
    {
      "inputs": [
        {
          "internalType": "address",
          "name": "approver",
          "type": "address"
        }
      ],
      "name": "ERC20InvalidApprover",
      "type": "error"
    },
    {
      "inputs": [
        {
          "internalType": "address",
          "name": "receiver",
          "type": "address"
        }
      ],
      "name": "ERC20InvalidReceiver",
      "type": "error"
    },
    {
      "inputs": [
        {
          "internalType": "address",
          "name": "sender",
          "type": "address"
        }
      ],
      "name": "ERC20InvalidSender",
      "type": "error"
    },
    {
      "inputs": [
        {
          "internalType": "address",
          "name": "spender",
          "type": "address"
        }
      ],
      "name": "ERC20InvalidSpender",
      "type": "error"
    },
    {
      "inputs": [
        {
          "internalType": "address",
          "name": "owner",
          "type": "address"
        }
      ],
      "name": "OwnableInvalidOwner",
      "type": "error"
    },
    {
      "inputs": [
        {
          "internalType": "address",
          "name": "account",
          "type": "address"
        }
      ],
      "name": "OwnableUnauthorizedAccount",
      "type": "error"
    },
    {
      "anonymous": false,
      "inputs": [
        {
          "indexed": true,
          "internalType": "address",
          "name": "owner",
          "type": "address"
        },
        {
          "indexed": true,
          "internalType": "address",
          "name": "spender",
          "type": "address"
        },
        {
          "indexed": false,
          "internalType": "uint256",
          "name": "value",
          "type": "uint256"
        }
      ],
      "name": "Approval",
      "type": "event"
    },
    {
      "anonymous": false,
      "inputs": [
        {
          "indexed": true,
          "internalType": "address",
          "name": "previousOwner",
          "type": "address"
        },
        {
          "indexed": true,
          "internalType": "address",
          "name": "newOwner",
          "type": "address"
        }
      ],
      "name": "OwnershipTransferred",
      "type": "event"
    },
    {
      "anonymous": false,
      "inputs": [
        {
          "indexed": true,
          "internalType": "address",
          "name": "from",
          "type": "address"
        },
        {
          "indexed": true,
          "internalType": "address",
          "name": "to",
          "type": "address"
        },
        {
          "indexed": false,
          "internalType": "uint256",
          "name": "value",
          "type": "uint256"
        }
      ],
      "name": "Transfer",
      "type": "event"
    },
    {
      "inputs": [
        {
          "internalType": "address",
          "name": "owner",
          "type": "address"
        },
        {
          "internalType": "address",
          "name": "spender",
          "type": "address"
        }
      ],
      "name": "allowance",
      "outputs": [
        {
          "internalType": "uint256",
          "name": "",
          "type": "uint256"
        }
      ],
      "stateMutability": "view",
      "type": "function"
    },
    {
      "inputs": [
        {
          "internalType": "address",
          "name": "spender",
          "type": "address"
        },
        {
          "internalType": "uint256",
          "name": "value",
          "type": "uint256"
        }
      ],
      "name": "approve",
      "outputs": [
        {
          "internalType": "bool",
          "name": "",
          "type": "bool"
        }
      ],
      "stateMutability": "nonpayable",
      "type": "function"
    },
    {
      "inputs": [
        {
          "internalType": "address",
          "name": "account",
          "type": "address"
        }
      ],
      "name": "balanceOf",
      "outputs": [
        {
          "internalType": "uint256",
          "name": "",
          "type": "uint256"
        }
      ],
      "stateMutability": "view",
      "type": "function"
    },
    {
      "inputs": [
        {
          "internalType": "address",
          "name": "from",
          "type": "address"
        },
        {
          "internalType": "uint256",
          "name": "amount",
          "type": "uint256"
        }
      ],
      "name": "burn",
      "outputs": [],
      "stateMutability": "nonpayable",
      "type": "function"
    },
    {
      "inputs": [],
      "name": "decimals",
      "outputs": [
        {
          "internalType": "uint8",
          "name": "",
          "type": "uint8"
        }
      ],
      "stateMutability": "view",
      "type": "function"
    },
    {
      "inputs": [],
      "name": "imageUri",
      "outputs": [
        {
          "internalType": "string",
          "name": "",
          "type": "string"
        }
      ],
      "stateMutability": "view",
      "type": "function"
    },
    {
      "inputs": [],
      "name": "maxSupply",
      "outputs": [
        {
          "internalType": "uint256",
          "name": "",
          "type": "uint256"
        }
      ],
      "stateMutability": "view",
      "type": "function"
    },
    {
      "inputs": [
        {
          "internalType": "address",
          "name": "to",
          "type": "address"
        },
        {
          "internalType": "uint256",
          "name": "amount",
          "type": "uint256"
        }
      ],
      "name": "mint",
      "outputs": [],
      "stateMutability": "nonpayable",
      "type": "function"
    },
    {
      "inputs": [],
      "name": "name",
      "outputs": [
        {
          "internalType": "string",
          "name": "",
          "type": "string"
        }
      ],
      "stateMutability": "view",
      "type": "function"
    },
    {
      "inputs": [],
      "name": "owner",
      "outputs": [
        {
          "internalType": "address",
          "name": "",
          "type": "address"
        }
      ],
      "stateMutability": "view",
      "type": "function"
    },
    {
      "inputs": [],
      "name": "renounceOwnership",
      "outputs": [],
      "stateMutability": "nonpayable",
      "type": "function"
    },
    {
      "inputs": [],
      "name": "symbol",
      "outputs": [
        {
          "internalType": "string",
          "name": "",
          "type": "string"
        }
      ],
      "stateMutability": "view",
      "type": "function"
    },
    {
      "inputs": [],
      "name": "totalSupply",
      "outputs": [
        {
          "internalType": "uint256",
          "name": "",
          "type": "uint256"
        }
      ],
      "stateMutability": "view",
      "type": "function"
    },
    {
      "inputs": [
        {
          "internalType": "address",
          "name": "to",
          "type": "address"
        },
        {
          "internalType": "uint256",
          "name": "value",
          "type": "uint256"
        }
      ],
      "name": "transfer",
      "outputs": [
        {
          "internalType": "bool",
          "name": "",
          "type": "bool"
        }
      ],
      "stateMutability": "nonpayable",
      "type": "function"
    },
    {
      "inputs": [
        {
          "internalType": "address",
          "name": "from",
          "type": "address"
        },
        {
          "internalType": "address",
          "name": "to",
          "type": "address"
        },
        {
          "internalType": "uint256",
          "name": "value",
          "type": "uint256"
        }
      ],
      "name": "transferFrom",
      "outputs": [
        {
          "internalType": "bool",
          "name": "",
          "type": "bool"
        }
      ],
      "stateMutability": "nonpayable",
      "type": "function"
    },
    {
      "inputs": [
        {
          "internalType": "address",
          "name": "newOwner",
          "type": "address"
        }
      ],
      "name": "transferOwnership",
      "outputs": [],
      "stateMutability": "nonpayable",
      "type": "function"
    }
  ],
  "bytecode": "0x60a060405234620005125762001124803803806200001d8162000517565b9283398101608082820312620005125781516001600160401b0391908281116200051257816200004f9185016200053d565b926020808201518481116200051257836200006c9184016200053d565b91604081015193606082015186811162000512576200008c92016200053d565b9085519285841162000412576003948554946001988987811c9716801562000507575b85881014620004f1578190601f978881116200049b575b508590888311600114620004345760009262000428575b505060001982891b1c191690891b1786555b8151878111620004125760049283548a81811c9116801562000407575b86821014620003f2579081888493116200039c575b508590888311600114620003355760009262000329575b505060001982891b1c191690891b1782555b3315620003115760058054336001600160a01b0319821681179092556001600160a01b03167f8be0079c531659141344cd1fd0a4f28419497f9722a3daafe3b4186f6b6457e0600080a36080528251958611620002fc57600654908782811c92168015620002f1575b83831014620002dc575083811162000290575b508092851160011462000220575093839491849260009562000214575b50501b92600019911b1c1916176006555b604051610b749081620005b082396080518181816101ca01526105130152f35b015193503880620001e3565b92919084601f198116600660005285600020956000905b898383106200027557505050106200025a575b50505050811b01600655620001f4565b01519060f884600019921b161c19169055388080806200024a565b85870151895590970196948501948893509081019062000237565b6006600052816000208480880160051c820192848910620002d2575b0160051c019087905b828110620002c5575050620001c6565b60008155018790620002b5565b92508192620002ac565b602290634e487b7160e01b6000525260246000fd5b91607f1691620001b3565b604190634e487b7160e01b6000525260246000fd5b604051631e4fbdf760e01b8152600081840152602490fd5b01519050388062000138565b908b9350601f1983169186600052876000209260005b898282106200038557505084116200036c575b505050811b0182556200014a565b0151600019838b1b60f8161c191690553880806200035e565b8385015186558f979095019493840193016200034b565b90915084600052856000208880850160051c820192888610620003e8575b918d91869594930160051c01915b828110620003d857505062000121565b600081558594508d9101620003c8565b92508192620003ba565b602285634e487b7160e01b6000525260246000fd5b90607f16906200010c565b634e487b7160e01b600052604160045260246000fd5b015190503880620000dd565b908b9350601f198316918a600052876000209260005b898282106200048457505084116200046b575b505050811b018655620000ef565b0151600019838b1b60f8161c191690553880806200045d565b8385015186558f979095019493840193016200044a565b90915088600052856000208880850160051c820192888610620004e7575b918d91869594930160051c01915b828110620004d7575050620000c6565b600081558594508d9101620004c7565b92508192620004b9565b634e487b7160e01b600052602260045260246000fd5b96607f1696620000af565b600080fd5b6040519190601f01601f191682016001600160401b038111838210176200041257604052565b919080601f84011215620005125782516001600160401b038111620004125760209062000573601f8201601f1916830162000517565b92818452828287010111620005125760005b8181106200059b57508260009394955001015290565b85810183015184820184015282016200058556fe6080604081815260048036101561001557600080fd5b600092833560e01c90816306fdde03146108a057508063095ea7b3146107f75780630bf82da41461071a57806318160ddd146106fb57806323b872dd14610608578063313ce567146105ec57806340c10f19146104dc57806370a08231146104a5578063715018a6146104455780638da5cb5b1461041c57806395d89b41146102fa5780639dc29fac1461021e578063a9059cbb146101ed578063d5abeb01146101b2578063dd62ed3e146101655763f2fde38b146100d357600080fd5b34610161576020366003190112610161576100ec6109e0565b906100f5610b12565b6001600160a01b0391821692831561014b575050600554826bffffffffffffffffffffffff60a01b821617600555167f8be0079c531659141344cd1fd0a4f28419497f9722a3daafe3b4186f6b6457e08380a380f35b51631e4fbdf760e01b8152908101849052602490fd5b8280fd5b5050346101ae57806003193601126101ae57806020926101836109e0565b61018b6109fb565b6001600160a01b0391821683526001865283832091168252845220549051908152f35b5080fd5b5050346101ae57816003193601126101ae57602090517f00000000000000000000000000000000000000000000000000000000000000008152f35b5050346101ae57806003193601126101ae5760209061021761020d6109e0565b6024359033610a34565b5160018152f35b508290346101ae57826003193601126101ae576102396109e0565b9060243590610246610b12565b6001600160a01b0383169283156102e3578385528460205285852054918383106102af5750508184957fddf252ad1be2c89b69c2b068fc378daa952ba7f163c4a11628f55a4df523b3ef936020938688528785520381872055816002540360025551908152a380f35b865163391434e360e21b81526001600160a01b03909216908201908152602081018390526040810184905281906060010390fd5b8551634b637e8f60e11b8152808301869052602490fd5b509190346101ae57816003193601126101ae5780519082845460018160011c9060018316928315610412575b60209384841081146103ff578388529081156103e3575060011461038e575b505050829003601f01601f191682019267ffffffffffffffff84118385101761037b5750829182610377925282610997565b0390f35b634e487b7160e01b815260418552602490fd5b8787529192508591837f8a35acfbc15ff81a39ae7d344fd709f28e8600b4aa8c65c6b64bfe7fe36bd19b5b8385106103cf5750505050830101388080610345565b8054888601830152930192849082016103b9565b60ff1916878501525050151560051b8401019050388080610345565b634e487b7160e01b895260228a52602489fd5b91607f1691610326565b5050346101ae57816003193601126101ae5760055490516001600160a01b039091168152602090f35b83346104a257806003193601126104a25761045e610b12565b600580546001600160a01b0319811690915581906001600160a01b03167f8be0079c531659141344cd1fd0a4f28419497f9722a3daafe3b4186f6b6457e08280a380f35b80fd5b5050346101ae5760203660031901126101ae5760209181906001600160a01b036104cd6109e0565b16815280845220549051908152f35b5090346101615780600319360112610161576104f66109e0565b9060243591610503610b12565b600254906105118483610a11565b7f0000000000000000000000000000000000000000000000000000000000000000106105a9576001600160a01b03169384156105925750827fddf252ad1be2c89b69c2b068fc378daa952ba7f163c4a11628f55a4df523b3ef926105788795602094610a11565b60025585855284835280852082815401905551908152a380f35b825163ec442f0560e01b8152908101869052602490fd5b825162461bcd60e51b8152602081870152601f60248201527f4c61756e6368546f6b656e3a206d617820737570706c792072656163686564006044820152606490fd5b5050346101ae57816003193601126101ae576020905160128152f35b5082346104a25760603660031901126104a2576106236109e0565b61062b6109fb565b916044359360018060a01b038316808352600160205286832033845260205286832054916000198310610667575b602088610217898989610a34565b8683106106cf5781156106b85733156106a15750825260016020908152868320338452815291869020908590039055829061021787610659565b8751634a1406b160e11b8152908101849052602490fd5b875163e602df0560e01b8152908101849052602490fd5b8751637dc7a0d960e11b8152339181019182526020820193909352604081018790528291506060010390fd5b5050346101ae57816003193601126101ae576020906002549051908152f35b509190346101ae57816003193601126101ae578051908260065460018160011c90600183169283156107ed575b60209384841081146103ff578388529081156103e3575060011461079757505050829003601f01601f191682019267ffffffffffffffff84118385101761037b5750829182610377925282610997565b600687529192508591837ff652222313e28459528d920b65115c16c04f3efc82aaedc97be59f3f377c0d3f5b8385106107d95750505050830101388080610345565b8054888601830152930192849082016107c3565b91607f1691610747565b50346101615781600319360112610161576108106109e0565b602435903315610889576001600160a01b031691821561087257508083602095338152600187528181208582528752205582519081527f8c5be1e5ebec7d5bd14f71427d1e84f3dd0314c0f7b2291e5b200ac8c7c3b925843392a35160018152f35b8351634a1406b160e11b8152908101859052602490fd5b835163e602df0560e01b8152808401869052602490fd5b84915083346101615782600319360112610161578260035460018160011c906001831692831561098d575b60209384841081146103ff57838852908115610971575060011461091b57505050829003601f01601f191682019267ffffffffffffffff84118385101761037b5750829182610377925282610997565b600387529192508591837fc2575a0e9e593c00f959f8c92f12db2869c3395a3b0502d05e2516446f71f85b5b83851061095d5750505050830101858080610345565b805488860183015293019284908201610947565b60ff1916878501525050151560051b8401019050858080610345565b91607f16916108cb565b6020808252825181830181905290939260005b8281106109cc57505060409293506000838284010152601f8019910116010190565b8181018601518482016040015285016109aa565b600435906001600160a01b03821682036109f657565b600080fd5b602435906001600160a01b03821682036109f657565b91908201809211610a1e57565b634e487b7160e01b600052601160045260246000fd5b916001600160a01b03808416928315610af95716928315610ae05760009083825281602052604082205490838210610aae575091604082827fddf252ad1be2c89b69c2b068fc378daa952ba7f163c4a11628f55a4df523b3ef958760209652828652038282205586815220818154019055604051908152a3565b60405163391434e360e21b81526001600160a01b03919091166004820152602481019190915260448101839052606490fd5b60405163ec442f0560e01b815260006004820152602490fd5b604051634b637e8f60e11b815260006004820152602490fd5b6005546001600160a01b03163303610b2657565b60405163118cdaa760e01b8152336004820152602490fdfea2646970667358221220d7c215bb86bc1db55ecf6b8efc32f212a5f1daf2e07e1befcf6807d7f5c14ae764736f6c63430008180033",
  "linkReferences": {},
  "deployedLinkReferences": {}
}