{"src/PredictionFactory.sol":{"PredictionFactory":{"abi":[{"inputs":[{"internalType":"address","name":"_usdc","type":"address"}],"stateMutability":"nonpayable","type":"constructor"},{"anonymous":false,"inputs":[{"indexed":true,"internalType":"address","name":"market","type":"address"},{"indexed":false,"internalType":"string","name":"question","type":"string"},{"indexed":false,"internalType":"string","name":"category","type":"string"},{"indexed":false,"internalType":"uint256","name":"expiry","type":"uint256"}],"name":"MarketCreated","type":"event"},{"anonymous":false,"inputs":[{"indexed":true,"internalType":"address","name":"previous","type":"address"},{"indexed":true,"internalType":"address","name":"next","type":"address"}],"name":"OwnershipTransferred","type":"event"},{"inputs":[{"internalType":"string","name":"question","type":"string"},{"internalType":"string","name":"category","type":"string"},{"internalType":"uint256","name":"expiry","type":"uint256"}],"name":"createMarket","outputs":[{"internalType":"address","name":"","type":"address"}],"stateMutability":"nonpayable","type":"function"},{"inputs":[{"internalType":"uint256","name":"index","type":"uint256"}],"name":"getMarket","outputs":[{"internalType":"address","name":"","type":"address"}],"stateMutability":"view","type":"function"},{"inputs":[],"name":"getMarketCount","outputs":[{"internalType":"uint256","name":"","type":"uint256"}],"stateMutability":"view","type":"function"},{"inputs":[],"name":"getMarkets","outputs":[{"internalType":"address[]","name":"","type":"address[]"}],"stateMutability":"view","type":"function"},{"inputs":[],"name":"owner","outputs":[{"internalType":"address","name":"","type":"address"}],"stateMutability":"view","type":"function"},{"inputs":[{"internalType":"address","name":"market","type":"address"},{"internalType":"uint8","name":"outcome","type":"uint8"}],"name":"resolveMarket","outputs":[],"stateMutability":"nonpayable","type":"function"},{"inputs":[{"internalType":"address","name":"newOwner","type":"address"}],"name":"transferOwnership","outputs":[],"stateMutability":"nonpayable","type":"function"},{"inputs":[],"name":"usdc","outputs":[{"internalType":"address","name":"","type":"address"}],"stateMutability":"view","type":"function"}],"evm":{"bytecode":{"linkReferences":{},"object":"60a03461008357601f611b8638819003918201601f19168301916001600160401b038311848410176100885780849260209460405283398101031261008357516001600160a01b038116810361008357608052600080546001600160a01b03191633179055604051611ae7908161009f823960805181818161014801526105ad0152f35b600080fd5b634e487b7160e01b600052604160045260246000fdfe60806040818152600491823610156200001757600080fd5b600092833560e01c9182633e413bee1462000597575081638da5cb5b146200056d57838263ccb2518414620004b157508163eb44fdd31462000474578163ec2c9016146200037a578163f2fde38b14620002c8578163f98b778314620000ab575063fd69f3c2146200008857600080fd5b34620000a75781600319360112620000a7576020906001549051908152f35b5080fd5b838334620000a7576060366003190112620000a75767ffffffffffffffff8335818111620002c457620000e29036908601620005f8565b9091602435818111620002c057620000fe9036908801620005f8565b8654604435936001600160a01b03918216906200011d33831462000629565b428611156200027d578851916113e0808401928311848410176200026a5790839291620006d28439847f0000000000000000000000000000000000000000000000000000000000000000168252602082015260a08a8201528660806200019d6200018d8c8c60a0870191620006b0565b8481036060860152888a620006b0565b920152039089f08015620002605781169760015490680100000000000000008210156200024d5760208a8a817fe5877f22e107940cc17bc2f639d9e7522121960e893ca1e2ed8ff07eb03caba88c8c8c6200023f8d8d8d620002068e6001810160015562000662565b819291549060031b918b831b921b1916179055620002318951968796606088526060880191620006b0565b918583038c870152620006b0565b90868301520390a251908152f35b634e487b7160e01b815260418b52602490fd5b87513d8a823e3d90fd5b634e487b7160e01b8c5260418d5260248cfd5b885162461bcd60e51b81526020818d0152601c60248201527f457870697279206d75737420626520696e2074686520667574757265000000006044820152606490fd5b8580fd5b8380fd5b905034620003765760203660031901126200037657620002e7620005dc565b8354916001600160a01b03808416926200030333851462000629565b169384156200034457505082907f8be0079c531659141344cd1fd0a4f28419497f9722a3daafe3b4186f6b6457e08580a36001600160a01b03191617815580f35b906020606492519162461bcd60e51b8352820152600c60248201526b5a65726f206164647265737360a01b6044820152fd5b8280fd5b919050346200037657826003193601126200037657805180600194600154938483526020808094018096600185527fb10e2d527612073b26eecdfd717e6a320cf44b4afac2b0732d9fcbe2b7fa0cf6908a865b828110620004555750505050859003601f01601f1916850196905067ffffffffffffffff87118588101762000440575092869284878096528186019282875251809352850195925b828110620004235785870386f35b83516001600160a01b031687529581019592810192840162000415565b604190634e487b7160e01b6000525260246000fd5b83546001600160a01b03168552889590940193928101928101620003cd565b828434620004ae576020366003190112620004ae5750620004986020923562000662565b905491519160018060a01b039160031b1c168152f35b80fd5b929150346200056957816003193601126200056957620004d0620005dc565b6024359060ff8216809203620005655784546001600160a01b039190620004fb908316331462000629565b16803b1562000565576024859285519687938492632809c36f60e21b8452878401525af180156200055b576200052f578380f35b67ffffffffffffffff8311620005485750523880808380f35b634e487b7160e01b845260419052602483fd5b82513d86823e3d90fd5b8480fd5b5050fd5b505034620000a75781600319360112620000a757905490516001600160a01b039091168152602090f35b849034620000a75781600319360112620000a7577f00000000000000000000000000000000000000000000000000000000000000006001600160a01b03168152602090f35b600435906001600160a01b0382168203620005f357565b600080fd5b9181601f84011215620005f35782359167ffffffffffffffff8311620005f35760208381860195010111620005f357565b156200063157565b60405162461bcd60e51b81526020600482015260096024820152682737ba1037bbb732b960b91b6044820152606490fd5b6001548110156200069a5760016000527fb10e2d527612073b26eecdfd717e6a320cf44b4afac2b0732d9fcbe2b7fa0cf60190600090565b634e487b7160e01b600052603260045260246000fd5b908060209392818452848401376000828201840152601f01601f191601019056fe60c060405234620003b257620013e0803803806200001d81620003b7565b928339810160a082820312620003b2576200003882620003dd565b60209262000048848201620003dd565b604082015190936001600160401b03929091838111620003b2578262000070918301620003f2565b916060820151848111620003b2576080916200008e918401620003f2565b91015194600194857f9b779b17422d0df92223018b32b4d1fa46e071723d6817e2486d003becc55f005560018060a01b031660805260a05281518381116200039c576000908154938685811c9516801562000391575b898610146200037d578190601f958681116200032a575b508990868311600114620002c6578492620002ba575b5050600019600383901b1c191690861b1781555b8151938411620002a65784548581811c911680156200029b575b8882101462000287578381116200023f575b5086928411600114620001d957839495965092620001cd575b5050600019600383901b1c191690821b1790555b600255604051610f7b90816200046582396080518181816102f50152818161040d01528181610858015281816109d701528181610ad90152610bf4015260a0518181816105f40152610c770152f35b0151905038806200016a565b9190601f1984169685845280842093905b8882106200022757505083859697106200020d575b505050811b0190556200017e565b015160001960f88460031b161c19169055388080620001ff565b808785968294968601518155019501930190620001ea565b8582528782208480870160051c8201928a88106200027d575b0160051c019086905b8281106200027157505062000151565b83815501869062000261565b9250819262000258565b634e487b7160e01b82526022600452602482fd5b90607f16906200013f565b634e487b7160e01b81526041600452602490fd5b01519050388062000111565b8480528a85208994509190601f198416865b8d828210620003135750508411620002f9575b505050811b01815562000125565b015160001960f88460031b161c19169055388080620002eb565b8385015186558c97909501949384019301620002d8565b9091508380528984208680850160051c8201928c861062000373575b918a91869594930160051c01915b82811062000364575050620000fb565b8681558594508a910162000354565b9250819262000346565b634e487b7160e01b83526022600452602483fd5b94607f1694620000e4565b634e487b7160e01b600052604160045260246000fd5b600080fd5b6040519190601f01601f191682016001600160401b038111838210176200039c57604052565b51906001600160a01b0382168203620003b257565b919080601f84011215620003b25782516001600160401b0381116200039c5760209062000428601f8201601f19168301620003b7565b92818452828287010111620003b25760005b8181106200045057508260009394955001015290565b85810183015184820184015282016200043a56fe60806040908082526004918236101561001757600080fd5b600091823560e01c90816304f3bcec14610c6357508063061dd98d14610b905780630ffa9bed14610b5657806311f957fd14610a2757806327793f8714610a065780633e413bee146109c35780633f6fa6551461099d5780633fad9ae0146108c457806358c36e5c146107f25780635b883917146107b85780635f81a57c146107915780636f1d4ea41461077357806383a30f2a146107505780639731aa2e14610735578063a0270dbc146105d0578063a3b5afb1146105b2578063b401faf114610383578063c545ab5414610244578063e184c9be146102265763ef430aa61461010157600080fd5b346102225781600319360112610222578051908260018054908160011c9060018316928315610218575b6020938484108114610205578388529081156101e95750600114610193575b505050829003601f01601f191682019267ffffffffffffffff841183851017610180575082918261017c925282610ca6565b0390f35b634e487b7160e01b815260418552602490fd5b600187529192508591837fb10e2d527612073b26eecdfd717e6a320cf44b4afac2b0732d9fcbe2b7fa0cf65b8385106101d5575050505083010138808061014a565b8054888601830152930192849082016101bf565b60ff1916878501525050151560051b840101905038808061014a565b634e487b7160e01b895260228a52602489fd5b91607f169161012b565b5080fd5b50346102225781600319360112610222576020906002549051908152f35b503461022257602036600319011261022257823590610261610e07565b61027360ff60075460081c1615610cef565b338352600660205281818420541061034f57606482028281046064148315171561033c5790846102c86127107ffbdb18150f1548f92bef14ec13aaca92a801ed96744042ab21a732e145b9b774940485610dbd565b9333865260066020526102df838720918254610dbd565b90556102ec848254610dbd565b905561031983337f0000000000000000000000000000000000000000000000000000000000000000610ec4565b80519284845260208401523392a26001600080516020610f268339815191525580f35b634e487b7160e01b845260118552602484fd5b5162461bcd60e51b8152602081850152600f60248201526e496e73756666696369656e74204e4f60881b6044820152606490fd5b5082346105ae57826003193601126105ae5761039d610e07565b60075460ff8160081c161561057c57600354600160ff6103bf85548094610d67565b9316036104d9575033845260056020528284205480156104a45760035492831561047057506103f792916103f291610d8a565b610d9d565b90338352600560205282818120555b61043182337f0000000000000000000000000000000000000000000000000000000000000000610ec4565b519081527f1a31e733a172afcf46074b3106c17f0c298e226442682a03c1e99ce256139ec260203392a26001600080516020610f268339815191525580f35b606490602086519162461bcd60e51b8352820152600e60248201526d115b5c1d1e48165154c81c1bdbdb60921b6044820152fd5b835162461bcd60e51b8152602081850152600f60248201526e2737902ca2a9903837b9b4ba34b7b760891b6044820152606490fd5b91338552600660205283852054908115610548578315610515575061050292916103f291610d8a565b9033835260066020528281812055610406565b606490602086519162461bcd60e51b8352820152600d60248201526c115b5c1d1e481393c81c1bdbdb609a1b6044820152fd5b606490602086519162461bcd60e51b8352820152600e60248201526d2737902727903837b9b4ba34b7b760911b6044820152fd5b506020606492519162461bcd60e51b8352820152600c60248201526b139bdd081c995cdbdb1d995960a21b6044820152fd5b8280fd5b5082346105ae57826003193601126105ae5760209250549051908152f35b508290346105ae5760203660031901126105ae5781359160ff8316809303610731577f00000000000000000000000000000000000000000000000000000000000000006001600160a01b03163303610700576007549060ff8260081c166106ca576001841480156106c0575b1561067d575061ffff1916821761010017600755519081527f94e5f71d5001613eb5e4ad876acb1da127582270c692c34fbcf810be21728b1d90602090a180f35b606490602084519162461bcd60e51b8352820152601c60248201527f496e76616c6964206f7574636f6d652028313d59455320323d4e4f29000000006044820152fd5b506002841461063c565b606490602084519162461bcd60e51b8352820152601060248201526f105b1c9958591e481c995cdbdb1d995960821b6044820152fd5b6020606492519162461bcd60e51b8352820152600c60248201526b2737ba103932b9b7b63b32b960a11b6044820152fd5b8380fd5b50346102225781600319360112610222576020905160648152f35b503461022257816003193601126102225760209061076c610dca565b9051908152f35b50346102225781600319360112610222576020906003549051908152f35b5090346107b557806003193601126107b5575061076c602092600354905490610d67565b80fd5b5082346105ae5760203660031901126105ae57356001600160a01b038116908190036105ae57828291602094526005845220549051908152f35b508290346105ae5760203660031901126105ae577fce33b1a575fb35da3d3f46cea9fa626686e5725921cff95e22f86d4727f71bd190823592610833610e07565b61084560ff60075460081c1615610cef565b610850841515610d2d565b61087c8430337f0000000000000000000000000000000000000000000000000000000000000000610e37565b3385526006602052818520610892858254610d67565b905561089f848254610d67565b905580519284845260208401523392a26001600080516020610f268339815191525580f35b503461022257816003193601126102225780519082835460018160011c9060018316928315610993575b6020938484108114610205578388529081156101e9575060011461093e57505050829003601f01601f191682019267ffffffffffffffff841183851017610180575082918261017c925282610ca6565b8680529192508591837f290decd9548b62a8d60345a988386fc84ba6bc95484008f6362f93160ef3e5635b83851061097f575050505083010138808061014a565b805488860183015293019284908201610969565b91607f16916108ee565b503461022257816003193601126102225760209060ff60075460081c1690519015158152f35b5034610222578160031936011261022257517f00000000000000000000000000000000000000000000000000000000000000006001600160a01b03168152602090f35b503461022257816003193601126102225760209060ff600754169051908152f35b503461022257602036600319011261022257823590610a44610e07565b610a5660ff60075460081c1615610cef565b3383526005602052818184205410610b2157606482028281046064148315171561033c5790610aaa6127107ffbdb18150f1548f92bef14ec13aaca92a801ed96744042ab21a732e145b9b774930484610dbd565b923385526005602052610ac1828620918254610dbd565b9055610acf83600354610dbd565b600355610afd83337f0000000000000000000000000000000000000000000000000000000000000000610ec4565b8051926001845260208401523392a26001600080516020610f268339815191525580f35b5162461bcd60e51b8152602081850152601060248201526f496e73756666696369656e742059455360801b6044820152606490fd5b5082346105ae5760203660031901126105ae57356001600160a01b038116908190036105ae57828291602094526006845220549051908152f35b5082346105ae5760203660031901126105ae577fce33b1a575fb35da3d3f46cea9fa626686e5725921cff95e22f86d4727f71bd1903591610bcf610e07565b610be160ff60075460081c1615610cef565b610bec831515610d2d565b610c188330337f0000000000000000000000000000000000000000000000000000000000000000610e37565b3384526005602052808420610c2e848254610d67565b9055610c3c83600354610d67565b6003558051926001845260208401523392a26001600080516020610f268339815191525580f35b8390346102225781600319360112610222577f00000000000000000000000000000000000000000000000000000000000000006001600160a01b03168152602090f35b6020808252825181830181905290939260005b828110610cdb57505060409293506000838284010152601f8019910116010190565b818101860151848201604001528501610cb9565b15610cf657565b60405162461bcd60e51b815260206004820152600f60248201526e13585c9ad95d081c995cdbdb1d9959608a1b6044820152606490fd5b15610d3457565b60405162461bcd60e51b815260206004820152600b60248201526a16995c9bc8185b5bdd5b9d60aa1b6044820152606490fd5b91908201809211610d7457565b634e487b7160e01b600052601160045260246000fd5b81810292918115918404141715610d7457565b8115610da7570490565b634e487b7160e01b600052601260045260246000fd5b91908203918211610d7457565b600354610dd960045482610d67565b8015610dff5761271091828102928184041490151715610d7457610dfc91610d9d565b90565b505061138890565b600080516020610f268339815191526002815414610e255760029055565b604051633ee5aeb560e01b8152600490fd5b6040516323b872dd60e01b60009081526001600160a01b03938416600452938316602452604494909452909160209060648180855af1600160005114811615610ea4575b83604052600060605215610e8e57505050565b635274afe760e01b835216600482015260249150fd5b6001811516610eba57813b15153d151616610e7b565b833d6000823e3d90fd5b60405163a9059cbb60e01b60009081526001600160a01b039384166004526024949094529260209060448180855af1600160005114811615610f0f575b8360405215610e8e57505050565b6001811516610eba57813b15153d151616610f0156fe9b779b17422d0df92223018b32b4d1fa46e071723d6817e2486d003becc55f00a264697066735822122056dc8df146bbbaa74931b49dc749014ec079ba9940f27efa2ee3f9fc04fec3c564736f6c63430008180033a26469706673582212202cee6ef549eaaab50dccde5d1bb77db67748c30ea7e8fa7ead7ac59e65fc030564736f6c63430008180033","opcodes":"PUSH1 0xA0 CALLVALUE PUSH2 0x83 JUMPI PUSH1 0x1F PUSH2 0x1B86 CODESIZE DUP2 SWAP1 SUB SWAP2 DUP3 ADD PUSH1 0x1F NOT AND DUP4 ADD SWAP2 PUSH1 0x1 PUSH1 0x1 PUSH1 0x40 SHL SUB DUP4 GT DUP5 DUP5 LT OR PUSH2 0x88 JUMPI DUP1 DUP5 SWAP3 PUSH1 0x20 SWAP5 PUSH1 0x40 MSTORE DUP4 CODECOPY DUP2 ADD SUB SLT PUSH2 0x83 JUMPI MLOAD PUSH1 0x1 PUSH1 0x1 PUSH1 0xA0 SHL SUB DUP2 AND DUP2 SUB PUSH2 0x83 JUMPI PUSH1 0x80 MSTORE PUSH1 0x0 DUP1 SLOAD PUSH1 0x1 PUSH1 0x1 PUSH1 0xA0 SHL SUB NOT AND CALLER OR SWAP1 SSTORE PUSH1 0x40 MLOAD PUSH2 0x1AE7 SWAP1 DUP2 PUSH2 0x9F DUP3 CODECOPY PUSH1 0x80 MLOAD DUP2 DUP2 DUP2 PUSH2 0x148 ADD MSTORE PUSH2 0x5AD ADD MSTORE RETURN JUMPDEST PUSH1 0x0 DUP1 REVERT JUMPDEST PUSH4 0x4E487B71 PUSH1 0xE0 SHL PUSH1 0x0 MSTORE PUSH1 0x41 PUSH1 0x4 MSTORE PUSH1 0x24 PUSH1 0x0 REVERT INVALID PUSH1 0x80 PUSH1 0x40 DUP2 DUP2 MSTORE PUSH1 0x4 SWAP2 DUP3 CALLDATASIZE LT ISZERO PUSH3 0x17 JUMPI PUSH1 0x0 DUP1 REVERT JUMPDEST PUSH1 0x0 SWAP3 DUP4 CALLDATALOAD PUSH1 0xE0 SHR SWAP2 DUP3 PUSH4 0x3E413BEE EQ PUSH3 0x597 JUMPI POP DUP2 PUSH4 0x8DA5CB5B EQ PUSH3 0x56D JUMPI DUP4 DUP3 PUSH4 0xCCB25184 EQ PUSH3 0x4B1 JUMPI POP DUP2 PUSH4 0xEB44FDD3 EQ PUSH3 0x474 JUMPI DUP2 PUSH4 0xEC2C9016 EQ PUSH3 0x37A JUMPI DUP2 PUSH4 0xF2FDE38B EQ PUSH3 0x2C8 JUMPI DUP2 PUSH4 0xF98B7783 EQ PUSH3 0xAB JUMPI POP PUSH4 0xFD69F3C2 EQ PUSH3 0x88 JUMPI PUSH1 0x0 DUP1 REVERT JUMPDEST CALLVALUE PUSH3 0xA7 JUMPI DUP2 PUSH1 0x3 NOT CALLDATASIZE ADD SLT PUSH3 0xA7 JUMPI PUSH1 0x20 SWAP1 PUSH1 0x1 SLOAD SWAP1 MLOAD SWAP1 DUP2 MSTORE RETURN JUMPDEST POP DUP1 REVERT JUMPDEST DUP4 DUP4 CALLVALUE PUSH3 0xA7 JUMPI PUSH1 0x60 CALLDATASIZE PUSH1 0x3 NOT ADD SLT PUSH3 0xA7 JUMPI PUSH8 0xFFFFFFFFFFFFFFFF DUP4 CALLDATALOAD DUP2 DUP2 GT PUSH3 0x2C4 JUMPI PUSH3 0xE2 SWAP1 CALLDATASIZE SWAP1 DUP7 ADD PUSH3 0x5F8 JUMP JUMPDEST SWAP1 SWAP2 PUSH1 0x24 CALLDATALOAD DUP2 DUP2 GT PUSH3 0x2C0 JUMPI PUSH3 0xFE SWAP1 CALLDATASIZE SWAP1 DUP9 ADD PUSH3 0x5F8 JUMP JUMPDEST DUP7 SLOAD PUSH1 0x44 CALLDATALOAD SWAP4 PUSH1 0x1 PUSH1 0x1 PUSH1 0xA0 SHL SUB SWAP2 DUP3 AND SWAP1 PUSH3 0x11D CALLER DUP4 EQ PUSH3 0x629 JUMP JUMPDEST TIMESTAMP DUP7 GT ISZERO PUSH3 0x27D JUMPI DUP9 MLOAD SWAP2 PUSH2 0x13E0 DUP1 DUP5 ADD SWAP3 DUP4 GT DUP5 DUP5 LT OR PUSH3 0x26A JUMPI SWAP1 DUP4 SWAP3 SWAP2 PUSH3 0x6D2 DUP5 CODECOPY DUP5 PUSH32 0x0 AND DUP3 MSTORE PUSH1 0x20 DUP3 ADD MSTORE PUSH1 0xA0 DUP11 DUP3 ADD MSTORE DUP7 PUSH1 0x80 PUSH3 0x19D PUSH3 0x18D DUP13 DUP13 PUSH1 0xA0 DUP8 ADD SWAP2 PUSH3 0x6B0 JUMP JUMPDEST DUP5 DUP2 SUB PUSH1 0x60 DUP7 ADD MSTORE DUP9 DUP11 PUSH3 0x6B0 JUMP JUMPDEST SWAP3 ADD MSTORE SUB SWAP1 DUP10 CREATE DUP1 ISZERO PUSH3 0x260 JUMPI DUP2 AND SWAP8 PUSH1 0x1 SLOAD SWAP1 PUSH9 0x10000000000000000 DUP3 LT ISZERO PUSH3 0x24D JUMPI PUSH1 0x20 DUP11 DUP11 DUP2 PUSH32 0xE5877F22E107940CC17BC2F639D9E7522121960E893CA1E2ED8FF07EB03CABA8 DUP13 DUP13 DUP13 PUSH3 0x23F DUP14 DUP14 DUP14 PUSH3 0x206 DUP15 PUSH1 0x1 DUP2 ADD PUSH1 0x1 SSTORE PUSH3 0x662 JUMP JUMPDEST DUP2 SWAP3 SWAP2 SLOAD SWAP1 PUSH1 0x3 SHL SWAP2 DUP12 DUP4 SHL SWAP3 SHL NOT AND OR SWAP1 SSTORE PUSH3 0x231 DUP10 MLOAD SWAP7 DUP8 SWAP7 PUSH1 0x60 DUP9 MSTORE PUSH1 0x60 DUP9 ADD SWAP2 PUSH3 0x6B0 JUMP JUMPDEST SWAP2 DUP6 DUP4 SUB DUP13 DUP8 ADD MSTORE PUSH3 0x6B0 JUMP JUMPDEST SWAP1 DUP7 DUP4 ADD MSTORE SUB SWAP1 LOG2 MLOAD SWAP1 DUP2 MSTORE RETURN JUMPDEST PUSH4 0x4E487B71 PUSH1 0xE0 SHL DUP2 MSTORE PUSH1 0x41 DUP12 MSTORE PUSH1 0x24 SWAP1 REVERT JUMPDEST DUP8 MLOAD RETURNDATASIZE DUP11 DUP3 RETURNDATACOPY RETURNDATASIZE SWAP1 REVERT JUMPDEST PUSH4 0x4E487B71 PUSH1 0xE0 SHL DUP13 MSTORE PUSH1 0x41 DUP14 MSTORE PUSH1 0x24 DUP13 REVERT JUMPDEST DUP9 MLOAD PUSH3 0x461BCD PUSH1 0xE5 SHL DUP2 MSTORE PUSH1 0x20 DUP2 DUP14 ADD MSTORE PUSH1 0x1C PUSH1 0x24 DUP3 ADD MSTORE PUSH32 0x457870697279206D75737420626520696E207468652066757475726500000000 PUSH1 0x44 DUP3 ADD MSTORE PUSH1 0x64 SWAP1 REVERT JUMPDEST DUP6 DUP1 REVERT JUMPDEST DUP4 DUP1 REVERT JUMPDEST SWAP1 POP CALLVALUE PUSH3 0x376 JUMPI PUSH1 0x20 CALLDATASIZE PUSH1 0x3 NOT ADD SLT PUSH3 0x376 JUMPI PUSH3 0x2E7 PUSH3 0x5DC JUMP JUMPDEST DUP4 SLOAD SWAP2 PUSH1 0x1 PUSH1 0x1 PUSH1 0xA0 SHL SUB DUP1 DUP5 AND SWAP3 PUSH3 0x303 CALLER DUP6 EQ PUSH3 0x629 JUMP JUMPDEST AND SWAP4 DUP5 ISZERO PUSH3 0x344 JUMPI POP POP DUP3 SWAP1 PUSH32 0x8BE0079C531659141344CD1FD0A4F28419497F9722A3DAAFE3B4186F6B6457E0 DUP6 DUP1 LOG3 PUSH1 0x1 PUSH1 0x1 PUSH1 0xA0 SHL SUB NOT AND OR DUP2 SSTORE DUP1 RETURN JUMPDEST SWAP1 PUSH1 0x20 PUSH1 0x64 SWAP3 MLOAD SWAP2 PUSH3 0x461BCD PUSH1 0xE5 SHL DUP4 MSTORE DUP3 ADD MSTORE PUSH1 0xC PUSH1 0x24 DUP3 ADD MSTORE PUSH12 0x5A65726F2061646472657373 PUSH1 0xA0 SHL PUSH1 0x44 DUP3 ADD MSTORE REVERT JUMPDEST DUP3 DUP1 REVERT JUMPDEST SWAP2 SWAP1 POP CALLVALUE PUSH3 0x376 JUMPI DUP3 PUSH1 0x3 NOT CALLDATASIZE ADD SLT PUSH3 0x376 JUMPI DUP1 MLOAD DUP1 PUSH1 0x1 SWAP5 PUSH1 0x1 SLOAD SWAP4 DUP5 DUP4 MSTORE PUSH1 0x20 DUP1 DUP1 SWAP5 ADD DUP1 SWAP7 PUSH1 0x1 DUP6 MSTORE PUSH32 0xB10E2D527612073B26EECDFD717E6A320CF44B4AFAC2B0732D9FCBE2B7FA0CF6 SWAP1 DUP11 DUP7 JUMPDEST DUP3 DUP2 LT PUSH3 0x455 JUMPI POP POP POP POP DUP6 SWAP1 SUB PUSH1 0x1F ADD PUSH1 0x1F NOT AND DUP6 ADD SWAP7 SWAP1 POP PUSH8 0xFFFFFFFFFFFFFFFF DUP8 GT DUP6 DUP9 LT OR PUSH3 0x440 JUMPI POP SWAP3 DUP7 SWAP3 DUP5 DUP8 DUP1 SWAP7 MSTORE DUP2 DUP7 ADD SWAP3 DUP3 DUP8 MSTORE MLOAD DUP1 SWAP4 MSTORE DUP6 ADD SWAP6 SWAP3 JUMPDEST DUP3 DUP2 LT PUSH3 0x423 JUMPI DUP6 DUP8 SUB DUP7 RETURN JUMPDEST DUP4 MLOAD PUSH1 0x1 PUSH1 0x1 PUSH1 0xA0 SHL SUB AND DUP8 MSTORE SWAP6 DUP2 ADD SWAP6 SWAP3 DUP2 ADD SWAP3 DUP5 ADD PUSH3 0x415 JUMP JUMPDEST PUSH1 0x41 SWAP1 PUSH4 0x4E487B71 PUSH1 0xE0 SHL PUSH1 0x0 MSTORE MSTORE PUSH1 0x24 PUSH1 0x0 REVERT JUMPDEST DUP4 SLOAD PUSH1 0x1 PUSH1 0x1 PUSH1 0xA0 SHL SUB AND DUP6 MSTORE DUP9 SWAP6 SWAP1 SWAP5 ADD SWAP4 SWAP3 DUP2 ADD SWAP3 DUP2 ADD PUSH3 0x3CD JUMP JUMPDEST DUP3 DUP5 CALLVALUE PUSH3 0x4AE JUMPI PUSH1 0x20 CALLDATASIZE PUSH1 0x3 NOT ADD SLT PUSH3 0x4AE JUMPI POP PUSH3 0x498 PUSH1 0x20 SWAP3 CALLDATALOAD PUSH3 0x662 JUMP JUMPDEST SWAP1 SLOAD SWAP2 MLOAD SWAP2 PUSH1 0x1 DUP1 PUSH1 0xA0 SHL SUB SWAP2 PUSH1 0x3 SHL SHR AND DUP2 MSTORE RETURN JUMPDEST DUP1 REVERT JUMPDEST SWAP3 SWAP2 POP CALLVALUE PUSH3 0x569 JUMPI DUP2 PUSH1 0x3 NOT CALLDATASIZE ADD SLT PUSH3 0x569 JUMPI PUSH3 0x4D0 PUSH3 0x5DC JUMP JUMPDEST PUSH1 0x24 CALLDATALOAD SWAP1 PUSH1 0xFF DUP3 AND DUP1 SWAP3 SUB PUSH3 0x565 JUMPI DUP5 SLOAD PUSH1 0x1 PUSH1 0x1 PUSH1 0xA0 SHL SUB SWAP2 SWAP1 PUSH3 0x4FB SWAP1 DUP4 AND CALLER EQ PUSH3 0x629 JUMP JUMPDEST AND DUP1 EXTCODESIZE ISZERO PUSH3 0x565 JUMPI PUSH1 0x24 DUP6 SWAP3 DUP6 MLOAD SWAP7 DUP8 SWAP4 DUP5 SWAP3 PUSH4 0x2809C36F PUSH1 0xE2 SHL DUP5 MSTORE DUP8 DUP5 ADD MSTORE GAS CALL DUP1 ISZERO PUSH3 0x55B JUMPI PUSH3 0x52F JUMPI DUP4 DUP1 RETURN JUMPDEST PUSH8 0xFFFFFFFFFFFFFFFF DUP4 GT PUSH3 0x548 JUMPI POP MSTORE CODESIZE DUP1 DUP1 DUP4 DUP1 RETURN JUMPDEST PUSH4 0x4E487B71 PUSH1 0xE0 SHL DUP5 MSTORE PUSH1 0x41 SWAP1 MSTORE PUSH1 0x24 DUP4 REVERT JUMPDEST DUP3 MLOAD RETURNDATASIZE DUP7 DUP3 RETURNDATACOPY RETURNDATASIZE SWAP1 REVERT JUMPDEST DUP5 DUP1 REVERT JUMPDEST POP POP REVERT JUMPDEST POP POP CALLVALUE PUSH3 0xA7 JUMPI DUP2 PUSH1 0x3 NOT CALLDATASIZE ADD SLT PUSH3 0xA7 JUMPI SWAP1 SLOAD SWAP1 MLOAD PUSH1 0x1 PUSH1 0x1 PUSH1 0xA0 SHL SUB SWAP1 SWAP2 AND DUP2 MSTORE PUSH1 0x20 SWAP1 RETURN JUMPDEST DUP5 SWAP1 CALLVALUE PUSH3 0xA7 JUMPI DUP2 PUSH1 0x3 NOT CALLDATASIZE ADD SLT PUSH3 0xA7 JUMPI PUSH32 0x0 PUSH1 0x1 PUSH1 0x1 PUSH1 0xA0 SHL SUB AND DUP2 MSTORE PUSH1 0x20 SWAP1 RETURN JUMPDEST PUSH1 0x4 CALLDATALOAD SWAP1 PUSH1 0x1 PUSH1 0x1 PUSH1 0xA0 SHL SUB DUP3 AND DUP3 SUB PUSH3 0x5F3 JUMPI JUMP JUMPDEST PUSH1 0x0 DUP1 REVERT JUMPDEST SWAP2 DUP2 PUSH1 0x1F DUP5 ADD SLT ISZERO PUSH3 0x5F3 JUMPI DUP3 CALLDATALOAD SWAP2 PUSH8 0xFFFFFFFFFFFFFFFF DUP4 GT PUSH3 0x5F3 JUMPI PUSH1 0x20 DUP4 DUP2 DUP7 ADD SWAP6 ADD ADD GT PUSH3 0x5F3 JUMPI JUMP JUMPDEST ISZERO PUSH3 0x631 JUMPI JUMP JUMPDEST PUSH1 0x40 MLOAD PUSH3 0x461BCD PUSH1 0xE5 SHL DUP2 MSTORE PUSH1 0x20 PUSH1 0x4 DUP3 ADD MSTORE PUSH1 0x9 PUSH1 0x24 DUP3 ADD MSTORE PUSH9 0x2737BA1037BBB732B9 PUSH1 0xB9 SHL PUSH1 0x44 DUP3 ADD MSTORE PUSH1 0x64 SWAP1 REVERT JUMPDEST PUSH1 0x1 SLOAD DUP2 LT ISZERO PUSH3 0x69A JUMPI PUSH1 0x1 PUSH1 0x0 MSTORE PUSH32 0xB10E2D527612073B26EECDFD717E6A320CF44B4AFAC2B0732D9FCBE2B7FA0CF6 ADD SWAP1 PUSH1 0x0 SWAP1 JUMP JUMPDEST PUSH4 0x4E487B71 PUSH1 0xE0 SHL PUSH1 0x0 MSTORE PUSH1 0x32 PUSH1 0x4 MSTORE PUSH1 0x24 PUSH1 0x0 REVERT JUMPDEST SWAP1 DUP1 PUSH1 0x20 SWAP4 SWAP3 DUP2 DUP5 MSTORE DUP5 DUP5 ADD CALLDATACOPY PUSH1 0x0 DUP3 DUP3 ADD DUP5 ADD MSTORE PUSH1 0x1F ADD PUSH1 0x1F NOT AND ADD ADD SWAP1 JUMP INVALID PUSH1 0xC0 PUSH1 0x40 MSTORE CALLVALUE PUSH3 0x3B2 JUMPI PUSH3 0x13E0 DUP1 CODESIZE SUB DUP1 PUSH3 0x1D DUP2 PUSH3 0x3B7 JUMP JUMPDEST SWAP3 DUP4 CODECOPY DUP2 ADD PUSH1 0xA0 DUP3 DUP3 SUB SLT PUSH3 0x3B2 JUMPI PUSH3 0x38 DUP3 PUSH3 0x3DD JUMP JUMPDEST PUSH1 0x20 SWAP3 PUSH3 0x48 DUP5 DUP3 ADD PUSH3 0x3DD JUMP JUMPDEST PUSH1 0x40 DUP3 ADD MLOAD SWAP1 SWAP4 PUSH1 0x1 PUSH1 0x1 PUSH1 0x40 SHL SUB SWAP3 SWAP1 SWAP2 DUP4 DUP2 GT PUSH3 0x3B2 JUMPI DUP3 PUSH3 0x70 SWAP2 DUP4 ADD PUSH3 0x3F2 JUMP JUMPDEST SWAP2 PUSH1 0x60 DUP3 ADD MLOAD DUP5 DUP2 GT PUSH3 0x3B2 JUMPI PUSH1 0x80 SWAP2 PUSH3 0x8E SWAP2 DUP5 ADD PUSH3 0x3F2 JUMP JUMPDEST SWAP2 ADD MLOAD SWAP5 PUSH1 0x1 SWAP5 DUP6 PUSH32 0x9B779B17422D0DF92223018B32B4D1FA46E071723D6817E2486D003BECC55F00 SSTORE PUSH1 0x1 DUP1 PUSH1 0xA0 SHL SUB AND PUSH1 0x80 MSTORE PUSH1 0xA0 MSTORE DUP2 MLOAD DUP4 DUP2 GT PUSH3 0x39C JUMPI PUSH1 0x0 SWAP1 DUP2 SLOAD SWAP4 DUP7 DUP6 DUP2 SHR SWAP6 AND DUP1 ISZERO PUSH3 0x391 JUMPI JUMPDEST DUP10 DUP7 LT EQ PUSH3 0x37D JUMPI DUP2 SWAP1 PUSH1 0x1F SWAP6 DUP7 DUP2 GT PUSH3 0x32A JUMPI JUMPDEST POP DUP10 SWAP1 DUP7 DUP4 GT PUSH1 0x1 EQ PUSH3 0x2C6 JUMPI DUP5 SWAP3 PUSH3 0x2BA JUMPI JUMPDEST POP POP PUSH1 0x0 NOT PUSH1 0x3 DUP4 SWAP1 SHL SHR NOT AND SWAP1 DUP7 SHL OR DUP2 SSTORE JUMPDEST DUP2 MLOAD SWAP4 DUP5 GT PUSH3 0x2A6 JUMPI DUP5 SLOAD DUP6 DUP2 DUP2 SHR SWAP2 AND DUP1 ISZERO PUSH3 0x29B JUMPI JUMPDEST DUP9 DUP3 LT EQ PUSH3 0x287 JUMPI DUP4 DUP2 GT PUSH3 0x23F JUMPI JUMPDEST POP DUP7 SWAP3 DUP5 GT PUSH1 0x1 EQ PUSH3 0x1D9 JUMPI DUP4 SWAP5 SWAP6 SWAP7 POP SWAP3 PUSH3 0x1CD JUMPI JUMPDEST POP POP PUSH1 0x0 NOT PUSH1 0x3 DUP4 SWAP1 SHL SHR NOT AND SWAP1 DUP3 SHL OR SWAP1 SSTORE JUMPDEST PUSH1 0x2 SSTORE PUSH1 0x40 MLOAD PUSH2 0xF7B SWAP1 DUP2 PUSH3 0x465 DUP3 CODECOPY PUSH1 0x80 MLOAD DUP2 DUP2 DUP2 PUSH2 0x2F5 ADD MSTORE DUP2 DUP2 PUSH2 0x40D ADD MSTORE DUP2 DUP2 PUSH2 0x858 ADD MSTORE DUP2 DUP2 PUSH2 0x9D7 ADD MSTORE DUP2 DUP2 PUSH2 0xAD9 ADD MSTORE PUSH2 0xBF4 ADD MSTORE PUSH1 0xA0 MLOAD DUP2 DUP2 DUP2 PUSH2 0x5F4 ADD MSTORE PUSH2 0xC77 ADD MSTORE RETURN JUMPDEST ADD MLOAD SWAP1 POP CODESIZE DUP1 PUSH3 0x16A JUMP JUMPDEST SWAP2 SWAP1 PUSH1 0x1F NOT DUP5 AND SWAP7 DUP6 DUP5 MSTORE DUP1 DUP5 KECCAK256 SWAP4 SWAP1 JUMPDEST DUP9 DUP3 LT PUSH3 0x227 JUMPI POP POP DUP4 DUP6 SWAP7 SWAP8 LT PUSH3 0x20D JUMPI JUMPDEST POP POP POP DUP2 SHL ADD SWAP1 SSTORE PUSH3 0x17E JUMP JUMPDEST ADD MLOAD PUSH1 0x0 NOT PUSH1 0xF8 DUP5 PUSH1 0x3 SHL AND SHR NOT AND SWAP1 SSTORE CODESIZE DUP1 DUP1 PUSH3 0x1FF JUMP JUMPDEST DUP1 DUP8 DUP6 SWAP7 DUP3 SWAP5 SWAP7 DUP7 ADD MLOAD DUP2 SSTORE ADD SWAP6 ADD SWAP4 ADD SWAP1 PUSH3 0x1EA JUMP JUMPDEST DUP6 DUP3 MSTORE DUP8 DUP3 KECCAK256 DUP5 DUP1 DUP8 ADD PUSH1 0x5 SHR DUP3 ADD SWAP3 DUP11 DUP9 LT PUSH3 0x27D JUMPI JUMPDEST ADD PUSH1 0x5 SHR ADD SWAP1 DUP7 SWAP1 JUMPDEST DUP3 DUP2 LT PUSH3 0x271 JUMPI POP POP PUSH3 0x151 JUMP JUMPDEST DUP4 DUP2 SSTORE ADD DUP7 SWAP1 PUSH3 0x261 JUMP JUMPDEST SWAP3 POP DUP2 SWAP3 PUSH3 0x258 JUMP JUMPDEST PUSH4 0x4E487B71 PUSH1 0xE0 SHL DUP3 MSTORE PUSH1 0x22 PUSH1 0x4 MSTORE PUSH1 0x24 DUP3 REVERT JUMPDEST SWAP1 PUSH1 0x7F AND SWAP1 PUSH3 0x13F JUMP JUMPDEST PUSH4 0x4E487B71 PUSH1 0xE0 SHL DUP2 MSTORE PUSH1 0x41 PUSH1 0x4 MSTORE PUSH1 0x24 SWAP1 REVERT JUMPDEST ADD MLOAD SWAP1 POP CODESIZE DUP1 PUSH3 0x111 JUMP JUMPDEST DUP5 DUP1 MSTORE DUP11 DUP6 KECCAK256 DUP10 SWAP5 POP SWAP2 SWAP1 PUSH1 0x1F NOT DUP5 AND DUP7 JUMPDEST DUP14 DUP3 DUP3 LT PUSH3 0x313 JUMPI POP POP DUP5 GT PUSH3 0x2F9 JUMPI JUMPDEST POP POP POP DUP2 SHL ADD DUP2 SSTORE PUSH3 0x125 JUMP JUMPDEST ADD MLOAD PUSH1 0x0 NOT PUSH1 0xF8 DUP5 PUSH1 0x3 SHL AND SHR NOT AND SWAP1 SSTORE CODESIZE DUP1 DUP1 PUSH3 0x2EB JUMP JUMPDEST DUP4 DUP6 ADD MLOAD DUP7 SSTORE DUP13 SWAP8 SWAP1 SWAP6 ADD SWAP5 SWAP4 DUP5 ADD SWAP4 ADD PUSH3 0x2D8 JUMP JUMPDEST SWAP1 SWAP2 POP DUP4 DUP1 MSTORE DUP10 DUP5 KECCAK256 DUP7 DUP1 DUP6 ADD PUSH1 0x5 SHR DUP3 ADD SWAP3 DUP13 DUP7 LT PUSH3 0x373 JUMPI JUMPDEST SWAP2 DUP11 SWAP2 DUP7 SWAP6 SWAP5 SWAP4 ADD PUSH1 0x5 SHR ADD SWAP2 JUMPDEST DUP3 DUP2 LT PUSH3 0x364 JUMPI POP POP PUSH3 0xFB JUMP JUMPDEST DUP7 DUP2 SSTORE DUP6 SWAP5 POP DUP11 SWAP2 ADD PUSH3 0x354 JUMP JUMPDEST SWAP3 POP DUP2 SWAP3 PUSH3 0x346 JUMP JUMPDEST PUSH4 0x4E487B71 PUSH1 0xE0 SHL DUP4 MSTORE PUSH1 0x22 PUSH1 0x4 MSTORE PUSH1 0x24 DUP4 REVERT JUMPDEST SWAP5 PUSH1 0x7F AND SWAP5 PUSH3 0xE4 JUMP JUMPDEST PUSH4 0x4E487B71 PUSH1 0xE0 SHL PUSH1 0x0 MSTORE PUSH1 0x41 PUSH1 0x4 MSTORE PUSH1 0x24 PUSH1 0x0 REVERT JUMPDEST PUSH1 0x0 DUP1 REVERT JUMPDEST PUSH1 0x40 MLOAD SWAP2 SWAP1 PUSH1 0x1F ADD PUSH1 0x1F NOT AND DUP3 ADD PUSH1 0x1 PUSH1 0x1 PUSH1 0x40 SHL SUB DUP2 GT DUP4 DUP3 LT OR PUSH3 0x39C JUMPI PUSH1 0x40 MSTORE JUMP JUMPDEST MLOAD SWAP1 PUSH1 0x1 PUSH1 0x1 PUSH1 0xA0 SHL SUB DUP3 AND DUP3 SUB PUSH3 0x3B2 JUMPI JUMP JUMPDEST SWAP2 SWAP1 DUP1 PUSH1 0x1F DUP5 ADD SLT ISZERO PUSH3 0x3B2 JUMPI DUP3 MLOAD PUSH1 0x1 PUSH1 0x1 PUSH1 0x40 SHL SUB DUP2 GT PUSH3 0x39C JUMPI PUSH1 0x20 SWAP1 PUSH3 0x428 PUSH1 0x1F DUP3 ADD PUSH1 0x1F NOT AND DUP4 ADD PUSH3 0x3B7 JUMP JUMPDEST SWAP3 DUP2 DUP5 MSTORE DUP3 DUP3 DUP8 ADD ADD GT PUSH3 0x3B2 JUMPI PUSH1 0x0 JUMPDEST DUP2 DUP2 LT PUSH3 0x450 JUMPI POP DUP3 PUSH1 0x0 SWAP4 SWAP5 SWAP6 POP ADD ADD MSTORE SWAP1 JUMP JUMPDEST DUP6 DUP2 ADD DUP4 ADD MLOAD DUP5 DUP3 ADD DUP5 ADD MSTORE DUP3 ADD PUSH3 0x43A JUMP INVALID PUSH1 0x80 PUSH1 0x40 SWAP1 DUP1 DUP3 MSTORE PUSH1 0x4 SWAP2 DUP3 CALLDATASIZE LT ISZERO PUSH2 0x17 JUMPI PUSH1 0x0 DUP1 REVERT JUMPDEST PUSH1 0x0 SWAP2 DUP3 CALLDATALOAD PUSH1 0xE0 SHR SWAP1 DUP2 PUSH4 0x4F3BCEC EQ PUSH2 0xC63 JUMPI POP DUP1 PUSH4 0x61DD98D EQ PUSH2 0xB90 JUMPI DUP1 PUSH4 0xFFA9BED EQ PUSH2 0xB56 JUMPI DUP1 PUSH4 0x11F957FD EQ PUSH2 0xA27 JUMPI DUP1 PUSH4 0x27793F87 EQ PUSH2 0xA06 JUMPI DUP1 PUSH4 0x3E413BEE EQ PUSH2 0x9C3 JUMPI DUP1 PUSH4 0x3F6FA655 EQ PUSH2 0x99D JUMPI DUP1 PUSH4 0x3FAD9AE0 EQ PUSH2 0x8C4 JUMPI DUP1 PUSH4 0x58C36E5C EQ PUSH2 0x7F2 JUMPI DUP1 PUSH4 0x5B883917 EQ PUSH2 0x7B8 JUMPI DUP1 PUSH4 0x5F81A57C EQ PUSH2 0x791 JUMPI DUP1 PUSH4 0x6F1D4EA4 EQ PUSH2 0x773 JUMPI DUP1 PUSH4 0x83A30F2A EQ PUSH2 0x750 JUMPI DUP1 PUSH4 0x9731AA2E EQ PUSH2 0x735 JUMPI DUP1 PUSH4 0xA0270DBC EQ PUSH2 0x5D0 JUMPI DUP1 PUSH4 0xA3B5AFB1 EQ PUSH2 0x5B2 JUMPI DUP1 PUSH4 0xB401FAF1 EQ PUSH2 0x383 JUMPI DUP1 PUSH4 0xC545AB54 EQ PUSH2 0x244 JUMPI DUP1 PUSH4 0xE184C9BE EQ PUSH2 0x226 JUMPI PUSH4 0xEF430AA6 EQ PUSH2 0x101 JUMPI PUSH1 0x0 DUP1 REVERT JUMPDEST CALLVALUE PUSH2 0x222 JUMPI DUP2 PUSH1 0x3 NOT CALLDATASIZE ADD SLT PUSH2 0x222 JUMPI DUP1 MLOAD SWAP1 DUP3 PUSH1 0x1 DUP1 SLOAD SWAP1 DUP2 PUSH1 0x1 SHR SWAP1 PUSH1 0x1 DUP4 AND SWAP3 DUP4 ISZERO PUSH2 0x218 JUMPI JUMPDEST PUSH1 0x20 SWAP4 DUP5 DUP5 LT DUP2 EQ PUSH2 0x205 JUMPI DUP4 DUP9 MSTORE SWAP1 DUP2 ISZERO PUSH2 0x1E9 JUMPI POP PUSH1 0x1 EQ PUSH2 0x193 JUMPI JUMPDEST POP POP POP DUP3 SWAP1 SUB PUSH1 0x1F ADD PUSH1 0x1F NOT AND DUP3 ADD SWAP3 PUSH8 0xFFFFFFFFFFFFFFFF DUP5 GT DUP4 DUP6 LT OR PUSH2 0x180 JUMPI POP DUP3 SWAP2 DUP3 PUSH2 0x17C SWAP3 MSTORE DUP3 PUSH2 0xCA6 JUMP JUMPDEST SUB SWAP1 RETURN JUMPDEST PUSH4 0x4E487B71 PUSH1 0xE0 SHL DUP2 MSTORE PUSH1 0x41 DUP6 MSTORE PUSH1 0x24 SWAP1 REVERT JUMPDEST PUSH1 0x1 DUP8 MSTORE SWAP2 SWAP3 POP DUP6 SWAP2 DUP4 PUSH32 0xB10E2D527612073B26EECDFD717E6A320CF44B4AFAC2B0732D9FCBE2B7FA0CF6 JUMPDEST DUP4 DUP6 LT PUSH2 0x1D5 JUMPI POP POP POP POP DUP4 ADD ADD CODESIZE DUP1 DUP1 PUSH2 0x14A JUMP JUMPDEST DUP1 SLOAD DUP9 DUP7 ADD DUP4 ADD MSTORE SWAP4 ADD SWAP3 DUP5 SWAP1 DUP3 ADD PUSH2 0x1BF JUMP JUMPDEST PUSH1 0xFF NOT AND DUP8 DUP6 ADD MSTORE POP POP ISZERO ISZERO PUSH1 0x5 SHL DUP5 ADD ADD SWAP1 POP CODESIZE DUP1 DUP1 PUSH2 0x14A JUMP JUMPDEST PUSH4 0x4E487B71 PUSH1 0xE0 SHL DUP10 MSTORE PUSH1 0x22 DUP11 MSTORE PUSH1 0x24 DUP10 REVERT JUMPDEST SWAP2 PUSH1 0x7F AND SWAP2 PUSH2 0x12B JUMP JUMPDEST POP DUP1 REVERT JUMPDEST POP CALLVALUE PUSH2 0x222 JUMPI DUP2 PUSH1 0x3 NOT CALLDATASIZE ADD SLT PUSH2 0x222 JUMPI PUSH1 0x20 SWAP1 PUSH1 0x2 SLOAD SWAP1 MLOAD SWAP1 DUP2 MSTORE RETURN JUMPDEST POP CALLVALUE PUSH2 0x222 JUMPI PUSH1 0x20 CALLDATASIZE PUSH1 0x3 NOT ADD SLT PUSH2 0x222 JUMPI DUP3 CALLDATALOAD SWAP1 PUSH2 0x261 PUSH2 0xE07 JUMP JUMPDEST PUSH2 0x273 PUSH1 0xFF PUSH1 0x7 SLOAD PUSH1 0x8 SHR AND ISZERO PUSH2 0xCEF JUMP JUMPDEST CALLER DUP4 MSTORE PUSH1 0x6 PUSH1 0x20 MSTORE DUP2 DUP2 DUP5 KECCAK256 SLOAD LT PUSH2 0x34F JUMPI PUSH1 0x64 DUP3 MUL DUP3 DUP2 DIV PUSH1 0x64 EQ DUP4 ISZERO OR ISZERO PUSH2 0x33C JUMPI SWAP1 DUP5 PUSH2 0x2C8 PUSH2 0x2710 PUSH32 0xFBDB18150F1548F92BEF14EC13AACA92A801ED96744042AB21A732E145B9B774 SWAP5 DIV DUP6 PUSH2 0xDBD JUMP JUMPDEST SWAP4 CALLER DUP7 MSTORE PUSH1 0x6 PUSH1 0x20 MSTORE PUSH2 0x2DF DUP4 DUP8 KECCAK256 SWAP2 DUP3 SLOAD PUSH2 0xDBD JUMP JUMPDEST SWAP1 SSTORE PUSH2 0x2EC DUP5 DUP3 SLOAD PUSH2 0xDBD JUMP JUMPDEST SWAP1 SSTORE PUSH2 0x319 DUP4 CALLER PUSH32 0x0 PUSH2 0xEC4 JUMP JUMPDEST DUP1 MLOAD SWAP3 DUP5 DUP5 MSTORE PUSH1 0x20 DUP5 ADD MSTORE CALLER SWAP3 LOG2 PUSH1 0x1 PUSH1 0x0 DUP1 MLOAD PUSH1 0x20 PUSH2 0xF26 DUP4 CODECOPY DUP2 MLOAD SWAP2 MSTORE SSTORE DUP1 RETURN JUMPDEST PUSH4 0x4E487B71 PUSH1 0xE0 SHL DUP5 MSTORE PUSH1 0x11 DUP6 MSTORE PUSH1 0x24 DUP5 REVERT JUMPDEST MLOAD PUSH3 0x461BCD PUSH1 0xE5 SHL DUP2 MSTORE PUSH1 0x20 DUP2 DUP6 ADD MSTORE PUSH1 0xF PUSH1 0x24 DUP3 ADD MSTORE PUSH15 0x496E73756666696369656E74204E4F PUSH1 0x88 SHL PUSH1 0x44 DUP3 ADD MSTORE PUSH1 0x64 SWAP1 REVERT JUMPDEST POP DUP3 CALLVALUE PUSH2 0x5AE JUMPI DUP3 PUSH1 0x3 NOT CALLDATASIZE ADD SLT PUSH2 0x5AE JUMPI PUSH2 0x39D PUSH2 0xE07 JUMP JUMPDEST PUSH1 0x7 SLOAD PUSH1 0xFF DUP2 PUSH1 0x8 SHR AND ISZERO PUSH2 0x57C JUMPI PUSH1 0x3 SLOAD PUSH1 0x1 PUSH1 0xFF PUSH2 0x3BF DUP6 SLOAD DUP1 SWAP5 PUSH2 0xD67 JUMP JUMPDEST SWAP4 AND SUB PUSH2 0x4D9 JUMPI POP CALLER DUP5 MSTORE PUSH1 0x5 PUSH1 0x20 MSTORE DUP3 DUP5 KECCAK256 SLOAD DUP1 ISZERO PUSH2 0x4A4 JUMPI PUSH1 0x3 SLOAD SWAP3 DUP4 ISZERO PUSH2 0x470 JUMPI POP PUSH2 0x3F7 SWAP3 SWAP2 PUSH2 0x3F2 SWAP2 PUSH2 0xD8A JUMP JUMPDEST PUSH2 0xD9D JUMP JUMPDEST SWAP1 CALLER DUP4 MSTORE PUSH1 0x5 PUSH1 0x20 MSTORE DUP3 DUP2 DUP2 KECCAK256 SSTORE JUMPDEST PUSH2 0x431 DUP3 CALLER PUSH32 0x0 PUSH2 0xEC4 JUMP JUMPDEST MLOAD SWAP1 DUP2 MSTORE PUSH32 0x1A31E733A172AFCF46074B3106C17F0C298E226442682A03C1E99CE256139EC2 PUSH1 0x20 CALLER SWAP3 LOG2 PUSH1 0x1 PUSH1 0x0 DUP1 MLOAD PUSH1 0x20 PUSH2 0xF26 DUP4 CODECOPY DUP2 MLOAD SWAP2 MSTORE SSTORE DUP1 RETURN JUMPDEST PUSH1 0x64 SWAP1 PUSH1 0x20 DUP7 MLOAD SWAP2 PUSH3 0x461BCD PUSH1 0xE5 SHL DUP4 MSTORE DUP3 ADD MSTORE PUSH1 0xE PUSH1 0x24 DUP3 ADD MSTORE PUSH14 0x115B5C1D1E48165154C81C1BDBDB PUSH1 0x92 SHL PUSH1 0x44 DUP3 ADD MSTORE REVERT JUMPDEST DUP4 MLOAD PUSH3 0x461BCD PUSH1 0xE5 SHL DUP2 MSTORE PUSH1 0x20 DUP2 DUP6 ADD MSTORE PUSH1 0xF PUSH1 0x24 DUP3 ADD MSTORE PUSH15 0x2737902CA2A9903837B9B4BA34B7B7 PUSH1 0x89 SHL PUSH1 0x44 DUP3 ADD MSTORE PUSH1 0x64 SWAP1 REVERT JUMPDEST SWAP2 CALLER DUP6 MSTORE PUSH1 0x6 PUSH1 0x20 MSTORE DUP4 DUP6 KECCAK256 SLOAD SWAP1 DUP2 ISZERO PUSH2 0x548 JUMPI DUP4 ISZERO PUSH2 0x515 JUMPI POP PUSH2 0x502 SWAP3 SWAP2 PUSH2 0x3F2 SWAP2 PUSH2 0xD8A JUMP JUMPDEST SWAP1 CALLER DUP4 MSTORE PUSH1 0x6 PUSH1 0x20 MSTORE DUP3 DUP2 DUP2 KECCAK256 SSTORE PUSH2 0x406 JUMP JUMPDEST PUSH1 0x64 SWAP1 PUSH1 0x20 DUP7 MLOAD SWAP2 PUSH3 0x461BCD PUSH1 0xE5 SHL DUP4 MSTORE DUP3 ADD MSTORE PUSH1 0xD PUSH1 0x24 DUP3 ADD MSTORE PUSH13 0x115B5C1D1E481393C81C1BDBDB PUSH1 0x9A SHL PUSH1 0x44 DUP3 ADD MSTORE REVERT JUMPDEST PUSH1 0x64 SWAP1 PUSH1 0x20 DUP7 MLOAD SWAP2 PUSH3 0x461BCD PUSH1 0xE5 SHL DUP4 MSTORE DUP3 ADD MSTORE PUSH1 0xE PUSH1 0x24 DUP3 ADD MSTORE PUSH14 0x2737902727903837B9B4BA34B7B7 PUSH1 0x91 SHL PUSH1 0x44 DUP3 ADD MSTORE REVERT JUMPDEST POP PUSH1 0x20 PUSH1 0x64 SWAP3 MLOAD SWAP2 PUSH3 0x461BCD PUSH1 0xE5 SHL DUP4 MSTORE DUP3 ADD MSTORE PUSH1 0xC PUSH1 0x24 DUP3 ADD MSTORE PUSH12 0x139BDD081C995CDBDB1D9959 PUSH1 0xA2 SHL PUSH1 0x44 DUP3 ADD MSTORE REVERT JUMPDEST DUP3 DUP1 REVERT JUMPDEST POP DUP3 CALLVALUE PUSH2 0x5AE JUMPI DUP3 PUSH1 0x3 NOT CALLDATASIZE ADD SLT PUSH2 0x5AE JUMPI PUSH1 0x20 SWAP3 POP SLOAD SWAP1 MLOAD SWAP1 DUP2 MSTORE RETURN JUMPDEST POP DUP3 SWAP1 CALLVALUE PUSH2 0x5AE JUMPI PUSH1 0x20 CALLDATASIZE PUSH1 0x3 NOT ADD SLT PUSH2 0x5AE JUMPI DUP2 CALLDATALOAD SWAP2 PUSH1 0xFF DUP4 AND DUP1 SWAP4 SUB PUSH2 0x731 JUMPI PUSH32 0x0 PUSH1 0x1 PUSH1 0x1 PUSH1 0xA0 SHL SUB AND CALLER SUB PUSH2 0x700 JUMPI PUSH1 0x7 SLOAD SWAP1 PUSH1 0xFF DUP3 PUSH1 0x8 SHR AND PUSH2 0x6CA JUMPI PUSH1 0x1 DUP5 EQ DUP1 ISZERO PUSH2 0x6C0 JUMPI JUMPDEST ISZERO PUSH2 0x67D JUMPI POP PUSH2 0xFFFF NOT AND DUP3 OR PUSH2 0x100 OR PUSH1 0x7 SSTORE MLOAD SWAP1 DUP2 MSTORE PUSH32 0x94E5F71D5001613EB5E4AD876ACB1DA127582270C692C34FBCF810BE21728B1D SWAP1 PUSH1 0x20 SWAP1 LOG1 DUP1 RETURN JUMPDEST PUSH1 0x64 SWAP1 PUSH1 0x20 DUP5 MLOAD SWAP2 PUSH3 0x461BCD PUSH1 0xE5 SHL DUP4 MSTORE DUP3 ADD MSTORE PUSH1 0x1C PUSH1 0x24 DUP3 ADD MSTORE PUSH32 0x496E76616C6964206F7574636F6D652028313D59455320323D4E4F2900000000 PUSH1 0x44 DUP3 ADD MSTORE REVERT JUMPDEST POP PUSH1 0x2 DUP5 EQ PUSH2 0x63C JUMP JUMPDEST PUSH1 0x64 SWAP1 PUSH1 0x20 DUP5 MLOAD SWAP2 PUSH3 0x461BCD PUSH1 0xE5 SHL DUP4 MSTORE DUP3 ADD MSTORE PUSH1 0x10 PUSH1 0x24 DUP3 ADD MSTORE PUSH16 0x105B1C9958591E481C995CDBDB1D9959 PUSH1 0x82 SHL PUSH1 0x44 DUP3 ADD MSTORE REVERT JUMPDEST PUSH1 0x20 PUSH1 0x64 SWAP3 MLOAD SWAP2 PUSH3 0x461BCD PUSH1 0xE5 SHL DUP4 MSTORE DUP3 ADD MSTORE PUSH1 0xC PUSH1 0x24 DUP3 ADD MSTORE PUSH12 0x2737BA103932B9B7B63B32B9 PUSH1 0xA1 SHL PUSH1 0x44 DUP3 ADD MSTORE REVERT JUMPDEST DUP4 DUP1 REVERT JUMPDEST POP CALLVALUE PUSH2 0x222 JUMPI DUP2 PUSH1 0x3 NOT CALLDATASIZE ADD SLT PUSH2 0x222 JUMPI PUSH1 0x20 SWAP1 MLOAD PUSH1 0x64 DUP2 MSTORE RETURN JUMPDEST POP CALLVALUE PUSH2 0x222 JUMPI DUP2 PUSH1 0x3 NOT CALLDATASIZE ADD SLT PUSH2 0x222 JUMPI PUSH1 0x20 SWAP1 PUSH2 0x76C PUSH2 0xDCA JUMP JUMPDEST SWAP1 MLOAD SWAP1 DUP2 MSTORE RETURN JUMPDEST POP CALLVALUE PUSH2 0x222 JUMPI DUP2 PUSH1 0x3 NOT CALLDATASIZE ADD SLT PUSH2 0x222 JUMPI PUSH1 0x20 SWAP1 PUSH1 0x3 SLOAD SWAP1 MLOAD SWAP1 DUP2 MSTORE RETURN JUMPDEST POP SWAP1 CALLVALUE PUSH2 0x7B5 JUMPI DUP1 PUSH1 0x3 NOT CALLDATASIZE ADD SLT PUSH2 0x7B5 JUMPI POP PUSH2 0x76C PUSH1 0x20 SWAP3 PUSH1 0x3 SLOAD SWAP1 SLOAD SWAP1 PUSH2 0xD67 JUMP JUMPDEST DUP1 REVERT JUMPDEST POP DUP3 CALLVALUE PUSH2 0x5AE JUMPI PUSH1 0x20 CALLDATASIZE PUSH1 0x3 NOT ADD SLT PUSH2 0x5AE JUMPI CALLDATALOAD PUSH1 0x1 PUSH1 0x1 PUSH1 0xA0 SHL SUB DUP2 AND SWAP1 DUP2 SWAP1 SUB PUSH2 0x5AE JUMPI DUP3 DUP3 SWAP2 PUSH1 0x20 SWAP5 MSTORE PUSH1 0x5 DUP5 MSTORE KECCAK256 SLOAD SWAP1 MLOAD SWAP1 DUP2 MSTORE RETURN JUMPDEST POP DUP3 SWAP1 CALLVALUE PUSH2 0x5AE JUMPI PUSH1 0x20 CALLDATASIZE PUSH1 0x3 NOT ADD SLT PUSH2 0x5AE JUMPI PUSH32 0xCE33B1A575FB35DA3D3F46CEA9FA626686E5725921CFF95E22F86D4727F71BD1 SWAP1 DUP3 CALLDATALOAD SWAP3 PUSH2 0x833 PUSH2 0xE07 JUMP JUMPDEST PUSH2 0x845 PUSH1 0xFF PUSH1 0x7 SLOAD PUSH1 0x8 SHR AND ISZERO PUSH2 0xCEF JUMP JUMPDEST PUSH2 0x850 DUP5 ISZERO ISZERO PUSH2 0xD2D JUMP JUMPDEST PUSH2 0x87C DUP5 ADDRESS CALLER PUSH32 0x0 PUSH2 0xE37 JUMP JUMPDEST CALLER DUP6 MSTORE PUSH1 0x6 PUSH1 0x20 MSTORE DUP2 DUP6 KECCAK256 PUSH2 0x892 DUP6 DUP3 SLOAD PUSH2 0xD67 JUMP JUMPDEST SWAP1 SSTORE PUSH2 0x89F DUP5 DUP3 SLOAD PUSH2 0xD67 JUMP JUMPDEST SWAP1 SSTORE DUP1 MLOAD SWAP3 DUP5 DUP5 MSTORE PUSH1 0x20 DUP5 ADD MSTORE CALLER SWAP3 LOG2 PUSH1 0x1 PUSH1 0x0 DUP1 MLOAD PUSH1 0x20 PUSH2 0xF26 DUP4 CODECOPY DUP2 MLOAD SWAP2 MSTORE SSTORE DUP1 RETURN JUMPDEST POP CALLVALUE PUSH2 0x222 JUMPI DUP2 PUSH1 0x3 NOT CALLDATASIZE ADD SLT PUSH2 0x222 JUMPI DUP1 MLOAD SWAP1 DUP3 DUP4 SLOAD PUSH1 0x1 DUP2 PUSH1 0x1 SHR SWAP1 PUSH1 0x1 DUP4 AND SWAP3 DUP4 ISZERO PUSH2 0x993 JUMPI JUMPDEST PUSH1 0x20 SWAP4 DUP5 DUP5 LT DUP2 EQ PUSH2 0x205 JUMPI DUP4 DUP9 MSTORE SWAP1 DUP2 ISZERO PUSH2 0x1E9 JUMPI POP PUSH1 0x1 EQ PUSH2 0x93E JUMPI POP POP POP DUP3 SWAP1 SUB PUSH1 0x1F ADD PUSH1 0x1F NOT AND DUP3 ADD SWAP3 PUSH8 0xFFFFFFFFFFFFFFFF DUP5 GT DUP4 DUP6 LT OR PUSH2 0x180 JUMPI POP DUP3 SWAP2 DUP3 PUSH2 0x17C SWAP3 MSTORE DUP3 PUSH2 0xCA6 JUMP JUMPDEST DUP7 DUP1 MSTORE SWAP2 SWAP3 POP DUP6 SWAP2 DUP4 PUSH32 0x290DECD9548B62A8D60345A988386FC84BA6BC95484008F6362F93160EF3E563 JUMPDEST DUP4 DUP6 LT PUSH2 0x97F JUMPI POP POP POP POP DUP4 ADD ADD CODESIZE DUP1 DUP1 PUSH2 0x14A JUMP JUMPDEST DUP1 SLOAD DUP9 DUP7 ADD DUP4 ADD MSTORE SWAP4 ADD SWAP3 DUP5 SWAP1 DUP3 ADD PUSH2 0x969 JUMP JUMPDEST SWAP2 PUSH1 0x7F AND SWAP2 PUSH2 0x8EE JUMP JUMPDEST POP CALLVALUE PUSH2 0x222 JUMPI DUP2 PUSH1 0x3 NOT CALLDATASIZE ADD SLT PUSH2 0x222 JUMPI PUSH1 0x20 SWAP1 PUSH1 0xFF PUSH1 0x7 SLOAD PUSH1 0x8 SHR AND SWAP1 MLOAD SWAP1 ISZERO ISZERO DUP2 MSTORE RETURN JUMPDEST POP CALLVALUE PUSH2 0x222 JUMPI DUP2 PUSH1 0x3 NOT CALLDATASIZE ADD SLT PUSH2 0x222 JUMPI MLOAD PUSH32 0x0 PUSH1 0x1 PUSH1 0x1 PUSH1 0xA0 SHL SUB AND DUP2 MSTORE PUSH1 0x20 SWAP1 RETURN JUMPDEST POP CALLVALUE PUSH2 0x222 JUMPI DUP2 PUSH1 0x3 NOT CALLDATASIZE ADD SLT PUSH2 0x222 JUMPI PUSH1 0x20 SWAP1 PUSH1 0xFF PUSH1 0x7 SLOAD AND SWAP1 MLOAD SWAP1 DUP2 MSTORE RETURN JUMPDEST POP CALLVALUE PUSH2 0x222 JUMPI PUSH1 0x20 CALLDATASIZE PUSH1 0x3 NOT ADD SLT PUSH2 0x222 JUMPI DUP3 CALLDATALOAD SWAP1 PUSH2 0xA44 PUSH2 0xE07 JUMP JUMPDEST PUSH2 0xA56 PUSH1 0xFF PUSH1 0x7 SLOAD PUSH1 0x8 SHR AND ISZERO PUSH2 0xCEF JUMP JUMPDEST CALLER DUP4 MSTORE PUSH1 0x5 PUSH1 0x20 MSTORE DUP2 DUP2 DUP5 KECCAK256 SLOAD LT PUSH2 0xB21 JUMPI PUSH1 0x64 DUP3 MUL DUP3 DUP2 DIV PUSH1 0x64 EQ DUP4 ISZERO OR ISZERO PUSH2 0x33C JUMPI SWAP1 PUSH2 0xAAA PUSH2 0x2710 PUSH32 0xFBDB18150F1548F92BEF14EC13AACA92A801ED96744042AB21A732E145B9B774 SWAP4 DIV DUP5 PUSH2 0xDBD JUMP JUMPDEST SWAP3 CALLER DUP6 MSTORE PUSH1 0x5 PUSH1 0x20 MSTORE PUSH2 0xAC1 DUP3 DUP7 KECCAK256 SWAP2 DUP3 SLOAD PUSH2 0xDBD JUMP JUMPDEST SWAP1 SSTORE PUSH2 0xACF DUP4 PUSH1 0x3 SLOAD PUSH2 0xDBD JUMP JUMPDEST PUSH1 0x3 SSTORE PUSH2 0xAFD DUP4 CALLER PUSH32 0x0 PUSH2 0xEC4 JUMP JUMPDEST DUP1 MLOAD SWAP3 PUSH1 0x1 DUP5 MSTORE PUSH1 0x20 DUP5 ADD MSTORE CALLER SWAP3 LOG2 PUSH1 0x1 PUSH1 0x0 DUP1 MLOAD PUSH1 0x20 PUSH2 0xF26 DUP4 CODECOPY DUP2 MLOAD SWAP2 MSTORE SSTORE DUP1 RETURN JUMPDEST MLOAD PUSH3 0x461BCD PUSH1 0xE5 SHL DUP2 MSTORE PUSH1 0x20 DUP2 DUP6 ADD MSTORE PUSH1 0x10 PUSH1 0x24 DUP3 ADD MSTORE PUSH16 0x496E73756666696369656E7420594553 PUSH1 0x80 SHL PUSH1 0x44 DUP3 ADD MSTORE PUSH1 0x64 SWAP1 REVERT JUMPDEST POP DUP3 CALLVALUE PUSH2 0x5AE JUMPI PUSH1 0x20 CALLDATASIZE PUSH1 0x3 NOT ADD SLT PUSH2 0x5AE JUMPI CALLDATALOAD PUSH1 0x1 PUSH1 0x1 PUSH1 0xA0 SHL SUB DUP2 AND SWAP1 DUP2 SWAP1 SUB PUSH2 0x5AE JUMPI DUP3 DUP3 SWAP2 PUSH1 0x20 SWAP5 MSTORE PUSH1 0x6 DUP5 MSTORE KECCAK256 SLOAD SWAP1 MLOAD SWAP1 DUP2 MSTORE RETURN JUMPDEST POP DUP3 CALLVALUE PUSH2 0x5AE JUMPI PUSH1 0x20 CALLDATASIZE PUSH1 0x3 NOT ADD SLT PUSH2 0x5AE JUMPI PUSH32 0xCE33B1A575FB35DA3D3F46CEA9FA626686E5725921CFF95E22F86D4727F71BD1 SWAP1 CALLDATALOAD SWAP2 PUSH2 0xBCF PUSH2 0xE07 JUMP JUMPDEST PUSH2 0xBE1 PUSH1 0xFF PUSH1 0x7 SLOAD PUSH1 0x8 SHR AND ISZERO PUSH2 0xCEF JUMP JUMPDEST PUSH2 0xBEC DUP4 ISZERO ISZERO PUSH2 0xD2D JUMP JUMPDEST PUSH2 0xC18 DUP4 ADDRESS CALLER PUSH32 0x0 PUSH2 0xE37 JUMP JUMPDEST CALLER DUP5 MSTORE PUSH1 0x5 PUSH1 0x20 MSTORE DUP1 DUP5 KECCAK256 PUSH2 0xC2E DUP5 DUP3 SLOAD PUSH2 0xD67 JUMP JUMPDEST SWAP1 SSTORE PUSH2 0xC3C DUP4 PUSH1 0x3 SLOAD PUSH2 0xD67 JUMP JUMPDEST PUSH1 0x3 SSTORE DUP1 MLOAD SWAP3 PUSH1 0x1 DUP5 MSTORE PUSH1 0x20 DUP5 ADD MSTORE CALLER SWAP3 LOG2 PUSH1 0x1 PUSH1 0x0 DUP1 MLOAD PUSH1 0x20 PUSH2 0xF26 DUP4 CODECOPY DUP2 MLOAD SWAP2 MSTORE SSTORE DUP1 RETURN JUMPDEST DUP4 SWAP1 CALLVALUE PUSH2 0x222 JUMPI DUP2 PUSH1 0x3 NOT CALLDATASIZE ADD SLT PUSH2 0x222 JUMPI PUSH32 0x0 PUSH1 0x1 PUSH1 0x1 PUSH1 0xA0 SHL SUB AND DUP2 MSTORE PUSH1 0x20 SWAP1 RETURN JUMPDEST PUSH1 0x20 DUP1 DUP3 MSTORE DUP3 MLOAD DUP2 DUP4 ADD DUP2 SWAP1 MSTORE SWAP1 SWAP4 SWAP3 PUSH1 0x0 JUMPDEST DUP3 DUP2 LT PUSH2 0xCDB JUMPI POP POP PUSH1 0x40 SWAP3 SWAP4 POP PUSH1 0x0 DUP4 DUP3 DUP5 ADD ADD MSTORE PUSH1 0x1F DUP1 NOT SWAP2 ADD AND ADD ADD SWAP1 JUMP JUMPDEST DUP2 DUP2 ADD DUP7 ADD MLOAD DUP5 DUP3 ADD PUSH1 0x40 ADD MSTORE DUP6 ADD PUSH2 0xCB9 JUMP JUMPDEST ISZERO PUSH2 0xCF6 JUMPI JUMP JUMPDEST PUSH1 0x40 MLOAD PUSH3 0x461BCD PUSH1 0xE5 SHL DUP2 MSTORE PUSH1 0x20 PUSH1 0x4 DUP3 ADD MSTORE PUSH1 0xF PUSH1 0x24 DUP3 ADD MSTORE PUSH15 0x13585C9AD95D081C995CDBDB1D9959 PUSH1 0x8A SHL PUSH1 0x44 DUP3 ADD MSTORE PUSH1 0x64 SWAP1 REVERT JUMPDEST ISZERO PUSH2 0xD34 JUMPI JUMP JUMPDEST PUSH1 0x40 MLOAD PUSH3 0x461BCD PUSH1 0xE5 SHL DUP2 MSTORE PUSH1 0x20 PUSH1 0x4 DUP3 ADD MSTORE PUSH1 0xB PUSH1 0x24 DUP3 ADD MSTORE PUSH11 0x16995C9BC8185B5BDD5B9D PUSH1 0xAA SHL PUSH1 0x44 DUP3 ADD MSTORE PUSH1 0x64 SWAP1 REVERT JUMPDEST SWAP2 SWAP1 DUP3 ADD DUP1 SWAP3 GT PUSH2 0xD74 JUMPI JUMP JUMPDEST PUSH4 0x4E487B71 PUSH1 0xE0 SHL PUSH1 0x0 MSTORE PUSH1 0x11 PUSH1 0x4 MSTORE PUSH1 0x24 PUSH1 0x0 REVERT JUMPDEST DUP2 DUP2 MUL SWAP3 SWAP2 DUP2 ISZERO SWAP2 DUP5 DIV EQ OR ISZERO PUSH2 0xD74 JUMPI JUMP JUMPDEST DUP2 ISZERO PUSH2 0xDA7 JUMPI DIV SWAP1 JUMP JUMPDEST PUSH4 0x4E487B71 PUSH1 0xE0 SHL PUSH1 0x0 MSTORE PUSH1 0x12 PUSH1 0x4 MSTORE PUSH1 0x24 PUSH1 0x0 REVERT JUMPDEST SWAP2 SWAP1 DUP3 SUB SWAP2 DUP3 GT PUSH2 0xD74 JUMPI JUMP JUMPDEST PUSH1 0x3 SLOAD PUSH2 0xDD9 PUSH1 0x4 SLOAD DUP3 PUSH2 0xD67 JUMP JUMPDEST DUP1 ISZERO PUSH2 0xDFF JUMPI PUSH2 0x2710 SWAP2 DUP3 DUP2 MUL SWAP3 DUP2 DUP5 DIV EQ SWAP1 ISZERO OR ISZERO PUSH2 0xD74 JUMPI PUSH2 0xDFC SWAP2 PUSH2 0xD9D JUMP JUMPDEST SWAP1 JUMP JUMPDEST POP POP PUSH2 0x1388 SWAP1 JUMP JUMPDEST PUSH1 0x0 DUP1 MLOAD PUSH1 0x20 PUSH2 0xF26 DUP4 CODECOPY DUP2 MLOAD SWAP2 MSTORE PUSH1 0x2 DUP2 SLOAD EQ PUSH2 0xE25 JUMPI PUSH1 0x2 SWAP1 SSTORE JUMP JUMPDEST PUSH1 0x40 MLOAD PUSH4 0x3EE5AEB5 PUSH1 0xE0 SHL DUP2 MSTORE PUSH1 0x4 SWAP1 REVERT JUMPDEST PUSH1 0x40 MLOAD PUSH4 0x23B872DD PUSH1 0xE0 SHL PUSH1 0x0 SWAP1 DUP2 MSTORE PUSH1 0x1 PUSH1 0x1 PUSH1 0xA0 SHL SUB SWAP4 DUP5 AND PUSH1 0x4 MSTORE SWAP4 DUP4 AND PUSH1 0x24 MSTORE PUSH1 0x44 SWAP5 SWAP1 SWAP5 MSTORE SWAP1 SWAP2 PUSH1 0x20 SWAP1 PUSH1 0x64 DUP2 DUP1 DUP6 GAS CALL PUSH1 0x1 PUSH1 0x0 MLOAD EQ DUP2 AND ISZERO PUSH2 0xEA4 JUMPI JUMPDEST DUP4 PUSH1 0x40 MSTORE PUSH1 0x0 PUSH1 0x60 MSTORE ISZERO PUSH2 0xE8E JUMPI POP POP POP JUMP JUMPDEST PUSH4 0x5274AFE7 PUSH1 0xE0 SHL DUP4 MSTORE AND PUSH1 0x4 DUP3 ADD MSTORE PUSH1 0x24 SWAP2 POP REVERT JUMPDEST PUSH1 0x1 DUP2 ISZERO AND PUSH2 0xEBA JUMPI DUP2 EXTCODESIZE ISZERO ISZERO RETURNDATASIZE ISZERO AND AND PUSH2 0xE7B JUMP JUMPDEST DUP4 RETURNDATASIZE PUSH1 0x0 DUP3 RETURNDATACOPY RETURNDATASIZE SWAP1 REVERT JUMPDEST PUSH1 0x40 MLOAD PUSH4 0xA9059CBB PUSH1 0xE0 SHL PUSH1 0x0 SWAP1 DUP2 MSTORE PUSH1 0x1 PUSH1 0x1 PUSH1 0xA0 SHL SUB SWAP4 DUP5 AND PUSH1 0x4 MSTORE PUSH1 0x24 SWAP5 SWAP1 SWAP5 MSTORE SWAP3 PUSH1 0x20 SWAP1 PUSH1 0x44 DUP2 DUP1 DUP6 GAS CALL PUSH1 0x1 PUSH1 0x0 MLOAD EQ DUP2 AND ISZERO PUSH2 0xF0F JUMPI JUMPDEST DUP4 PUSH1 0x40 MSTORE ISZERO PUSH2 0xE8E JUMPI POP POP POP JUMP JUMPDEST PUSH1 0x1 DUP2 ISZERO AND PUSH2 0xEBA JUMPI DUP2 EXTCODESIZE ISZERO ISZERO RETURNDATASIZE ISZERO AND AND PUSH2 0xF01 JUMP INVALID SWAP12 PUSH24 0x9B17422D0DF92223018B32B4D1FA46E071723D6817E2486D STOP EXTCODESIZE 0xEC 0xC5 PUSH0 STOP LOG2 PUSH5 0x6970667358 0x22 SLT KECCAK256 JUMP 0xDC DUP14 CALL CHAINID 0xBB 0xBA 0xA7 BLOBHASH BALANCE 0xB4 SWAP14 0xC7 BLOBHASH ADD 0x4E 0xC0 PUSH26 0xBA9940F27EFA2EE3F9FC04FEC3C564736F6C63430008180033A2 PUSH5 0x6970667358 0x22 SLT KECCAK256 0x2C 0xEE PUSH15 0xF549EAAAB50DCCDE5D1BB77DB67748 0xC3 0xE 0xA7 0xE8 STATICCALL PUSH31 0xAD7AC59E65FC030564736F6C63430008180033000000000000000000000000 "},"methodIdentifiers":{"createMarket(string,string,uint256)":"f98b7783","getMarket(uint256)":"eb44fdd3","getMarketCount()":"fd69f3c2","getMarkets()":"ec2c9016","owner()":"8da5cb5b","resolveMarket(address,uint8)":"ccb25184","transferOwnership(address)":"f2fde38b","usdc()":"3e413bee"}}}}}