{"src/LaunchpadFactory.sol":{"LaunchpadFactory":{"abi":[{"inputs":[{"internalType":"uint256","name":"_creationFee","type":"uint256"},{"internalType":"address","name":"_feeRecipient","type":"address"}],"stateMutability":"nonpayable","type":"constructor"},{"anonymous":false,"inputs":[{"indexed":true,"internalType":"address","name":"tokenAddress","type":"address"},{"indexed":true,"internalType":"address","name":"launcherAddress","type":"address"},{"indexed":true,"internalType":"address","name":"creator","type":"address"},{"indexed":false,"internalType":"string","name":"name","type":"string"},{"indexed":false,"internalType":"string","name":"symbol","type":"string"},{"indexed":false,"internalType":"string","name":"imageUri","type":"string"},{"indexed":false,"internalType":"uint256","name":"maxSupply","type":"uint256"},{"indexed":false,"internalType":"uint256","name":"feePerMine","type":"uint256"}],"name":"TokenCreated","type":"event"},{"inputs":[{"internalType":"string","name":"name","type":"string"},{"internalType":"string","name":"symbol","type":"string"},{"internalType":"string","name":"imageUri","type":"string"},{"internalType":"uint256","name":"maxSupply","type":"uint256"},{"internalType":"uint256","name":"mineAmount","type":"uint256"},{"internalType":"uint256","name":"cooldown","type":"uint256"},{"internalType":"uint256","name":"dailyMax","type":"uint256"},{"internalType":"uint256","name":"feePerMine","type":"uint256"},{"internalType":"uint256","name":"refundWindowSeconds","type":"uint256"},{"internalType":"uint8","name":"ammFlags","type":"uint8"}],"name":"createToken","outputs":[{"internalType":"address","name":"tokenAddr","type":"address"},{"internalType":"address","name":"launcherAddr","type":"address"}],"stateMutability":"payable","type":"function"},{"inputs":[],"name":"creationFee","outputs":[{"internalType":"uint256","name":"","type":"uint256"}],"stateMutability":"view","type":"function"},{"inputs":[],"name":"feeRecipient","outputs":[{"internalType":"address","name":"","type":"address"}],"stateMutability":"view","type":"function"},{"inputs":[{"internalType":"uint256","name":"index","type":"uint256"}],"name":"getToken","outputs":[{"components":[{"internalType":"address","name":"tokenAddress","type":"address"},{"internalType":"address","name":"launcherAddress","type":"address"},{"internalType":"string","name":"name","type":"string"},{"internalType":"string","name":"symbol","type":"string"},{"internalType":"string","name":"imageUri","type":"string"},{"internalType":"address","name":"creator","type":"address"},{"internalType":"uint256","name":"createdAt","type":"uint256"},{"internalType":"uint256","name":"maxSupply","type":"uint256"},{"internalType":"uint256","name":"mineAmount","type":"uint256"},{"internalType":"uint256","name":"cooldownSeconds","type":"uint256"},{"internalType":"uint256","name":"dailyMax","type":"uint256"},{"internalType":"uint256","name":"feePerMine","type":"uint256"},{"internalType":"uint256","name":"refundWindowSeconds","type":"uint256"}],"internalType":"struct LaunchpadFactory.TokenRecord","name":"","type":"tuple"}],"stateMutability":"view","type":"function"},{"inputs":[],"name":"getTokenCount","outputs":[{"internalType":"uint256","name":"","type":"uint256"}],"stateMutability":"view","type":"function"},{"inputs":[{"internalType":"uint256","name":"from","type":"uint256"},{"internalType":"uint256","name":"count","type":"uint256"}],"name":"getTokens","outputs":[{"components":[{"internalType":"address","name":"tokenAddress","type":"address"},{"internalType":"address","name":"launcherAddress","type":"address"},{"internalType":"string","name":"name","type":"string"},{"internalType":"string","name":"symbol","type":"string"},{"internalType":"string","name":"imageUri","type":"string"},{"internalType":"address","name":"creator","type":"address"},{"internalType":"uint256","name":"createdAt","type":"uint256"},{"internalType":"uint256","name":"maxSupply","type":"uint256"},{"internalType":"uint256","name":"mineAmount","type":"uint256"},{"internalType":"uint256","name":"cooldownSeconds","type":"uint256"},{"internalType":"uint256","name":"dailyMax","type":"uint256"},{"internalType":"uint256","name":"feePerMine","type":"uint256"},{"internalType":"uint256","name":"refundWindowSeconds","type":"uint256"}],"internalType":"struct LaunchpadFactory.TokenRecord[]","name":"result","type":"tuple[]"}],"stateMutability":"view","type":"function"},{"inputs":[{"internalType":"address","name":"","type":"address"}],"name":"isLauncher","outputs":[{"internalType":"bool","name":"","type":"bool"}],"stateMutability":"view","type":"function"},{"inputs":[{"internalType":"address","name":"","type":"address"}],"name":"launcherByToken","outputs":[{"internalType":"address","name":"","type":"address"}],"stateMutability":"view","type":"function"},{"inputs":[],"name":"owner","outputs":[{"internalType":"address","name":"","type":"address"}],"stateMutability":"view","type":"function"},{"inputs":[{"internalType":"uint256","name":"fee","type":"uint256"}],"name":"setCreationFee","outputs":[],"stateMutability":"nonpayable","type":"function"},{"inputs":[{"internalType":"address","name":"recipient","type":"address"}],"name":"setFeeRecipient","outputs":[],"stateMutability":"nonpayable","type":"function"},{"inputs":[{"internalType":"uint256","name":"","type":"uint256"}],"name":"tokens","outputs":[{"internalType":"address","name":"tokenAddress","type":"address"},{"internalType":"address","name":"launcherAddress","type":"address"},{"internalType":"string","name":"name","type":"string"},{"internalType":"string","name":"symbol","type":"string"},{"internalType":"string","name":"imageUri","type":"string"},{"internalType":"address","name":"creator","type":"address"},{"internalType":"uint256","name":"createdAt","type":"uint256"},{"internalType":"uint256","name":"maxSupply","type":"uint256"},{"internalType":"uint256","name":"mineAmount","type":"uint256"},{"internalType":"uint256","name":"cooldownSeconds","type":"uint256"},{"internalType":"uint256","name":"dailyMax","type":"uint256"},{"internalType":"uint256","name":"feePerMine","type":"uint256"},{"internalType":"uint256","name":"refundWindowSeconds","type":"uint256"}],"stateMutability":"view","type":"function"},{"inputs":[{"internalType":"address","name":"newOwner","type":"address"}],"name":"transferOwnership","outputs":[],"stateMutability":"nonpayable","type":"function"}],"evm":{"bytecode":{"linkReferences":{},"object":"60803461008557601f61543a38819003918201601f19168301916001600160401b0383118484101761008a5780849260409485528339810103126100855780516020909101516001600160a01b03811691908290036100855760018060a01b03199033826005541617600555600355600454161760045560405161539990816100a18239f35b600080fd5b634e487b7160e01b600052604160045260246000fdfe60808060405260043610156200001457600080fd5b600090813560e01c90816346904840146200116457508063494cfc6c14620010da5780634f64b2be1462000fbf57806378a895671462000fa05780637fca8f7b1462000f5e5780638da5cb5b1462000f33578063b7d862251462000eff578063dce0b4e41462000edf578063e4b50cb81462000e3b578063e74b981b1462000de4578063f2fde38b1462000d92578063f7942f0114620001095763fa275e1114620000be57600080fd5b346200010657602036600319011262000106576004356001600160a01b03811690819003620001025760408260ff9260209452600284522054166040519015158152f35b5080fd5b80fd5b5061014036600319011262000106576004356001600160401b03811162000102576200013a9036906004016200141e565b916024356001600160401b03811162000102576200015d9036906004016200141e565b6044949194356001600160401b03811162000d8e57620001829036906004016200141e565b959091610124359560ff8716870362000d8a57600354341062000d35576064351562000ce05760843515158062000cd1575b1562000c805760a4351562000c2c5760843560c4351062000bd7578415158062000bcd575b1562000b7c57610104351562000b235760ff871615158062000b14575b1562000ac4573415158062000aaf575b62000a12575b604051806111248101106001600160401b0361112483011117620009fe57611124620017db823960806111248201528062000294620002706200025860806111248501018a876200177d565b6111248401810360206111248601015286886200177d565b606435604061112485010152611124830181036060611124850101528b886200177d565b039087f0968715620009f3576040519081612a658101106001600160401b03612a6584011117620009df5760ff90612a65620028ff84396001600160a01b038a16612a658401908152336020820152608435604082015260a435606082015260c435608082015260e43560a08201526101043560c0820152911660e0820152819003610100019087f0958615620009d3576001600160a01b0388163b15620001065760405163f2fde38b60e01b81526001600160a01b03888116600483015282908290602490829084908e165af18015620009c857620009af575b506001600160a01b03888116825260016020818152604080852080546001600160a01b031916948c16948517905592845260029052818320805460ff1916909117905551620003be8162001318565b6001600160a01b03898116825288166020820152620003df3688856200179e565b6040820152620003f13685876200179e565b606082015262000403368b886200179e565b60808201523360a08201524260c082015260643560e082015260843561010082015260a43561012082015260c43561014082015260e43561016082015261010435610180820152815468010000000000000000811015620008b2578060016200046f920184556200128c565b9290926200099b57815183546001600160a01b039182166001600160a01b0319918216178555602084015160018601805491909316911617905560408201518051906001600160401b038211620008b2578190620004d16002870154620012db565b601f811162000946575b50602090601f8311600114620008d2578492620008c6575b50508160011b916000199060031b1c19161760028401555b60608201518051906001600160401b038211620008b2578190620005336003870154620012db565b601f81116200085d575b50602090601f8311600114620007e9578492620007dd575b50508160011b916000199060031b1c19161760038401555b6080820151908151916001600160401b038311620007c957620005946004860154620012db565b601f811162000780575b50602091601f8411600114620006f45761018060409e9895856200066a96620006799a96620006879e9d9a96600c9692620006e8575b50508160011b916000199060031b1c19161760048501555b6005840160018060a01b0360a0830151166bffffffffffffffffffffffff60a01b82541617905560c0810151600685015560e0810151600785015561010081015160088501556101208101516009850155610140810151600a850155610160810151600b85015501519101558b519860a08a5260a08a01916200177d565b9187830360208901526200177d565b91848303888601526200177d565b606435606083015260e435608083015233916001600160a01b0384811692908616917fcdd696caabf915a69182910229d9e030e783be79e21f45024d20dda7359117639181900390a482516001600160a01b03928316815291166020820152f35b015190503880620005d4565b919060048601835260208320925b601f198516811062000767575061018060409e9895600186620006799a96620006879e9d9a96600c966200066a9a601f198116106200074d575b505050811b016004850155620005ec565b015160001960f88460031b161c191690553880806200073c565b9192602060018192868501518155019401920162000702565b60048601835260208320601f850160051c810160208610620007c1575b601f830160051c82018110620007b55750506200059e565b8481556001016200079d565b50806200079d565b634e487b7160e01b82526041600452602482fd5b01519050388062000555565b9250600386018452602084209084935b601f198416851062000841576001945083601f1981161062000827575b505050811b0160038401556200056d565b015160001960f88460031b161c1916905538808062000816565b81810151835560209485019460019093019290910190620007f9565b90915060038601845260208420601f840160051c810160208510620008aa575b90849392915b601f830160051c820181106200089b5750506200053d565b86815585945060010162000883565b50806200087d565b634e487b7160e01b83526041600452602483fd5b015190503880620004f3565b9250600286018452602084209084935b601f19841685106200092a576001945083601f1981161062000910575b505050811b0160028401556200050b565b015160001960f88460031b161c19169055388080620008ff565b81810151835560209485019460019093019290910190620008e2565b90915060028601845260208420601f840160051c81016020851062000993575b90849392915b601f830160051c8201811062000984575050620004db565b8681558594506001016200096c565b508062000966565b634e487b7160e01b81526004819052602490fd5b6001600160401b038111620007c957604052386200036f565b6040513d84823e3d90fd5b604051903d90823e3d90fd5b634e487b7160e01b88526041600452602488fd5b6040513d88823e3d90fd5b634e487b7160e01b87526041600452602487fd5b858080803460018060a01b03600454165af13d1562000aa9573d62000a378162001761565b9062000a4760405192836200134b565b81528760203d92013e5b6200020c5760405162461bcd60e51b815260206004820152602560248201527f4c61756e6368706164466163746f72793a20666565207472616e736665722066604482015264185a5b195960da1b6064820152608490fd5b62000a51565b506004546001600160a01b0316151562000206565b60405162461bcd60e51b815260206004820152602260248201527f4c61756e6368706164466163746f72793a20696e76616c696420616d6d466c61604482015261677360f01b6064820152608490fd5b50600f60ff88161115620001f6565b60405162461bcd60e51b815260206004820152602b60248201527f4c61756e6368706164466163746f72793a20726566756e642077696e646f772060448201526a06d757374206265203e20360ac1b6064820152608490fd5b60405162461bcd60e51b815260206004820152602360248201527f4c61756e6368706164466163746f72793a20656d707479206e616d652f73796d604482015262189bdb60ea1b6064820152608490fd5b50811515620001d9565b60405162461bcd60e51b815260206004820152602760248201527f4c61756e6368706164466163746f72793a206461696c794d6178203c206d696e60448201526619505b5bdd5b9d60ca1b6064820152608490fd5b60405162461bcd60e51b815260206004820152602660248201527f4c61756e6368706164466163746f72793a20636f6f6c646f776e206d7573742060448201526506265203e20360d41b6064820152608490fd5b60405162461bcd60e51b8152602060048201526024808201527f4c61756e6368706164466163746f72793a20696e76616c6964206d696e65416d6044820152631bdd5b9d60e21b6064820152608490fd5b506064356084351115620001b4565b60405162461bcd60e51b815260206004820152602760248201527f4c61756e6368706164466163746f72793a206d6178537570706c79206d7573746044820152660206265203e20360cc1b6064820152608490fd5b60405162461bcd60e51b815260206004820152602760248201527f4c61756e6368706164466163746f72793a206372656174696f6e206665652072604482015266195c5d5a5c995960ca1b6064820152608490fd5b8580fd5b8380fd5b50346200010657602036600319011262000106576004356001600160a01b038181169182900362000de05762000dcf600554918216331462001714565b6001600160a01b0319161760055580f35b8280fd5b50346200010657602036600319011262000106576004356001600160a01b038181169182900362000de05762000e209060055416331462001714565b6bffffffffffffffffffffffff60a01b600454161760045580f35b50346200010657602036600319011262000106576004359062000e5d6200149d565b505481101562000e9a5762000e8162000e7a62000e96926200128c565b506200152d565b604051918291602083526020830190620011cd565b0390f35b60405162461bcd60e51b815260206004820152601f60248201527f4c61756e6368706164466163746f72793a206f7574206f6620626f756e6473006044820152606490fd5b503462000106578060031936011262000106576020600354604051908152f35b503462000106576020366003190112620001065762000f2a60018060a01b0360055416331462001714565b60043560035580f35b503462000106578060031936011262000106576005546040516001600160a01b039091168152602090f35b50346200010657602036600319011262000106576001600160a01b036004358181169081900362000de057826040916020945260018452205416604051908152f35b5034620001065780600319360112620001065760209054604051908152f35b50346200010657602036600319011262000106576004358154811015620001025762000feb906200128c565b50805460018201546001600160a01b03908116929181169162001011600282016200136d565b9062001020600382016200136d565b6200102e600483016200136d565b936005830154169360068301546007840154600885015491600986015493600a87015495600b88015497600c0154986040519c8d9c8d6101a092839282526020820152604001528c0162001082916200118b565b8b810360608d015262001095916200118b565b8a810360808c0152620010a8916200118b565b9760a08a015260c089015260e08801526101008701526101208601526101408501526101608401526101808301520390f35b5034620001065760403660031901126200010657620010fe602435600435620015e7565b60405190602092602083016020845282518091526040840194602060408360051b870101940192955b828710620011355785850386f35b90919293828062001153600193603f198a82030186528851620011cd565b960192019601959291909262001127565b90503462000102578160031936011262000102576004546001600160a01b03168152602090f35b919082519283825260005b848110620011b8575050826000602080949584010152601f8019910116010190565b60208183018101518483018201520162001196565b906101a09162001233620012206200120d60018060a01b03958685511686528660208601511660208701526040850151908060408801528601906200118b565b606084015185820360608701526200118b565b608083015184820360808601526200118b565b9260a08201511660a083015260c081015160c083015260e081015160e083015261010080820151908301526101208082015190830152610140808201519083015261016080820151908301526101808091015191015290565b906000918254811015620012c757600d90838052027f290decd9548b62a8d60345a988386fc84ba6bc95484008f6362f93160ef3e563019190565b634e487b7160e01b83526032600452602483fd5b90600182811c921680156200130d575b6020831014620012f757565b634e487b7160e01b600052602260045260246000fd5b91607f1691620012eb565b6101a081019081106001600160401b038211176200133557604052565b634e487b7160e01b600052604160045260246000fd5b90601f801991011681019081106001600160401b038211176200133557604052565b906040519182600082546200138281620012db565b90818452602094600191600181169081600014620013fa5750600114620013b7575b505050620013b5925003836200134b565b565b600090815285812095935091905b818310620013e1575050620013b59350820101388080620013a4565b85548884018501529485019487945091830191620013c5565b92505050620013b594925060ff191682840152151560051b820101388080620013a4565b9181601f840112156200144e578235916001600160401b0383116200144e57602083818601950101116200144e57565b600080fd5b919082018092116200146157565b634e487b7160e01b600052601160045260246000fd5b919082039182116200146157565b6001600160401b038111620013355760051b60200190565b60405190620014ac8262001318565b8161018060009182815282602082015260606040820152606080820152606060808201528260a08201528260c08201528260e0820152826101008201528261012082015282610140820152826101608201520152565b8051821015620015175760209160051b010190565b634e487b7160e01b600052603260045260246000fd5b906040516200153c8162001318565b610180600c829460018060a01b038082541685528060018301541660208601526200156a600283016200136d565b60408601526200157d600383016200136d565b606086015262001590600483016200136d565b608086015260058201541660a0850152600681015460c0850152600781015460e085015260088101546101008501526009810154610120850152600a810154610140850152600b8101546101608501520154910152565b60008054909392818310156200170b578162001604828562001453565b1115620016f85750805b6200161a838362001477565b90620016268262001485565b916200163660405193846200134b565b80835262001647601f199162001485565b0160005b818110620016de5750508195846000198301928311905b858110620016735750505050505050565b81620016ca5780620016c262001696620016906001948862001477565b6200128c565b50620016ae620016a78b8562001477565b916200152d565b620016ba828a62001502565b528762001502565b500162001662565b634e487b7160e01b83526011600452602483fd5b602090620016eb6200149d565b828287010152016200164b565b62001704908362001453565b906200160e565b50606093505050565b156200171c57565b60405162461bcd60e51b815260206004820152601b60248201527f4c61756e6368706164466163746f72793a206e6f74206f776e657200000000006044820152606490fd5b6001600160401b0381116200133557601f01601f191660200190565b908060209392818452848401376000828201840152601f01601f1916010190565b929192620017ac8262001761565b91620017bc60405193846200134b565b8294818452818301116200144e57828160209384600096013701015256fe60a060405234620005125762001124803803806200001d8162000517565b9283398101608082820312620005125781516001600160401b0391908281116200051257816200004f9185016200053d565b926020808201518481116200051257836200006c9184016200053d565b91604081015193606082015186811162000512576200008c92016200053d565b9085519285841162000412576003948554946001988987811c9716801562000507575b85881014620004f1578190601f978881116200049b575b508590888311600114620004345760009262000428575b505060001982891b1c191690891b1786555b8151878111620004125760049283548a81811c9116801562000407575b86821014620003f2579081888493116200039c575b508590888311600114620003355760009262000329575b505060001982891b1c191690891b1782555b3315620003115760058054336001600160a01b0319821681179092556001600160a01b03167f8be0079c531659141344cd1fd0a4f28419497f9722a3daafe3b4186f6b6457e0600080a36080528251958611620002fc57600654908782811c92168015620002f1575b83831014620002dc575083811162000290575b508092851160011462000220575093839491849260009562000214575b50501b92600019911b1c1916176006555b604051610b749081620005b082396080518181816101ca01526105130152f35b015193503880620001e3565b92919084601f198116600660005285600020956000905b898383106200027557505050106200025a575b50505050811b01600655620001f4565b01519060f884600019921b161c19169055388080806200024a565b85870151895590970196948501948893509081019062000237565b6006600052816000208480880160051c820192848910620002d2575b0160051c019087905b828110620002c5575050620001c6565b60008155018790620002b5565b92508192620002ac565b602290634e487b7160e01b6000525260246000fd5b91607f1691620001b3565b604190634e487b7160e01b6000525260246000fd5b604051631e4fbdf760e01b8152600081840152602490fd5b01519050388062000138565b908b9350601f1983169186600052876000209260005b898282106200038557505084116200036c575b505050811b0182556200014a565b0151600019838b1b60f8161c191690553880806200035e565b8385015186558f979095019493840193016200034b565b90915084600052856000208880850160051c820192888610620003e8575b918d91869594930160051c01915b828110620003d857505062000121565b600081558594508d9101620003c8565b92508192620003ba565b602285634e487b7160e01b6000525260246000fd5b90607f16906200010c565b634e487b7160e01b600052604160045260246000fd5b015190503880620000dd565b908b9350601f198316918a600052876000209260005b898282106200048457505084116200046b575b505050811b018655620000ef565b0151600019838b1b60f8161c191690553880806200045d565b8385015186558f979095019493840193016200044a565b90915088600052856000208880850160051c820192888610620004e7575b918d91869594930160051c01915b828110620004d7575050620000c6565b600081558594508d9101620004c7565b92508192620004b9565b634e487b7160e01b600052602260045260246000fd5b96607f1696620000af565b600080fd5b6040519190601f01601f191682016001600160401b038111838210176200041257604052565b919080601f84011215620005125782516001600160401b038111620004125760209062000573601f8201601f1916830162000517565b92818452828287010111620005125760005b8181106200059b57508260009394955001015290565b85810183015184820184015282016200058556fe6080604081815260048036101561001557600080fd5b600092833560e01c90816306fdde03146108a057508063095ea7b3146107f75780630bf82da41461071a57806318160ddd146106fb57806323b872dd14610608578063313ce567146105ec57806340c10f19146104dc57806370a08231146104a5578063715018a6146104455780638da5cb5b1461041c57806395d89b41146102fa5780639dc29fac1461021e578063a9059cbb146101ed578063d5abeb01146101b2578063dd62ed3e146101655763f2fde38b146100d357600080fd5b34610161576020366003190112610161576100ec6109e0565b906100f5610b12565b6001600160a01b0391821692831561014b575050600554826bffffffffffffffffffffffff60a01b821617600555167f8be0079c531659141344cd1fd0a4f28419497f9722a3daafe3b4186f6b6457e08380a380f35b51631e4fbdf760e01b8152908101849052602490fd5b8280fd5b5050346101ae57806003193601126101ae57806020926101836109e0565b61018b6109fb565b6001600160a01b0391821683526001865283832091168252845220549051908152f35b5080fd5b5050346101ae57816003193601126101ae57602090517f00000000000000000000000000000000000000000000000000000000000000008152f35b5050346101ae57806003193601126101ae5760209061021761020d6109e0565b6024359033610a34565b5160018152f35b508290346101ae57826003193601126101ae576102396109e0565b9060243590610246610b12565b6001600160a01b0383169283156102e3578385528460205285852054918383106102af5750508184957fddf252ad1be2c89b69c2b068fc378daa952ba7f163c4a11628f55a4df523b3ef936020938688528785520381872055816002540360025551908152a380f35b865163391434e360e21b81526001600160a01b03909216908201908152602081018390526040810184905281906060010390fd5b8551634b637e8f60e11b8152808301869052602490fd5b509190346101ae57816003193601126101ae5780519082845460018160011c9060018316928315610412575b60209384841081146103ff578388529081156103e3575060011461038e575b505050829003601f01601f191682019267ffffffffffffffff84118385101761037b5750829182610377925282610997565b0390f35b634e487b7160e01b815260418552602490fd5b8787529192508591837f8a35acfbc15ff81a39ae7d344fd709f28e8600b4aa8c65c6b64bfe7fe36bd19b5b8385106103cf5750505050830101388080610345565b8054888601830152930192849082016103b9565b60ff1916878501525050151560051b8401019050388080610345565b634e487b7160e01b895260228a52602489fd5b91607f1691610326565b5050346101ae57816003193601126101ae5760055490516001600160a01b039091168152602090f35b83346104a257806003193601126104a25761045e610b12565b600580546001600160a01b0319811690915581906001600160a01b03167f8be0079c531659141344cd1fd0a4f28419497f9722a3daafe3b4186f6b6457e08280a380f35b80fd5b5050346101ae5760203660031901126101ae5760209181906001600160a01b036104cd6109e0565b16815280845220549051908152f35b5090346101615780600319360112610161576104f66109e0565b9060243591610503610b12565b600254906105118483610a11565b7f0000000000000000000000000000000000000000000000000000000000000000106105a9576001600160a01b03169384156105925750827fddf252ad1be2c89b69c2b068fc378daa952ba7f163c4a11628f55a4df523b3ef926105788795602094610a11565b60025585855284835280852082815401905551908152a380f35b825163ec442f0560e01b8152908101869052602490fd5b825162461bcd60e51b8152602081870152601f60248201527f4c61756e6368546f6b656e3a206d617820737570706c792072656163686564006044820152606490fd5b5050346101ae57816003193601126101ae576020905160128152f35b5082346104a25760603660031901126104a2576106236109e0565b61062b6109fb565b916044359360018060a01b038316808352600160205286832033845260205286832054916000198310610667575b602088610217898989610a34565b8683106106cf5781156106b85733156106a15750825260016020908152868320338452815291869020908590039055829061021787610659565b8751634a1406b160e11b8152908101849052602490fd5b875163e602df0560e01b8152908101849052602490fd5b8751637dc7a0d960e11b8152339181019182526020820193909352604081018790528291506060010390fd5b5050346101ae57816003193601126101ae576020906002549051908152f35b509190346101ae57816003193601126101ae578051908260065460018160011c90600183169283156107ed575b60209384841081146103ff578388529081156103e3575060011461079757505050829003601f01601f191682019267ffffffffffffffff84118385101761037b5750829182610377925282610997565b600687529192508591837ff652222313e28459528d920b65115c16c04f3efc82aaedc97be59f3f377c0d3f5b8385106107d95750505050830101388080610345565b8054888601830152930192849082016107c3565b91607f1691610747565b50346101615781600319360112610161576108106109e0565b602435903315610889576001600160a01b031691821561087257508083602095338152600187528181208582528752205582519081527f8c5be1e5ebec7d5bd14f71427d1e84f3dd0314c0f7b2291e5b200ac8c7c3b925843392a35160018152f35b8351634a1406b160e11b8152908101859052602490fd5b835163e602df0560e01b8152808401869052602490fd5b84915083346101615782600319360112610161578260035460018160011c906001831692831561098d575b60209384841081146103ff57838852908115610971575060011461091b57505050829003601f01601f191682019267ffffffffffffffff84118385101761037b5750829182610377925282610997565b600387529192508591837fc2575a0e9e593c00f959f8c92f12db2869c3395a3b0502d05e2516446f71f85b5b83851061095d5750505050830101858080610345565b805488860183015293019284908201610947565b60ff1916878501525050151560051b8401019050858080610345565b91607f16916108cb565b6020808252825181830181905290939260005b8281106109cc57505060409293506000838284010152601f8019910116010190565b8181018601518482016040015285016109aa565b600435906001600160a01b03821682036109f657565b600080fd5b602435906001600160a01b03821682036109f657565b91908201809211610a1e57565b634e487b7160e01b600052601160045260246000fd5b916001600160a01b03808416928315610af95716928315610ae05760009083825281602052604082205490838210610aae575091604082827fddf252ad1be2c89b69c2b068fc378daa952ba7f163c4a11628f55a4df523b3ef958760209652828652038282205586815220818154019055604051908152a3565b60405163391434e360e21b81526001600160a01b03919091166004820152602481019190915260448101839052606490fd5b60405163ec442f0560e01b815260006004820152602490fd5b604051634b637e8f60e11b815260006004820152602490fd5b6005546001600160a01b03163303610b2657565b60405163118cdaa760e01b8152336004820152602490fdfea2646970667358221220d7c215bb86bc1db55ecf6b8efc32f212a5f1daf2e07e1befcf6807d7f5c14ae764736f6c634300081800336101e060408181523462000386578162002a6580380380916200002382856200038b565b83396101009384918101031262000386576200003f81620003c5565b9060206200004f818301620003c5565b93808301519060608401519060808501519660a08601519260e060c08801519701519760ff8916808a036200038657801515908162000379575b501562000335576001600160a01b0316608081905260a0929092524260c05260e085905289526101209788526101409283526101a09586526101c0968752815163d5abeb0160e01b8152908590829060049082905afa9485156200032a57600095620002f0575b5050605f8402848104605f1485151715620002c4578315620002da57606484910404838102938185041490151715620002c457610160928084528403938411620002c457610180938452519561268a9788620003db89396080518881816102460152818161061e01528181610bd901528181610c3101528181610cdb01528181610d5401528181610ebe01528181610f2f01528181610f6101528181610fdc015281816112b30152818161132b015281816113e401528181611477015281816115d50152818161169a0152818161187e015281816118b00152818161192b0152611bc0015260a0518861222b015260c051888181610394015281816104d4015281816105ae01528181611f0101526123b6015260e051888181610a7001526120f001525187818161043b0152818161054a0152610ad10152518681816103d801528181610b360152818161232501526123500152518581816108910152610a43015251848181610312015281816104990152610a990152518381816108cc01528181610d1e01528181610e1901528181610e6601528181611808015261183a0152518281816103730152818161050f0152818161058d01528181611ee00152612395015251818181610dcc0152611e890152f35b634e487b7160e01b600052601160045260246000fd5b634e487b7160e01b600052601260045260246000fd5b8181969293963d831162000322575b6200030b81836200038b565b810103126200031f575051923880620000f0565b80fd5b503d620002ff565b82513d6000823e3d90fd5b835162461bcd60e51b815260048101889052601f60248201527f546f6b656e4c61756e636865723a20696e76616c696420616d6d466c616773006044820152606490fd5b600f915011153862000089565b600080fd5b601f909101601f19168101906001600160401b03821190821017620003af57604052565b634e487b7160e01b600052604160045260246000fd5b51906001600160a01b0382168203620003865756fe608080604052600436101561001357600080fd5b600090813560e01c90816302d05d3f14612217575080631755ff21146121ed578063189ab242146121b05780631a561d7d146121735780631b583f90146121425780631bea83fe146121135780631ca944e9146120d8578063239f3af714611f7e57806324a1e0601461209b578063262d8f381461207f5780632ace07301461205657806347377d9214610976578063518263a114612014578063519bde9414611feb5780635556db6514611fce5780635e9cfb0014611f9f57806367d1197914611f835780636a92610214611f7e5780636e1e063f14611f4d578063764fe7d114611f2f57806377c5fd7f14611ead5780637b88151514611e6f5780637fb0cf0e14611e53578063841819df146109ef5780638cb4997d146109c657806399d8fae3146109975780639e7c66941461097b578063a4155b4414610976578063a6b0a71814610947578063a82ed9ec14610918578063aac4daac146108ef578063ada29fa9146108b4578063b14e579114610879578063b5545a3c1461056d578063b8221bc414610532578063c6e8ebd8146104f7578063cf09e0d0146104bc578063d6fb167814610481578063d83f5cec14610400578063d9f8ce05146103fb578063dd1b9c4a146103fb578063e0f67bc7146103c0578063e1aa1bcc1461035b578063e7c2b77214610338578063ebba348b146102f6578063ee6b373b146102b9578063f6a50850146102785763fc0c546a1461023157600080fd5b346102755780600319360112610275576040517f00000000000000000000000000000000000000000000000000000000000000006001600160a01b03168152602090f35b80fd5b5034610275576020366003190112610275576004356001600160a01b038116908190036102b5578160409160209352600783522054604051908152f35b5080fd5b5034610275576020366003190112610275576004356001600160a01b038116908190036102b5578160409160209352600183522054604051908152f35b50346102755780600319360112610275576040905481519081527f00000000000000000000000000000000000000000000000000000000000000006020820152f35b5034610275578060031936011261027557602060ff600854166040519015158152f35b503461027557806003193601126102755760206103b87f00000000000000000000000000000000000000000000000000000000000000007f00000000000000000000000000000000000000000000000000000000000000006122b4565b604051908152f35b503461027557806003193601126102755760206040517f00000000000000000000000000000000000000000000000000000000000000008152f35b612297565b5034610275576020366003190112610275576004356001600160a01b038116908190036102b5579060209181526001825261046060408220547f0000000000000000000000000000000000000000000000000000000000000000906122b4565b4281116104705750604051908152f35b61047c915042906122d7565b6103b8565b503461027557806003193601126102755760206040517f00000000000000000000000000000000000000000000000000000000000000008152f35b503461027557806003193601126102755760206040517f00000000000000000000000000000000000000000000000000000000000000008152f35b503461027557806003193601126102755760206040517f00000000000000000000000000000000000000000000000000000000000000008152f35b503461027557806003193601126102755760206040517f00000000000000000000000000000000000000000000000000000000000000008152f35b503461027557806003193601126102755760ff6008541661081d576105d27f00000000000000000000000000000000000000000000000000000000000000007f00000000000000000000000000000000000000000000000000000000000000006122b4565b4211156107c85733815260206006815260408220549081156107855733835260078152826040812054600683528160408120556007835281604081205561061a8183546122d7565b82557f00000000000000000000000000000000000000000000000000000000000000006001600160a01b0316803b1561077657604051632770a7eb60e21b8152336004820152602481019290925282908290604490829084905af1801561077a57610762575b5080808085335af13d1561075d573d67ffffffffffffffff811161074957604051906106b5601f8201601f1916850183612449565b815284833d92013e5b156106f75760405191825242908201527f5403db5f5a330d258426b5aef83e03924750ce4a92d0d341669efdc33824c44b60403392a280f35b6084906040519062461bcd60e51b82526004820152602560248201527f546f6b656e4c61756e636865723a20726566756e64207472616e736665722066604482015264185a5b195960da1b6064820152fd5b634e487b7160e01b85526041600452602485fd5b6106be565b61076b90612402565b610776578238610680565b8280fd5b6040513d84823e3d90fd5b6064906040519062461bcd60e51b825280600483015260248201527f546f6b656e4c61756e636865723a206e6f7468696e6720746f20726566756e646044820152fd5b60405162461bcd60e51b815260206004820152602760248201527f546f6b656e4c61756e636865723a206d696e696e672077696e646f772073746960448201526636361037b832b760c91b6064820152608490fd5b60405162461bcd60e51b815260206004820152602e60248201527f546f6b656e4c61756e636865723a20746f6b656e20686173206772616475617460448201526d65642c206e6f20726566756e647360901b6064820152608490fd5b503461027557806003193601126102755760206040517f00000000000000000000000000000000000000000000000000000000000000008152f35b503461027557806003193601126102755760206040517f00000000000000000000000000000000000000000000000000000000000000008152f35b5034610275578060031936011261027557600a546040516001600160a01b039091168152602090f35b503461027557806003193601126102755760206040517354599c3e0bcb99ca37b286242b5ec5d331ab9d188152f35b50346102755780600319360112610275576020604051733714f242fe169ab5eb0d763cf79aeaca5f727e7b8152f35b612278565b5034610275578060031936011261027557602060405160028152f35b5034610275578060031936011261027557602060405173b56b00c38ef85633a789644415a16b4c8ea12ef88152f35b5034610275578060031936011261027557600b546040516001600160a01b039091168152602090f35b5060203660031901126102755767ffffffffffffffff80600435116102b5573660236004350112156102b557600435600401359081116102b557366024826004350101116102b55760ff60085416611dfb577f00000000000000000000000000000000000000000000000000000000000000003410611db757815490610a967f000000000000000000000000000000000000000000000000000000000000000080936122b4565b917f0000000000000000000000000000000000000000000000000000000000000000809311611d72573384526001602052610af660408520547f0000000000000000000000000000000000000000000000000000000000000000906122b4565b4210611d2e5733845260036020526040842054620151808101809111611cac57421015611d10575b3384526002602052610b348160408620546122b4565b7f000000000000000000000000000000000000000000000000000000000000000010611cc0573384526001602052426040852055600260205260408420610b7c8282546122b4565b9055610b898185546122b4565b8455338452600660205260408420610ba23482546122b4565b9055338452600760205260408420610bbb8282546122b4565b9055338452600560205260408420805460ff811615611c8a575b50507f00000000000000000000000000000000000000000000000000000000000000006001600160a01b03163b15611c86576040516340c10f1960e01b8152336004820152602481018290528481604481836001600160a01b037f0000000000000000000000000000000000000000000000000000000000000000165af18015611c7b57611c48575b507fbf17f40327ab4320cdfaa84231ada95fb1ba0d2d336edd47510a8207786f9c12906040519060608252836060830152836024600435016080840137856080858401015260208201524260408201526080813394601f80199101168101030190a281541015610ccb5780f35b6008805460ff19166001179055477f00000000000000000000000000000000000000000000000000000000000000006001600160a01b03163b156102b5576040516340c10f1960e01b81523060048201527f0000000000000000000000000000000000000000000000000000000000000000602482015282908181604481836001600160a01b037f0000000000000000000000000000000000000000000000000000000000000000165af1801561077a57611c34575b50506000805160206126358339815191523b156102b557604051630d0e30db60e41b815282908181600481866000805160206126358339815191525af1801561077a57611c20575b507f000000000000000000000000000000000000000000000000000000000000000090506001811615158381611c18575b60028316611c0a575b60048316611bfc575b60088316611bee575b80927f00000000000000000000000000000000000000000000000000000000000000009185936117f6575b508560028216611593575b50600481166112e1575b600816610ee3575b505050604051907f0000000000000000000000000000000000000000000000000000000000000000825260208201524260408201527f74ddd6b35eb9921605ec2cb7da4af12cd0020d2117b708ade1d30523471b7441606060018060a01b037f00000000000000000000000000000000000000000000000000000000000000001692a280f35b82610f17610f1d9260ff610f09961694610f11610f00878461246b565b9788978361246b565b9788936122d7565b506122d7565b5061248b565b506000805160206126358339815191527f00000000000000000000000000000000000000000000000000000000000000006001600160a01b0316109081156112a1577f00000000000000000000000000000000000000000000000000000000000000006001600160a01b031692600080516020612635833981519152925b1561129a579081815b60405163095ea7b360e01b815273be59000f37677d96115f397c91834dcb72dfc279600482015260248101919091526020816044818b7f00000000000000000000000000000000000000000000000000000000000000006001600160a01b03165af1801561128f57611270575b506040519063095ea7b360e01b825273be59000f37677d96115f397c91834dcb72dfc279600483015260248201526020816044818a6000805160206126358339815191525af1801561123657611241575b506110b3602061107284846125a2565b6040516309f56ab160e11b81526001600160a01b0380891660048301528088166024830152610bb86044830152909116606482015291829081906084820190565b03818a73be59000f37677d96115f397c91834dcb72dfc2795af1908115611236578791611207575b5060018060a01b03166bffffffffffffffffffffffff60a01b600b541617600b5561012c4201928342116111f357604051946111168661242c565b60018060a01b0316855260018060a01b03166020850152610bb86040850152620d89b3196060850152620d89b4608085015260a084015260c08301528360e0830152836101008301523061012083015261014082015261118760405191634418b22b60e11b8352600483019061251e565b608081610164818673be59000f37677d96115f397c91834dcb72dfc2795af180156111e8576111b8575b8080610e5d565b6111d99060803d6080116111e1575b6111d18183612449565b8101906124e3565b5050506111b1565b503d6111c7565b6040513d85823e3d90fd5b634e487b7160e01b87526011600452602487fd5b611229915060203d60201161122f575b6112218183612449565b8101906124c4565b386110db565b503d611217565b6040513d89823e3d90fd5b6112629060203d602011611269575b61125a8183612449565b8101906124ac565b5038611062565b503d611250565b6112889060203d6020116112695761125a8183612449565b5038611011565b6040513d8a823e3d90fd5b8082610fa4565b600080516020612635833981519152927f00000000000000000000000000000000000000000000000000000000000000006001600160a01b031692610f9b565b83929161131c61131660ff6113089716926113106112ff858361246b565b9889958861246b565b9485926122d7565b956122d7565b9461248b565b60405163e343361560e01b81527f00000000000000000000000000000000000000000000000000000000000000006001600160a01b031660048201526000805160206126358339815191526024820152909590916020836044818c733714f242fe169ab5eb0d763cf79aeaca5f727e7b5af1928315611588578993611567575b50600a80546001600160a01b0319166001600160a01b03851690811790915560405163095ea7b360e01b8152600481019190915260248101839052602081806044810103818d7f00000000000000000000000000000000000000000000000000000000000000006001600160a01b03165af1801561153d57611548575b5060405163095ea7b360e01b81526001600160a01b038416600482015260248101829052916020836044818d6000805160206126358339815191525af192831561153d57602093611520575b506000805160206126358339815191527f00000000000000000000000000000000000000000000000000000000000000006001600160a01b03161015611517576064905b8a60405195869485936321ec87bf60e21b85526004850152602484015230604484015260018060a01b03165af18015611236576114e7575b50610e55565b602090813d8311611510575b6114fd8183612449565b8101031261150b57386114e1565b600080fd5b503d6114f3565b906064906114a9565b61153690843d86116112695761125a8183612449565b5038611465565b6040513d8c823e3d90fd5b6115609060203d6020116112695761125a8183612449565b5038611419565b61158191935060203d60201161122f576112218183612449565b913861139c565b6040513d8b823e3d90fd5b8493926115c66115c060ff6113089816926115ba6115b1858361246b565b998a958961246b565b966122d7565b9561248b565b6040516364e329cb60e11b81527f00000000000000000000000000000000000000000000000000000000000000006001600160a01b031660048201526000805160206126358339815191526024820152909690916020836044818773b56b00c38ef85633a789644415a16b4c8ea12ef85af19182156117c9576116959385936117d4575b50600980546001600160a01b0319166001600160a01b03851690811790915560405163a9059cbb60e01b81526004810191909152602481019190915292602090849081906044820190565b0381877f00000000000000000000000000000000000000000000000000000000000000006001600160a01b03165af19081156117c957611708936020926117ac575b5060405163a9059cbb60e01b81526001600160a01b0384166004820152602481019190915292839081906044820190565b0381866000805160206126358339815191525af19182156111e85760209261178f575b506040516335313c2160e11b815230600482015292839160249183916001600160a01b03165af1801561123657611764575b5085610e4b565b602090813d8311611788575b61177a8183612449565b8101031261150b573861175d565b503d611770565b6117a590833d85116112695761125a8183612449565b503861172b565b6117c290833d85116112695761125a8183612449565b50386116d7565b6040513d86823e3d90fd5b60209193506117ef90823d841161122f576112218183612449565b929061164a565b925092505060ff811661183361182c827f000000000000000000000000000000000000000000000000000000000000000061246b565b918561246b565b9261185e827f00000000000000000000000000000000000000000000000000000000000000006122d7565b9161186c61131686886122d7565b946000805160206126358339815191527f00000000000000000000000000000000000000000000000000000000000000006001600160a01b031610918215611bae577f00000000000000000000000000000000000000000000000000000000000000006001600160a01b031692600080516020612635833981519152905b15611ba4578982845b60405163095ea7b360e01b81527377c39eb310be31e60068ce29855f83359bf85fc460048201526024810192909252602082604481867f00000000000000000000000000000000000000000000000000000000000000006001600160a01b03165af19182156111e857602092611b87575b5060446040518094819363095ea7b360e01b83527377c39eb310be31e60068ce29855f83359bf85fc4600484015260248301526000805160206126358339815191525af18015611b5d57611b68575b50611a0860206119c385856125a2565b6040516309f56ab160e11b81526001600160a01b0380891660048301528086166024830152610bb8604483015290911660648201529182908d90829081906084820190565b03917377c39eb310be31e60068ce29855f83359bf85fc45af1908115611b5d578b91611b3e575b5060088054610100600160a81b03191691811b610100600160a81b03169190911790554261012c810110611b2a5760405193611a6a8561242c565b60018060a01b0316845260018060a01b03166020840152610bb86040840152620d89b3196060840152620d89b4608084015260a083015260c08201528660e0820152866101008201523061012082015261012c4201610140820152611ae060405191634418b22b60e11b8352600483019061251e565b608081610164818a7377c39eb310be31e60068ce29855f83359bf85fc45af180156112365715610e4057611b229060803d6080116111e1576111d18183612449565b505050610e40565b634e487b7160e01b8a52601160045260248afd5b611b57915060203d60201161122f576112218183612449565b38611a2f565b6040513d8d823e3d90fd5b611b809060203d6020116112695761125a8183612449565b50386119b3565b611b9d90833d85116112695761125a8183612449565b5038611964565b89839280946118f3565b600080516020612635833981519152927f00000000000000000000000000000000000000000000000000000000000000006001600160a01b0316906118ea565b611bf79061249b565b610e15565b611c059061249b565b610e0c565b611c139061249b565b610e03565b506001610dfa565b611c2990612402565b6102b5578138610dc9565b611c3d90612402565b6102b5578138610d81565b93611c747fbf17f40327ab4320cdfaa84231ada95fb1ba0d2d336edd47510a8207786f9c129295612402565b9390610c5e565b6040513d87823e3d90fd5b8380fd5b60ff191660011790556004546000198114611cac576001016004553880610bd5565b634e487b7160e01b85526011600452602485fd5b60405162461bcd60e51b815260206004820152602260248201527f546f6b656e4c61756e636865723a206461696c79206c696d6974207265616368604482015261195960f21b6064820152608490fd5b33845260036020524260408520556002602052836040812055610b1e565b606460405162461bcd60e51b815260206004820152602060248201527f546f6b656e4c61756e636865723a20636f6f6c646f776e206e6f74206f7665726044820152fd5b60405162461bcd60e51b815260206004820152601e60248201527f546f6b656e4c61756e636865723a206d696e696e6720636f6d706c65746500006044820152606490fd5b606460405162461bcd60e51b815260206004820152602060248201527f546f6b656e4c61756e636865723a2055534443206665652072657175697265646044820152fd5b60405162461bcd60e51b815260206004820152602a60248201527f546f6b656e2068617320677261647561746564202d2073776170206f6e20554e6044820152694954464c4f572056332160b01b6064820152608490fd5b5034610275578060031936011261027557602060405160088152f35b5034610275578060031936011261027557602060405160ff7f0000000000000000000000000000000000000000000000000000000000000000168152f35b503461027557806003193601126102755760ff600854161580611ed8575b6020906040519015158152f35b506020611f257f00000000000000000000000000000000000000000000000000000000000000007f00000000000000000000000000000000000000000000000000000000000000006122b4565b4211159050611ecb565b50346102755780600319360112610275576020600454604051908152f35b503461027557602036600319011261027557600435906001600160a01b03821682036102755760206103b883612386565b61225a565b5034610275578060031936011261027557602060405160048152f35b5034610275578060031936011261027557602060405173be59000f37677d96115f397c91834dcb72dfc2798152f35b503461027557806003193601126102755760209054604051908152f35b503461027557806003193601126102755760206040516000805160206126358339815191528152f35b5034610275576020366003190112610275576004356001600160a01b038116908190036102b55760408260ff9260209452600584522054166040519015158152f35b50346102755780600319360112610275576009546040516001600160a01b039091168152602090f35b5034610275578060031936011261027557602060405160018152f35b5034610275576020366003190112610275576004356001600160a01b038116908190036102b5578160409160209352600283522054604051908152f35b503461027557806003193601126102755760206040517f00000000000000000000000000000000000000000000000000000000000000008152f35b503461027557806003193601126102755760206040517377c39eb310be31e60068ce29855f83359bf85fc48152f35b503461027557602036600319011261027557600435906001600160a01b03821682036102755760206103b8836122e4565b5034610275576020366003190112610275576004356001600160a01b038116908190036102b5578160409160209352600683522054604051908152f35b5034610275576020366003190112610275576004356001600160a01b038116908190036102b5578160409160209352600383522054604051908152f35b503461027557806003193601126102755760088054604051911c6001600160a01b03168152602090f35b9050346102b557816003193601126102b5577f00000000000000000000000000000000000000000000000000000000000000006001600160a01b03168152602090f35b3461150b57600036600319011261150b576020604051620d89b48152f35b3461150b57600036600319011261150b576020604051620d89b3198152f35b3461150b57600036600319011261150b576020604051610bb88152f35b919082018092116122c157565b634e487b7160e01b600052601160045260246000fd5b919082039182116122c157565b6001600160a01b03166000818152600360205260408120549091906201518081019081106123725742101561234c57816040916123499352600260205220547f00000000000000000000000000000000000000000000000000000000000000006122d7565b90565b50507f000000000000000000000000000000000000000000000000000000000000000090565b634e487b7160e01b83526011600452602483fd5b60ff600854166123fc576123da7f00000000000000000000000000000000000000000000000000000000000000007f00000000000000000000000000000000000000000000000000000000000000006122b4565b4211156123fc576001600160a01b031660009081526006602052604090205490565b50600090565b67ffffffffffffffff811161241657604052565b634e487b7160e01b600052604160045260246000fd5b610160810190811067ffffffffffffffff82111761241657604052565b90601f8019910116810190811067ffffffffffffffff82111761241657604052565b8115612475570490565b634e487b7160e01b600052601260045260246000fd5b60ff1680156122c1576000190190565b60ff1660ff81146122c15760010190565b9081602091031261150b5751801515810361150b5790565b9081602091031261150b57516001600160a01b038116810361150b5790565b919082608091031261150b5781519160208101516fffffffffffffffffffffffffffffffff8116810361150b57916060604083015192015190565b60018060a01b0380825116835280602083015116602084015262ffffff6040830151166040840152606082015160020b6060840152608082015160020b608084015260a082015160a084015260c082015160c084015260e082015160e084015261010080830151908401526101209081830151169083015261014080910151910152565b801580156125df575b6125d4576001600160a01b03916125cd916125c89160601b61246b565b6125e7565b60301b1690565b50600160601b919050565b5081156125ab565b90811561262e5760018260011c600181018091116122c15790835b84831061260e57505050565b9091935061262584612620818461246b565b6122b4565b821c9190612602565b6000915056fe000000000000000000000000911b4000d3422f482f4062a913885f7b035382dfa264697066735822122068cb183a5866f9da00f57ca409803ab3213b4dd23b07825d641963610dc2842564736f6c63430008180033a26469706673582212201cf1b6e886c057bff7498b9b301f2ea383dc0cfb63a4c1687758afd952e1f7dd64736f6c63430008180033","opcodes":"PUSH1 0x80 CALLVALUE PUSH2 0x85 JUMPI PUSH1 0x1F PUSH2 0x543A CODESIZE DUP2 SWAP1 SUB SWAP2 DUP3 ADD PUSH1 0x1F NOT AND DUP4 ADD SWAP2 PUSH1 0x1 PUSH1 0x1 PUSH1 0x40 SHL SUB DUP4 GT DUP5 DUP5 LT OR PUSH2 0x8A JUMPI DUP1 DUP5 SWAP3 PUSH1 0x40 SWAP5 DUP6 MSTORE DUP4 CODECOPY DUP2 ADD SUB SLT PUSH2 0x85 JUMPI DUP1 MLOAD PUSH1 0x20 SWAP1 SWAP2 ADD MLOAD PUSH1 0x1 PUSH1 0x1 PUSH1 0xA0 SHL SUB DUP2 AND SWAP2 SWAP1 DUP3 SWAP1 SUB PUSH2 0x85 JUMPI PUSH1 0x1 DUP1 PUSH1 0xA0 SHL SUB NOT SWAP1 CALLER DUP3 PUSH1 0x5 SLOAD AND OR PUSH1 0x5 SSTORE PUSH1 0x3 SSTORE PUSH1 0x4 SLOAD AND OR PUSH1 0x4 SSTORE PUSH1 0x40 MLOAD PUSH2 0x5399 SWAP1 DUP2 PUSH2 0xA1 DUP3 CODECOPY RETURN JUMPDEST PUSH1 0x0 DUP1 REVERT JUMPDEST PUSH4 0x4E487B71 PUSH1 0xE0 SHL PUSH1 0x0 MSTORE PUSH1 0x41 PUSH1 0x4 MSTORE PUSH1 0x24 PUSH1 0x0 REVERT INVALID PUSH1 0x80 DUP1 PUSH1 0x40 MSTORE PUSH1 0x4 CALLDATASIZE LT ISZERO PUSH3 0x14 JUMPI PUSH1 0x0 DUP1 REVERT JUMPDEST PUSH1 0x0 SWAP1 DUP2 CALLDATALOAD PUSH1 0xE0 SHR SWAP1 DUP2 PUSH4 0x46904840 EQ PUSH3 0x1164 JUMPI POP DUP1 PUSH4 0x494CFC6C EQ PUSH3 0x10DA JUMPI DUP1 PUSH4 0x4F64B2BE EQ PUSH3 0xFBF JUMPI DUP1 PUSH4 0x78A89567 EQ PUSH3 0xFA0 JUMPI DUP1 PUSH4 0x7FCA8F7B EQ PUSH3 0xF5E JUMPI DUP1 PUSH4 0x8DA5CB5B EQ PUSH3 0xF33 JUMPI DUP1 PUSH4 0xB7D86225 EQ PUSH3 0xEFF JUMPI DUP1 PUSH4 0xDCE0B4E4 EQ PUSH3 0xEDF JUMPI DUP1 PUSH4 0xE4B50CB8 EQ PUSH3 0xE3B JUMPI DUP1 PUSH4 0xE74B981B EQ PUSH3 0xDE4 JUMPI DUP1 PUSH4 0xF2FDE38B EQ PUSH3 0xD92 JUMPI DUP1 PUSH4 0xF7942F01 EQ PUSH3 0x109 JUMPI PUSH4 0xFA275E11 EQ PUSH3 0xBE JUMPI PUSH1 0x0 DUP1 REVERT JUMPDEST CALLVALUE PUSH3 0x106 JUMPI PUSH1 0x20 CALLDATASIZE PUSH1 0x3 NOT ADD SLT PUSH3 0x106 JUMPI PUSH1 0x4 CALLDATALOAD PUSH1 0x1 PUSH1 0x1 PUSH1 0xA0 SHL SUB DUP2 AND SWAP1 DUP2 SWAP1 SUB PUSH3 0x102 JUMPI PUSH1 0x40 DUP3 PUSH1 0xFF SWAP3 PUSH1 0x20 SWAP5 MSTORE PUSH1 0x2 DUP5 MSTORE KECCAK256 SLOAD AND PUSH1 0x40 MLOAD SWAP1 ISZERO ISZERO DUP2 MSTORE RETURN JUMPDEST POP DUP1 REVERT JUMPDEST DUP1 REVERT JUMPDEST POP PUSH2 0x140 CALLDATASIZE PUSH1 0x3 NOT ADD SLT PUSH3 0x106 JUMPI PUSH1 0x4 CALLDATALOAD PUSH1 0x1 PUSH1 0x1 PUSH1 0x40 SHL SUB DUP2 GT PUSH3 0x102 JUMPI PUSH3 0x13A SWAP1 CALLDATASIZE SWAP1 PUSH1 0x4 ADD PUSH3 0x141E JUMP JUMPDEST SWAP2 PUSH1 0x24 CALLDATALOAD PUSH1 0x1 PUSH1 0x1 PUSH1 0x40 SHL SUB DUP2 GT PUSH3 0x102 JUMPI PUSH3 0x15D SWAP1 CALLDATASIZE SWAP1 PUSH1 0x4 ADD PUSH3 0x141E JUMP JUMPDEST PUSH1 0x44 SWAP5 SWAP2 SWAP5 CALLDATALOAD PUSH1 0x1 PUSH1 0x1 PUSH1 0x40 SHL SUB DUP2 GT PUSH3 0xD8E JUMPI PUSH3 0x182 SWAP1 CALLDATASIZE SWAP1 PUSH1 0x4 ADD PUSH3 0x141E JUMP JUMPDEST SWAP6 SWAP1 SWAP2 PUSH2 0x124 CALLDATALOAD SWAP6 PUSH1 0xFF DUP8 AND DUP8 SUB PUSH3 0xD8A JUMPI PUSH1 0x3 SLOAD CALLVALUE LT PUSH3 0xD35 JUMPI PUSH1 0x64 CALLDATALOAD ISZERO PUSH3 0xCE0 JUMPI PUSH1 0x84 CALLDATALOAD ISZERO ISZERO DUP1 PUSH3 0xCD1 JUMPI JUMPDEST ISZERO PUSH3 0xC80 JUMPI PUSH1 0xA4 CALLDATALOAD ISZERO PUSH3 0xC2C JUMPI PUSH1 0x84 CALLDATALOAD PUSH1 0xC4 CALLDATALOAD LT PUSH3 0xBD7 JUMPI DUP5 ISZERO ISZERO DUP1 PUSH3 0xBCD JUMPI JUMPDEST ISZERO PUSH3 0xB7C JUMPI PUSH2 0x104 CALLDATALOAD ISZERO PUSH3 0xB23 JUMPI PUSH1 0xFF DUP8 AND ISZERO ISZERO DUP1 PUSH3 0xB14 JUMPI JUMPDEST ISZERO PUSH3 0xAC4 JUMPI CALLVALUE ISZERO ISZERO DUP1 PUSH3 0xAAF JUMPI JUMPDEST PUSH3 0xA12 JUMPI JUMPDEST PUSH1 0x40 MLOAD DUP1 PUSH2 0x1124 DUP2 ADD LT PUSH1 0x1 PUSH1 0x1 PUSH1 0x40 SHL SUB PUSH2 0x1124 DUP4 ADD GT OR PUSH3 0x9FE JUMPI PUSH2 0x1124 PUSH3 0x17DB DUP3 CODECOPY PUSH1 0x80 PUSH2 0x1124 DUP3 ADD MSTORE DUP1 PUSH3 0x294 PUSH3 0x270 PUSH3 0x258 PUSH1 0x80 PUSH2 0x1124 DUP6 ADD ADD DUP11 DUP8 PUSH3 0x177D JUMP JUMPDEST PUSH2 0x1124 DUP5 ADD DUP2 SUB PUSH1 0x20 PUSH2 0x1124 DUP7 ADD ADD MSTORE DUP7 DUP9 PUSH3 0x177D JUMP JUMPDEST PUSH1 0x64 CALLDATALOAD PUSH1 0x40 PUSH2 0x1124 DUP6 ADD ADD MSTORE PUSH2 0x1124 DUP4 ADD DUP2 SUB PUSH1 0x60 PUSH2 0x1124 DUP6 ADD ADD MSTORE DUP12 DUP9 PUSH3 0x177D JUMP JUMPDEST SUB SWAP1 DUP8 CREATE SWAP7 DUP8 ISZERO PUSH3 0x9F3 JUMPI PUSH1 0x40 MLOAD SWAP1 DUP2 PUSH2 0x2A65 DUP2 ADD LT PUSH1 0x1 PUSH1 0x1 PUSH1 0x40 SHL SUB PUSH2 0x2A65 DUP5 ADD GT OR PUSH3 0x9DF JUMPI PUSH1 0xFF SWAP1 PUSH2 0x2A65 PUSH3 0x28FF DUP5 CODECOPY PUSH1 0x1 PUSH1 0x1 PUSH1 0xA0 SHL SUB DUP11 AND PUSH2 0x2A65 DUP5 ADD SWAP1 DUP2 MSTORE CALLER PUSH1 0x20 DUP3 ADD MSTORE PUSH1 0x84 CALLDATALOAD PUSH1 0x40 DUP3 ADD MSTORE PUSH1 0xA4 CALLDATALOAD PUSH1 0x60 DUP3 ADD MSTORE PUSH1 0xC4 CALLDATALOAD PUSH1 0x80 DUP3 ADD MSTORE PUSH1 0xE4 CALLDATALOAD PUSH1 0xA0 DUP3 ADD MSTORE PUSH2 0x104 CALLDATALOAD PUSH1 0xC0 DUP3 ADD MSTORE SWAP2 AND PUSH1 0xE0 DUP3 ADD MSTORE DUP2 SWAP1 SUB PUSH2 0x100 ADD SWAP1 DUP8 CREATE SWAP6 DUP7 ISZERO PUSH3 0x9D3 JUMPI PUSH1 0x1 PUSH1 0x1 PUSH1 0xA0 SHL SUB DUP9 AND EXTCODESIZE ISZERO PUSH3 0x106 JUMPI PUSH1 0x40 MLOAD PUSH4 0xF2FDE38B PUSH1 0xE0 SHL DUP2 MSTORE PUSH1 0x1 PUSH1 0x1 PUSH1 0xA0 SHL SUB DUP9 DUP2 AND PUSH1 0x4 DUP4 ADD MSTORE DUP3 SWAP1 DUP3 SWAP1 PUSH1 0x24 SWAP1 DUP3 SWAP1 DUP5 SWAP1 DUP15 AND GAS CALL DUP1 ISZERO PUSH3 0x9C8 JUMPI PUSH3 0x9AF JUMPI JUMPDEST POP PUSH1 0x1 PUSH1 0x1 PUSH1 0xA0 SHL SUB DUP9 DUP2 AND DUP3 MSTORE PUSH1 0x1 PUSH1 0x20 DUP2 DUP2 MSTORE PUSH1 0x40 DUP1 DUP6 KECCAK256 DUP1 SLOAD PUSH1 0x1 PUSH1 0x1 PUSH1 0xA0 SHL SUB NOT AND SWAP5 DUP13 AND SWAP5 DUP6 OR SWAP1 SSTORE SWAP3 DUP5 MSTORE PUSH1 0x2 SWAP1 MSTORE DUP2 DUP4 KECCAK256 DUP1 SLOAD PUSH1 0xFF NOT AND SWAP1 SWAP2 OR SWAP1 SSTORE MLOAD PUSH3 0x3BE DUP2 PUSH3 0x1318 JUMP JUMPDEST PUSH1 0x1 PUSH1 0x1 PUSH1 0xA0 SHL SUB DUP10 DUP2 AND DUP3 MSTORE DUP9 AND PUSH1 0x20 DUP3 ADD MSTORE PUSH3 0x3DF CALLDATASIZE DUP9 DUP6 PUSH3 0x179E JUMP JUMPDEST PUSH1 0x40 DUP3 ADD MSTORE PUSH3 0x3F1 CALLDATASIZE DUP6 DUP8 PUSH3 0x179E JUMP JUMPDEST PUSH1 0x60 DUP3 ADD MSTORE PUSH3 0x403 CALLDATASIZE DUP12 DUP9 PUSH3 0x179E JUMP JUMPDEST PUSH1 0x80 DUP3 ADD MSTORE CALLER PUSH1 0xA0 DUP3 ADD MSTORE TIMESTAMP PUSH1 0xC0 DUP3 ADD MSTORE PUSH1 0x64 CALLDATALOAD PUSH1 0xE0 DUP3 ADD MSTORE PUSH1 0x84 CALLDATALOAD PUSH2 0x100 DUP3 ADD MSTORE PUSH1 0xA4 CALLDATALOAD PUSH2 0x120 DUP3 ADD MSTORE PUSH1 0xC4 CALLDATALOAD PUSH2 0x140 DUP3 ADD MSTORE PUSH1 0xE4 CALLDATALOAD PUSH2 0x160 DUP3 ADD MSTORE PUSH2 0x104 CALLDATALOAD PUSH2 0x180 DUP3 ADD MSTORE DUP2 SLOAD PUSH9 0x10000000000000000 DUP2 LT ISZERO PUSH3 0x8B2 JUMPI DUP1 PUSH1 0x1 PUSH3 0x46F SWAP3 ADD DUP5 SSTORE PUSH3 0x128C JUMP JUMPDEST SWAP3 SWAP1 SWAP3 PUSH3 0x99B JUMPI DUP2 MLOAD DUP4 SLOAD PUSH1 0x1 PUSH1 0x1 PUSH1 0xA0 SHL SUB SWAP2 DUP3 AND PUSH1 0x1 PUSH1 0x1 PUSH1 0xA0 SHL SUB NOT SWAP2 DUP3 AND OR DUP6 SSTORE PUSH1 0x20 DUP5 ADD MLOAD PUSH1 0x1 DUP7 ADD DUP1 SLOAD SWAP2 SWAP1 SWAP4 AND SWAP2 AND OR SWAP1 SSTORE PUSH1 0x40 DUP3 ADD MLOAD DUP1 MLOAD SWAP1 PUSH1 0x1 PUSH1 0x1 PUSH1 0x40 SHL SUB DUP3 GT PUSH3 0x8B2 JUMPI DUP2 SWAP1 PUSH3 0x4D1 PUSH1 0x2 DUP8 ADD SLOAD PUSH3 0x12DB JUMP JUMPDEST PUSH1 0x1F DUP2 GT PUSH3 0x946 JUMPI JUMPDEST POP PUSH1 0x20 SWAP1 PUSH1 0x1F DUP4 GT PUSH1 0x1 EQ PUSH3 0x8D2 JUMPI DUP5 SWAP3 PUSH3 0x8C6 JUMPI JUMPDEST POP POP DUP2 PUSH1 0x1 SHL SWAP2 PUSH1 0x0 NOT SWAP1 PUSH1 0x3 SHL SHR NOT AND OR PUSH1 0x2 DUP5 ADD SSTORE JUMPDEST PUSH1 0x60 DUP3 ADD MLOAD DUP1 MLOAD SWAP1 PUSH1 0x1 PUSH1 0x1 PUSH1 0x40 SHL SUB DUP3 GT PUSH3 0x8B2 JUMPI DUP2 SWAP1 PUSH3 0x533 PUSH1 0x3 DUP8 ADD SLOAD PUSH3 0x12DB JUMP JUMPDEST PUSH1 0x1F DUP2 GT PUSH3 0x85D JUMPI JUMPDEST POP PUSH1 0x20 SWAP1 PUSH1 0x1F DUP4 GT PUSH1 0x1 EQ PUSH3 0x7E9 JUMPI DUP5 SWAP3 PUSH3 0x7DD JUMPI JUMPDEST POP POP DUP2 PUSH1 0x1 SHL SWAP2 PUSH1 0x0 NOT SWAP1 PUSH1 0x3 SHL SHR NOT AND OR PUSH1 0x3 DUP5 ADD SSTORE JUMPDEST PUSH1 0x80 DUP3 ADD MLOAD SWAP1 DUP2 MLOAD SWAP2 PUSH1 0x1 PUSH1 0x1 PUSH1 0x40 SHL SUB DUP4 GT PUSH3 0x7C9 JUMPI PUSH3 0x594 PUSH1 0x4 DUP7 ADD SLOAD PUSH3 0x12DB JUMP JUMPDEST PUSH1 0x1F DUP2 GT PUSH3 0x780 JUMPI JUMPDEST POP PUSH1 0x20 SWAP2 PUSH1 0x1F DUP5 GT PUSH1 0x1 EQ PUSH3 0x6F4 JUMPI PUSH2 0x180 PUSH1 0x40 SWAP15 SWAP9 SWAP6 DUP6 PUSH3 0x66A SWAP7 PUSH3 0x679 SWAP11 SWAP7 PUSH3 0x687 SWAP15 SWAP14 SWAP11 SWAP7 PUSH1 0xC SWAP7 SWAP3 PUSH3 0x6E8 JUMPI JUMPDEST POP POP DUP2 PUSH1 0x1 SHL SWAP2 PUSH1 0x0 NOT SWAP1 PUSH1 0x3 SHL SHR NOT AND OR PUSH1 0x4 DUP6 ADD SSTORE JUMPDEST PUSH1 0x5 DUP5 ADD PUSH1 0x1 DUP1 PUSH1 0xA0 SHL SUB PUSH1 0xA0 DUP4 ADD MLOAD AND PUSH12 0xFFFFFFFFFFFFFFFFFFFFFFFF PUSH1 0xA0 SHL DUP3 SLOAD AND OR SWAP1 SSTORE PUSH1 0xC0 DUP2 ADD MLOAD PUSH1 0x6 DUP6 ADD SSTORE PUSH1 0xE0 DUP2 ADD MLOAD PUSH1 0x7 DUP6 ADD SSTORE PUSH2 0x100 DUP2 ADD MLOAD PUSH1 0x8 DUP6 ADD SSTORE PUSH2 0x120 DUP2 ADD MLOAD PUSH1 0x9 DUP6 ADD SSTORE PUSH2 0x140 DUP2 ADD MLOAD PUSH1 0xA DUP6 ADD SSTORE PUSH2 0x160 DUP2 ADD MLOAD PUSH1 0xB DUP6 ADD SSTORE ADD MLOAD SWAP2 ADD SSTORE DUP12 MLOAD SWAP9 PUSH1 0xA0 DUP11 MSTORE PUSH1 0xA0 DUP11 ADD SWAP2 PUSH3 0x177D JUMP JUMPDEST SWAP2 DUP8 DUP4 SUB PUSH1 0x20 DUP10 ADD MSTORE PUSH3 0x177D JUMP JUMPDEST SWAP2 DUP5 DUP4 SUB DUP9 DUP7 ADD MSTORE PUSH3 0x177D JUMP JUMPDEST PUSH1 0x64 CALLDATALOAD PUSH1 0x60 DUP4 ADD MSTORE PUSH1 0xE4 CALLDATALOAD PUSH1 0x80 DUP4 ADD MSTORE CALLER SWAP2 PUSH1 0x1 PUSH1 0x1 PUSH1 0xA0 SHL SUB DUP5 DUP2 AND SWAP3 SWAP1 DUP7 AND SWAP2 PUSH32 0xCDD696CAABF915A69182910229D9E030E783BE79E21F45024D20DDA735911763 SWAP2 DUP2 SWAP1 SUB SWAP1 LOG4 DUP3 MLOAD PUSH1 0x1 PUSH1 0x1 PUSH1 0xA0 SHL SUB SWAP3 DUP4 AND DUP2 MSTORE SWAP2 AND PUSH1 0x20 DUP3 ADD MSTORE RETURN JUMPDEST ADD MLOAD SWAP1 POP CODESIZE DUP1 PUSH3 0x5D4 JUMP JUMPDEST SWAP2 SWAP1 PUSH1 0x4 DUP7 ADD DUP4 MSTORE PUSH1 0x20 DUP4 KECCAK256 SWAP3 JUMPDEST PUSH1 0x1F NOT DUP6 AND DUP2 LT PUSH3 0x767 JUMPI POP PUSH2 0x180 PUSH1 0x40 SWAP15 SWAP9 SWAP6 PUSH1 0x1 DUP7 PUSH3 0x679 SWAP11 SWAP7 PUSH3 0x687 SWAP15 SWAP14 SWAP11 SWAP7 PUSH1 0xC SWAP7 PUSH3 0x66A SWAP11 PUSH1 0x1F NOT DUP2 AND LT PUSH3 0x74D JUMPI JUMPDEST POP POP POP DUP2 SHL ADD PUSH1 0x4 DUP6 ADD SSTORE PUSH3 0x5EC JUMP JUMPDEST ADD MLOAD PUSH1 0x0 NOT PUSH1 0xF8 DUP5 PUSH1 0x3 SHL AND SHR NOT AND SWAP1 SSTORE CODESIZE DUP1 DUP1 PUSH3 0x73C JUMP JUMPDEST SWAP2 SWAP3 PUSH1 0x20 PUSH1 0x1 DUP2 SWAP3 DUP7 DUP6 ADD MLOAD DUP2 SSTORE ADD SWAP5 ADD SWAP3 ADD PUSH3 0x702 JUMP JUMPDEST PUSH1 0x4 DUP7 ADD DUP4 MSTORE PUSH1 0x20 DUP4 KECCAK256 PUSH1 0x1F DUP6 ADD PUSH1 0x5 SHR DUP2 ADD PUSH1 0x20 DUP7 LT PUSH3 0x7C1 JUMPI JUMPDEST PUSH1 0x1F DUP4 ADD PUSH1 0x5 SHR DUP3 ADD DUP2 LT PUSH3 0x7B5 JUMPI POP POP PUSH3 0x59E JUMP JUMPDEST DUP5 DUP2 SSTORE PUSH1 0x1 ADD PUSH3 0x79D JUMP JUMPDEST POP DUP1 PUSH3 0x79D JUMP JUMPDEST PUSH4 0x4E487B71 PUSH1 0xE0 SHL DUP3 MSTORE PUSH1 0x41 PUSH1 0x4 MSTORE PUSH1 0x24 DUP3 REVERT JUMPDEST ADD MLOAD SWAP1 POP CODESIZE DUP1 PUSH3 0x555 JUMP JUMPDEST SWAP3 POP PUSH1 0x3 DUP7 ADD DUP5 MSTORE PUSH1 0x20 DUP5 KECCAK256 SWAP1 DUP5 SWAP4 JUMPDEST PUSH1 0x1F NOT DUP5 AND DUP6 LT PUSH3 0x841 JUMPI PUSH1 0x1 SWAP5 POP DUP4 PUSH1 0x1F NOT DUP2 AND LT PUSH3 0x827 JUMPI JUMPDEST POP POP POP DUP2 SHL ADD PUSH1 0x3 DUP5 ADD SSTORE PUSH3 0x56D JUMP JUMPDEST ADD MLOAD PUSH1 0x0 NOT PUSH1 0xF8 DUP5 PUSH1 0x3 SHL AND SHR NOT AND SWAP1 SSTORE CODESIZE DUP1 DUP1 PUSH3 0x816 JUMP JUMPDEST DUP2 DUP2 ADD MLOAD DUP4 SSTORE PUSH1 0x20 SWAP5 DUP6 ADD SWAP5 PUSH1 0x1 SWAP1 SWAP4 ADD SWAP3 SWAP1 SWAP2 ADD SWAP1 PUSH3 0x7F9 JUMP JUMPDEST SWAP1 SWAP2 POP PUSH1 0x3 DUP7 ADD DUP5 MSTORE PUSH1 0x20 DUP5 KECCAK256 PUSH1 0x1F DUP5 ADD PUSH1 0x5 SHR DUP2 ADD PUSH1 0x20 DUP6 LT PUSH3 0x8AA JUMPI JUMPDEST SWAP1 DUP5 SWAP4 SWAP3 SWAP2 JUMPDEST PUSH1 0x1F DUP4 ADD PUSH1 0x5 SHR DUP3 ADD DUP2 LT PUSH3 0x89B JUMPI POP POP PUSH3 0x53D JUMP JUMPDEST DUP7 DUP2 SSTORE DUP6 SWAP5 POP PUSH1 0x1 ADD PUSH3 0x883 JUMP JUMPDEST POP DUP1 PUSH3 0x87D JUMP JUMPDEST PUSH4 0x4E487B71 PUSH1 0xE0 SHL DUP4 MSTORE PUSH1 0x41 PUSH1 0x4 MSTORE PUSH1 0x24 DUP4 REVERT JUMPDEST ADD MLOAD SWAP1 POP CODESIZE DUP1 PUSH3 0x4F3 JUMP JUMPDEST SWAP3 POP PUSH1 0x2 DUP7 ADD DUP5 MSTORE PUSH1 0x20 DUP5 KECCAK256 SWAP1 DUP5 SWAP4 JUMPDEST PUSH1 0x1F NOT DUP5 AND DUP6 LT PUSH3 0x92A JUMPI PUSH1 0x1 SWAP5 POP DUP4 PUSH1 0x1F NOT DUP2 AND LT PUSH3 0x910 JUMPI JUMPDEST POP POP POP DUP2 SHL ADD PUSH1 0x2 DUP5 ADD SSTORE PUSH3 0x50B JUMP JUMPDEST ADD MLOAD PUSH1 0x0 NOT PUSH1 0xF8 DUP5 PUSH1 0x3 SHL AND SHR NOT AND SWAP1 SSTORE CODESIZE DUP1 DUP1 PUSH3 0x8FF JUMP JUMPDEST DUP2 DUP2 ADD MLOAD DUP4 SSTORE PUSH1 0x20 SWAP5 DUP6 ADD SWAP5 PUSH1 0x1 SWAP1 SWAP4 ADD SWAP3 SWAP1 SWAP2 ADD SWAP1 PUSH3 0x8E2 JUMP JUMPDEST SWAP1 SWAP2 POP PUSH1 0x2 DUP7 ADD DUP5 MSTORE PUSH1 0x20 DUP5 KECCAK256 PUSH1 0x1F DUP5 ADD PUSH1 0x5 SHR DUP2 ADD PUSH1 0x20 DUP6 LT PUSH3 0x993 JUMPI JUMPDEST SWAP1 DUP5 SWAP4 SWAP3 SWAP2 JUMPDEST PUSH1 0x1F DUP4 ADD PUSH1 0x5 SHR DUP3 ADD DUP2 LT PUSH3 0x984 JUMPI POP POP PUSH3 0x4DB JUMP JUMPDEST DUP7 DUP2 SSTORE DUP6 SWAP5 POP PUSH1 0x1 ADD PUSH3 0x96C JUMP JUMPDEST POP DUP1 PUSH3 0x966 JUMP JUMPDEST PUSH4 0x4E487B71 PUSH1 0xE0 SHL DUP2 MSTORE PUSH1 0x4 DUP2 SWAP1 MSTORE PUSH1 0x24 SWAP1 REVERT JUMPDEST PUSH1 0x1 PUSH1 0x1 PUSH1 0x40 SHL SUB DUP2 GT PUSH3 0x7C9 JUMPI PUSH1 0x40 MSTORE CODESIZE PUSH3 0x36F JUMP JUMPDEST PUSH1 0x40 MLOAD RETURNDATASIZE DUP5 DUP3 RETURNDATACOPY RETURNDATASIZE SWAP1 REVERT JUMPDEST PUSH1 0x40 MLOAD SWAP1 RETURNDATASIZE SWAP1 DUP3 RETURNDATACOPY RETURNDATASIZE SWAP1 REVERT JUMPDEST PUSH4 0x4E487B71 PUSH1 0xE0 SHL DUP9 MSTORE PUSH1 0x41 PUSH1 0x4 MSTORE PUSH1 0x24 DUP9 REVERT JUMPDEST PUSH1 0x40 MLOAD RETURNDATASIZE DUP9 DUP3 RETURNDATACOPY RETURNDATASIZE SWAP1 REVERT JUMPDEST PUSH4 0x4E487B71 PUSH1 0xE0 SHL DUP8 MSTORE PUSH1 0x41 PUSH1 0x4 MSTORE PUSH1 0x24 DUP8 REVERT JUMPDEST DUP6 DUP1 DUP1 DUP1 CALLVALUE PUSH1 0x1 DUP1 PUSH1 0xA0 SHL SUB PUSH1 0x4 SLOAD AND GAS CALL RETURNDATASIZE ISZERO PUSH3 0xAA9 JUMPI RETURNDATASIZE PUSH3 0xA37 DUP2 PUSH3 0x1761 JUMP JUMPDEST SWAP1 PUSH3 0xA47 PUSH1 0x40 MLOAD SWAP3 DUP4 PUSH3 0x134B JUMP JUMPDEST DUP2 MSTORE DUP8 PUSH1 0x20 RETURNDATASIZE SWAP3 ADD RETURNDATACOPY JUMPDEST PUSH3 0x20C JUMPI PUSH1 0x40 MLOAD PUSH3 0x461BCD PUSH1 0xE5 SHL DUP2 MSTORE PUSH1 0x20 PUSH1 0x4 DUP3 ADD MSTORE PUSH1 0x25 PUSH1 0x24 DUP3 ADD MSTORE PUSH32 0x4C61756E6368706164466163746F72793A20666565207472616E736665722066 PUSH1 0x44 DUP3 ADD MSTORE PUSH5 0x185A5B1959 PUSH1 0xDA SHL PUSH1 0x64 DUP3 ADD MSTORE PUSH1 0x84 SWAP1 REVERT JUMPDEST PUSH3 0xA51 JUMP JUMPDEST POP PUSH1 0x4 SLOAD PUSH1 0x1 PUSH1 0x1 PUSH1 0xA0 SHL SUB AND ISZERO ISZERO PUSH3 0x206 JUMP JUMPDEST PUSH1 0x40 MLOAD PUSH3 0x461BCD PUSH1 0xE5 SHL DUP2 MSTORE PUSH1 0x20 PUSH1 0x4 DUP3 ADD MSTORE PUSH1 0x22 PUSH1 0x24 DUP3 ADD MSTORE PUSH32 0x4C61756E6368706164466163746F72793A20696E76616C696420616D6D466C61 PUSH1 0x44 DUP3 ADD MSTORE PUSH2 0x6773 PUSH1 0xF0 SHL PUSH1 0x64 DUP3 ADD MSTORE PUSH1 0x84 SWAP1 REVERT JUMPDEST POP PUSH1 0xF PUSH1 0xFF DUP9 AND GT ISZERO PUSH3 0x1F6 JUMP JUMPDEST PUSH1 0x40 MLOAD PUSH3 0x461BCD PUSH1 0xE5 SHL DUP2 MSTORE PUSH1 0x20 PUSH1 0x4 DUP3 ADD MSTORE PUSH1 0x2B PUSH1 0x24 DUP3 ADD MSTORE PUSH32 0x4C61756E6368706164466163746F72793A20726566756E642077696E646F7720 PUSH1 0x44 DUP3 ADD MSTORE PUSH11 0x6D757374206265203E203 PUSH1 0xAC SHL PUSH1 0x64 DUP3 ADD MSTORE PUSH1 0x84 SWAP1 REVERT JUMPDEST PUSH1 0x40 MLOAD PUSH3 0x461BCD PUSH1 0xE5 SHL DUP2 MSTORE PUSH1 0x20 PUSH1 0x4 DUP3 ADD MSTORE PUSH1 0x23 PUSH1 0x24 DUP3 ADD MSTORE PUSH32 0x4C61756E6368706164466163746F72793A20656D707479206E616D652F73796D PUSH1 0x44 DUP3 ADD MSTORE PUSH3 0x189BDB PUSH1 0xEA SHL PUSH1 0x64 DUP3 ADD MSTORE PUSH1 0x84 SWAP1 REVERT JUMPDEST POP DUP2 ISZERO ISZERO PUSH3 0x1D9 JUMP JUMPDEST PUSH1 0x40 MLOAD PUSH3 0x461BCD PUSH1 0xE5 SHL DUP2 MSTORE PUSH1 0x20 PUSH1 0x4 DUP3 ADD MSTORE PUSH1 0x27 PUSH1 0x24 DUP3 ADD MSTORE PUSH32 0x4C61756E6368706164466163746F72793A206461696C794D6178203C206D696E PUSH1 0x44 DUP3 ADD MSTORE PUSH7 0x19505B5BDD5B9D PUSH1 0xCA SHL PUSH1 0x64 DUP3 ADD MSTORE PUSH1 0x84 SWAP1 REVERT JUMPDEST PUSH1 0x40 MLOAD PUSH3 0x461BCD PUSH1 0xE5 SHL DUP2 MSTORE PUSH1 0x20 PUSH1 0x4 DUP3 ADD MSTORE PUSH1 0x26 PUSH1 0x24 DUP3 ADD MSTORE PUSH32 0x4C61756E6368706164466163746F72793A20636F6F6C646F776E206D75737420 PUSH1 0x44 DUP3 ADD MSTORE PUSH6 0x6265203E203 PUSH1 0xD4 SHL PUSH1 0x64 DUP3 ADD MSTORE PUSH1 0x84 SWAP1 REVERT JUMPDEST PUSH1 0x40 MLOAD PUSH3 0x461BCD PUSH1 0xE5 SHL DUP2 MSTORE PUSH1 0x20 PUSH1 0x4 DUP3 ADD MSTORE PUSH1 0x24 DUP1 DUP3 ADD MSTORE PUSH32 0x4C61756E6368706164466163746F72793A20696E76616C6964206D696E65416D PUSH1 0x44 DUP3 ADD MSTORE PUSH4 0x1BDD5B9D PUSH1 0xE2 SHL PUSH1 0x64 DUP3 ADD MSTORE PUSH1 0x84 SWAP1 REVERT JUMPDEST POP PUSH1 0x64 CALLDATALOAD PUSH1 0x84 CALLDATALOAD GT ISZERO PUSH3 0x1B4 JUMP JUMPDEST PUSH1 0x40 MLOAD PUSH3 0x461BCD PUSH1 0xE5 SHL DUP2 MSTORE PUSH1 0x20 PUSH1 0x4 DUP3 ADD MSTORE PUSH1 0x27 PUSH1 0x24 DUP3 ADD MSTORE PUSH32 0x4C61756E6368706164466163746F72793A206D6178537570706C79206D757374 PUSH1 0x44 DUP3 ADD MSTORE PUSH7 0x206265203E203 PUSH1 0xCC SHL PUSH1 0x64 DUP3 ADD MSTORE PUSH1 0x84 SWAP1 REVERT JUMPDEST PUSH1 0x40 MLOAD PUSH3 0x461BCD PUSH1 0xE5 SHL DUP2 MSTORE PUSH1 0x20 PUSH1 0x4 DUP3 ADD MSTORE PUSH1 0x27 PUSH1 0x24 DUP3 ADD MSTORE PUSH32 0x4C61756E6368706164466163746F72793A206372656174696F6E206665652072 PUSH1 0x44 DUP3 ADD MSTORE PUSH7 0x195C5D5A5C9959 PUSH1 0xCA SHL PUSH1 0x64 DUP3 ADD MSTORE PUSH1 0x84 SWAP1 REVERT JUMPDEST DUP6 DUP1 REVERT JUMPDEST DUP4 DUP1 REVERT JUMPDEST POP CALLVALUE PUSH3 0x106 JUMPI PUSH1 0x20 CALLDATASIZE PUSH1 0x3 NOT ADD SLT PUSH3 0x106 JUMPI PUSH1 0x4 CALLDATALOAD PUSH1 0x1 PUSH1 0x1 PUSH1 0xA0 SHL SUB DUP2 DUP2 AND SWAP2 DUP3 SWAP1 SUB PUSH3 0xDE0 JUMPI PUSH3 0xDCF PUSH1 0x5 SLOAD SWAP2 DUP3 AND CALLER EQ PUSH3 0x1714 JUMP JUMPDEST PUSH1 0x1 PUSH1 0x1 PUSH1 0xA0 SHL SUB NOT AND OR PUSH1 0x5 SSTORE DUP1 RETURN JUMPDEST DUP3 DUP1 REVERT JUMPDEST POP CALLVALUE PUSH3 0x106 JUMPI PUSH1 0x20 CALLDATASIZE PUSH1 0x3 NOT ADD SLT PUSH3 0x106 JUMPI PUSH1 0x4 CALLDATALOAD PUSH1 0x1 PUSH1 0x1 PUSH1 0xA0 SHL SUB DUP2 DUP2 AND SWAP2 DUP3 SWAP1 SUB PUSH3 0xDE0 JUMPI PUSH3 0xE20 SWAP1 PUSH1 0x5 SLOAD AND CALLER EQ PUSH3 0x1714 JUMP JUMPDEST PUSH12 0xFFFFFFFFFFFFFFFFFFFFFFFF PUSH1 0xA0 SHL PUSH1 0x4 SLOAD AND OR PUSH1 0x4 SSTORE DUP1 RETURN JUMPDEST POP CALLVALUE PUSH3 0x106 JUMPI PUSH1 0x20 CALLDATASIZE PUSH1 0x3 NOT ADD SLT PUSH3 0x106 JUMPI PUSH1 0x4 CALLDATALOAD SWAP1 PUSH3 0xE5D PUSH3 0x149D JUMP JUMPDEST POP SLOAD DUP2 LT ISZERO PUSH3 0xE9A JUMPI PUSH3 0xE81 PUSH3 0xE7A PUSH3 0xE96 SWAP3 PUSH3 0x128C JUMP JUMPDEST POP PUSH3 0x152D JUMP JUMPDEST PUSH1 0x40 MLOAD SWAP2 DUP3 SWAP2 PUSH1 0x20 DUP4 MSTORE PUSH1 0x20 DUP4 ADD SWAP1 PUSH3 0x11CD JUMP JUMPDEST SUB SWAP1 RETURN JUMPDEST PUSH1 0x40 MLOAD PUSH3 0x461BCD PUSH1 0xE5 SHL DUP2 MSTORE PUSH1 0x20 PUSH1 0x4 DUP3 ADD MSTORE PUSH1 0x1F PUSH1 0x24 DUP3 ADD MSTORE PUSH32 0x4C61756E6368706164466163746F72793A206F7574206F6620626F756E647300 PUSH1 0x44 DUP3 ADD MSTORE PUSH1 0x64 SWAP1 REVERT JUMPDEST POP CALLVALUE PUSH3 0x106 JUMPI DUP1 PUSH1 0x3 NOT CALLDATASIZE ADD SLT PUSH3 0x106 JUMPI PUSH1 0x20 PUSH1 0x3 SLOAD PUSH1 0x40 MLOAD SWAP1 DUP2 MSTORE RETURN JUMPDEST POP CALLVALUE PUSH3 0x106 JUMPI PUSH1 0x20 CALLDATASIZE PUSH1 0x3 NOT ADD SLT PUSH3 0x106 JUMPI PUSH3 0xF2A PUSH1 0x1 DUP1 PUSH1 0xA0 SHL SUB PUSH1 0x5 SLOAD AND CALLER EQ PUSH3 0x1714 JUMP JUMPDEST PUSH1 0x4 CALLDATALOAD PUSH1 0x3 SSTORE DUP1 RETURN JUMPDEST POP CALLVALUE PUSH3 0x106 JUMPI DUP1 PUSH1 0x3 NOT CALLDATASIZE ADD SLT PUSH3 0x106 JUMPI PUSH1 0x5 SLOAD PUSH1 0x40 MLOAD PUSH1 0x1 PUSH1 0x1 PUSH1 0xA0 SHL SUB SWAP1 SWAP2 AND DUP2 MSTORE PUSH1 0x20 SWAP1 RETURN JUMPDEST POP CALLVALUE PUSH3 0x106 JUMPI PUSH1 0x20 CALLDATASIZE PUSH1 0x3 NOT ADD SLT PUSH3 0x106 JUMPI PUSH1 0x1 PUSH1 0x1 PUSH1 0xA0 SHL SUB PUSH1 0x4 CALLDATALOAD DUP2 DUP2 AND SWAP1 DUP2 SWAP1 SUB PUSH3 0xDE0 JUMPI DUP3 PUSH1 0x40 SWAP2 PUSH1 0x20 SWAP5 MSTORE PUSH1 0x1 DUP5 MSTORE KECCAK256 SLOAD AND PUSH1 0x40 MLOAD SWAP1 DUP2 MSTORE RETURN JUMPDEST POP CALLVALUE PUSH3 0x106 JUMPI DUP1 PUSH1 0x3 NOT CALLDATASIZE ADD SLT PUSH3 0x106 JUMPI PUSH1 0x20 SWAP1 SLOAD PUSH1 0x40 MLOAD SWAP1 DUP2 MSTORE RETURN JUMPDEST POP CALLVALUE PUSH3 0x106 JUMPI PUSH1 0x20 CALLDATASIZE PUSH1 0x3 NOT ADD SLT PUSH3 0x106 JUMPI PUSH1 0x4 CALLDATALOAD DUP2 SLOAD DUP2 LT ISZERO PUSH3 0x102 JUMPI PUSH3 0xFEB SWAP1 PUSH3 0x128C JUMP JUMPDEST POP DUP1 SLOAD PUSH1 0x1 DUP3 ADD SLOAD PUSH1 0x1 PUSH1 0x1 PUSH1 0xA0 SHL SUB SWAP1 DUP2 AND SWAP3 SWAP2 DUP2 AND SWAP2 PUSH3 0x1011 PUSH1 0x2 DUP3 ADD PUSH3 0x136D JUMP JUMPDEST SWAP1 PUSH3 0x1020 PUSH1 0x3 DUP3 ADD PUSH3 0x136D JUMP JUMPDEST PUSH3 0x102E PUSH1 0x4 DUP4 ADD PUSH3 0x136D JUMP JUMPDEST SWAP4 PUSH1 0x5 DUP4 ADD SLOAD AND SWAP4 PUSH1 0x6 DUP4 ADD SLOAD PUSH1 0x7 DUP5 ADD SLOAD PUSH1 0x8 DUP6 ADD SLOAD SWAP2 PUSH1 0x9 DUP7 ADD SLOAD SWAP4 PUSH1 0xA DUP8 ADD SLOAD SWAP6 PUSH1 0xB DUP9 ADD SLOAD SWAP8 PUSH1 0xC ADD SLOAD SWAP9 PUSH1 0x40 MLOAD SWAP13 DUP14 SWAP13 DUP14 PUSH2 0x1A0 SWAP3 DUP4 SWAP3 DUP3 MSTORE PUSH1 0x20 DUP3 ADD MSTORE PUSH1 0x40 ADD MSTORE DUP13 ADD PUSH3 0x1082 SWAP2 PUSH3 0x118B JUMP JUMPDEST DUP12 DUP2 SUB PUSH1 0x60 DUP14 ADD MSTORE PUSH3 0x1095 SWAP2 PUSH3 0x118B JUMP JUMPDEST DUP11 DUP2 SUB PUSH1 0x80 DUP13 ADD MSTORE PUSH3 0x10A8 SWAP2 PUSH3 0x118B JUMP JUMPDEST SWAP8 PUSH1 0xA0 DUP11 ADD MSTORE PUSH1 0xC0 DUP10 ADD MSTORE PUSH1 0xE0 DUP9 ADD MSTORE PUSH2 0x100 DUP8 ADD MSTORE PUSH2 0x120 DUP7 ADD MSTORE PUSH2 0x140 DUP6 ADD MSTORE PUSH2 0x160 DUP5 ADD MSTORE PUSH2 0x180 DUP4 ADD MSTORE SUB SWAP1 RETURN JUMPDEST POP CALLVALUE PUSH3 0x106 JUMPI PUSH1 0x40 CALLDATASIZE PUSH1 0x3 NOT ADD SLT PUSH3 0x106 JUMPI PUSH3 0x10FE PUSH1 0x24 CALLDATALOAD PUSH1 0x4 CALLDATALOAD PUSH3 0x15E7 JUMP JUMPDEST PUSH1 0x40 MLOAD SWAP1 PUSH1 0x20 SWAP3 PUSH1 0x20 DUP4 ADD PUSH1 0x20 DUP5 MSTORE DUP3 MLOAD DUP1 SWAP2 MSTORE PUSH1 0x40 DUP5 ADD SWAP5 PUSH1 0x20 PUSH1 0x40 DUP4 PUSH1 0x5 SHL DUP8 ADD ADD SWAP5 ADD SWAP3 SWAP6 JUMPDEST DUP3 DUP8 LT PUSH3 0x1135 JUMPI DUP6 DUP6 SUB DUP7 RETURN JUMPDEST SWAP1 SWAP2 SWAP3 SWAP4 DUP3 DUP1 PUSH3 0x1153 PUSH1 0x1 SWAP4 PUSH1 0x3F NOT DUP11 DUP3 SUB ADD DUP7 MSTORE DUP9 MLOAD PUSH3 0x11CD JUMP JUMPDEST SWAP7 ADD SWAP3 ADD SWAP7 ADD SWAP6 SWAP3 SWAP2 SWAP1 SWAP3 PUSH3 0x1127 JUMP JUMPDEST SWAP1 POP CALLVALUE PUSH3 0x102 JUMPI DUP2 PUSH1 0x3 NOT CALLDATASIZE ADD SLT PUSH3 0x102 JUMPI PUSH1 0x4 SLOAD PUSH1 0x1 PUSH1 0x1 PUSH1 0xA0 SHL SUB AND DUP2 MSTORE PUSH1 0x20 SWAP1 RETURN JUMPDEST SWAP2 SWAP1 DUP3 MLOAD SWAP3 DUP4 DUP3 MSTORE PUSH1 0x0 JUMPDEST DUP5 DUP2 LT PUSH3 0x11B8 JUMPI POP POP DUP3 PUSH1 0x0 PUSH1 0x20 DUP1 SWAP5 SWAP6 DUP5 ADD ADD MSTORE PUSH1 0x1F DUP1 NOT SWAP2 ADD AND ADD ADD SWAP1 JUMP JUMPDEST PUSH1 0x20 DUP2 DUP4 ADD DUP2 ADD MLOAD DUP5 DUP4 ADD DUP3 ADD MSTORE ADD PUSH3 0x1196 JUMP JUMPDEST SWAP1 PUSH2 0x1A0 SWAP2 PUSH3 0x1233 PUSH3 0x1220 PUSH3 0x120D PUSH1 0x1 DUP1 PUSH1 0xA0 SHL SUB SWAP6 DUP7 DUP6 MLOAD AND DUP7 MSTORE DUP7 PUSH1 0x20 DUP7 ADD MLOAD AND PUSH1 0x20 DUP8 ADD MSTORE PUSH1 0x40 DUP6 ADD MLOAD SWAP1 DUP1 PUSH1 0x40 DUP9 ADD MSTORE DUP7 ADD SWAP1 PUSH3 0x118B JUMP JUMPDEST PUSH1 0x60 DUP5 ADD MLOAD DUP6 DUP3 SUB PUSH1 0x60 DUP8 ADD MSTORE PUSH3 0x118B JUMP JUMPDEST PUSH1 0x80 DUP4 ADD MLOAD DUP5 DUP3 SUB PUSH1 0x80 DUP7 ADD MSTORE PUSH3 0x118B JUMP JUMPDEST SWAP3 PUSH1 0xA0 DUP3 ADD MLOAD AND PUSH1 0xA0 DUP4 ADD MSTORE PUSH1 0xC0 DUP2 ADD MLOAD PUSH1 0xC0 DUP4 ADD MSTORE PUSH1 0xE0 DUP2 ADD MLOAD PUSH1 0xE0 DUP4 ADD MSTORE PUSH2 0x100 DUP1 DUP3 ADD MLOAD SWAP1 DUP4 ADD MSTORE PUSH2 0x120 DUP1 DUP3 ADD MLOAD SWAP1 DUP4 ADD MSTORE PUSH2 0x140 DUP1 DUP3 ADD MLOAD SWAP1 DUP4 ADD MSTORE PUSH2 0x160 DUP1 DUP3 ADD MLOAD SWAP1 DUP4 ADD MSTORE PUSH2 0x180 DUP1 SWAP2 ADD MLOAD SWAP2 ADD MSTORE SWAP1 JUMP JUMPDEST SWAP1 PUSH1 0x0 SWAP2 DUP3 SLOAD DUP2 LT ISZERO PUSH3 0x12C7 JUMPI PUSH1 0xD SWAP1 DUP4 DUP1 MSTORE MUL PUSH32 0x290DECD9548B62A8D60345A988386FC84BA6BC95484008F6362F93160EF3E563 ADD SWAP2 SWAP1 JUMP JUMPDEST PUSH4 0x4E487B71 PUSH1 0xE0 SHL DUP4 MSTORE PUSH1 0x32 PUSH1 0x4 MSTORE PUSH1 0x24 DUP4 REVERT JUMPDEST SWAP1 PUSH1 0x1 DUP3 DUP2 SHR SWAP3 AND DUP1 ISZERO PUSH3 0x130D JUMPI JUMPDEST PUSH1 0x20 DUP4 LT EQ PUSH3 0x12F7 JUMPI JUMP JUMPDEST PUSH4 0x4E487B71 PUSH1 0xE0 SHL PUSH1 0x0 MSTORE PUSH1 0x22 PUSH1 0x4 MSTORE PUSH1 0x24 PUSH1 0x0 REVERT JUMPDEST SWAP2 PUSH1 0x7F AND SWAP2 PUSH3 0x12EB JUMP JUMPDEST PUSH2 0x1A0 DUP2 ADD SWAP1 DUP2 LT PUSH1 0x1 PUSH1 0x1 PUSH1 0x40 SHL SUB DUP3 GT OR PUSH3 0x1335 JUMPI PUSH1 0x40 MSTORE JUMP JUMPDEST PUSH4 0x4E487B71 PUSH1 0xE0 SHL PUSH1 0x0 MSTORE PUSH1 0x41 PUSH1 0x4 MSTORE PUSH1 0x24 PUSH1 0x0 REVERT JUMPDEST SWAP1 PUSH1 0x1F DUP1 NOT SWAP2 ADD AND DUP2 ADD SWAP1 DUP2 LT PUSH1 0x1 PUSH1 0x1 PUSH1 0x40 SHL SUB DUP3 GT OR PUSH3 0x1335 JUMPI PUSH1 0x40 MSTORE JUMP JUMPDEST SWAP1 PUSH1 0x40 MLOAD SWAP2 DUP3 PUSH1 0x0 DUP3 SLOAD PUSH3 0x1382 DUP2 PUSH3 0x12DB JUMP JUMPDEST SWAP1 DUP2 DUP5 MSTORE PUSH1 0x20 SWAP5 PUSH1 0x1 SWAP2 PUSH1 0x1 DUP2 AND SWAP1 DUP2 PUSH1 0x0 EQ PUSH3 0x13FA JUMPI POP PUSH1 0x1 EQ PUSH3 0x13B7 JUMPI JUMPDEST POP POP POP PUSH3 0x13B5 SWAP3 POP SUB DUP4 PUSH3 0x134B JUMP JUMPDEST JUMP JUMPDEST PUSH1 0x0 SWAP1 DUP2 MSTORE DUP6 DUP2 KECCAK256 SWAP6 SWAP4 POP SWAP2 SWAP1 JUMPDEST DUP2 DUP4 LT PUSH3 0x13E1 JUMPI POP POP PUSH3 0x13B5 SWAP4 POP DUP3 ADD ADD CODESIZE DUP1 DUP1 PUSH3 0x13A4 JUMP JUMPDEST DUP6 SLOAD DUP9 DUP5 ADD DUP6 ADD MSTORE SWAP5 DUP6 ADD SWAP5 DUP8 SWAP5 POP SWAP2 DUP4 ADD SWAP2 PUSH3 0x13C5 JUMP JUMPDEST SWAP3 POP POP POP PUSH3 0x13B5 SWAP5 SWAP3 POP PUSH1 0xFF NOT AND DUP3 DUP5 ADD MSTORE ISZERO ISZERO PUSH1 0x5 SHL DUP3 ADD ADD CODESIZE DUP1 DUP1 PUSH3 0x13A4 JUMP JUMPDEST SWAP2 DUP2 PUSH1 0x1F DUP5 ADD SLT ISZERO PUSH3 0x144E JUMPI DUP3 CALLDATALOAD SWAP2 PUSH1 0x1 PUSH1 0x1 PUSH1 0x40 SHL SUB DUP4 GT PUSH3 0x144E JUMPI PUSH1 0x20 DUP4 DUP2 DUP7 ADD SWAP6 ADD ADD GT PUSH3 0x144E JUMPI JUMP JUMPDEST PUSH1 0x0 DUP1 REVERT JUMPDEST SWAP2 SWAP1 DUP3 ADD DUP1 SWAP3 GT PUSH3 0x1461 JUMPI JUMP JUMPDEST PUSH4 0x4E487B71 PUSH1 0xE0 SHL PUSH1 0x0 MSTORE PUSH1 0x11 PUSH1 0x4 MSTORE PUSH1 0x24 PUSH1 0x0 REVERT JUMPDEST SWAP2 SWAP1 DUP3 SUB SWAP2 DUP3 GT PUSH3 0x1461 JUMPI JUMP JUMPDEST PUSH1 0x1 PUSH1 0x1 PUSH1 0x40 SHL SUB DUP2 GT PUSH3 0x1335 JUMPI PUSH1 0x5 SHL PUSH1 0x20 ADD SWAP1 JUMP JUMPDEST PUSH1 0x40 MLOAD SWAP1 PUSH3 0x14AC DUP3 PUSH3 0x1318 JUMP JUMPDEST DUP2 PUSH2 0x180 PUSH1 0x0 SWAP2 DUP3 DUP2 MSTORE DUP3 PUSH1 0x20 DUP3 ADD MSTORE PUSH1 0x60 PUSH1 0x40 DUP3 ADD MSTORE PUSH1 0x60 DUP1 DUP3 ADD MSTORE PUSH1 0x60 PUSH1 0x80 DUP3 ADD MSTORE DUP3 PUSH1 0xA0 DUP3 ADD MSTORE DUP3 PUSH1 0xC0 DUP3 ADD MSTORE DUP3 PUSH1 0xE0 DUP3 ADD MSTORE DUP3 PUSH2 0x100 DUP3 ADD MSTORE DUP3 PUSH2 0x120 DUP3 ADD MSTORE DUP3 PUSH2 0x140 DUP3 ADD MSTORE DUP3 PUSH2 0x160 DUP3 ADD MSTORE ADD MSTORE JUMP JUMPDEST DUP1 MLOAD DUP3 LT ISZERO PUSH3 0x1517 JUMPI PUSH1 0x20 SWAP2 PUSH1 0x5 SHL ADD ADD SWAP1 JUMP JUMPDEST PUSH4 0x4E487B71 PUSH1 0xE0 SHL PUSH1 0x0 MSTORE PUSH1 0x32 PUSH1 0x4 MSTORE PUSH1 0x24 PUSH1 0x0 REVERT JUMPDEST SWAP1 PUSH1 0x40 MLOAD PUSH3 0x153C DUP2 PUSH3 0x1318 JUMP JUMPDEST PUSH2 0x180 PUSH1 0xC DUP3 SWAP5 PUSH1 0x1 DUP1 PUSH1 0xA0 SHL SUB DUP1 DUP3 SLOAD AND DUP6 MSTORE DUP1 PUSH1 0x1 DUP4 ADD SLOAD AND PUSH1 0x20 DUP7 ADD MSTORE PUSH3 0x156A PUSH1 0x2 DUP4 ADD PUSH3 0x136D JUMP JUMPDEST PUSH1 0x40 DUP7 ADD MSTORE PUSH3 0x157D PUSH1 0x3 DUP4 ADD PUSH3 0x136D JUMP JUMPDEST PUSH1 0x60 DUP7 ADD MSTORE PUSH3 0x1590 PUSH1 0x4 DUP4 ADD PUSH3 0x136D JUMP JUMPDEST PUSH1 0x80 DUP7 ADD MSTORE PUSH1 0x5 DUP3 ADD SLOAD AND PUSH1 0xA0 DUP6 ADD MSTORE PUSH1 0x6 DUP2 ADD SLOAD PUSH1 0xC0 DUP6 ADD MSTORE PUSH1 0x7 DUP2 ADD SLOAD PUSH1 0xE0 DUP6 ADD MSTORE PUSH1 0x8 DUP2 ADD SLOAD PUSH2 0x100 DUP6 ADD MSTORE PUSH1 0x9 DUP2 ADD SLOAD PUSH2 0x120 DUP6 ADD MSTORE PUSH1 0xA DUP2 ADD SLOAD PUSH2 0x140 DUP6 ADD MSTORE PUSH1 0xB DUP2 ADD SLOAD PUSH2 0x160 DUP6 ADD MSTORE ADD SLOAD SWAP2 ADD MSTORE JUMP JUMPDEST PUSH1 0x0 DUP1 SLOAD SWAP1 SWAP4 SWAP3 DUP2 DUP4 LT ISZERO PUSH3 0x170B JUMPI DUP2 PUSH3 0x1604 DUP3 DUP6 PUSH3 0x1453 JUMP JUMPDEST GT ISZERO PUSH3 0x16F8 JUMPI POP DUP1 JUMPDEST PUSH3 0x161A DUP4 DUP4 PUSH3 0x1477 JUMP JUMPDEST SWAP1 PUSH3 0x1626 DUP3 PUSH3 0x1485 JUMP JUMPDEST SWAP2 PUSH3 0x1636 PUSH1 0x40 MLOAD SWAP4 DUP5 PUSH3 0x134B JUMP JUMPDEST DUP1 DUP4 MSTORE PUSH3 0x1647 PUSH1 0x1F NOT SWAP2 PUSH3 0x1485 JUMP JUMPDEST ADD PUSH1 0x0 JUMPDEST DUP2 DUP2 LT PUSH3 0x16DE JUMPI POP POP DUP2 SWAP6 DUP5 PUSH1 0x0 NOT DUP4 ADD SWAP3 DUP4 GT SWAP1 JUMPDEST DUP6 DUP2 LT PUSH3 0x1673 JUMPI POP POP POP POP POP POP POP JUMP JUMPDEST DUP2 PUSH3 0x16CA JUMPI DUP1 PUSH3 0x16C2 PUSH3 0x1696 PUSH3 0x1690 PUSH1 0x1 SWAP5 DUP9 PUSH3 0x1477 JUMP JUMPDEST PUSH3 0x128C JUMP JUMPDEST POP PUSH3 0x16AE PUSH3 0x16A7 DUP12 DUP6 PUSH3 0x1477 JUMP JUMPDEST SWAP2 PUSH3 0x152D JUMP JUMPDEST PUSH3 0x16BA DUP3 DUP11 PUSH3 0x1502 JUMP JUMPDEST MSTORE DUP8 PUSH3 0x1502 JUMP JUMPDEST POP ADD PUSH3 0x1662 JUMP JUMPDEST PUSH4 0x4E487B71 PUSH1 0xE0 SHL DUP4 MSTORE PUSH1 0x11 PUSH1 0x4 MSTORE PUSH1 0x24 DUP4 REVERT JUMPDEST PUSH1 0x20 SWAP1 PUSH3 0x16EB PUSH3 0x149D JUMP JUMPDEST DUP3 DUP3 DUP8 ADD ADD MSTORE ADD PUSH3 0x164B JUMP JUMPDEST PUSH3 0x1704 SWAP1 DUP4 PUSH3 0x1453 JUMP JUMPDEST SWAP1 PUSH3 0x160E JUMP JUMPDEST POP PUSH1 0x60 SWAP4 POP POP POP JUMP JUMPDEST ISZERO PUSH3 0x171C JUMPI JUMP JUMPDEST PUSH1 0x40 MLOAD PUSH3 0x461BCD PUSH1 0xE5 SHL DUP2 MSTORE PUSH1 0x20 PUSH1 0x4 DUP3 ADD MSTORE PUSH1 0x1B PUSH1 0x24 DUP3 ADD MSTORE PUSH32 0x4C61756E6368706164466163746F72793A206E6F74206F776E65720000000000 PUSH1 0x44 DUP3 ADD MSTORE PUSH1 0x64 SWAP1 REVERT JUMPDEST PUSH1 0x1 PUSH1 0x1 PUSH1 0x40 SHL SUB DUP2 GT PUSH3 0x1335 JUMPI PUSH1 0x1F ADD PUSH1 0x1F NOT AND PUSH1 0x20 ADD SWAP1 JUMP JUMPDEST SWAP1 DUP1 PUSH1 0x20 SWAP4 SWAP3 DUP2 DUP5 MSTORE DUP5 DUP5 ADD CALLDATACOPY PUSH1 0x0 DUP3 DUP3 ADD DUP5 ADD MSTORE PUSH1 0x1F ADD PUSH1 0x1F NOT AND ADD ADD SWAP1 JUMP JUMPDEST SWAP3 SWAP2 SWAP3 PUSH3 0x17AC DUP3 PUSH3 0x1761 JUMP JUMPDEST SWAP2 PUSH3 0x17BC PUSH1 0x40 MLOAD SWAP4 DUP5 PUSH3 0x134B JUMP JUMPDEST DUP3 SWAP5 DUP2 DUP5 MSTORE DUP2 DUP4 ADD GT PUSH3 0x144E JUMPI DUP3 DUP2 PUSH1 0x20 SWAP4 DUP5 PUSH1 0x0 SWAP7 ADD CALLDATACOPY ADD ADD MSTORE JUMP INVALID PUSH1 0xA0 PUSH1 0x40 MSTORE CALLVALUE PUSH3 0x512 JUMPI PUSH3 0x1124 DUP1 CODESIZE SUB DUP1 PUSH3 0x1D DUP2 PUSH3 0x517 JUMP JUMPDEST SWAP3 DUP4 CODECOPY DUP2 ADD PUSH1 0x80 DUP3 DUP3 SUB SLT PUSH3 0x512 JUMPI DUP2 MLOAD PUSH1 0x1 PUSH1 0x1 PUSH1 0x40 SHL SUB SWAP2 SWAP1 DUP3 DUP2 GT PUSH3 0x512 JUMPI DUP2 PUSH3 0x4F SWAP2 DUP6 ADD PUSH3 0x53D JUMP JUMPDEST SWAP3 PUSH1 0x20 DUP1 DUP3 ADD MLOAD DUP5 DUP2 GT PUSH3 0x512 JUMPI DUP4 PUSH3 0x6C SWAP2 DUP5 ADD PUSH3 0x53D JUMP JUMPDEST SWAP2 PUSH1 0x40 DUP2 ADD MLOAD SWAP4 PUSH1 0x60 DUP3 ADD MLOAD DUP7 DUP2 GT PUSH3 0x512 JUMPI PUSH3 0x8C SWAP3 ADD PUSH3 0x53D JUMP JUMPDEST SWAP1 DUP6 MLOAD SWAP3 DUP6 DUP5 GT PUSH3 0x412 JUMPI PUSH1 0x3 SWAP5 DUP6 SLOAD SWAP5 PUSH1 0x1 SWAP9 DUP10 DUP8 DUP2 SHR SWAP8 AND DUP1 ISZERO PUSH3 0x507 JUMPI JUMPDEST DUP6 DUP9 LT EQ PUSH3 0x4F1 JUMPI DUP2 SWAP1 PUSH1 0x1F SWAP8 DUP9 DUP2 GT PUSH3 0x49B JUMPI JUMPDEST POP DUP6 SWAP1 DUP9 DUP4 GT PUSH1 0x1 EQ PUSH3 0x434 JUMPI PUSH1 0x0 SWAP3 PUSH3 0x428 JUMPI JUMPDEST POP POP PUSH1 0x0 NOT DUP3 DUP10 SHL SHR NOT AND SWAP1 DUP10 SHL OR DUP7 SSTORE JUMPDEST DUP2 MLOAD DUP8 DUP2 GT PUSH3 0x412 JUMPI PUSH1 0x4 SWAP3 DUP4 SLOAD DUP11 DUP2 DUP2 SHR SWAP2 AND DUP1 ISZERO PUSH3 0x407 JUMPI JUMPDEST DUP7 DUP3 LT EQ PUSH3 0x3F2 JUMPI SWAP1 DUP2 DUP9 DUP5 SWAP4 GT PUSH3 0x39C JUMPI JUMPDEST POP DUP6 SWAP1 DUP9 DUP4 GT PUSH1 0x1 EQ PUSH3 0x335 JUMPI PUSH1 0x0 SWAP3 PUSH3 0x329 JUMPI JUMPDEST POP POP PUSH1 0x0 NOT DUP3 DUP10 SHL SHR NOT AND SWAP1 DUP10 SHL OR DUP3 SSTORE JUMPDEST CALLER ISZERO PUSH3 0x311 JUMPI PUSH1 0x5 DUP1 SLOAD CALLER PUSH1 0x1 PUSH1 0x1 PUSH1 0xA0 SHL SUB NOT DUP3 AND DUP2 OR SWAP1 SWAP3 SSTORE PUSH1 0x1 PUSH1 0x1 PUSH1 0xA0 SHL SUB AND PUSH32 0x8BE0079C531659141344CD1FD0A4F28419497F9722A3DAAFE3B4186F6B6457E0 PUSH1 0x0 DUP1 LOG3 PUSH1 0x80 MSTORE DUP3 MLOAD SWAP6 DUP7 GT PUSH3 0x2FC JUMPI PUSH1 0x6 SLOAD SWAP1 DUP8 DUP3 DUP2 SHR SWAP3 AND DUP1 ISZERO PUSH3 0x2F1 JUMPI JUMPDEST DUP4 DUP4 LT EQ PUSH3 0x2DC JUMPI POP DUP4 DUP2 GT PUSH3 0x290 JUMPI JUMPDEST POP DUP1 SWAP3 DUP6 GT PUSH1 0x1 EQ PUSH3 0x220 JUMPI POP SWAP4 DUP4 SWAP5 SWAP2 DUP5 SWAP3 PUSH1 0x0 SWAP6 PUSH3 0x214 JUMPI JUMPDEST POP POP SHL SWAP3 PUSH1 0x0 NOT SWAP2 SHL SHR NOT AND OR PUSH1 0x6 SSTORE JUMPDEST PUSH1 0x40 MLOAD PUSH2 0xB74 SWAP1 DUP2 PUSH3 0x5B0 DUP3 CODECOPY PUSH1 0x80 MLOAD DUP2 DUP2 DUP2 PUSH2 0x1CA ADD MSTORE PUSH2 0x513 ADD MSTORE RETURN JUMPDEST ADD MLOAD SWAP4 POP CODESIZE DUP1 PUSH3 0x1E3 JUMP JUMPDEST SWAP3 SWAP2 SWAP1 DUP5 PUSH1 0x1F NOT DUP2 AND PUSH1 0x6 PUSH1 0x0 MSTORE DUP6 PUSH1 0x0 KECCAK256 SWAP6 PUSH1 0x0 SWAP1 JUMPDEST DUP10 DUP4 DUP4 LT PUSH3 0x275 JUMPI POP POP POP LT PUSH3 0x25A JUMPI JUMPDEST POP POP POP POP DUP2 SHL ADD PUSH1 0x6 SSTORE PUSH3 0x1F4 JUMP JUMPDEST ADD MLOAD SWAP1 PUSH1 0xF8 DUP5 PUSH1 0x0 NOT SWAP3 SHL AND SHR NOT AND SWAP1 SSTORE CODESIZE DUP1 DUP1 DUP1 PUSH3 0x24A JUMP JUMPDEST DUP6 DUP8 ADD MLOAD DUP10 SSTORE SWAP1 SWAP8 ADD SWAP7 SWAP5 DUP6 ADD SWAP5 DUP9 SWAP4 POP SWAP1 DUP2 ADD SWAP1 PUSH3 0x237 JUMP JUMPDEST PUSH1 0x6 PUSH1 0x0 MSTORE DUP2 PUSH1 0x0 KECCAK256 DUP5 DUP1 DUP9 ADD PUSH1 0x5 SHR DUP3 ADD SWAP3 DUP5 DUP10 LT PUSH3 0x2D2 JUMPI JUMPDEST ADD PUSH1 0x5 SHR ADD SWAP1 DUP8 SWAP1 JUMPDEST DUP3 DUP2 LT PUSH3 0x2C5 JUMPI POP POP PUSH3 0x1C6 JUMP JUMPDEST PUSH1 0x0 DUP2 SSTORE ADD DUP8 SWAP1 PUSH3 0x2B5 JUMP JUMPDEST SWAP3 POP DUP2 SWAP3 PUSH3 0x2AC JUMP JUMPDEST PUSH1 0x22 SWAP1 PUSH4 0x4E487B71 PUSH1 0xE0 SHL PUSH1 0x0 MSTORE MSTORE PUSH1 0x24 PUSH1 0x0 REVERT JUMPDEST SWAP2 PUSH1 0x7F AND SWAP2 PUSH3 0x1B3 JUMP JUMPDEST PUSH1 0x41 SWAP1 PUSH4 0x4E487B71 PUSH1 0xE0 SHL PUSH1 0x0 MSTORE MSTORE PUSH1 0x24 PUSH1 0x0 REVERT JUMPDEST PUSH1 0x40 MLOAD PUSH4 0x1E4FBDF7 PUSH1 0xE0 SHL DUP2 MSTORE PUSH1 0x0 DUP2 DUP5 ADD MSTORE PUSH1 0x24 SWAP1 REVERT JUMPDEST ADD MLOAD SWAP1 POP CODESIZE DUP1 PUSH3 0x138 JUMP JUMPDEST SWAP1 DUP12 SWAP4 POP PUSH1 0x1F NOT DUP4 AND SWAP2 DUP7 PUSH1 0x0 MSTORE DUP8 PUSH1 0x0 KECCAK256 SWAP3 PUSH1 0x0 JUMPDEST DUP10 DUP3 DUP3 LT PUSH3 0x385 JUMPI POP POP DUP5 GT PUSH3 0x36C JUMPI JUMPDEST POP POP POP DUP2 SHL ADD DUP3 SSTORE PUSH3 0x14A JUMP JUMPDEST ADD MLOAD PUSH1 0x0 NOT DUP4 DUP12 SHL PUSH1 0xF8 AND SHR NOT AND SWAP1 SSTORE CODESIZE DUP1 DUP1 PUSH3 0x35E JUMP JUMPDEST DUP4 DUP6 ADD MLOAD DUP7 SSTORE DUP16 SWAP8 SWAP1 SWAP6 ADD SWAP5 SWAP4 DUP5 ADD SWAP4 ADD PUSH3 0x34B JUMP JUMPDEST SWAP1 SWAP2 POP DUP5 PUSH1 0x0 MSTORE DUP6 PUSH1 0x0 KECCAK256 DUP9 DUP1 DUP6 ADD PUSH1 0x5 SHR DUP3 ADD SWAP3 DUP9 DUP7 LT PUSH3 0x3E8 JUMPI JUMPDEST SWAP2 DUP14 SWAP2 DUP7 SWAP6 SWAP5 SWAP4 ADD PUSH1 0x5 SHR ADD SWAP2 JUMPDEST DUP3 DUP2 LT PUSH3 0x3D8 JUMPI POP POP PUSH3 0x121 JUMP JUMPDEST PUSH1 0x0 DUP2 SSTORE DUP6 SWAP5 POP DUP14 SWAP2 ADD PUSH3 0x3C8 JUMP JUMPDEST SWAP3 POP DUP2 SWAP3 PUSH3 0x3BA JUMP JUMPDEST PUSH1 0x22 DUP6 PUSH4 0x4E487B71 PUSH1 0xE0 SHL PUSH1 0x0 MSTORE MSTORE PUSH1 0x24 PUSH1 0x0 REVERT JUMPDEST SWAP1 PUSH1 0x7F AND SWAP1 PUSH3 0x10C JUMP JUMPDEST PUSH4 0x4E487B71 PUSH1 0xE0 SHL PUSH1 0x0 MSTORE PUSH1 0x41 PUSH1 0x4 MSTORE PUSH1 0x24 PUSH1 0x0 REVERT JUMPDEST ADD MLOAD SWAP1 POP CODESIZE DUP1 PUSH3 0xDD JUMP JUMPDEST SWAP1 DUP12 SWAP4 POP PUSH1 0x1F NOT DUP4 AND SWAP2 DUP11 PUSH1 0x0 MSTORE DUP8 PUSH1 0x0 KECCAK256 SWAP3 PUSH1 0x0 JUMPDEST DUP10 DUP3 DUP3 LT PUSH3 0x484 JUMPI POP POP DUP5 GT PUSH3 0x46B JUMPI JUMPDEST POP POP POP DUP2 SHL ADD DUP7 SSTORE PUSH3 0xEF JUMP JUMPDEST ADD MLOAD PUSH1 0x0 NOT DUP4 DUP12 SHL PUSH1 0xF8 AND SHR NOT AND SWAP1 SSTORE CODESIZE DUP1 DUP1 PUSH3 0x45D JUMP JUMPDEST DUP4 DUP6 ADD MLOAD DUP7 SSTORE DUP16 SWAP8 SWAP1 SWAP6 ADD SWAP5 SWAP4 DUP5 ADD SWAP4 ADD PUSH3 0x44A JUMP JUMPDEST SWAP1 SWAP2 POP DUP9 PUSH1 0x0 MSTORE DUP6 PUSH1 0x0 KECCAK256 DUP9 DUP1 DUP6 ADD PUSH1 0x5 SHR DUP3 ADD SWAP3 DUP9 DUP7 LT PUSH3 0x4E7 JUMPI JUMPDEST SWAP2 DUP14 SWAP2 DUP7 SWAP6 SWAP5 SWAP4 ADD PUSH1 0x5 SHR ADD SWAP2 JUMPDEST DUP3 DUP2 LT PUSH3 0x4D7 JUMPI POP POP PUSH3 0xC6 JUMP JUMPDEST PUSH1 0x0 DUP2 SSTORE DUP6 SWAP5 POP DUP14 SWAP2 ADD PUSH3 0x4C7 JUMP JUMPDEST SWAP3 POP DUP2 SWAP3 PUSH3 0x4B9 JUMP JUMPDEST PUSH4 0x4E487B71 PUSH1 0xE0 SHL PUSH1 0x0 MSTORE PUSH1 0x22 PUSH1 0x4 MSTORE PUSH1 0x24 PUSH1 0x0 REVERT JUMPDEST SWAP7 PUSH1 0x7F AND SWAP7 PUSH3 0xAF JUMP JUMPDEST PUSH1 0x0 DUP1 REVERT JUMPDEST PUSH1 0x40 MLOAD SWAP2 SWAP1 PUSH1 0x1F ADD PUSH1 0x1F NOT AND DUP3 ADD PUSH1 0x1 PUSH1 0x1 PUSH1 0x40 SHL SUB DUP2 GT DUP4 DUP3 LT OR PUSH3 0x412 JUMPI PUSH1 0x40 MSTORE JUMP JUMPDEST SWAP2 SWAP1 DUP1 PUSH1 0x1F DUP5 ADD SLT ISZERO PUSH3 0x512 JUMPI DUP3 MLOAD PUSH1 0x1 PUSH1 0x1 PUSH1 0x40 SHL SUB DUP2 GT PUSH3 0x412 JUMPI PUSH1 0x20 SWAP1 PUSH3 0x573 PUSH1 0x1F DUP3 ADD PUSH1 0x1F NOT AND DUP4 ADD PUSH3 0x517 JUMP JUMPDEST SWAP3 DUP2 DUP5 MSTORE DUP3 DUP3 DUP8 ADD ADD GT PUSH3 0x512 JUMPI PUSH1 0x0 JUMPDEST DUP2 DUP2 LT PUSH3 0x59B JUMPI POP DUP3 PUSH1 0x0 SWAP4 SWAP5 SWAP6 POP ADD ADD MSTORE SWAP1 JUMP JUMPDEST DUP6 DUP2 ADD DUP4 ADD MLOAD DUP5 DUP3 ADD DUP5 ADD MSTORE DUP3 ADD PUSH3 0x585 JUMP INVALID PUSH1 0x80 PUSH1 0x40 DUP2 DUP2 MSTORE PUSH1 0x4 DUP1 CALLDATASIZE LT ISZERO PUSH2 0x15 JUMPI PUSH1 0x0 DUP1 REVERT JUMPDEST PUSH1 0x0 SWAP3 DUP4 CALLDATALOAD PUSH1 0xE0 SHR SWAP1 DUP2 PUSH4 0x6FDDE03 EQ PUSH2 0x8A0 JUMPI POP DUP1 PUSH4 0x95EA7B3 EQ PUSH2 0x7F7 JUMPI DUP1 PUSH4 0xBF82DA4 EQ PUSH2 0x71A JUMPI DUP1 PUSH4 0x18160DDD EQ PUSH2 0x6FB JUMPI DUP1 PUSH4 0x23B872DD EQ PUSH2 0x608 JUMPI DUP1 PUSH4 0x313CE567 EQ PUSH2 0x5EC JUMPI DUP1 PUSH4 0x40C10F19 EQ PUSH2 0x4DC JUMPI DUP1 PUSH4 0x70A08231 EQ PUSH2 0x4A5 JUMPI DUP1 PUSH4 0x715018A6 EQ PUSH2 0x445 JUMPI DUP1 PUSH4 0x8DA5CB5B EQ PUSH2 0x41C JUMPI DUP1 PUSH4 0x95D89B41 EQ PUSH2 0x2FA JUMPI DUP1 PUSH4 0x9DC29FAC EQ PUSH2 0x21E JUMPI DUP1 PUSH4 0xA9059CBB EQ PUSH2 0x1ED JUMPI DUP1 PUSH4 0xD5ABEB01 EQ PUSH2 0x1B2 JUMPI DUP1 PUSH4 0xDD62ED3E EQ PUSH2 0x165 JUMPI PUSH4 0xF2FDE38B EQ PUSH2 0xD3 JUMPI PUSH1 0x0 DUP1 REVERT JUMPDEST CALLVALUE PUSH2 0x161 JUMPI PUSH1 0x20 CALLDATASIZE PUSH1 0x3 NOT ADD SLT PUSH2 0x161 JUMPI PUSH2 0xEC PUSH2 0x9E0 JUMP JUMPDEST SWAP1 PUSH2 0xF5 PUSH2 0xB12 JUMP JUMPDEST PUSH1 0x1 PUSH1 0x1 PUSH1 0xA0 SHL SUB SWAP2 DUP3 AND SWAP3 DUP4 ISZERO PUSH2 0x14B JUMPI POP POP PUSH1 0x5 SLOAD DUP3 PUSH12 0xFFFFFFFFFFFFFFFFFFFFFFFF PUSH1 0xA0 SHL DUP3 AND OR PUSH1 0x5 SSTORE AND PUSH32 0x8BE0079C531659141344CD1FD0A4F28419497F9722A3DAAFE3B4186F6B6457E0 DUP4 DUP1 LOG3 DUP1 RETURN JUMPDEST MLOAD PUSH4 0x1E4FBDF7 PUSH1 0xE0 SHL DUP2 MSTORE SWAP1 DUP2 ADD DUP5 SWAP1 MSTORE PUSH1 0x24 SWAP1 REVERT JUMPDEST DUP3 DUP1 REVERT JUMPDEST POP POP CALLVALUE PUSH2 0x1AE JUMPI DUP1 PUSH1 0x3 NOT CALLDATASIZE ADD SLT PUSH2 0x1AE JUMPI DUP1 PUSH1 0x20 SWAP3 PUSH2 0x183 PUSH2 0x9E0 JUMP JUMPDEST PUSH2 0x18B PUSH2 0x9FB JUMP JUMPDEST PUSH1 0x1 PUSH1 0x1 PUSH1 0xA0 SHL SUB SWAP2 DUP3 AND DUP4 MSTORE PUSH1 0x1 DUP7 MSTORE DUP4 DUP4 KECCAK256 SWAP2 AND DUP3 MSTORE DUP5 MSTORE KECCAK256 SLOAD SWAP1 MLOAD SWAP1 DUP2 MSTORE RETURN JUMPDEST POP DUP1 REVERT JUMPDEST POP POP CALLVALUE PUSH2 0x1AE JUMPI DUP2 PUSH1 0x3 NOT CALLDATASIZE ADD SLT PUSH2 0x1AE JUMPI PUSH1 0x20 SWAP1 MLOAD PUSH32 0x0 DUP2 MSTORE RETURN JUMPDEST POP POP CALLVALUE PUSH2 0x1AE JUMPI DUP1 PUSH1 0x3 NOT CALLDATASIZE ADD SLT PUSH2 0x1AE JUMPI PUSH1 0x20 SWAP1 PUSH2 0x217 PUSH2 0x20D PUSH2 0x9E0 JUMP JUMPDEST PUSH1 0x24 CALLDATALOAD SWAP1 CALLER PUSH2 0xA34 JUMP JUMPDEST MLOAD PUSH1 0x1 DUP2 MSTORE RETURN JUMPDEST POP DUP3 SWAP1 CALLVALUE PUSH2 0x1AE JUMPI DUP3 PUSH1 0x3 NOT CALLDATASIZE ADD SLT PUSH2 0x1AE JUMPI PUSH2 0x239 PUSH2 0x9E0 JUMP JUMPDEST SWAP1 PUSH1 0x24 CALLDATALOAD SWAP1 PUSH2 0x246 PUSH2 0xB12 JUMP JUMPDEST PUSH1 0x1 PUSH1 0x1 PUSH1 0xA0 SHL SUB DUP4 AND SWAP3 DUP4 ISZERO PUSH2 0x2E3 JUMPI DUP4 DUP6 MSTORE DUP5 PUSH1 0x20 MSTORE DUP6 DUP6 KECCAK256 SLOAD SWAP2 DUP4 DUP4 LT PUSH2 0x2AF JUMPI POP POP DUP2 DUP5 SWAP6 PUSH32 0xDDF252AD1BE2C89B69C2B068FC378DAA952BA7F163C4A11628F55A4DF523B3EF SWAP4 PUSH1 0x20 SWAP4 DUP7 DUP9 MSTORE DUP8 DUP6 MSTORE SUB DUP2 DUP8 KECCAK256 SSTORE DUP2 PUSH1 0x2 SLOAD SUB PUSH1 0x2 SSTORE MLOAD SWAP1 DUP2 MSTORE LOG3 DUP1 RETURN JUMPDEST DUP7 MLOAD PUSH4 0x391434E3 PUSH1 0xE2 SHL DUP2 MSTORE PUSH1 0x1 PUSH1 0x1 PUSH1 0xA0 SHL SUB SWAP1 SWAP3 AND SWAP1 DUP3 ADD SWAP1 DUP2 MSTORE PUSH1 0x20 DUP2 ADD DUP4 SWAP1 MSTORE PUSH1 0x40 DUP2 ADD DUP5 SWAP1 MSTORE DUP2 SWAP1 PUSH1 0x60 ADD SUB SWAP1 REVERT JUMPDEST DUP6 MLOAD PUSH4 0x4B637E8F PUSH1 0xE1 SHL DUP2 MSTORE DUP1 DUP4 ADD DUP7 SWAP1 MSTORE PUSH1 0x24 SWAP1 REVERT JUMPDEST POP SWAP2 SWAP1 CALLVALUE PUSH2 0x1AE JUMPI DUP2 PUSH1 0x3 NOT CALLDATASIZE ADD SLT PUSH2 0x1AE JUMPI DUP1 MLOAD SWAP1 DUP3 DUP5 SLOAD PUSH1 0x1 DUP2 PUSH1 0x1 SHR SWAP1 PUSH1 0x1 DUP4 AND SWAP3 DUP4 ISZERO PUSH2 0x412 JUMPI JUMPDEST PUSH1 0x20 SWAP4 DUP5 DUP5 LT DUP2 EQ PUSH2 0x3FF JUMPI DUP4 DUP9 MSTORE SWAP1 DUP2 ISZERO PUSH2 0x3E3 JUMPI POP PUSH1 0x1 EQ PUSH2 0x38E JUMPI JUMPDEST POP POP POP DUP3 SWAP1 SUB PUSH1 0x1F ADD PUSH1 0x1F NOT AND DUP3 ADD SWAP3 PUSH8 0xFFFFFFFFFFFFFFFF DUP5 GT DUP4 DUP6 LT OR PUSH2 0x37B JUMPI POP DUP3 SWAP2 DUP3 PUSH2 0x377 SWAP3 MSTORE DUP3 PUSH2 0x997 JUMP JUMPDEST SUB SWAP1 RETURN JUMPDEST PUSH4 0x4E487B71 PUSH1 0xE0 SHL DUP2 MSTORE PUSH1 0x41 DUP6 MSTORE PUSH1 0x24 SWAP1 REVERT JUMPDEST DUP8 DUP8 MSTORE SWAP2 SWAP3 POP DUP6 SWAP2 DUP4 PUSH32 0x8A35ACFBC15FF81A39AE7D344FD709F28E8600B4AA8C65C6B64BFE7FE36BD19B JUMPDEST DUP4 DUP6 LT PUSH2 0x3CF JUMPI POP POP POP POP DUP4 ADD ADD CODESIZE DUP1 DUP1 PUSH2 0x345 JUMP JUMPDEST DUP1 SLOAD DUP9 DUP7 ADD DUP4 ADD MSTORE SWAP4 ADD SWAP3 DUP5 SWAP1 DUP3 ADD PUSH2 0x3B9 JUMP JUMPDEST PUSH1 0xFF NOT AND DUP8 DUP6 ADD MSTORE POP POP ISZERO ISZERO PUSH1 0x5 SHL DUP5 ADD ADD SWAP1 POP CODESIZE DUP1 DUP1 PUSH2 0x345 JUMP JUMPDEST PUSH4 0x4E487B71 PUSH1 0xE0 SHL DUP10 MSTORE PUSH1 0x22 DUP11 MSTORE PUSH1 0x24 DUP10 REVERT JUMPDEST SWAP2 PUSH1 0x7F AND SWAP2 PUSH2 0x326 JUMP JUMPDEST POP POP CALLVALUE PUSH2 0x1AE JUMPI DUP2 PUSH1 0x3 NOT CALLDATASIZE ADD SLT PUSH2 0x1AE JUMPI PUSH1 0x5 SLOAD SWAP1 MLOAD PUSH1 0x1 PUSH1 0x1 PUSH1 0xA0 SHL SUB SWAP1 SWAP2 AND DUP2 MSTORE PUSH1 0x20 SWAP1 RETURN JUMPDEST DUP4 CALLVALUE PUSH2 0x4A2 JUMPI DUP1 PUSH1 0x3 NOT CALLDATASIZE ADD SLT PUSH2 0x4A2 JUMPI PUSH2 0x45E PUSH2 0xB12 JUMP JUMPDEST PUSH1 0x5 DUP1 SLOAD PUSH1 0x1 PUSH1 0x1 PUSH1 0xA0 SHL SUB NOT DUP2 AND SWAP1 SWAP2 SSTORE DUP2 SWAP1 PUSH1 0x1 PUSH1 0x1 PUSH1 0xA0 SHL SUB AND PUSH32 0x8BE0079C531659141344CD1FD0A4F28419497F9722A3DAAFE3B4186F6B6457E0 DUP3 DUP1 LOG3 DUP1 RETURN JUMPDEST DUP1 REVERT JUMPDEST POP POP CALLVALUE PUSH2 0x1AE JUMPI PUSH1 0x20 CALLDATASIZE PUSH1 0x3 NOT ADD SLT PUSH2 0x1AE JUMPI PUSH1 0x20 SWAP2 DUP2 SWAP1 PUSH1 0x1 PUSH1 0x1 PUSH1 0xA0 SHL SUB PUSH2 0x4CD PUSH2 0x9E0 JUMP JUMPDEST AND DUP2 MSTORE DUP1 DUP5 MSTORE KECCAK256 SLOAD SWAP1 MLOAD SWAP1 DUP2 MSTORE RETURN JUMPDEST POP SWAP1 CALLVALUE PUSH2 0x161 JUMPI DUP1 PUSH1 0x3 NOT CALLDATASIZE ADD SLT PUSH2 0x161 JUMPI PUSH2 0x4F6 PUSH2 0x9E0 JUMP JUMPDEST SWAP1 PUSH1 0x24 CALLDATALOAD SWAP2 PUSH2 0x503 PUSH2 0xB12 JUMP JUMPDEST PUSH1 0x2 SLOAD SWAP1 PUSH2 0x511 DUP5 DUP4 PUSH2 0xA11 JUMP JUMPDEST PUSH32 0x0 LT PUSH2 0x5A9 JUMPI PUSH1 0x1 PUSH1 0x1 PUSH1 0xA0 SHL SUB AND SWAP4 DUP5 ISZERO PUSH2 0x592 JUMPI POP DUP3 PUSH32 0xDDF252AD1BE2C89B69C2B068FC378DAA952BA7F163C4A11628F55A4DF523B3EF SWAP3 PUSH2 0x578 DUP8 SWAP6 PUSH1 0x20 SWAP5 PUSH2 0xA11 JUMP JUMPDEST PUSH1 0x2 SSTORE DUP6 DUP6 MSTORE DUP5 DUP4 MSTORE DUP1 DUP6 KECCAK256 DUP3 DUP2 SLOAD ADD SWAP1 SSTORE MLOAD SWAP1 DUP2 MSTORE LOG3 DUP1 RETURN JUMPDEST DUP3 MLOAD PUSH4 0xEC442F05 PUSH1 0xE0 SHL DUP2 MSTORE SWAP1 DUP2 ADD DUP7 SWAP1 MSTORE PUSH1 0x24 SWAP1 REVERT JUMPDEST DUP3 MLOAD PUSH3 0x461BCD PUSH1 0xE5 SHL DUP2 MSTORE PUSH1 0x20 DUP2 DUP8 ADD MSTORE PUSH1 0x1F PUSH1 0x24 DUP3 ADD MSTORE PUSH32 0x4C61756E6368546F6B656E3A206D617820737570706C79207265616368656400 PUSH1 0x44 DUP3 ADD MSTORE PUSH1 0x64 SWAP1 REVERT JUMPDEST POP POP CALLVALUE PUSH2 0x1AE JUMPI DUP2 PUSH1 0x3 NOT CALLDATASIZE ADD SLT PUSH2 0x1AE JUMPI PUSH1 0x20 SWAP1 MLOAD PUSH1 0x12 DUP2 MSTORE RETURN JUMPDEST POP DUP3 CALLVALUE PUSH2 0x4A2 JUMPI PUSH1 0x60 CALLDATASIZE PUSH1 0x3 NOT ADD SLT PUSH2 0x4A2 JUMPI PUSH2 0x623 PUSH2 0x9E0 JUMP JUMPDEST PUSH2 0x62B PUSH2 0x9FB JUMP JUMPDEST SWAP2 PUSH1 0x44 CALLDATALOAD SWAP4 PUSH1 0x1 DUP1 PUSH1 0xA0 SHL SUB DUP4 AND DUP1 DUP4 MSTORE PUSH1 0x1 PUSH1 0x20 MSTORE DUP7 DUP4 KECCAK256 CALLER DUP5 MSTORE PUSH1 0x20 MSTORE DUP7 DUP4 KECCAK256 SLOAD SWAP2 PUSH1 0x0 NOT DUP4 LT PUSH2 0x667 JUMPI JUMPDEST PUSH1 0x20 DUP9 PUSH2 0x217 DUP10 DUP10 DUP10 PUSH2 0xA34 JUMP JUMPDEST DUP7 DUP4 LT PUSH2 0x6CF JUMPI DUP2 ISZERO PUSH2 0x6B8 JUMPI CALLER ISZERO PUSH2 0x6A1 JUMPI POP DUP3 MSTORE PUSH1 0x1 PUSH1 0x20 SWAP1 DUP2 MSTORE DUP7 DUP4 KECCAK256 CALLER DUP5 MSTORE DUP2 MSTORE SWAP2 DUP7 SWAP1 KECCAK256 SWAP1 DUP6 SWAP1 SUB SWAP1 SSTORE DUP3 SWAP1 PUSH2 0x217 DUP8 PUSH2 0x659 JUMP JUMPDEST DUP8 MLOAD PUSH4 0x4A1406B1 PUSH1 0xE1 SHL DUP2 MSTORE SWAP1 DUP2 ADD DUP5 SWAP1 MSTORE PUSH1 0x24 SWAP1 REVERT JUMPDEST DUP8 MLOAD PUSH4 0xE602DF05 PUSH1 0xE0 SHL DUP2 MSTORE SWAP1 DUP2 ADD DUP5 SWAP1 MSTORE PUSH1 0x24 SWAP1 REVERT JUMPDEST DUP8 MLOAD PUSH4 0x7DC7A0D9 PUSH1 0xE1 SHL DUP2 MSTORE CALLER SWAP2 DUP2 ADD SWAP2 DUP3 MSTORE PUSH1 0x20 DUP3 ADD SWAP4 SWAP1 SWAP4 MSTORE PUSH1 0x40 DUP2 ADD DUP8 SWAP1 MSTORE DUP3 SWAP2 POP PUSH1 0x60 ADD SUB SWAP1 REVERT JUMPDEST POP POP CALLVALUE PUSH2 0x1AE JUMPI DUP2 PUSH1 0x3 NOT CALLDATASIZE ADD SLT PUSH2 0x1AE JUMPI PUSH1 0x20 SWAP1 PUSH1 0x2 SLOAD SWAP1 MLOAD SWAP1 DUP2 MSTORE RETURN JUMPDEST POP SWAP2 SWAP1 CALLVALUE PUSH2 0x1AE JUMPI DUP2 PUSH1 0x3 NOT CALLDATASIZE ADD SLT PUSH2 0x1AE JUMPI DUP1 MLOAD SWAP1 DUP3 PUSH1 0x6 SLOAD PUSH1 0x1 DUP2 PUSH1 0x1 SHR SWAP1 PUSH1 0x1 DUP4 AND SWAP3 DUP4 ISZERO PUSH2 0x7ED JUMPI JUMPDEST PUSH1 0x20 SWAP4 DUP5 DUP5 LT DUP2 EQ PUSH2 0x3FF JUMPI DUP4 DUP9 MSTORE SWAP1 DUP2 ISZERO PUSH2 0x3E3 JUMPI POP PUSH1 0x1 EQ PUSH2 0x797 JUMPI POP POP POP DUP3 SWAP1 SUB PUSH1 0x1F ADD PUSH1 0x1F NOT AND DUP3 ADD SWAP3 PUSH8 0xFFFFFFFFFFFFFFFF DUP5 GT DUP4 DUP6 LT OR PUSH2 0x37B JUMPI POP DUP3 SWAP2 DUP3 PUSH2 0x377 SWAP3 MSTORE DUP3 PUSH2 0x997 JUMP JUMPDEST PUSH1 0x6 DUP8 MSTORE SWAP2 SWAP3 POP DUP6 SWAP2 DUP4 PUSH32 0xF652222313E28459528D920B65115C16C04F3EFC82AAEDC97BE59F3F377C0D3F JUMPDEST DUP4 DUP6 LT PUSH2 0x7D9 JUMPI POP POP POP POP DUP4 ADD ADD CODESIZE DUP1 DUP1 PUSH2 0x345 JUMP JUMPDEST DUP1 SLOAD DUP9 DUP7 ADD DUP4 ADD MSTORE SWAP4 ADD SWAP3 DUP5 SWAP1 DUP3 ADD PUSH2 0x7C3 JUMP JUMPDEST SWAP2 PUSH1 0x7F AND SWAP2 PUSH2 0x747 JUMP JUMPDEST POP CALLVALUE PUSH2 0x161 JUMPI DUP2 PUSH1 0x3 NOT CALLDATASIZE ADD SLT PUSH2 0x161 JUMPI PUSH2 0x810 PUSH2 0x9E0 JUMP JUMPDEST PUSH1 0x24 CALLDATALOAD SWAP1 CALLER ISZERO PUSH2 0x889 JUMPI PUSH1 0x1 PUSH1 0x1 PUSH1 0xA0 SHL SUB AND SWAP2 DUP3 ISZERO PUSH2 0x872 JUMPI POP DUP1 DUP4 PUSH1 0x20 SWAP6 CALLER DUP2 MSTORE PUSH1 0x1 DUP8 MSTORE DUP2 DUP2 KECCAK256 DUP6 DUP3 MSTORE DUP8 MSTORE KECCAK256 SSTORE DUP3 MLOAD SWAP1 DUP2 MSTORE PUSH32 0x8C5BE1E5EBEC7D5BD14F71427D1E84F3DD0314C0F7B2291E5B200AC8C7C3B925 DUP5 CALLER SWAP3 LOG3 MLOAD PUSH1 0x1 DUP2 MSTORE RETURN JUMPDEST DUP4 MLOAD PUSH4 0x4A1406B1 PUSH1 0xE1 SHL DUP2 MSTORE SWAP1 DUP2 ADD DUP6 SWAP1 MSTORE PUSH1 0x24 SWAP1 REVERT JUMPDEST DUP4 MLOAD PUSH4 0xE602DF05 PUSH1 0xE0 SHL DUP2 MSTORE DUP1 DUP5 ADD DUP7 SWAP1 MSTORE PUSH1 0x24 SWAP1 REVERT JUMPDEST DUP5 SWAP2 POP DUP4 CALLVALUE PUSH2 0x161 JUMPI DUP3 PUSH1 0x3 NOT CALLDATASIZE ADD SLT PUSH2 0x161 JUMPI DUP3 PUSH1 0x3 SLOAD PUSH1 0x1 DUP2 PUSH1 0x1 SHR SWAP1 PUSH1 0x1 DUP4 AND SWAP3 DUP4 ISZERO PUSH2 0x98D JUMPI JUMPDEST PUSH1 0x20 SWAP4 DUP5 DUP5 LT DUP2 EQ PUSH2 0x3FF JUMPI DUP4 DUP9 MSTORE SWAP1 DUP2 ISZERO PUSH2 0x971 JUMPI POP PUSH1 0x1 EQ PUSH2 0x91B JUMPI POP POP POP DUP3 SWAP1 SUB PUSH1 0x1F ADD PUSH1 0x1F NOT AND DUP3 ADD SWAP3 PUSH8 0xFFFFFFFFFFFFFFFF DUP5 GT DUP4 DUP6 LT OR PUSH2 0x37B JUMPI POP DUP3 SWAP2 DUP3 PUSH2 0x377 SWAP3 MSTORE DUP3 PUSH2 0x997 JUMP JUMPDEST PUSH1 0x3 DUP8 MSTORE SWAP2 SWAP3 POP DUP6 SWAP2 DUP4 PUSH32 0xC2575A0E9E593C00F959F8C92F12DB2869C3395A3B0502D05E2516446F71F85B JUMPDEST DUP4 DUP6 LT PUSH2 0x95D JUMPI POP POP POP POP DUP4 ADD ADD DUP6 DUP1 DUP1 PUSH2 0x345 JUMP JUMPDEST DUP1 SLOAD DUP9 DUP7 ADD DUP4 ADD MSTORE SWAP4 ADD SWAP3 DUP5 SWAP1 DUP3 ADD PUSH2 0x947 JUMP JUMPDEST PUSH1 0xFF NOT AND DUP8 DUP6 ADD MSTORE POP POP ISZERO ISZERO PUSH1 0x5 SHL DUP5 ADD ADD SWAP1 POP DUP6 DUP1 DUP1 PUSH2 0x345 JUMP JUMPDEST SWAP2 PUSH1 0x7F AND SWAP2 PUSH2 0x8CB JUMP JUMPDEST PUSH1 0x20 DUP1 DUP3 MSTORE DUP3 MLOAD DUP2 DUP4 ADD DUP2 SWAP1 MSTORE SWAP1 SWAP4 SWAP3 PUSH1 0x0 JUMPDEST DUP3 DUP2 LT PUSH2 0x9CC JUMPI POP POP PUSH1 0x40 SWAP3 SWAP4 POP PUSH1 0x0 DUP4 DUP3 DUP5 ADD ADD MSTORE PUSH1 0x1F DUP1 NOT SWAP2 ADD AND ADD ADD SWAP1 JUMP JUMPDEST DUP2 DUP2 ADD DUP7 ADD MLOAD DUP5 DUP3 ADD PUSH1 0x40 ADD MSTORE DUP6 ADD PUSH2 0x9AA JUMP JUMPDEST PUSH1 0x4 CALLDATALOAD SWAP1 PUSH1 0x1 PUSH1 0x1 PUSH1 0xA0 SHL SUB DUP3 AND DUP3 SUB PUSH2 0x9F6 JUMPI JUMP JUMPDEST PUSH1 0x0 DUP1 REVERT JUMPDEST PUSH1 0x24 CALLDATALOAD SWAP1 PUSH1 0x1 PUSH1 0x1 PUSH1 0xA0 SHL SUB DUP3 AND DUP3 SUB PUSH2 0x9F6 JUMPI JUMP JUMPDEST SWAP2 SWAP1 DUP3 ADD DUP1 SWAP3 GT PUSH2 0xA1E JUMPI JUMP JUMPDEST PUSH4 0x4E487B71 PUSH1 0xE0 SHL PUSH1 0x0 MSTORE PUSH1 0x11 PUSH1 0x4 MSTORE PUSH1 0x24 PUSH1 0x0 REVERT JUMPDEST SWAP2 PUSH1 0x1 PUSH1 0x1 PUSH1 0xA0 SHL SUB DUP1 DUP5 AND SWAP3 DUP4 ISZERO PUSH2 0xAF9 JUMPI AND SWAP3 DUP4 ISZERO PUSH2 0xAE0 JUMPI PUSH1 0x0 SWAP1 DUP4 DUP3 MSTORE DUP2 PUSH1 0x20 MSTORE PUSH1 0x40 DUP3 KECCAK256 SLOAD SWAP1 DUP4 DUP3 LT PUSH2 0xAAE JUMPI POP SWAP2 PUSH1 0x40 DUP3 DUP3 PUSH32 0xDDF252AD1BE2C89B69C2B068FC378DAA952BA7F163C4A11628F55A4DF523B3EF SWAP6 DUP8 PUSH1 0x20 SWAP7 MSTORE DUP3 DUP7 MSTORE SUB DUP3 DUP3 KECCAK256 SSTORE DUP7 DUP2 MSTORE KECCAK256 DUP2 DUP2 SLOAD ADD SWAP1 SSTORE PUSH1 0x40 MLOAD SWAP1 DUP2 MSTORE LOG3 JUMP JUMPDEST PUSH1 0x40 MLOAD PUSH4 0x391434E3 PUSH1 0xE2 SHL DUP2 MSTORE PUSH1 0x1 PUSH1 0x1 PUSH1 0xA0 SHL SUB SWAP2 SWAP1 SWAP2 AND PUSH1 0x4 DUP3 ADD MSTORE PUSH1 0x24 DUP2 ADD SWAP2 SWAP1 SWAP2 MSTORE PUSH1 0x44 DUP2 ADD DUP4 SWAP1 MSTORE PUSH1 0x64 SWAP1 REVERT JUMPDEST PUSH1 0x40 MLOAD PUSH4 0xEC442F05 PUSH1 0xE0 SHL DUP2 MSTORE PUSH1 0x0 PUSH1 0x4 DUP3 ADD MSTORE PUSH1 0x24 SWAP1 REVERT JUMPDEST PUSH1 0x40 MLOAD PUSH4 0x4B637E8F PUSH1 0xE1 SHL DUP2 MSTORE PUSH1 0x0 PUSH1 0x4 DUP3 ADD MSTORE PUSH1 0x24 SWAP1 REVERT JUMPDEST PUSH1 0x5 SLOAD PUSH1 0x1 PUSH1 0x1 PUSH1 0xA0 SHL SUB AND CALLER SUB PUSH2 0xB26 JUMPI JUMP JUMPDEST PUSH1 0x40 MLOAD PUSH4 0x118CDAA7 PUSH1 0xE0 SHL DUP2 MSTORE CALLER PUSH1 0x4 DUP3 ADD MSTORE PUSH1 0x24 SWAP1 REVERT INVALID LOG2 PUSH5 0x6970667358 0x22 SLT KECCAK256 0xD7 0xC2 ISZERO 0xBB DUP7 0xBC SAR 0xB5 MCOPY 0xCF PUSH12 0x8EFC32F212A5F1DAF2E07E1B 0xEF 0xCF PUSH9 0x7D7F5C14AE764736F PUSH13 0x634300081800336101E0604081 DUP2 MSTORE CALLVALUE PUSH3 0x386 JUMPI DUP2 PUSH3 0x2A65 DUP1 CODESIZE SUB DUP1 SWAP2 PUSH3 0x23 DUP3 DUP6 PUSH3 0x38B JUMP JUMPDEST DUP4 CODECOPY PUSH2 0x100 SWAP4 DUP5 SWAP2 DUP2 ADD SUB SLT PUSH3 0x386 JUMPI PUSH3 0x3F DUP2 PUSH3 0x3C5 JUMP JUMPDEST SWAP1 PUSH1 0x20 PUSH3 0x4F DUP2 DUP4 ADD PUSH3 0x3C5 JUMP JUMPDEST SWAP4 DUP1 DUP4 ADD MLOAD SWAP1 PUSH1 0x60 DUP5 ADD MLOAD SWAP1 PUSH1 0x80 DUP6 ADD MLOAD SWAP7 PUSH1 0xA0 DUP7 ADD MLOAD SWAP3 PUSH1 0xE0 PUSH1 0xC0 DUP9 ADD MLOAD SWAP8 ADD MLOAD SWAP8 PUSH1 0xFF DUP10 AND DUP1 DUP11 SUB PUSH3 0x386 JUMPI DUP1 ISZERO ISZERO SWAP1 DUP2 PUSH3 0x379 JUMPI JUMPDEST POP ISZERO PUSH3 0x335 JUMPI PUSH1 0x1 PUSH1 0x1 PUSH1 0xA0 SHL SUB AND PUSH1 0x80 DUP2 SWAP1 MSTORE PUSH1 0xA0 SWAP3 SWAP1 SWAP3 MSTORE TIMESTAMP PUSH1 0xC0 MSTORE PUSH1 0xE0 DUP6 SWAP1 MSTORE DUP10 MSTORE PUSH2 0x120 SWAP8 DUP9 MSTORE PUSH2 0x140 SWAP3 DUP4 MSTORE PUSH2 0x1A0 SWAP6 DUP7 MSTORE PUSH2 0x1C0 SWAP7 DUP8 MSTORE DUP2 MLOAD PUSH4 0xD5ABEB01 PUSH1 0xE0 SHL DUP2 MSTORE SWAP1 DUP6 SWAP1 DUP3 SWAP1 PUSH1 0x4 SWAP1 DUP3 SWAP1 GAS STATICCALL SWAP5 DUP6 ISZERO PUSH3 0x32A JUMPI PUSH1 0x0 SWAP6 PUSH3 0x2F0 JUMPI JUMPDEST POP POP PUSH1 0x5F DUP5 MUL DUP5 DUP2 DIV PUSH1 0x5F EQ DUP6 ISZERO OR ISZERO PUSH3 0x2C4 JUMPI DUP4 ISZERO PUSH3 0x2DA JUMPI PUSH1 0x64 DUP5 SWAP2 DIV DIV DUP4 DUP2 MUL SWAP4 DUP2 DUP6 DIV EQ SWAP1 ISZERO OR ISZERO PUSH3 0x2C4 JUMPI PUSH2 0x160 SWAP3 DUP1 DUP5 MSTORE DUP5 SUB SWAP4 DUP5 GT PUSH3 0x2C4 JUMPI PUSH2 0x180 SWAP4 DUP5 MSTORE MLOAD SWAP6 PUSH2 0x268A SWAP8 DUP9 PUSH3 0x3DB DUP10 CODECOPY PUSH1 0x80 MLOAD DUP9 DUP2 DUP2 PUSH2 0x246 ADD MSTORE DUP2 DUP2 PUSH2 0x61E ADD MSTORE DUP2 DUP2 PUSH2 0xBD9 ADD MSTORE DUP2 DUP2 PUSH2 0xC31 ADD MSTORE DUP2 DUP2 PUSH2 0xCDB ADD MSTORE DUP2 DUP2 PUSH2 0xD54 ADD MSTORE DUP2 DUP2 PUSH2 0xEBE ADD MSTORE DUP2 DUP2 PUSH2 0xF2F ADD MSTORE DUP2 DUP2 PUSH2 0xF61 ADD MSTORE DUP2 DUP2 PUSH2 0xFDC ADD MSTORE DUP2 DUP2 PUSH2 0x12B3 ADD MSTORE DUP2 DUP2 PUSH2 0x132B ADD MSTORE DUP2 DUP2 PUSH2 0x13E4 ADD MSTORE DUP2 DUP2 PUSH2 0x1477 ADD MSTORE DUP2 DUP2 PUSH2 0x15D5 ADD MSTORE DUP2 DUP2 PUSH2 0x169A ADD MSTORE DUP2 DUP2 PUSH2 0x187E ADD MSTORE DUP2 DUP2 PUSH2 0x18B0 ADD MSTORE DUP2 DUP2 PUSH2 0x192B ADD MSTORE PUSH2 0x1BC0 ADD MSTORE PUSH1 0xA0 MLOAD DUP9 PUSH2 0x222B ADD MSTORE PUSH1 0xC0 MLOAD DUP9 DUP2 DUP2 PUSH2 0x394 ADD MSTORE DUP2 DUP2 PUSH2 0x4D4 ADD MSTORE DUP2 DUP2 PUSH2 0x5AE ADD MSTORE DUP2 DUP2 PUSH2 0x1F01 ADD MSTORE PUSH2 0x23B6 ADD MSTORE PUSH1 0xE0 MLOAD DUP9 DUP2 DUP2 PUSH2 0xA70 ADD MSTORE PUSH2 0x20F0 ADD MSTORE MLOAD DUP8 DUP2 DUP2 PUSH2 0x43B ADD MSTORE DUP2 DUP2 PUSH2 0x54A ADD MSTORE PUSH2 0xAD1 ADD MSTORE MLOAD DUP7 DUP2 DUP2 PUSH2 0x3D8 ADD MSTORE DUP2 DUP2 PUSH2 0xB36 ADD MSTORE DUP2 DUP2 PUSH2 0x2325 ADD MSTORE PUSH2 0x2350 ADD MSTORE MLOAD DUP6 DUP2 DUP2 PUSH2 0x891 ADD MSTORE PUSH2 0xA43 ADD MSTORE MLOAD DUP5 DUP2 DUP2 PUSH2 0x312 ADD MSTORE DUP2 DUP2 PUSH2 0x499 ADD MSTORE PUSH2 0xA99 ADD MSTORE MLOAD DUP4 DUP2 DUP2 PUSH2 0x8CC ADD MSTORE DUP2 DUP2 PUSH2 0xD1E ADD MSTORE DUP2 DUP2 PUSH2 0xE19 ADD MSTORE DUP2 DUP2 PUSH2 0xE66 ADD MSTORE DUP2 DUP2 PUSH2 0x1808 ADD MSTORE PUSH2 0x183A ADD MSTORE MLOAD DUP3 DUP2 DUP2 PUSH2 0x373 ADD MSTORE DUP2 DUP2 PUSH2 0x50F ADD MSTORE DUP2 DUP2 PUSH2 0x58D ADD MSTORE DUP2 DUP2 PUSH2 0x1EE0 ADD MSTORE PUSH2 0x2395 ADD MSTORE MLOAD DUP2 DUP2 DUP2 PUSH2 0xDCC ADD MSTORE PUSH2 0x1E89 ADD MSTORE RETURN JUMPDEST PUSH4 0x4E487B71 PUSH1 0xE0 SHL PUSH1 0x0 MSTORE PUSH1 0x11 PUSH1 0x4 MSTORE PUSH1 0x24 PUSH1 0x0 REVERT JUMPDEST PUSH4 0x4E487B71 PUSH1 0xE0 SHL PUSH1 0x0 MSTORE PUSH1 0x12 PUSH1 0x4 MSTORE PUSH1 0x24 PUSH1 0x0 REVERT JUMPDEST DUP2 DUP2 SWAP7 SWAP3 SWAP4 SWAP7 RETURNDATASIZE DUP4 GT PUSH3 0x322 JUMPI JUMPDEST PUSH3 0x30B DUP2 DUP4 PUSH3 0x38B JUMP JUMPDEST DUP2 ADD SUB SLT PUSH3 0x31F JUMPI POP MLOAD SWAP3 CODESIZE DUP1 PUSH3 0xF0 JUMP JUMPDEST DUP1 REVERT JUMPDEST POP RETURNDATASIZE PUSH3 0x2FF JUMP JUMPDEST DUP3 MLOAD RETURNDATASIZE PUSH1 0x0 DUP3 RETURNDATACOPY RETURNDATASIZE SWAP1 REVERT JUMPDEST DUP4 MLOAD PUSH3 0x461BCD PUSH1 0xE5 SHL DUP2 MSTORE PUSH1 0x4 DUP2 ADD DUP9 SWAP1 MSTORE PUSH1 0x1F PUSH1 0x24 DUP3 ADD MSTORE PUSH32 0x546F6B656E4C61756E636865723A20696E76616C696420616D6D466C61677300 PUSH1 0x44 DUP3 ADD MSTORE PUSH1 0x64 SWAP1 REVERT JUMPDEST PUSH1 0xF SWAP2 POP GT ISZERO CODESIZE PUSH3 0x89 JUMP JUMPDEST PUSH1 0x0 DUP1 REVERT JUMPDEST PUSH1 0x1F SWAP1 SWAP2 ADD PUSH1 0x1F NOT AND DUP2 ADD SWAP1 PUSH1 0x1 PUSH1 0x1 PUSH1 0x40 SHL SUB DUP3 GT SWAP1 DUP3 LT OR PUSH3 0x3AF JUMPI PUSH1 0x40 MSTORE JUMP JUMPDEST PUSH4 0x4E487B71 PUSH1 0xE0 SHL PUSH1 0x0 MSTORE PUSH1 0x41 PUSH1 0x4 MSTORE PUSH1 0x24 PUSH1 0x0 REVERT JUMPDEST MLOAD SWAP1 PUSH1 0x1 PUSH1 0x1 PUSH1 0xA0 SHL SUB DUP3 AND DUP3 SUB PUSH3 0x386 JUMPI JUMP INVALID PUSH1 0x80 DUP1 PUSH1 0x40 MSTORE PUSH1 0x4 CALLDATASIZE LT ISZERO PUSH2 0x13 JUMPI PUSH1 0x0 DUP1 REVERT JUMPDEST PUSH1 0x0 SWAP1 DUP2 CALLDATALOAD PUSH1 0xE0 SHR SWAP1 DUP2 PUSH4 0x2D05D3F EQ PUSH2 0x2217 JUMPI POP DUP1 PUSH4 0x1755FF21 EQ PUSH2 0x21ED JUMPI DUP1 PUSH4 0x189AB242 EQ PUSH2 0x21B0 JUMPI DUP1 PUSH4 0x1A561D7D EQ PUSH2 0x2173 JUMPI DUP1 PUSH4 0x1B583F90 EQ PUSH2 0x2142 JUMPI DUP1 PUSH4 0x1BEA83FE EQ PUSH2 0x2113 JUMPI DUP1 PUSH4 0x1CA944E9 EQ PUSH2 0x20D8 JUMPI DUP1 PUSH4 0x239F3AF7 EQ PUSH2 0x1F7E JUMPI DUP1 PUSH4 0x24A1E060 EQ PUSH2 0x209B JUMPI DUP1 PUSH4 0x262D8F38 EQ PUSH2 0x207F JUMPI DUP1 PUSH4 0x2ACE0730 EQ PUSH2 0x2056 JUMPI DUP1 PUSH4 0x47377D92 EQ PUSH2 0x976 JUMPI DUP1 PUSH4 0x518263A1 EQ PUSH2 0x2014 JUMPI DUP1 PUSH4 0x519BDE94 EQ PUSH2 0x1FEB JUMPI DUP1 PUSH4 0x5556DB65 EQ PUSH2 0x1FCE JUMPI DUP1 PUSH4 0x5E9CFB00 EQ PUSH2 0x1F9F JUMPI DUP1 PUSH4 0x67D11979 EQ PUSH2 0x1F83 JUMPI DUP1 PUSH4 0x6A926102 EQ PUSH2 0x1F7E JUMPI DUP1 PUSH4 0x6E1E063F EQ PUSH2 0x1F4D JUMPI DUP1 PUSH4 0x764FE7D1 EQ PUSH2 0x1F2F JUMPI DUP1 PUSH4 0x77C5FD7F EQ PUSH2 0x1EAD JUMPI DUP1 PUSH4 0x7B881515 EQ PUSH2 0x1E6F JUMPI DUP1 PUSH4 0x7FB0CF0E EQ PUSH2 0x1E53 JUMPI DUP1 PUSH4 0x841819DF EQ PUSH2 0x9EF JUMPI DUP1 PUSH4 0x8CB4997D EQ PUSH2 0x9C6 JUMPI DUP1 PUSH4 0x99D8FAE3 EQ PUSH2 0x997 JUMPI DUP1 PUSH4 0x9E7C6694 EQ PUSH2 0x97B JUMPI DUP1 PUSH4 0xA4155B44 EQ PUSH2 0x976 JUMPI DUP1 PUSH4 0xA6B0A718 EQ PUSH2 0x947 JUMPI DUP1 PUSH4 0xA82ED9EC EQ PUSH2 0x918 JUMPI DUP1 PUSH4 0xAAC4DAAC EQ PUSH2 0x8EF JUMPI DUP1 PUSH4 0xADA29FA9 EQ PUSH2 0x8B4 JUMPI DUP1 PUSH4 0xB14E5791 EQ PUSH2 0x879 JUMPI DUP1 PUSH4 0xB5545A3C EQ PUSH2 0x56D JUMPI DUP1 PUSH4 0xB8221BC4 EQ PUSH2 0x532 JUMPI DUP1 PUSH4 0xC6E8EBD8 EQ PUSH2 0x4F7 JUMPI DUP1 PUSH4 0xCF09E0D0 EQ PUSH2 0x4BC JUMPI DUP1 PUSH4 0xD6FB1678 EQ PUSH2 0x481 JUMPI DUP1 PUSH4 0xD83F5CEC EQ PUSH2 0x400 JUMPI DUP1 PUSH4 0xD9F8CE05 EQ PUSH2 0x3FB JUMPI DUP1 PUSH4 0xDD1B9C4A EQ PUSH2 0x3FB JUMPI DUP1 PUSH4 0xE0F67BC7 EQ PUSH2 0x3C0 JUMPI DUP1 PUSH4 0xE1AA1BCC EQ PUSH2 0x35B JUMPI DUP1 PUSH4 0xE7C2B772 EQ PUSH2 0x338 JUMPI DUP1 PUSH4 0xEBBA348B EQ PUSH2 0x2F6 JUMPI DUP1 PUSH4 0xEE6B373B EQ PUSH2 0x2B9 JUMPI DUP1 PUSH4 0xF6A50850 EQ PUSH2 0x278 JUMPI PUSH4 0xFC0C546A EQ PUSH2 0x231 JUMPI PUSH1 0x0 DUP1 REVERT JUMPDEST CALLVALUE PUSH2 0x275 JUMPI DUP1 PUSH1 0x3 NOT CALLDATASIZE ADD SLT PUSH2 0x275 JUMPI PUSH1 0x40 MLOAD PUSH32 0x0 PUSH1 0x1 PUSH1 0x1 PUSH1 0xA0 SHL SUB AND DUP2 MSTORE PUSH1 0x20 SWAP1 RETURN JUMPDEST DUP1 REVERT JUMPDEST POP CALLVALUE PUSH2 0x275 JUMPI PUSH1 0x20 CALLDATASIZE PUSH1 0x3 NOT ADD SLT PUSH2 0x275 JUMPI PUSH1 0x4 CALLDATALOAD PUSH1 0x1 PUSH1 0x1 PUSH1 0xA0 SHL SUB DUP2 AND SWAP1 DUP2 SWAP1 SUB PUSH2 0x2B5 JUMPI DUP2 PUSH1 0x40 SWAP2 PUSH1 0x20 SWAP4 MSTORE PUSH1 0x7 DUP4 MSTORE KECCAK256 SLOAD PUSH1 0x40 MLOAD SWAP1 DUP2 MSTORE RETURN JUMPDEST POP DUP1 REVERT JUMPDEST POP CALLVALUE PUSH2 0x275 JUMPI PUSH1 0x20 CALLDATASIZE PUSH1 0x3 NOT ADD SLT PUSH2 0x275 JUMPI PUSH1 0x4 CALLDATALOAD PUSH1 0x1 PUSH1 0x1 PUSH1 0xA0 SHL SUB DUP2 AND SWAP1 DUP2 SWAP1 SUB PUSH2 0x2B5 JUMPI DUP2 PUSH1 0x40 SWAP2 PUSH1 0x20 SWAP4 MSTORE PUSH1 0x1 DUP4 MSTORE KECCAK256 SLOAD PUSH1 0x40 MLOAD SWAP1 DUP2 MSTORE RETURN JUMPDEST POP CALLVALUE PUSH2 0x275 JUMPI DUP1 PUSH1 0x3 NOT CALLDATASIZE ADD SLT PUSH2 0x275 JUMPI PUSH1 0x40 SWAP1 SLOAD DUP2 MLOAD SWAP1 DUP2 MSTORE PUSH32 0x0 PUSH1 0x20 DUP3 ADD MSTORE RETURN JUMPDEST POP CALLVALUE PUSH2 0x275 JUMPI DUP1 PUSH1 0x3 NOT CALLDATASIZE ADD SLT PUSH2 0x275 JUMPI PUSH1 0x20 PUSH1 0xFF PUSH1 0x8 SLOAD AND PUSH1 0x40 MLOAD SWAP1 ISZERO ISZERO DUP2 MSTORE RETURN JUMPDEST POP CALLVALUE PUSH2 0x275 JUMPI DUP1 PUSH1 0x3 NOT CALLDATASIZE ADD SLT PUSH2 0x275 JUMPI PUSH1 0x20 PUSH2 0x3B8 PUSH32 0x0 PUSH32 0x0 PUSH2 0x22B4 JUMP JUMPDEST PUSH1 0x40 MLOAD SWAP1 DUP2 MSTORE RETURN JUMPDEST POP CALLVALUE PUSH2 0x275 JUMPI DUP1 PUSH1 0x3 NOT CALLDATASIZE ADD SLT PUSH2 0x275 JUMPI PUSH1 0x20 PUSH1 0x40 MLOAD PUSH32 0x0 DUP2 MSTORE RETURN JUMPDEST PUSH2 0x2297 JUMP JUMPDEST POP CALLVALUE PUSH2 0x275 JUMPI PUSH1 0x20 CALLDATASIZE PUSH1 0x3 NOT ADD SLT PUSH2 0x275 JUMPI PUSH1 0x4 CALLDATALOAD PUSH1 0x1 PUSH1 0x1 PUSH1 0xA0 SHL SUB DUP2 AND SWAP1 DUP2 SWAP1 SUB PUSH2 0x2B5 JUMPI SWAP1 PUSH1 0x20 SWAP2 DUP2 MSTORE PUSH1 0x1 DUP3 MSTORE PUSH2 0x460 PUSH1 0x40 DUP3 KECCAK256 SLOAD PUSH32 0x0 SWAP1 PUSH2 0x22B4 JUMP JUMPDEST TIMESTAMP DUP2 GT PUSH2 0x470 JUMPI POP PUSH1 0x40 MLOAD SWAP1 DUP2 MSTORE RETURN JUMPDEST PUSH2 0x47C SWAP2 POP TIMESTAMP SWAP1 PUSH2 0x22D7 JUMP JUMPDEST PUSH2 0x3B8 JUMP JUMPDEST POP CALLVALUE PUSH2 0x275 JUMPI DUP1 PUSH1 0x3 NOT CALLDATASIZE ADD SLT PUSH2 0x275 JUMPI PUSH1 0x20 PUSH1 0x40 MLOAD PUSH32 0x0 DUP2 MSTORE RETURN JUMPDEST POP CALLVALUE PUSH2 0x275 JUMPI DUP1 PUSH1 0x3 NOT CALLDATASIZE ADD SLT PUSH2 0x275 JUMPI PUSH1 0x20 PUSH1 0x40 MLOAD PUSH32 0x0 DUP2 MSTORE RETURN JUMPDEST POP CALLVALUE PUSH2 0x275 JUMPI DUP1 PUSH1 0x3 NOT CALLDATASIZE ADD SLT PUSH2 0x275 JUMPI PUSH1 0x20 PUSH1 0x40 MLOAD PUSH32 0x0 DUP2 MSTORE RETURN JUMPDEST POP CALLVALUE PUSH2 0x275 JUMPI DUP1 PUSH1 0x3 NOT CALLDATASIZE ADD SLT PUSH2 0x275 JUMPI PUSH1 0x20 PUSH1 0x40 MLOAD PUSH32 0x0 DUP2 MSTORE RETURN JUMPDEST POP CALLVALUE PUSH2 0x275 JUMPI DUP1 PUSH1 0x3 NOT CALLDATASIZE ADD SLT PUSH2 0x275 JUMPI PUSH1 0xFF PUSH1 0x8 SLOAD AND PUSH2 0x81D JUMPI PUSH2 0x5D2 PUSH32 0x0 PUSH32 0x0 PUSH2 0x22B4 JUMP JUMPDEST TIMESTAMP GT ISZERO PUSH2 0x7C8 JUMPI CALLER DUP2 MSTORE PUSH1 0x20 PUSH1 0x6 DUP2 MSTORE PUSH1 0x40 DUP3 KECCAK256 SLOAD SWAP1 DUP2 ISZERO PUSH2 0x785 JUMPI CALLER DUP4 MSTORE PUSH1 0x7 DUP2 MSTORE DUP3 PUSH1 0x40 DUP2 KECCAK256 SLOAD PUSH1 0x6 DUP4 MSTORE DUP2 PUSH1 0x40 DUP2 KECCAK256 SSTORE PUSH1 0x7 DUP4 MSTORE DUP2 PUSH1 0x40 DUP2 KECCAK256 SSTORE PUSH2 0x61A DUP2 DUP4 SLOAD PUSH2 0x22D7 JUMP JUMPDEST DUP3 SSTORE PUSH32 0x0 PUSH1 0x1 PUSH1 0x1 PUSH1 0xA0 SHL SUB AND DUP1 EXTCODESIZE ISZERO PUSH2 0x776 JUMPI PUSH1 0x40 MLOAD PUSH4 0x2770A7EB PUSH1 0xE2 SHL DUP2 MSTORE CALLER PUSH1 0x4 DUP3 ADD MSTORE PUSH1 0x24 DUP2 ADD SWAP3 SWAP1 SWAP3 MSTORE DUP3 SWAP1 DUP3 SWAP1 PUSH1 0x44 SWAP1 DUP3 SWAP1 DUP5 SWAP1 GAS CALL DUP1 ISZERO PUSH2 0x77A JUMPI PUSH2 0x762 JUMPI JUMPDEST POP DUP1 DUP1 DUP1 DUP6 CALLER GAS CALL RETURNDATASIZE ISZERO PUSH2 0x75D JUMPI RETURNDATASIZE PUSH8 0xFFFFFFFFFFFFFFFF DUP2 GT PUSH2 0x749 JUMPI PUSH1 0x40 MLOAD SWAP1 PUSH2 0x6B5 PUSH1 0x1F DUP3 ADD PUSH1 0x1F NOT AND DUP6 ADD DUP4 PUSH2 0x2449 JUMP JUMPDEST DUP2 MSTORE DUP5 DUP4 RETURNDATASIZE SWAP3 ADD RETURNDATACOPY JUMPDEST ISZERO PUSH2 0x6F7 JUMPI PUSH1 0x40 MLOAD SWAP2 DUP3 MSTORE TIMESTAMP SWAP1 DUP3 ADD MSTORE PUSH32 0x5403DB5F5A330D258426B5AEF83E03924750CE4A92D0D341669EFDC33824C44B PUSH1 0x40 CALLER SWAP3 LOG2 DUP1 RETURN JUMPDEST PUSH1 0x84 SWAP1 PUSH1 0x40 MLOAD SWAP1 PUSH3 0x461BCD PUSH1 0xE5 SHL DUP3 MSTORE PUSH1 0x4 DUP3 ADD MSTORE PUSH1 0x25 PUSH1 0x24 DUP3 ADD MSTORE PUSH32 0x546F6B656E4C61756E636865723A20726566756E64207472616E736665722066 PUSH1 0x44 DUP3 ADD MSTORE PUSH5 0x185A5B1959 PUSH1 0xDA SHL PUSH1 0x64 DUP3 ADD MSTORE REVERT JUMPDEST PUSH4 0x4E487B71 PUSH1 0xE0 SHL DUP6 MSTORE PUSH1 0x41 PUSH1 0x4 MSTORE PUSH1 0x24 DUP6 REVERT JUMPDEST PUSH2 0x6BE JUMP JUMPDEST PUSH2 0x76B SWAP1 PUSH2 0x2402 JUMP JUMPDEST PUSH2 0x776 JUMPI DUP3 CODESIZE PUSH2 0x680 JUMP JUMPDEST DUP3 DUP1 REVERT JUMPDEST PUSH1 0x40 MLOAD RETURNDATASIZE DUP5 DUP3 RETURNDATACOPY RETURNDATASIZE SWAP1 REVERT JUMPDEST PUSH1 0x64 SWAP1 PUSH1 0x40 MLOAD SWAP1 PUSH3 0x461BCD PUSH1 0xE5 SHL DUP3 MSTORE DUP1 PUSH1 0x4 DUP4 ADD MSTORE PUSH1 0x24 DUP3 ADD MSTORE PUSH32 0x546F6B656E4C61756E636865723A206E6F7468696E6720746F20726566756E64 PUSH1 0x44 DUP3 ADD MSTORE REVERT JUMPDEST PUSH1 0x40 MLOAD PUSH3 0x461BCD PUSH1 0xE5 SHL DUP2 MSTORE PUSH1 0x20 PUSH1 0x4 DUP3 ADD MSTORE PUSH1 0x27 PUSH1 0x24 DUP3 ADD MSTORE PUSH32 0x546F6B656E4C61756E636865723A206D696E696E672077696E646F7720737469 PUSH1 0x44 DUP3 ADD MSTORE PUSH7 0x36361037B832B7 PUSH1 0xC9 SHL PUSH1 0x64 DUP3 ADD MSTORE PUSH1 0x84 SWAP1 REVERT JUMPDEST PUSH1 0x40 MLOAD PUSH3 0x461BCD PUSH1 0xE5 SHL DUP2 MSTORE PUSH1 0x20 PUSH1 0x4 DUP3 ADD MSTORE PUSH1 0x2E PUSH1 0x24 DUP3 ADD MSTORE PUSH32 0x546F6B656E4C61756E636865723A20746F6B656E206861732067726164756174 PUSH1 0x44 DUP3 ADD MSTORE PUSH14 0x65642C206E6F20726566756E6473 PUSH1 0x90 SHL PUSH1 0x64 DUP3 ADD MSTORE PUSH1 0x84 SWAP1 REVERT JUMPDEST POP CALLVALUE PUSH2 0x275 JUMPI DUP1 PUSH1 0x3 NOT CALLDATASIZE ADD SLT PUSH2 0x275 JUMPI PUSH1 0x20 PUSH1 0x40 MLOAD PUSH32 0x0 DUP2 MSTORE RETURN JUMPDEST POP CALLVALUE PUSH2 0x275 JUMPI DUP1 PUSH1 0x3 NOT CALLDATASIZE ADD SLT PUSH2 0x275 JUMPI PUSH1 0x20 PUSH1 0x40 MLOAD PUSH32 0x0 DUP2 MSTORE RETURN JUMPDEST POP CALLVALUE PUSH2 0x275 JUMPI DUP1 PUSH1 0x3 NOT CALLDATASIZE ADD SLT PUSH2 0x275 JUMPI PUSH1 0xA SLOAD PUSH1 0x40 MLOAD PUSH1 0x1 PUSH1 0x1 PUSH1 0xA0 SHL SUB SWAP1 SWAP2 AND DUP2 MSTORE PUSH1 0x20 SWAP1 RETURN JUMPDEST POP CALLVALUE PUSH2 0x275 JUMPI DUP1 PUSH1 0x3 NOT CALLDATASIZE ADD SLT PUSH2 0x275 JUMPI PUSH1 0x20 PUSH1 0x40 MLOAD PUSH20 0x54599C3E0BCB99CA37B286242B5EC5D331AB9D18 DUP2 MSTORE RETURN JUMPDEST POP CALLVALUE PUSH2 0x275 JUMPI DUP1 PUSH1 0x3 NOT CALLDATASIZE ADD SLT PUSH2 0x275 JUMPI PUSH1 0x20 PUSH1 0x40 MLOAD PUSH20 0x3714F242FE169AB5EB0D763CF79AEACA5F727E7B DUP2 MSTORE RETURN JUMPDEST PUSH2 0x2278 JUMP JUMPDEST POP CALLVALUE PUSH2 0x275 JUMPI DUP1 PUSH1 0x3 NOT CALLDATASIZE ADD SLT PUSH2 0x275 JUMPI PUSH1 0x20 PUSH1 0x40 MLOAD PUSH1 0x2 DUP2 MSTORE RETURN JUMPDEST POP CALLVALUE PUSH2 0x275 JUMPI DUP1 PUSH1 0x3 NOT CALLDATASIZE ADD SLT PUSH2 0x275 JUMPI PUSH1 0x20 PUSH1 0x40 MLOAD PUSH20 0xB56B00C38EF85633A789644415A16B4C8EA12EF8 DUP2 MSTORE RETURN JUMPDEST POP CALLVALUE PUSH2 0x275 JUMPI DUP1 PUSH1 0x3 NOT CALLDATASIZE ADD SLT PUSH2 0x275 JUMPI PUSH1 0xB SLOAD PUSH1 0x40 MLOAD PUSH1 0x1 PUSH1 0x1 PUSH1 0xA0 SHL SUB SWAP1 SWAP2 AND DUP2 MSTORE PUSH1 0x20 SWAP1 RETURN JUMPDEST POP PUSH1 0x20 CALLDATASIZE PUSH1 0x3 NOT ADD SLT PUSH2 0x275 JUMPI PUSH8 0xFFFFFFFFFFFFFFFF DUP1 PUSH1 0x4 CALLDATALOAD GT PUSH2 0x2B5 JUMPI CALLDATASIZE PUSH1 0x23 PUSH1 0x4 CALLDATALOAD ADD SLT ISZERO PUSH2 0x2B5 JUMPI PUSH1 0x4 CALLDATALOAD PUSH1 0x4 ADD CALLDATALOAD SWAP1 DUP2 GT PUSH2 0x2B5 JUMPI CALLDATASIZE PUSH1 0x24 DUP3 PUSH1 0x4 CALLDATALOAD ADD ADD GT PUSH2 0x2B5 JUMPI PUSH1 0xFF PUSH1 0x8 SLOAD AND PUSH2 0x1DFB JUMPI PUSH32 0x0 CALLVALUE LT PUSH2 0x1DB7 JUMPI DUP2 SLOAD SWAP1 PUSH2 0xA96 PUSH32 0x0 DUP1 SWAP4 PUSH2 0x22B4 JUMP JUMPDEST SWAP2 PUSH32 0x0 DUP1 SWAP4 GT PUSH2 0x1D72 JUMPI CALLER DUP5 MSTORE PUSH1 0x1 PUSH1 0x20 MSTORE PUSH2 0xAF6 PUSH1 0x40 DUP6 KECCAK256 SLOAD PUSH32 0x0 SWAP1 PUSH2 0x22B4 JUMP JUMPDEST TIMESTAMP LT PUSH2 0x1D2E JUMPI CALLER DUP5 MSTORE PUSH1 0x3 PUSH1 0x20 MSTORE PUSH1 0x40 DUP5 KECCAK256 SLOAD PUSH3 0x15180 DUP2 ADD DUP1 SWAP2 GT PUSH2 0x1CAC JUMPI TIMESTAMP LT ISZERO PUSH2 0x1D10 JUMPI JUMPDEST CALLER DUP5 MSTORE PUSH1 0x2 PUSH1 0x20 MSTORE PUSH2 0xB34 DUP2 PUSH1 0x40 DUP7 KECCAK256 SLOAD PUSH2 0x22B4 JUMP JUMPDEST PUSH32 0x0 LT PUSH2 0x1CC0 JUMPI CALLER DUP5 MSTORE PUSH1 0x1 PUSH1 0x20 MSTORE TIMESTAMP PUSH1 0x40 DUP6 KECCAK256 SSTORE PUSH1 0x2 PUSH1 0x20 MSTORE PUSH1 0x40 DUP5 KECCAK256 PUSH2 0xB7C DUP3 DUP3 SLOAD PUSH2 0x22B4 JUMP JUMPDEST SWAP1 SSTORE PUSH2 0xB89 DUP2 DUP6 SLOAD PUSH2 0x22B4 JUMP JUMPDEST DUP5 SSTORE CALLER DUP5 MSTORE PUSH1 0x6 PUSH1 0x20 MSTORE PUSH1 0x40 DUP5 KECCAK256 PUSH2 0xBA2 CALLVALUE DUP3 SLOAD PUSH2 0x22B4 JUMP JUMPDEST SWAP1 SSTORE CALLER DUP5 MSTORE PUSH1 0x7 PUSH1 0x20 MSTORE PUSH1 0x40 DUP5 KECCAK256 PUSH2 0xBBB DUP3 DUP3 SLOAD PUSH2 0x22B4 JUMP JUMPDEST SWAP1 SSTORE CALLER DUP5 MSTORE PUSH1 0x5 PUSH1 0x20 MSTORE PUSH1 0x40 DUP5 KECCAK256 DUP1 SLOAD PUSH1 0xFF DUP2 AND ISZERO PUSH2 0x1C8A JUMPI JUMPDEST POP POP PUSH32 0x0 PUSH1 0x1 PUSH1 0x1 PUSH1 0xA0 SHL SUB AND EXTCODESIZE ISZERO PUSH2 0x1C86 JUMPI PUSH1 0x40 MLOAD PUSH4 0x40C10F19 PUSH1 0xE0 SHL DUP2 MSTORE CALLER PUSH1 0x4 DUP3 ADD MSTORE PUSH1 0x24 DUP2 ADD DUP3 SWAP1 MSTORE DUP5 DUP2 PUSH1 0x44 DUP2 DUP4 PUSH1 0x1 PUSH1 0x1 PUSH1 0xA0 SHL SUB PUSH32 0x0 AND GAS CALL DUP1 ISZERO PUSH2 0x1C7B JUMPI PUSH2 0x1C48 JUMPI JUMPDEST POP PUSH32 0xBF17F40327AB4320CDFAA84231ADA95FB1BA0D2D336EDD47510A8207786F9C12 SWAP1 PUSH1 0x40 MLOAD SWAP1 PUSH1 0x60 DUP3 MSTORE DUP4 PUSH1 0x60 DUP4 ADD MSTORE DUP4 PUSH1 0x24 PUSH1 0x4 CALLDATALOAD ADD PUSH1 0x80 DUP5 ADD CALLDATACOPY DUP6 PUSH1 0x80 DUP6 DUP5 ADD ADD MSTORE PUSH1 0x20 DUP3 ADD MSTORE TIMESTAMP PUSH1 0x40 DUP3 ADD MSTORE PUSH1 0x80 DUP2 CALLER SWAP5 PUSH1 0x1F DUP1 NOT SWAP2 ADD AND DUP2 ADD SUB ADD SWAP1 LOG2 DUP2 SLOAD LT ISZERO PUSH2 0xCCB JUMPI DUP1 RETURN JUMPDEST PUSH1 0x8 DUP1 SLOAD PUSH1 0xFF NOT AND PUSH1 0x1 OR SWAP1 SSTORE SELFBALANCE PUSH32 0x0 PUSH1 0x1 PUSH1 0x1 PUSH1 0xA0 SHL SUB AND EXTCODESIZE ISZERO PUSH2 0x2B5 JUMPI PUSH1 0x40 MLOAD PUSH4 0x40C10F19 PUSH1 0xE0 SHL DUP2 MSTORE ADDRESS PUSH1 0x4 DUP3 ADD MSTORE PUSH32 0x0 PUSH1 0x24 DUP3 ADD MSTORE DUP3 SWAP1 DUP2 DUP2 PUSH1 0x44 DUP2 DUP4 PUSH1 0x1 PUSH1 0x1 PUSH1 0xA0 SHL SUB PUSH32 0x0 AND GAS CALL DUP1 ISZERO PUSH2 0x77A JUMPI PUSH2 0x1C34 JUMPI JUMPDEST POP POP PUSH1 0x0 DUP1 MLOAD PUSH1 0x20 PUSH2 0x2635 DUP4 CODECOPY DUP2 MLOAD SWAP2 MSTORE EXTCODESIZE ISZERO PUSH2 0x2B5 JUMPI PUSH1 0x40 MLOAD PUSH4 0xD0E30DB PUSH1 0xE4 SHL DUP2 MSTORE DUP3 SWAP1 DUP2 DUP2 PUSH1 0x4 DUP2 DUP7 PUSH1 0x0 DUP1 MLOAD PUSH1 0x20 PUSH2 0x2635 DUP4 CODECOPY DUP2 MLOAD SWAP2 MSTORE GAS CALL DUP1 ISZERO PUSH2 0x77A JUMPI PUSH2 0x1C20 JUMPI JUMPDEST POP PUSH32 0x0 SWAP1 POP PUSH1 0x1 DUP2 AND ISZERO ISZERO DUP4 DUP2 PUSH2 0x1C18 JUMPI JUMPDEST PUSH1 0x2 DUP4 AND PUSH2 0x1C0A JUMPI JUMPDEST PUSH1 0x4 DUP4 AND PUSH2 0x1BFC JUMPI JUMPDEST PUSH1 0x8 DUP4 AND PUSH2 0x1BEE JUMPI JUMPDEST DUP1 SWAP3 PUSH32 0x0 SWAP2 DUP6 SWAP4 PUSH2 0x17F6 JUMPI JUMPDEST POP DUP6 PUSH1 0x2 DUP3 AND PUSH2 0x1593 JUMPI JUMPDEST POP PUSH1 0x4 DUP2 AND PUSH2 0x12E1 JUMPI JUMPDEST PUSH1 0x8 AND PUSH2 0xEE3 JUMPI JUMPDEST POP POP POP PUSH1 0x40 MLOAD SWAP1 PUSH32 0x0 DUP3 MSTORE PUSH1 0x20 DUP3 ADD MSTORE TIMESTAMP PUSH1 0x40 DUP3 ADD MSTORE PUSH32 0x74DDD6B35EB9921605EC2CB7DA4AF12CD0020D2117B708ADE1D30523471B7441 PUSH1 0x60 PUSH1 0x1 DUP1 PUSH1 0xA0 SHL SUB PUSH32 0x0 AND SWAP3 LOG2 DUP1 RETURN JUMPDEST DUP3 PUSH2 0xF17 PUSH2 0xF1D SWAP3 PUSH1 0xFF PUSH2 0xF09 SWAP7 AND SWAP5 PUSH2 0xF11 PUSH2 0xF00 DUP8 DUP5 PUSH2 0x246B JUMP JUMPDEST SWAP8 DUP9 SWAP8 DUP4 PUSH2 0x246B JUMP JUMPDEST SWAP8 DUP9 SWAP4 PUSH2 0x22D7 JUMP JUMPDEST POP PUSH2 0x22D7 JUMP JUMPDEST POP PUSH2 0x248B JUMP JUMPDEST POP PUSH1 0x0 DUP1 MLOAD PUSH1 0x20 PUSH2 0x2635 DUP4 CODECOPY DUP2 MLOAD SWAP2 MSTORE PUSH32 0x0 PUSH1 0x1 PUSH1 0x1 PUSH1 0xA0 SHL SUB AND LT SWAP1 DUP2 ISZERO PUSH2 0x12A1 JUMPI PUSH32 0x0 PUSH1 0x1 PUSH1 0x1 PUSH1 0xA0 SHL SUB AND SWAP3 PUSH1 0x0 DUP1 MLOAD PUSH1 0x20 PUSH2 0x2635 DUP4 CODECOPY DUP2 MLOAD SWAP2 MSTORE SWAP3 JUMPDEST ISZERO PUSH2 0x129A JUMPI SWAP1 DUP2 DUP2 JUMPDEST PUSH1 0x40 MLOAD PUSH4 0x95EA7B3 PUSH1 0xE0 SHL DUP2 MSTORE PUSH20 0xBE59000F37677D96115F397C91834DCB72DFC279 PUSH1 0x4 DUP3 ADD MSTORE PUSH1 0x24 DUP2 ADD SWAP2 SWAP1 SWAP2 MSTORE PUSH1 0x20 DUP2 PUSH1 0x44 DUP2 DUP12 PUSH32 0x0 PUSH1 0x1 PUSH1 0x1 PUSH1 0xA0 SHL SUB AND GAS CALL DUP1 ISZERO PUSH2 0x128F JUMPI PUSH2 0x1270 JUMPI JUMPDEST POP PUSH1 0x40 MLOAD SWAP1 PUSH4 0x95EA7B3 PUSH1 0xE0 SHL DUP3 MSTORE PUSH20 0xBE59000F37677D96115F397C91834DCB72DFC279 PUSH1 0x4 DUP4 ADD MSTORE PUSH1 0x24 DUP3 ADD MSTORE PUSH1 0x20 DUP2 PUSH1 0x44 DUP2 DUP11 PUSH1 0x0 DUP1 MLOAD PUSH1 0x20 PUSH2 0x2635 DUP4 CODECOPY DUP2 MLOAD SWAP2 MSTORE GAS CALL DUP1 ISZERO PUSH2 0x1236 JUMPI PUSH2 0x1241 JUMPI JUMPDEST POP PUSH2 0x10B3 PUSH1 0x20 PUSH2 0x1072 DUP5 DUP5 PUSH2 0x25A2 JUMP JUMPDEST PUSH1 0x40 MLOAD PUSH4 0x9F56AB1 PUSH1 0xE1 SHL DUP2 MSTORE PUSH1 0x1 PUSH1 0x1 PUSH1 0xA0 SHL SUB DUP1 DUP10 AND PUSH1 0x4 DUP4 ADD MSTORE DUP1 DUP9 AND PUSH1 0x24 DUP4 ADD MSTORE PUSH2 0xBB8 PUSH1 0x44 DUP4 ADD MSTORE SWAP1 SWAP2 AND PUSH1 0x64 DUP3 ADD MSTORE SWAP2 DUP3 SWAP1 DUP2 SWAP1 PUSH1 0x84 DUP3 ADD SWAP1 JUMP JUMPDEST SUB DUP2 DUP11 PUSH20 0xBE59000F37677D96115F397C91834DCB72DFC279 GAS CALL SWAP1 DUP2 ISZERO PUSH2 0x1236 JUMPI DUP8 SWAP2 PUSH2 0x1207 JUMPI JUMPDEST POP PUSH1 0x1 DUP1 PUSH1 0xA0 SHL SUB AND PUSH12 0xFFFFFFFFFFFFFFFFFFFFFFFF PUSH1 0xA0 SHL PUSH1 0xB SLOAD AND OR PUSH1 0xB SSTORE PUSH2 0x12C TIMESTAMP ADD SWAP3 DUP4 TIMESTAMP GT PUSH2 0x11F3 JUMPI PUSH1 0x40 MLOAD SWAP5 PUSH2 0x1116 DUP7 PUSH2 0x242C JUMP JUMPDEST PUSH1 0x1 DUP1 PUSH1 0xA0 SHL SUB AND DUP6 MSTORE PUSH1 0x1 DUP1 PUSH1 0xA0 SHL SUB AND PUSH1 0x20 DUP6 ADD MSTORE PUSH2 0xBB8 PUSH1 0x40 DUP6 ADD MSTORE PUSH3 0xD89B3 NOT PUSH1 0x60 DUP6 ADD MSTORE PUSH3 0xD89B4 PUSH1 0x80 DUP6 ADD MSTORE PUSH1 0xA0 DUP5 ADD MSTORE PUSH1 0xC0 DUP4 ADD MSTORE DUP4 PUSH1 0xE0 DUP4 ADD MSTORE DUP4 PUSH2 0x100 DUP4 ADD MSTORE ADDRESS PUSH2 0x120 DUP4 ADD MSTORE PUSH2 0x140 DUP3 ADD MSTORE PUSH2 0x1187 PUSH1 0x40 MLOAD SWAP2 PUSH4 0x4418B22B PUSH1 0xE1 SHL DUP4 MSTORE PUSH1 0x4 DUP4 ADD SWAP1 PUSH2 0x251E JUMP JUMPDEST PUSH1 0x80 DUP2 PUSH2 0x164 DUP2 DUP7 PUSH20 0xBE59000F37677D96115F397C91834DCB72DFC279 GAS CALL DUP1 ISZERO PUSH2 0x11E8 JUMPI PUSH2 0x11B8 JUMPI JUMPDEST DUP1 DUP1 PUSH2 0xE5D JUMP JUMPDEST PUSH2 0x11D9 SWAP1 PUSH1 0x80 RETURNDATASIZE PUSH1 0x80 GT PUSH2 0x11E1 JUMPI JUMPDEST PUSH2 0x11D1 DUP2 DUP4 PUSH2 0x2449 JUMP JUMPDEST DUP2 ADD SWAP1 PUSH2 0x24E3 JUMP JUMPDEST POP POP POP PUSH2 0x11B1 JUMP JUMPDEST POP RETURNDATASIZE PUSH2 0x11C7 JUMP JUMPDEST PUSH1 0x40 MLOAD RETURNDATASIZE DUP6 DUP3 RETURNDATACOPY RETURNDATASIZE SWAP1 REVERT JUMPDEST PUSH4 0x4E487B71 PUSH1 0xE0 SHL DUP8 MSTORE PUSH1 0x11 PUSH1 0x4 MSTORE PUSH1 0x24 DUP8 REVERT JUMPDEST PUSH2 0x1229 SWAP2 POP PUSH1 0x20 RETURNDATASIZE PUSH1 0x20 GT PUSH2 0x122F JUMPI JUMPDEST PUSH2 0x1221 DUP2 DUP4 PUSH2 0x2449 JUMP JUMPDEST DUP2 ADD SWAP1 PUSH2 0x24C4 JUMP JUMPDEST CODESIZE PUSH2 0x10DB JUMP JUMPDEST POP RETURNDATASIZE PUSH2 0x1217 JUMP JUMPDEST PUSH1 0x40 MLOAD RETURNDATASIZE DUP10 DUP3 RETURNDATACOPY RETURNDATASIZE SWAP1 REVERT JUMPDEST PUSH2 0x1262 SWAP1 PUSH1 0x20 RETURNDATASIZE PUSH1 0x20 GT PUSH2 0x1269 JUMPI JUMPDEST PUSH2 0x125A DUP2 DUP4 PUSH2 0x2449 JUMP JUMPDEST DUP2 ADD SWAP1 PUSH2 0x24AC JUMP JUMPDEST POP CODESIZE PUSH2 0x1062 JUMP JUMPDEST POP RETURNDATASIZE PUSH2 0x1250 JUMP JUMPDEST PUSH2 0x1288 SWAP1 PUSH1 0x20 RETURNDATASIZE PUSH1 0x20 GT PUSH2 0x1269 JUMPI PUSH2 0x125A DUP2 DUP4 PUSH2 0x2449 JUMP JUMPDEST POP CODESIZE PUSH2 0x1011 JUMP JUMPDEST PUSH1 0x40 MLOAD RETURNDATASIZE DUP11 DUP3 RETURNDATACOPY RETURNDATASIZE SWAP1 REVERT JUMPDEST DUP1 DUP3 PUSH2 0xFA4 JUMP JUMPDEST PUSH1 0x0 DUP1 MLOAD PUSH1 0x20 PUSH2 0x2635 DUP4 CODECOPY DUP2 MLOAD SWAP2 MSTORE SWAP3 PUSH32 0x0 PUSH1 0x1 PUSH1 0x1 PUSH1 0xA0 SHL SUB AND SWAP3 PUSH2 0xF9B JUMP JUMPDEST DUP4 SWAP3 SWAP2 PUSH2 0x131C PUSH2 0x1316 PUSH1 0xFF PUSH2 0x1308 SWAP8 AND SWAP3 PUSH2 0x1310 PUSH2 0x12FF DUP6 DUP4 PUSH2 0x246B JUMP JUMPDEST SWAP9 DUP10 SWAP6 DUP9 PUSH2 0x246B JUMP JUMPDEST SWAP5 DUP6 SWAP3 PUSH2 0x22D7 JUMP JUMPDEST SWAP6 PUSH2 0x22D7 JUMP JUMPDEST SWAP5 PUSH2 0x248B JUMP JUMPDEST PUSH1 0x40 MLOAD PUSH4 0xE3433615 PUSH1 0xE0 SHL DUP2 MSTORE PUSH32 0x0 PUSH1 0x1 PUSH1 0x1 PUSH1 0xA0 SHL SUB AND PUSH1 0x4 DUP3 ADD MSTORE PUSH1 0x0 DUP1 MLOAD PUSH1 0x20 PUSH2 0x2635 DUP4 CODECOPY DUP2 MLOAD SWAP2 MSTORE PUSH1 0x24 DUP3 ADD MSTORE SWAP1 SWAP6 SWAP1 SWAP2 PUSH1 0x20 DUP4 PUSH1 0x44 DUP2 DUP13 PUSH20 0x3714F242FE169AB5EB0D763CF79AEACA5F727E7B GAS CALL SWAP3 DUP4 ISZERO PUSH2 0x1588 JUMPI DUP10 SWAP4 PUSH2 0x1567 JUMPI JUMPDEST POP PUSH1 0xA DUP1 SLOAD PUSH1 0x1 PUSH1 0x1 PUSH1 0xA0 SHL SUB NOT AND PUSH1 0x1 PUSH1 0x1 PUSH1 0xA0 SHL SUB DUP6 AND SWAP1 DUP2 OR SWAP1 SWAP2 SSTORE PUSH1 0x40 MLOAD PUSH4 0x95EA7B3 PUSH1 0xE0 SHL DUP2 MSTORE PUSH1 0x4 DUP2 ADD SWAP2 SWAP1 SWAP2 MSTORE PUSH1 0x24 DUP2 ADD DUP4 SWAP1 MSTORE PUSH1 0x20 DUP2 DUP1 PUSH1 0x44 DUP2 ADD SUB DUP2 DUP14 PUSH32 0x0 PUSH1 0x1 PUSH1 0x1 PUSH1 0xA0 SHL SUB AND GAS CALL DUP1 ISZERO PUSH2 0x153D JUMPI PUSH2 0x1548 JUMPI JUMPDEST POP PUSH1 0x40 MLOAD PUSH4 0x95EA7B3 PUSH1 0xE0 SHL DUP2 MSTORE PUSH1 0x1 PUSH1 0x1 PUSH1 0xA0 SHL SUB DUP5 AND PUSH1 0x4 DUP3 ADD MSTORE PUSH1 0x24 DUP2 ADD DUP3 SWAP1 MSTORE SWAP2 PUSH1 0x20 DUP4 PUSH1 0x44 DUP2 DUP14 PUSH1 0x0 DUP1 MLOAD PUSH1 0x20 PUSH2 0x2635 DUP4 CODECOPY DUP2 MLOAD SWAP2 MSTORE GAS CALL SWAP3 DUP4 ISZERO PUSH2 0x153D JUMPI PUSH1 0x20 SWAP4 PUSH2 0x1520 JUMPI JUMPDEST POP PUSH1 0x0 DUP1 MLOAD PUSH1 0x20 PUSH2 0x2635 DUP4 CODECOPY DUP2 MLOAD SWAP2 MSTORE PUSH32 0x0 PUSH1 0x1 PUSH1 0x1 PUSH1 0xA0 SHL SUB AND LT ISZERO PUSH2 0x1517 JUMPI PUSH1 0x64 SWAP1 JUMPDEST DUP11 PUSH1 0x40 MLOAD SWAP6 DUP7 SWAP5 DUP6 SWAP4 PUSH4 0x21EC87BF PUSH1 0xE2 SHL DUP6 MSTORE PUSH1 0x4 DUP6 ADD MSTORE PUSH1 0x24 DUP5 ADD MSTORE ADDRESS PUSH1 0x44 DUP5 ADD MSTORE PUSH1 0x1 DUP1 PUSH1 0xA0 SHL SUB AND GAS CALL DUP1 ISZERO PUSH2 0x1236 JUMPI PUSH2 0x14E7 JUMPI JUMPDEST POP PUSH2 0xE55 JUMP JUMPDEST PUSH1 0x20 SWAP1 DUP2 RETURNDATASIZE DUP4 GT PUSH2 0x1510 JUMPI JUMPDEST PUSH2 0x14FD DUP2 DUP4 PUSH2 0x2449 JUMP JUMPDEST DUP2 ADD SUB SLT PUSH2 0x150B JUMPI CODESIZE PUSH2 0x14E1 JUMP JUMPDEST PUSH1 0x0 DUP1 REVERT JUMPDEST POP RETURNDATASIZE PUSH2 0x14F3 JUMP JUMPDEST SWAP1 PUSH1 0x64 SWAP1 PUSH2 0x14A9 JUMP JUMPDEST PUSH2 0x1536 SWAP1 DUP5 RETURNDATASIZE DUP7 GT PUSH2 0x1269 JUMPI PUSH2 0x125A DUP2 DUP4 PUSH2 0x2449 JUMP JUMPDEST POP CODESIZE PUSH2 0x1465 JUMP JUMPDEST PUSH1 0x40 MLOAD RETURNDATASIZE DUP13 DUP3 RETURNDATACOPY RETURNDATASIZE SWAP1 REVERT JUMPDEST PUSH2 0x1560 SWAP1 PUSH1 0x20 RETURNDATASIZE PUSH1 0x20 GT PUSH2 0x1269 JUMPI PUSH2 0x125A DUP2 DUP4 PUSH2 0x2449 JUMP JUMPDEST POP CODESIZE PUSH2 0x1419 JUMP JUMPDEST PUSH2 0x1581 SWAP2 SWAP4 POP PUSH1 0x20 RETURNDATASIZE PUSH1 0x20 GT PUSH2 0x122F JUMPI PUSH2 0x1221 DUP2 DUP4 PUSH2 0x2449 JUMP JUMPDEST SWAP2 CODESIZE PUSH2 0x139C JUMP JUMPDEST PUSH1 0x40 MLOAD RETURNDATASIZE DUP12 DUP3 RETURNDATACOPY RETURNDATASIZE SWAP1 REVERT JUMPDEST DUP5 SWAP4 SWAP3 PUSH2 0x15C6 PUSH2 0x15C0 PUSH1 0xFF PUSH2 0x1308 SWAP9 AND SWAP3 PUSH2 0x15BA PUSH2 0x15B1 DUP6 DUP4 PUSH2 0x246B JUMP JUMPDEST SWAP10 DUP11 SWAP6 DUP10 PUSH2 0x246B JUMP JUMPDEST SWAP7 PUSH2 0x22D7 JUMP JUMPDEST SWAP6 PUSH2 0x248B JUMP JUMPDEST PUSH1 0x40 MLOAD PUSH4 0x64E329CB PUSH1 0xE1 SHL DUP2 MSTORE PUSH32 0x0 PUSH1 0x1 PUSH1 0x1 PUSH1 0xA0 SHL SUB AND PUSH1 0x4 DUP3 ADD MSTORE PUSH1 0x0 DUP1 MLOAD PUSH1 0x20 PUSH2 0x2635 DUP4 CODECOPY DUP2 MLOAD SWAP2 MSTORE PUSH1 0x24 DUP3 ADD MSTORE SWAP1 SWAP7 SWAP1 SWAP2 PUSH1 0x20 DUP4 PUSH1 0x44 DUP2 DUP8 PUSH20 0xB56B00C38EF85633A789644415A16B4C8EA12EF8 GAS CALL SWAP2 DUP3 ISZERO PUSH2 0x17C9 JUMPI PUSH2 0x1695 SWAP4 DUP6 SWAP4 PUSH2 0x17D4 JUMPI JUMPDEST POP PUSH1 0x9 DUP1 SLOAD PUSH1 0x1 PUSH1 0x1 PUSH1 0xA0 SHL SUB NOT AND PUSH1 0x1 PUSH1 0x1 PUSH1 0xA0 SHL SUB DUP6 AND SWAP1 DUP2 OR SWAP1 SWAP2 SSTORE PUSH1 0x40 MLOAD PUSH4 0xA9059CBB PUSH1 0xE0 SHL DUP2 MSTORE PUSH1 0x4 DUP2 ADD SWAP2 SWAP1 SWAP2 MSTORE PUSH1 0x24 DUP2 ADD SWAP2 SWAP1 SWAP2 MSTORE SWAP3 PUSH1 0x20 SWAP1 DUP5 SWAP1 DUP2 SWAP1 PUSH1 0x44 DUP3 ADD SWAP1 JUMP JUMPDEST SUB DUP2 DUP8 PUSH32 0x0 PUSH1 0x1 PUSH1 0x1 PUSH1 0xA0 SHL SUB AND GAS CALL SWAP1 DUP2 ISZERO PUSH2 0x17C9 JUMPI PUSH2 0x1708 SWAP4 PUSH1 0x20 SWAP3 PUSH2 0x17AC JUMPI JUMPDEST POP PUSH1 0x40 MLOAD PUSH4 0xA9059CBB PUSH1 0xE0 SHL DUP2 MSTORE PUSH1 0x1 PUSH1 0x1 PUSH1 0xA0 SHL SUB DUP5 AND PUSH1 0x4 DUP3 ADD MSTORE PUSH1 0x24 DUP2 ADD SWAP2 SWAP1 SWAP2 MSTORE SWAP3 DUP4 SWAP1 DUP2 SWAP1 PUSH1 0x44 DUP3 ADD SWAP1 JUMP JUMPDEST SUB DUP2 DUP7 PUSH1 0x0 DUP1 MLOAD PUSH1 0x20 PUSH2 0x2635 DUP4 CODECOPY DUP2 MLOAD SWAP2 MSTORE GAS CALL SWAP2 DUP3 ISZERO PUSH2 0x11E8 JUMPI PUSH1 0x20 SWAP3 PUSH2 0x178F JUMPI JUMPDEST POP PUSH1 0x40 MLOAD PUSH4 0x35313C21 PUSH1 0xE1 SHL DUP2 MSTORE ADDRESS PUSH1 0x4 DUP3 ADD MSTORE SWAP3 DUP4 SWAP2 PUSH1 0x24 SWAP2 DUP4 SWAP2 PUSH1 0x1 PUSH1 0x1 PUSH1 0xA0 SHL SUB AND GAS CALL DUP1 ISZERO PUSH2 0x1236 JUMPI PUSH2 0x1764 JUMPI JUMPDEST POP DUP6 PUSH2 0xE4B JUMP JUMPDEST PUSH1 0x20 SWAP1 DUP2 RETURNDATASIZE DUP4 GT PUSH2 0x1788 JUMPI JUMPDEST PUSH2 0x177A DUP2 DUP4 PUSH2 0x2449 JUMP JUMPDEST DUP2 ADD SUB SLT PUSH2 0x150B JUMPI CODESIZE PUSH2 0x175D JUMP JUMPDEST POP RETURNDATASIZE PUSH2 0x1770 JUMP JUMPDEST PUSH2 0x17A5 SWAP1 DUP4 RETURNDATASIZE DUP6 GT PUSH2 0x1269 JUMPI PUSH2 0x125A DUP2 DUP4 PUSH2 0x2449 JUMP JUMPDEST POP CODESIZE PUSH2 0x172B JUMP JUMPDEST PUSH2 0x17C2 SWAP1 DUP4 RETURNDATASIZE DUP6 GT PUSH2 0x1269 JUMPI PUSH2 0x125A DUP2 DUP4 PUSH2 0x2449 JUMP JUMPDEST POP CODESIZE PUSH2 0x16D7 JUMP JUMPDEST PUSH1 0x40 MLOAD RETURNDATASIZE DUP7 DUP3 RETURNDATACOPY RETURNDATASIZE SWAP1 REVERT JUMPDEST PUSH1 0x20 SWAP2 SWAP4 POP PUSH2 0x17EF SWAP1 DUP3 RETURNDATASIZE DUP5 GT PUSH2 0x122F JUMPI PUSH2 0x1221 DUP2 DUP4 PUSH2 0x2449 JUMP JUMPDEST SWAP3 SWAP1 PUSH2 0x164A JUMP JUMPDEST SWAP3 POP SWAP3 POP POP PUSH1 0xFF DUP2 AND PUSH2 0x1833 PUSH2 0x182C DUP3 PUSH32 0x0 PUSH2 0x246B JUMP JUMPDEST SWAP2 DUP6 PUSH2 0x246B JUMP JUMPDEST SWAP3 PUSH2 0x185E DUP3 PUSH32 0x0 PUSH2 0x22D7 JUMP JUMPDEST SWAP2 PUSH2 0x186C PUSH2 0x1316 DUP7 DUP9 PUSH2 0x22D7 JUMP JUMPDEST SWAP5 PUSH1 0x0 DUP1 MLOAD PUSH1 0x20 PUSH2 0x2635 DUP4 CODECOPY DUP2 MLOAD SWAP2 MSTORE PUSH32 0x0 PUSH1 0x1 PUSH1 0x1 PUSH1 0xA0 SHL SUB AND LT SWAP2 DUP3 ISZERO PUSH2 0x1BAE JUMPI PUSH32 0x0 PUSH1 0x1 PUSH1 0x1 PUSH1 0xA0 SHL SUB AND SWAP3 PUSH1 0x0 DUP1 MLOAD PUSH1 0x20 PUSH2 0x2635 DUP4 CODECOPY DUP2 MLOAD SWAP2 MSTORE SWAP1 JUMPDEST ISZERO PUSH2 0x1BA4 JUMPI DUP10 DUP3 DUP5 JUMPDEST PUSH1 0x40 MLOAD PUSH4 0x95EA7B3 PUSH1 0xE0 SHL DUP2 MSTORE PUSH20 0x77C39EB310BE31E60068CE29855F83359BF85FC4 PUSH1 0x4 DUP3 ADD MSTORE PUSH1 0x24 DUP2 ADD SWAP3 SWAP1 SWAP3 MSTORE PUSH1 0x20 DUP3 PUSH1 0x44 DUP2 DUP7 PUSH32 0x0 PUSH1 0x1 PUSH1 0x1 PUSH1 0xA0 SHL SUB AND GAS CALL SWAP2 DUP3 ISZERO PUSH2 0x11E8 JUMPI PUSH1 0x20 SWAP3 PUSH2 0x1B87 JUMPI JUMPDEST POP PUSH1 0x44 PUSH1 0x40 MLOAD DUP1 SWAP5 DUP2 SWAP4 PUSH4 0x95EA7B3 PUSH1 0xE0 SHL DUP4 MSTORE PUSH20 0x77C39EB310BE31E60068CE29855F83359BF85FC4 PUSH1 0x4 DUP5 ADD MSTORE PUSH1 0x24 DUP4 ADD MSTORE PUSH1 0x0 DUP1 MLOAD PUSH1 0x20 PUSH2 0x2635 DUP4 CODECOPY DUP2 MLOAD SWAP2 MSTORE GAS CALL DUP1 ISZERO PUSH2 0x1B5D JUMPI PUSH2 0x1B68 JUMPI JUMPDEST POP PUSH2 0x1A08 PUSH1 0x20 PUSH2 0x19C3 DUP6 DUP6 PUSH2 0x25A2 JUMP JUMPDEST PUSH1 0x40 MLOAD PUSH4 0x9F56AB1 PUSH1 0xE1 SHL DUP2 MSTORE PUSH1 0x1 PUSH1 0x1 PUSH1 0xA0 SHL SUB DUP1 DUP10 AND PUSH1 0x4 DUP4 ADD MSTORE DUP1 DUP7 AND PUSH1 0x24 DUP4 ADD MSTORE PUSH2 0xBB8 PUSH1 0x44 DUP4 ADD MSTORE SWAP1 SWAP2 AND PUSH1 0x64 DUP3 ADD MSTORE SWAP2 DUP3 SWAP1 DUP14 SWAP1 DUP3 SWAP1 DUP2 SWAP1 PUSH1 0x84 DUP3 ADD SWAP1 JUMP JUMPDEST SUB SWAP2 PUSH20 0x77C39EB310BE31E60068CE29855F83359BF85FC4 GAS CALL SWAP1 DUP2 ISZERO PUSH2 0x1B5D JUMPI DUP12 SWAP2 PUSH2 0x1B3E JUMPI JUMPDEST POP PUSH1 0x8 DUP1 SLOAD PUSH2 0x100 PUSH1 0x1 PUSH1 0xA8 SHL SUB NOT AND SWAP2 DUP2 SHL PUSH2 0x100 PUSH1 0x1 PUSH1 0xA8 SHL SUB AND SWAP2 SWAP1 SWAP2 OR SWAP1 SSTORE TIMESTAMP PUSH2 0x12C DUP2 ADD LT PUSH2 0x1B2A JUMPI PUSH1 0x40 MLOAD SWAP4 PUSH2 0x1A6A DUP6 PUSH2 0x242C JUMP JUMPDEST PUSH1 0x1 DUP1 PUSH1 0xA0 SHL SUB AND DUP5 MSTORE PUSH1 0x1 DUP1 PUSH1 0xA0 SHL SUB AND PUSH1 0x20 DUP5 ADD MSTORE PUSH2 0xBB8 PUSH1 0x40 DUP5 ADD MSTORE PUSH3 0xD89B3 NOT PUSH1 0x60 DUP5 ADD MSTORE PUSH3 0xD89B4 PUSH1 0x80 DUP5 ADD MSTORE PUSH1 0xA0 DUP4 ADD MSTORE PUSH1 0xC0 DUP3 ADD MSTORE DUP7 PUSH1 0xE0 DUP3 ADD MSTORE DUP7 PUSH2 0x100 DUP3 ADD MSTORE ADDRESS PUSH2 0x120 DUP3 ADD MSTORE PUSH2 0x12C TIMESTAMP ADD PUSH2 0x140 DUP3 ADD MSTORE PUSH2 0x1AE0 PUSH1 0x40 MLOAD SWAP2 PUSH4 0x4418B22B PUSH1 0xE1 SHL DUP4 MSTORE PUSH1 0x4 DUP4 ADD SWAP1 PUSH2 0x251E JUMP JUMPDEST PUSH1 0x80 DUP2 PUSH2 0x164 DUP2 DUP11 PUSH20 0x77C39EB310BE31E60068CE29855F83359BF85FC4 GAS CALL DUP1 ISZERO PUSH2 0x1236 JUMPI ISZERO PUSH2 0xE40 JUMPI PUSH2 0x1B22 SWAP1 PUSH1 0x80 RETURNDATASIZE PUSH1 0x80 GT PUSH2 0x11E1 JUMPI PUSH2 0x11D1 DUP2 DUP4 PUSH2 0x2449 JUMP JUMPDEST POP POP POP PUSH2 0xE40 JUMP JUMPDEST PUSH4 0x4E487B71 PUSH1 0xE0 SHL DUP11 MSTORE PUSH1 0x11 PUSH1 0x4 MSTORE PUSH1 0x24 DUP11 REVERT JUMPDEST PUSH2 0x1B57 SWAP2 POP PUSH1 0x20 RETURNDATASIZE PUSH1 0x20 GT PUSH2 0x122F JUMPI PUSH2 0x1221 DUP2 DUP4 PUSH2 0x2449 JUMP JUMPDEST CODESIZE PUSH2 0x1A2F JUMP JUMPDEST PUSH1 0x40 MLOAD RETURNDATASIZE DUP14 DUP3 RETURNDATACOPY RETURNDATASIZE SWAP1 REVERT JUMPDEST PUSH2 0x1B80 SWAP1 PUSH1 0x20 RETURNDATASIZE PUSH1 0x20 GT PUSH2 0x1269 JUMPI PUSH2 0x125A DUP2 DUP4 PUSH2 0x2449 JUMP JUMPDEST POP CODESIZE PUSH2 0x19B3 JUMP JUMPDEST PUSH2 0x1B9D SWAP1 DUP4 RETURNDATASIZE DUP6 GT PUSH2 0x1269 JUMPI PUSH2 0x125A DUP2 DUP4 PUSH2 0x2449 JUMP JUMPDEST POP CODESIZE PUSH2 0x1964 JUMP JUMPDEST DUP10 DUP4 SWAP3 DUP1 SWAP5 PUSH2 0x18F3 JUMP JUMPDEST PUSH1 0x0 DUP1 MLOAD PUSH1 0x20 PUSH2 0x2635 DUP4 CODECOPY DUP2 MLOAD SWAP2 MSTORE SWAP3 PUSH32 0x0 PUSH1 0x1 PUSH1 0x1 PUSH1 0xA0 SHL SUB AND SWAP1 PUSH2 0x18EA JUMP JUMPDEST PUSH2 0x1BF7 SWAP1 PUSH2 0x249B JUMP JUMPDEST PUSH2 0xE15 JUMP JUMPDEST PUSH2 0x1C05 SWAP1 PUSH2 0x249B JUMP JUMPDEST PUSH2 0xE0C JUMP JUMPDEST PUSH2 0x1C13 SWAP1 PUSH2 0x249B JUMP JUMPDEST PUSH2 0xE03 JUMP JUMPDEST POP PUSH1 0x1 PUSH2 0xDFA JUMP JUMPDEST PUSH2 0x1C29 SWAP1 PUSH2 0x2402 JUMP JUMPDEST PUSH2 0x2B5 JUMPI DUP2 CODESIZE PUSH2 0xDC9 JUMP JUMPDEST PUSH2 0x1C3D SWAP1 PUSH2 0x2402 JUMP JUMPDEST PUSH2 0x2B5 JUMPI DUP2 CODESIZE PUSH2 0xD81 JUMP JUMPDEST SWAP4 PUSH2 0x1C74 PUSH32 0xBF17F40327AB4320CDFAA84231ADA95FB1BA0D2D336EDD47510A8207786F9C12 SWAP3 SWAP6 PUSH2 0x2402 JUMP JUMPDEST SWAP4 SWAP1 PUSH2 0xC5E JUMP JUMPDEST PUSH1 0x40 MLOAD RETURNDATASIZE DUP8 DUP3 RETURNDATACOPY RETURNDATASIZE SWAP1 REVERT JUMPDEST DUP4 DUP1 REVERT JUMPDEST PUSH1 0xFF NOT AND PUSH1 0x1 OR SWAP1 SSTORE PUSH1 0x4 SLOAD PUSH1 0x0 NOT DUP2 EQ PUSH2 0x1CAC JUMPI PUSH1 0x1 ADD PUSH1 0x4 SSTORE CODESIZE DUP1 PUSH2 0xBD5 JUMP JUMPDEST PUSH4 0x4E487B71 PUSH1 0xE0 SHL DUP6 MSTORE PUSH1 0x11 PUSH1 0x4 MSTORE PUSH1 0x24 DUP6 REVERT JUMPDEST PUSH1 0x40 MLOAD PUSH3 0x461BCD PUSH1 0xE5 SHL DUP2 MSTORE PUSH1 0x20 PUSH1 0x4 DUP3 ADD MSTORE PUSH1 0x22 PUSH1 0x24 DUP3 ADD MSTORE PUSH32 0x546F6B656E4C61756E636865723A206461696C79206C696D6974207265616368 PUSH1 0x44 DUP3 ADD MSTORE PUSH2 0x1959 PUSH1 0xF2 SHL PUSH1 0x64 DUP3 ADD MSTORE PUSH1 0x84 SWAP1 REVERT JUMPDEST CALLER DUP5 MSTORE PUSH1 0x3 PUSH1 0x20 MSTORE TIMESTAMP PUSH1 0x40 DUP6 KECCAK256 SSTORE PUSH1 0x2 PUSH1 0x20 MSTORE DUP4 PUSH1 0x40 DUP2 KECCAK256 SSTORE PUSH2 0xB1E JUMP JUMPDEST PUSH1 0x64 PUSH1 0x40 MLOAD PUSH3 0x461BCD PUSH1 0xE5 SHL DUP2 MSTORE PUSH1 0x20 PUSH1 0x4 DUP3 ADD MSTORE PUSH1 0x20 PUSH1 0x24 DUP3 ADD MSTORE PUSH32 0x546F6B656E4C61756E636865723A20636F6F6C646F776E206E6F74206F766572 PUSH1 0x44 DUP3 ADD MSTORE REVERT JUMPDEST PUSH1 0x40 MLOAD PUSH3 0x461BCD PUSH1 0xE5 SHL DUP2 MSTORE PUSH1 0x20 PUSH1 0x4 DUP3 ADD MSTORE PUSH1 0x1E PUSH1 0x24 DUP3 ADD MSTORE PUSH32 0x546F6B656E4C61756E636865723A206D696E696E6720636F6D706C6574650000 PUSH1 0x44 DUP3 ADD MSTORE PUSH1 0x64 SWAP1 REVERT JUMPDEST PUSH1 0x64 PUSH1 0x40 MLOAD PUSH3 0x461BCD PUSH1 0xE5 SHL DUP2 MSTORE PUSH1 0x20 PUSH1 0x4 DUP3 ADD MSTORE PUSH1 0x20 PUSH1 0x24 DUP3 ADD MSTORE PUSH32 0x546F6B656E4C61756E636865723A205553444320666565207265717569726564 PUSH1 0x44 DUP3 ADD MSTORE REVERT JUMPDEST PUSH1 0x40 MLOAD PUSH3 0x461BCD PUSH1 0xE5 SHL DUP2 MSTORE PUSH1 0x20 PUSH1 0x4 DUP3 ADD MSTORE PUSH1 0x2A PUSH1 0x24 DUP3 ADD MSTORE PUSH32 0x546F6B656E2068617320677261647561746564202D2073776170206F6E20554E PUSH1 0x44 DUP3 ADD MSTORE PUSH10 0x4954464C4F5720563321 PUSH1 0xB0 SHL PUSH1 0x64 DUP3 ADD MSTORE PUSH1 0x84 SWAP1 REVERT JUMPDEST POP CALLVALUE PUSH2 0x275 JUMPI DUP1 PUSH1 0x3 NOT CALLDATASIZE ADD SLT PUSH2 0x275 JUMPI PUSH1 0x20 PUSH1 0x40 MLOAD PUSH1 0x8 DUP2 MSTORE RETURN JUMPDEST POP CALLVALUE PUSH2 0x275 JUMPI DUP1 PUSH1 0x3 NOT CALLDATASIZE ADD SLT PUSH2 0x275 JUMPI PUSH1 0x20 PUSH1 0x40 MLOAD PUSH1 0xFF PUSH32 0x0 AND DUP2 MSTORE RETURN JUMPDEST POP CALLVALUE PUSH2 0x275 JUMPI DUP1 PUSH1 0x3 NOT CALLDATASIZE ADD SLT PUSH2 0x275 JUMPI PUSH1 0xFF PUSH1 0x8 SLOAD AND ISZERO DUP1 PUSH2 0x1ED8 JUMPI JUMPDEST PUSH1 0x20 SWAP1 PUSH1 0x40 MLOAD SWAP1 ISZERO ISZERO DUP2 MSTORE RETURN JUMPDEST POP PUSH1 0x20 PUSH2 0x1F25 PUSH32 0x0 PUSH32 0x0 PUSH2 0x22B4 JUMP JUMPDEST TIMESTAMP GT ISZERO SWAP1 POP PUSH2 0x1ECB JUMP JUMPDEST POP CALLVALUE PUSH2 0x275 JUMPI DUP1 PUSH1 0x3 NOT CALLDATASIZE ADD SLT PUSH2 0x275 JUMPI PUSH1 0x20 PUSH1 0x4 SLOAD PUSH1 0x40 MLOAD SWAP1 DUP2 MSTORE RETURN JUMPDEST POP CALLVALUE PUSH2 0x275 JUMPI PUSH1 0x20 CALLDATASIZE PUSH1 0x3 NOT ADD SLT PUSH2 0x275 JUMPI PUSH1 0x4 CALLDATALOAD SWAP1 PUSH1 0x1 PUSH1 0x1 PUSH1 0xA0 SHL SUB DUP3 AND DUP3 SUB PUSH2 0x275 JUMPI PUSH1 0x20 PUSH2 0x3B8 DUP4 PUSH2 0x2386 JUMP JUMPDEST PUSH2 0x225A JUMP JUMPDEST POP CALLVALUE PUSH2 0x275 JUMPI DUP1 PUSH1 0x3 NOT CALLDATASIZE ADD SLT PUSH2 0x275 JUMPI PUSH1 0x20 PUSH1 0x40 MLOAD PUSH1 0x4 DUP2 MSTORE RETURN JUMPDEST POP CALLVALUE PUSH2 0x275 JUMPI DUP1 PUSH1 0x3 NOT CALLDATASIZE ADD SLT PUSH2 0x275 JUMPI PUSH1 0x20 PUSH1 0x40 MLOAD PUSH20 0xBE59000F37677D96115F397C91834DCB72DFC279 DUP2 MSTORE RETURN JUMPDEST POP CALLVALUE PUSH2 0x275 JUMPI DUP1 PUSH1 0x3 NOT CALLDATASIZE ADD SLT PUSH2 0x275 JUMPI PUSH1 0x20 SWAP1 SLOAD PUSH1 0x40 MLOAD SWAP1 DUP2 MSTORE RETURN JUMPDEST POP CALLVALUE PUSH2 0x275 JUMPI DUP1 PUSH1 0x3 NOT CALLDATASIZE ADD SLT PUSH2 0x275 JUMPI PUSH1 0x20 PUSH1 0x40 MLOAD PUSH1 0x0 DUP1 MLOAD PUSH1 0x20 PUSH2 0x2635 DUP4 CODECOPY DUP2 MLOAD SWAP2 MSTORE DUP2 MSTORE RETURN JUMPDEST POP CALLVALUE PUSH2 0x275 JUMPI PUSH1 0x20 CALLDATASIZE PUSH1 0x3 NOT ADD SLT PUSH2 0x275 JUMPI PUSH1 0x4 CALLDATALOAD PUSH1 0x1 PUSH1 0x1 PUSH1 0xA0 SHL SUB DUP2 AND SWAP1 DUP2 SWAP1 SUB PUSH2 0x2B5 JUMPI PUSH1 0x40 DUP3 PUSH1 0xFF SWAP3 PUSH1 0x20 SWAP5 MSTORE PUSH1 0x5 DUP5 MSTORE KECCAK256 SLOAD AND PUSH1 0x40 MLOAD SWAP1 ISZERO ISZERO DUP2 MSTORE RETURN JUMPDEST POP CALLVALUE PUSH2 0x275 JUMPI DUP1 PUSH1 0x3 NOT CALLDATASIZE ADD SLT PUSH2 0x275 JUMPI PUSH1 0x9 SLOAD PUSH1 0x40 MLOAD PUSH1 0x1 PUSH1 0x1 PUSH1 0xA0 SHL SUB SWAP1 SWAP2 AND DUP2 MSTORE PUSH1 0x20 SWAP1 RETURN JUMPDEST POP CALLVALUE PUSH2 0x275 JUMPI DUP1 PUSH1 0x3 NOT CALLDATASIZE ADD SLT PUSH2 0x275 JUMPI PUSH1 0x20 PUSH1 0x40 MLOAD PUSH1 0x1 DUP2 MSTORE RETURN JUMPDEST POP CALLVALUE PUSH2 0x275 JUMPI PUSH1 0x20 CALLDATASIZE PUSH1 0x3 NOT ADD SLT PUSH2 0x275 JUMPI PUSH1 0x4 CALLDATALOAD PUSH1 0x1 PUSH1 0x1 PUSH1 0xA0 SHL SUB DUP2 AND SWAP1 DUP2 SWAP1 SUB PUSH2 0x2B5 JUMPI DUP2 PUSH1 0x40 SWAP2 PUSH1 0x20 SWAP4 MSTORE PUSH1 0x2 DUP4 MSTORE KECCAK256 SLOAD PUSH1 0x40 MLOAD SWAP1 DUP2 MSTORE RETURN JUMPDEST POP CALLVALUE PUSH2 0x275 JUMPI DUP1 PUSH1 0x3 NOT CALLDATASIZE ADD SLT PUSH2 0x275 JUMPI PUSH1 0x20 PUSH1 0x40 MLOAD PUSH32 0x0 DUP2 MSTORE RETURN JUMPDEST POP CALLVALUE PUSH2 0x275 JUMPI DUP1 PUSH1 0x3 NOT CALLDATASIZE ADD SLT PUSH2 0x275 JUMPI PUSH1 0x20 PUSH1 0x40 MLOAD PUSH20 0x77C39EB310BE31E60068CE29855F83359BF85FC4 DUP2 MSTORE RETURN JUMPDEST POP CALLVALUE PUSH2 0x275 JUMPI PUSH1 0x20 CALLDATASIZE PUSH1 0x3 NOT ADD SLT PUSH2 0x275 JUMPI PUSH1 0x4 CALLDATALOAD SWAP1 PUSH1 0x1 PUSH1 0x1 PUSH1 0xA0 SHL SUB DUP3 AND DUP3 SUB PUSH2 0x275 JUMPI PUSH1 0x20 PUSH2 0x3B8 DUP4 PUSH2 0x22E4 JUMP JUMPDEST POP CALLVALUE PUSH2 0x275 JUMPI PUSH1 0x20 CALLDATASIZE PUSH1 0x3 NOT ADD SLT PUSH2 0x275 JUMPI PUSH1 0x4 CALLDATALOAD PUSH1 0x1 PUSH1 0x1 PUSH1 0xA0 SHL SUB DUP2 AND SWAP1 DUP2 SWAP1 SUB PUSH2 0x2B5 JUMPI DUP2 PUSH1 0x40 SWAP2 PUSH1 0x20 SWAP4 MSTORE PUSH1 0x6 DUP4 MSTORE KECCAK256 SLOAD PUSH1 0x40 MLOAD SWAP1 DUP2 MSTORE RETURN JUMPDEST POP CALLVALUE PUSH2 0x275 JUMPI PUSH1 0x20 CALLDATASIZE PUSH1 0x3 NOT ADD SLT PUSH2 0x275 JUMPI PUSH1 0x4 CALLDATALOAD PUSH1 0x1 PUSH1 0x1 PUSH1 0xA0 SHL SUB DUP2 AND SWAP1 DUP2 SWAP1 SUB PUSH2 0x2B5 JUMPI DUP2 PUSH1 0x40 SWAP2 PUSH1 0x20 SWAP4 MSTORE PUSH1 0x3 DUP4 MSTORE KECCAK256 SLOAD PUSH1 0x40 MLOAD SWAP1 DUP2 MSTORE RETURN JUMPDEST POP CALLVALUE PUSH2 0x275 JUMPI DUP1 PUSH1 0x3 NOT CALLDATASIZE ADD SLT PUSH2 0x275 JUMPI PUSH1 0x8 DUP1 SLOAD PUSH1 0x40 MLOAD SWAP2 SHR PUSH1 0x1 PUSH1 0x1 PUSH1 0xA0 SHL SUB AND DUP2 MSTORE PUSH1 0x20 SWAP1 RETURN JUMPDEST SWAP1 POP CALLVALUE PUSH2 0x2B5 JUMPI DUP2 PUSH1 0x3 NOT CALLDATASIZE ADD SLT PUSH2 0x2B5 JUMPI PUSH32 0x0 PUSH1 0x1 PUSH1 0x1 PUSH1 0xA0 SHL SUB AND DUP2 MSTORE PUSH1 0x20 SWAP1 RETURN JUMPDEST CALLVALUE PUSH2 0x150B JUMPI PUSH1 0x0 CALLDATASIZE PUSH1 0x3 NOT ADD SLT PUSH2 0x150B JUMPI PUSH1 0x20 PUSH1 0x40 MLOAD PUSH3 0xD89B4 DUP2 MSTORE RETURN JUMPDEST CALLVALUE PUSH2 0x150B JUMPI PUSH1 0x0 CALLDATASIZE PUSH1 0x3 NOT ADD SLT PUSH2 0x150B JUMPI PUSH1 0x20 PUSH1 0x40 MLOAD PUSH3 0xD89B3 NOT DUP2 MSTORE RETURN JUMPDEST CALLVALUE PUSH2 0x150B JUMPI PUSH1 0x0 CALLDATASIZE PUSH1 0x3 NOT ADD SLT PUSH2 0x150B JUMPI PUSH1 0x20 PUSH1 0x40 MLOAD PUSH2 0xBB8 DUP2 MSTORE RETURN JUMPDEST SWAP2 SWAP1 DUP3 ADD DUP1 SWAP3 GT PUSH2 0x22C1 JUMPI JUMP JUMPDEST PUSH4 0x4E487B71 PUSH1 0xE0 SHL PUSH1 0x0 MSTORE PUSH1 0x11 PUSH1 0x4 MSTORE PUSH1 0x24 PUSH1 0x0 REVERT JUMPDEST SWAP2 SWAP1 DUP3 SUB SWAP2 DUP3 GT PUSH2 0x22C1 JUMPI JUMP JUMPDEST PUSH1 0x1 PUSH1 0x1 PUSH1 0xA0 SHL SUB AND PUSH1 0x0 DUP2 DUP2 MSTORE PUSH1 0x3 PUSH1 0x20 MSTORE PUSH1 0x40 DUP2 KECCAK256 SLOAD SWAP1 SWAP2 SWAP1 PUSH3 0x15180 DUP2 ADD SWAP1 DUP2 LT PUSH2 0x2372 JUMPI TIMESTAMP LT ISZERO PUSH2 0x234C JUMPI DUP2 PUSH1 0x40 SWAP2 PUSH2 0x2349 SWAP4 MSTORE PUSH1 0x2 PUSH1 0x20 MSTORE KECCAK256 SLOAD PUSH32 0x0 PUSH2 0x22D7 JUMP JUMPDEST SWAP1 JUMP JUMPDEST POP POP PUSH32 0x0 SWAP1 JUMP JUMPDEST PUSH4 0x4E487B71 PUSH1 0xE0 SHL DUP4 MSTORE PUSH1 0x11 PUSH1 0x4 MSTORE PUSH1 0x24 DUP4 REVERT JUMPDEST PUSH1 0xFF PUSH1 0x8 SLOAD AND PUSH2 0x23FC JUMPI PUSH2 0x23DA PUSH32 0x0 PUSH32 0x0 PUSH2 0x22B4 JUMP JUMPDEST TIMESTAMP GT ISZERO PUSH2 0x23FC JUMPI PUSH1 0x1 PUSH1 0x1 PUSH1 0xA0 SHL SUB AND PUSH1 0x0 SWAP1 DUP2 MSTORE PUSH1 0x6 PUSH1 0x20 MSTORE PUSH1 0x40 SWAP1 KECCAK256 SLOAD SWAP1 JUMP JUMPDEST POP PUSH1 0x0 SWAP1 JUMP JUMPDEST PUSH8 0xFFFFFFFFFFFFFFFF DUP2 GT PUSH2 0x2416 JUMPI PUSH1 0x40 MSTORE JUMP JUMPDEST PUSH4 0x4E487B71 PUSH1 0xE0 SHL PUSH1 0x0 MSTORE PUSH1 0x41 PUSH1 0x4 MSTORE PUSH1 0x24 PUSH1 0x0 REVERT JUMPDEST PUSH2 0x160 DUP2 ADD SWAP1 DUP2 LT PUSH8 0xFFFFFFFFFFFFFFFF DUP3 GT OR PUSH2 0x2416 JUMPI PUSH1 0x40 MSTORE JUMP JUMPDEST SWAP1 PUSH1 0x1F DUP1 NOT SWAP2 ADD AND DUP2 ADD SWAP1 DUP2 LT PUSH8 0xFFFFFFFFFFFFFFFF DUP3 GT OR PUSH2 0x2416 JUMPI PUSH1 0x40 MSTORE JUMP JUMPDEST DUP2 ISZERO PUSH2 0x2475 JUMPI DIV SWAP1 JUMP JUMPDEST PUSH4 0x4E487B71 PUSH1 0xE0 SHL PUSH1 0x0 MSTORE PUSH1 0x12 PUSH1 0x4 MSTORE PUSH1 0x24 PUSH1 0x0 REVERT JUMPDEST PUSH1 0xFF AND DUP1 ISZERO PUSH2 0x22C1 JUMPI PUSH1 0x0 NOT ADD SWAP1 JUMP JUMPDEST PUSH1 0xFF AND PUSH1 0xFF DUP2 EQ PUSH2 0x22C1 JUMPI PUSH1 0x1 ADD SWAP1 JUMP JUMPDEST SWAP1 DUP2 PUSH1 0x20 SWAP2 SUB SLT PUSH2 0x150B JUMPI MLOAD DUP1 ISZERO ISZERO DUP2 SUB PUSH2 0x150B JUMPI SWAP1 JUMP JUMPDEST SWAP1 DUP2 PUSH1 0x20 SWAP2 SUB SLT PUSH2 0x150B JUMPI MLOAD PUSH1 0x1 PUSH1 0x1 PUSH1 0xA0 SHL SUB DUP2 AND DUP2 SUB PUSH2 0x150B JUMPI SWAP1 JUMP JUMPDEST SWAP2 SWAP1 DUP3 PUSH1 0x80 SWAP2 SUB SLT PUSH2 0x150B JUMPI DUP2 MLOAD SWAP2 PUSH1 0x20 DUP2 ADD MLOAD PUSH16 0xFFFFFFFFFFFFFFFFFFFFFFFFFFFFFFFF DUP2 AND DUP2 SUB PUSH2 0x150B JUMPI SWAP2 PUSH1 0x60 PUSH1 0x40 DUP4 ADD MLOAD SWAP3 ADD MLOAD SWAP1 JUMP JUMPDEST PUSH1 0x1 DUP1 PUSH1 0xA0 SHL SUB DUP1 DUP3 MLOAD AND DUP4 MSTORE DUP1 PUSH1 0x20 DUP4 ADD MLOAD AND PUSH1 0x20 DUP5 ADD MSTORE PUSH3 0xFFFFFF PUSH1 0x40 DUP4 ADD MLOAD AND PUSH1 0x40 DUP5 ADD MSTORE PUSH1 0x60 DUP3 ADD MLOAD PUSH1 0x2 SIGNEXTEND PUSH1 0x60 DUP5 ADD MSTORE PUSH1 0x80 DUP3 ADD MLOAD PUSH1 0x2 SIGNEXTEND PUSH1 0x80 DUP5 ADD MSTORE PUSH1 0xA0 DUP3 ADD MLOAD PUSH1 0xA0 DUP5 ADD MSTORE PUSH1 0xC0 DUP3 ADD MLOAD PUSH1 0xC0 DUP5 ADD MSTORE PUSH1 0xE0 DUP3 ADD MLOAD PUSH1 0xE0 DUP5 ADD MSTORE PUSH2 0x100 DUP1 DUP4 ADD MLOAD SWAP1 DUP5 ADD MSTORE PUSH2 0x120 SWAP1 DUP2 DUP4 ADD MLOAD AND SWAP1 DUP4 ADD MSTORE PUSH2 0x140 DUP1 SWAP2 ADD MLOAD SWAP2 ADD MSTORE JUMP JUMPDEST DUP1 ISZERO DUP1 ISZERO PUSH2 0x25DF JUMPI JUMPDEST PUSH2 0x25D4 JUMPI PUSH1 0x1 PUSH1 0x1 PUSH1 0xA0 SHL SUB SWAP2 PUSH2 0x25CD SWAP2 PUSH2 0x25C8 SWAP2 PUSH1 0x60 SHL PUSH2 0x246B JUMP JUMPDEST PUSH2 0x25E7 JUMP JUMPDEST PUSH1 0x30 SHL AND SWAP1 JUMP JUMPDEST POP PUSH1 0x1 PUSH1 0x60 SHL SWAP2 SWAP1 POP JUMP JUMPDEST POP DUP2 ISZERO PUSH2 0x25AB JUMP JUMPDEST SWAP1 DUP2 ISZERO PUSH2 0x262E JUMPI PUSH1 0x1 DUP3 PUSH1 0x1 SHR PUSH1 0x1 DUP2 ADD DUP1 SWAP2 GT PUSH2 0x22C1 JUMPI SWAP1 DUP4 JUMPDEST DUP5 DUP4 LT PUSH2 0x260E JUMPI POP POP POP JUMP JUMPDEST SWAP1 SWAP2 SWAP4 POP PUSH2 0x2625 DUP5 PUSH2 0x2620 DUP2 DUP5 PUSH2 0x246B JUMP JUMPDEST PUSH2 0x22B4 JUMP JUMPDEST DUP3 SHR SWAP2 SWAP1 PUSH2 0x2602 JUMP JUMPDEST PUSH1 0x0 SWAP2 POP JUMP INVALID STOP STOP STOP STOP STOP STOP STOP STOP STOP STOP STOP STOP SWAP2 SHL BLOCKHASH STOP 0xD3 TIMESTAMP 0x2F BASEFEE 0x2F BLOCKHASH PUSH3 0xA91388 PUSH0 PUSH28 0x35382DFA264697066735822122068CB183A5866F9DA00F57CA40980 GASPRICE 0xB3 0x21 EXTCODESIZE 0x4D 0xD2 EXTCODESIZE SMOD DUP3 TSTORE PUSH5 0x1963610DC2 DUP5 0x25 PUSH5 0x736F6C6343 STOP ADDMOD XOR STOP CALLER LOG2 PUSH5 0x6970667358 0x22 SLT KECCAK256 SHR CALL 0xB6 0xE8 DUP7 0xC0 JUMPI 0xBF 0xF7 BLOBHASH DUP12 SWAP12 ADDRESS 0x1F 0x2E LOG3 DUP4 0xDC 0xC 0xFB PUSH4 0xA4C16877 PC 0xAF 0xD9 MSTORE 0xE1 0xF7 0xDD PUSH5 0x736F6C6343 STOP ADDMOD XOR STOP CALLER "},"methodIdentifiers":{"createToken(string,string,string,uint256,uint256,uint256,uint256,uint256,uint256,uint8)":"f7942f01","creationFee()":"dce0b4e4","feeRecipient()":"46904840","getToken(uint256)":"e4b50cb8","getTokenCount()":"78a89567","getTokens(uint256,uint256)":"494cfc6c","isLauncher(address)":"fa275e11","launcherByToken(address)":"7fca8f7b","owner()":"8da5cb5b","setCreationFee(uint256)":"b7d86225","setFeeRecipient(address)":"e74b981b","tokens(uint256)":"4f64b2be","transferOwnership(address)":"f2fde38b"}}}}}