{"src/TokenLauncher.sol":{"TokenLauncher":{"abi":[{"inputs":[{"internalType":"address","name":"_token","type":"address"},{"internalType":"address","name":"_creator","type":"address"},{"internalType":"uint256","name":"_mineAmount","type":"uint256"},{"internalType":"uint256","name":"_cooldownSeconds","type":"uint256"},{"internalType":"uint256","name":"_dailyMax","type":"uint256"},{"internalType":"uint256","name":"_feePerMine","type":"uint256"},{"internalType":"uint256","name":"_refundWindowSeconds","type":"uint256"},{"internalType":"uint8","name":"_ammFlags","type":"uint8"}],"stateMutability":"nonpayable","type":"constructor"},{"anonymous":false,"inputs":[{"indexed":true,"internalType":"address","name":"user","type":"address"},{"indexed":false,"internalType":"string","name":"funnyPost","type":"string"},{"indexed":false,"internalType":"uint256","name":"amount","type":"uint256"},{"indexed":false,"internalType":"uint256","name":"timestamp","type":"uint256"}],"name":"ActedFun","type":"event"},{"anonymous":false,"inputs":[{"indexed":true,"internalType":"address","name":"user","type":"address"},{"indexed":false,"internalType":"uint256","name":"amount","type":"uint256"},{"indexed":false,"internalType":"uint256","name":"timestamp","type":"uint256"}],"name":"ArcRefundClaimed","type":"event"},{"anonymous":false,"inputs":[{"indexed":true,"internalType":"address","name":"token","type":"address"},{"indexed":false,"internalType":"uint256","name":"tokenSeeded","type":"uint256"},{"indexed":false,"internalType":"uint256","name":"arcSeeded","type":"uint256"},{"indexed":false,"internalType":"uint256","name":"timestamp","type":"uint256"}],"name":"TokenGraduated","type":"event"},{"inputs":[],"name":"AMM_STABLESWAP","outputs":[{"internalType":"uint8","name":"","type":"uint8"}],"stateMutability":"view","type":"function"},{"inputs":[],"name":"AMM_SYNTHRA","outputs":[{"internalType":"uint8","name":"","type":"uint8"}],"stateMutability":"view","type":"function"},{"inputs":[],"name":"AMM_UNISWAP_V2","outputs":[{"internalType":"uint8","name":"","type":"uint8"}],"stateMutability":"view","type":"function"},{"inputs":[],"name":"AMM_UNITFLOW_V3","outputs":[{"internalType":"uint8","name":"","type":"uint8"}],"stateMutability":"view","type":"function"},{"inputs":[],"name":"POOL_FEE","outputs":[{"internalType":"uint24","name":"","type":"uint24"}],"stateMutability":"view","type":"function"},{"inputs":[],"name":"POSITION_MANAGER","outputs":[{"internalType":"address","name":"","type":"address"}],"stateMutability":"view","type":"function"},{"inputs":[],"name":"STABLESWAP_FACTORY","outputs":[{"internalType":"address","name":"","type":"address"}],"stateMutability":"view","type":"function"},{"inputs":[],"name":"SYNTHRA_FEE","outputs":[{"internalType":"uint24","name":"","type":"uint24"}],"stateMutability":"view","type":"function"},{"inputs":[],"name":"SYNTHRA_POSITION_MANAGER","outputs":[{"internalType":"address","name":"","type":"address"}],"stateMutability":"view","type":"function"},{"inputs":[],"name":"SYNTHRA_TICK_LOWER","outputs":[{"internalType":"int24","name":"","type":"int24"}],"stateMutability":"view","type":"function"},{"inputs":[],"name":"SYNTHRA_TICK_UPPER","outputs":[{"internalType":"int24","name":"","type":"int24"}],"stateMutability":"view","type":"function"},{"inputs":[],"name":"TICK_LOWER","outputs":[{"internalType":"int24","name":"","type":"int24"}],"stateMutability":"view","type":"function"},{"inputs":[],"name":"TICK_UPPER","outputs":[{"internalType":"int24","name":"","type":"int24"}],"stateMutability":"view","type":"function"},{"inputs":[],"name":"UNISWAP_V2_FACTORY","outputs":[{"internalType":"address","name":"","type":"address"}],"stateMutability":"view","type":"function"},{"inputs":[],"name":"UNISWAP_V2_ROUTER","outputs":[{"internalType":"address","name":"","type":"address"}],"stateMutability":"view","type":"function"},{"inputs":[],"name":"WUSDC_ADDRESS","outputs":[{"internalType":"address","name":"","type":"address"}],"stateMutability":"view","type":"function"},{"inputs":[],"name":"ammFlags","outputs":[{"internalType":"uint8","name":"","type":"uint8"}],"stateMutability":"view","type":"function"},{"inputs":[],"name":"claimRefund","outputs":[],"stateMutability":"nonpayable","type":"function"},{"inputs":[{"internalType":"address","name":"user","type":"address"}],"name":"claimableRefund","outputs":[{"internalType":"uint256","name":"","type":"uint256"}],"stateMutability":"view","type":"function"},{"inputs":[],"name":"cooldownSeconds","outputs":[{"internalType":"uint256","name":"","type":"uint256"}],"stateMutability":"view","type":"function"},{"inputs":[],"name":"createdAt","outputs":[{"internalType":"uint256","name":"","type":"uint256"}],"stateMutability":"view","type":"function"},{"inputs":[],"name":"creator","outputs":[{"internalType":"address","name":"","type":"address"}],"stateMutability":"view","type":"function"},{"inputs":[],"name":"dailyMax","outputs":[{"internalType":"uint256","name":"","type":"uint256"}],"stateMutability":"view","type":"function"},{"inputs":[{"internalType":"address","name":"","type":"address"}],"name":"dailyMined","outputs":[{"internalType":"uint256","name":"","type":"uint256"}],"stateMutability":"view","type":"function"},{"inputs":[{"internalType":"address","name":"","type":"address"}],"name":"dailyWindowStart","outputs":[{"internalType":"uint256","name":"","type":"uint256"}],"stateMutability":"view","type":"function"},{"inputs":[{"internalType":"address","name":"","type":"address"}],"name":"feePaid","outputs":[{"internalType":"uint256","name":"","type":"uint256"}],"stateMutability":"view","type":"function"},{"inputs":[],"name":"feePerMine","outputs":[{"internalType":"uint256","name":"","type":"uint256"}],"stateMutability":"view","type":"function"},{"inputs":[],"name":"getMiningProgress","outputs":[{"internalType":"uint256","name":"mined","type":"uint256"},{"internalType":"uint256","name":"total","type":"uint256"}],"stateMutability":"view","type":"function"},{"inputs":[{"internalType":"address","name":"user","type":"address"}],"name":"getRemainingDailyAllowance","outputs":[{"internalType":"uint256","name":"","type":"uint256"}],"stateMutability":"view","type":"function"},{"inputs":[{"internalType":"address","name":"user","type":"address"}],"name":"getTimeUntilNextMine","outputs":[{"internalType":"uint256","name":"","type":"uint256"}],"stateMutability":"view","type":"function"},{"inputs":[],"name":"graduated","outputs":[{"internalType":"bool","name":"","type":"bool"}],"stateMutability":"view","type":"function"},{"inputs":[{"internalType":"address","name":"","type":"address"}],"name":"hasMined","outputs":[{"internalType":"bool","name":"","type":"bool"}],"stateMutability":"view","type":"function"},{"inputs":[{"internalType":"address","name":"","type":"address"}],"name":"lastMineTime","outputs":[{"internalType":"uint256","name":"","type":"uint256"}],"stateMutability":"view","type":"function"},{"inputs":[],"name":"lpReserve","outputs":[{"internalType":"uint256","name":"","type":"uint256"}],"stateMutability":"view","type":"function"},{"inputs":[{"internalType":"string","name":"funnyPost","type":"string"}],"name":"mine","outputs":[],"stateMutability":"payable","type":"function"},{"inputs":[],"name":"mineAmount","outputs":[{"internalType":"uint256","name":"","type":"uint256"}],"stateMutability":"view","type":"function"},{"inputs":[],"name":"mineableSupply","outputs":[{"internalType":"uint256","name":"","type":"uint256"}],"stateMutability":"view","type":"function"},{"inputs":[],"name":"poolAddress","outputs":[{"internalType":"address","name":"","type":"address"}],"stateMutability":"view","type":"function"},{"inputs":[],"name":"refundDeadline","outputs":[{"internalType":"uint256","name":"","type":"uint256"}],"stateMutability":"view","type":"function"},{"inputs":[],"name":"refundWindowOpen","outputs":[{"internalType":"bool","name":"","type":"bool"}],"stateMutability":"view","type":"function"},{"inputs":[],"name":"refundWindowSeconds","outputs":[{"internalType":"uint256","name":"","type":"uint256"}],"stateMutability":"view","type":"function"},{"inputs":[],"name":"stablePoolAddress","outputs":[{"internalType":"address","name":"","type":"address"}],"stateMutability":"view","type":"function"},{"inputs":[],"name":"synthraPoolAddress","outputs":[{"internalType":"address","name":"","type":"address"}],"stateMutability":"view","type":"function"},{"inputs":[],"name":"token","outputs":[{"internalType":"contract LaunchToken","name":"","type":"address"}],"stateMutability":"view","type":"function"},{"inputs":[{"internalType":"address","name":"","type":"address"}],"name":"tokensMined","outputs":[{"internalType":"uint256","name":"","type":"uint256"}],"stateMutability":"view","type":"function"},{"inputs":[],"name":"totalMined","outputs":[{"internalType":"uint256","name":"","type":"uint256"}],"stateMutability":"view","type":"function"},{"inputs":[],"name":"totalMiners","outputs":[{"internalType":"uint256","name":"","type":"uint256"}],"stateMutability":"view","type":"function"},{"inputs":[],"name":"v2PairAddress","outputs":[{"internalType":"address","name":"","type":"address"}],"stateMutability":"view","type":"function"}],"evm":{"bytecode":{"linkReferences":{},"object":"6101e060408181523462000386578162002a6580380380916200002382856200038b565b83396101009384918101031262000386576200003f81620003c5565b9060206200004f818301620003c5565b93808301519060608401519060808501519660a08601519260e060c08801519701519760ff8916808a036200038657801515908162000379575b501562000335576001600160a01b0316608081905260a0929092524260c05260e085905289526101209788526101409283526101a09586526101c0968752815163d5abeb0160e01b8152908590829060049082905afa9485156200032a57600095620002f0575b5050605f8402848104605f1485151715620002c4578315620002da57606484910404838102938185041490151715620002c457610160928084528403938411620002c457610180938452519561268a9788620003db89396080518881816102460152818161061e01528181610bd901528181610c3101528181610cdb01528181610d5401528181610ebe01528181610f2f01528181610f6101528181610fdc015281816112b30152818161132b015281816113e401528181611477015281816115d50152818161169a0152818161187e015281816118b00152818161192b0152611bc0015260a0518861222b015260c051888181610394015281816104d4015281816105ae01528181611f0101526123b6015260e051888181610a7001526120f001525187818161043b0152818161054a0152610ad10152518681816103d801528181610b360152818161232501526123500152518581816108910152610a43015251848181610312015281816104990152610a990152518381816108cc01528181610d1e01528181610e1901528181610e6601528181611808015261183a0152518281816103730152818161050f0152818161058d01528181611ee00152612395015251818181610dcc0152611e890152f35b634e487b7160e01b600052601160045260246000fd5b634e487b7160e01b600052601260045260246000fd5b8181969293963d831162000322575b6200030b81836200038b565b810103126200031f575051923880620000f0565b80fd5b503d620002ff565b82513d6000823e3d90fd5b835162461bcd60e51b815260048101889052601f60248201527f546f6b656e4c61756e636865723a20696e76616c696420616d6d466c616773006044820152606490fd5b600f915011153862000089565b600080fd5b601f909101601f19168101906001600160401b03821190821017620003af57604052565b634e487b7160e01b600052604160045260246000fd5b51906001600160a01b0382168203620003865756fe608080604052600436101561001357600080fd5b600090813560e01c90816302d05d3f14612217575080631755ff21146121ed578063189ab242146121b05780631a561d7d146121735780631b583f90146121425780631bea83fe146121135780631ca944e9146120d8578063239f3af714611f7e57806324a1e0601461209b578063262d8f381461207f5780632ace07301461205657806347377d9214610976578063518263a114612014578063519bde9414611feb5780635556db6514611fce5780635e9cfb0014611f9f57806367d1197914611f835780636a92610214611f7e5780636e1e063f14611f4d578063764fe7d114611f2f57806377c5fd7f14611ead5780637b88151514611e6f5780637fb0cf0e14611e53578063841819df146109ef5780638cb4997d146109c657806399d8fae3146109975780639e7c66941461097b578063a4155b4414610976578063a6b0a71814610947578063a82ed9ec14610918578063aac4daac146108ef578063ada29fa9146108b4578063b14e579114610879578063b5545a3c1461056d578063b8221bc414610532578063c6e8ebd8146104f7578063cf09e0d0146104bc578063d6fb167814610481578063d83f5cec14610400578063d9f8ce05146103fb578063dd1b9c4a146103fb578063e0f67bc7146103c0578063e1aa1bcc1461035b578063e7c2b77214610338578063ebba348b146102f6578063ee6b373b146102b9578063f6a50850146102785763fc0c546a1461023157600080fd5b346102755780600319360112610275576040517f00000000000000000000000000000000000000000000000000000000000000006001600160a01b03168152602090f35b80fd5b5034610275576020366003190112610275576004356001600160a01b038116908190036102b5578160409160209352600783522054604051908152f35b5080fd5b5034610275576020366003190112610275576004356001600160a01b038116908190036102b5578160409160209352600183522054604051908152f35b50346102755780600319360112610275576040905481519081527f00000000000000000000000000000000000000000000000000000000000000006020820152f35b5034610275578060031936011261027557602060ff600854166040519015158152f35b503461027557806003193601126102755760206103b87f00000000000000000000000000000000000000000000000000000000000000007f00000000000000000000000000000000000000000000000000000000000000006122b4565b604051908152f35b503461027557806003193601126102755760206040517f00000000000000000000000000000000000000000000000000000000000000008152f35b612297565b5034610275576020366003190112610275576004356001600160a01b038116908190036102b5579060209181526001825261046060408220547f0000000000000000000000000000000000000000000000000000000000000000906122b4565b4281116104705750604051908152f35b61047c915042906122d7565b6103b8565b503461027557806003193601126102755760206040517f00000000000000000000000000000000000000000000000000000000000000008152f35b503461027557806003193601126102755760206040517f00000000000000000000000000000000000000000000000000000000000000008152f35b503461027557806003193601126102755760206040517f00000000000000000000000000000000000000000000000000000000000000008152f35b503461027557806003193601126102755760206040517f00000000000000000000000000000000000000000000000000000000000000008152f35b503461027557806003193601126102755760ff6008541661081d576105d27f00000000000000000000000000000000000000000000000000000000000000007f00000000000000000000000000000000000000000000000000000000000000006122b4565b4211156107c85733815260206006815260408220549081156107855733835260078152826040812054600683528160408120556007835281604081205561061a8183546122d7565b82557f00000000000000000000000000000000000000000000000000000000000000006001600160a01b0316803b1561077657604051632770a7eb60e21b8152336004820152602481019290925282908290604490829084905af1801561077a57610762575b5080808085335af13d1561075d573d67ffffffffffffffff811161074957604051906106b5601f8201601f1916850183612449565b815284833d92013e5b156106f75760405191825242908201527f5403db5f5a330d258426b5aef83e03924750ce4a92d0d341669efdc33824c44b60403392a280f35b6084906040519062461bcd60e51b82526004820152602560248201527f546f6b656e4c61756e636865723a20726566756e64207472616e736665722066604482015264185a5b195960da1b6064820152fd5b634e487b7160e01b85526041600452602485fd5b6106be565b61076b90612402565b610776578238610680565b8280fd5b6040513d84823e3d90fd5b6064906040519062461bcd60e51b825280600483015260248201527f546f6b656e4c61756e636865723a206e6f7468696e6720746f20726566756e646044820152fd5b60405162461bcd60e51b815260206004820152602760248201527f546f6b656e4c61756e636865723a206d696e696e672077696e646f772073746960448201526636361037b832b760c91b6064820152608490fd5b60405162461bcd60e51b815260206004820152602e60248201527f546f6b656e4c61756e636865723a20746f6b656e20686173206772616475617460448201526d65642c206e6f20726566756e647360901b6064820152608490fd5b503461027557806003193601126102755760206040517f00000000000000000000000000000000000000000000000000000000000000008152f35b503461027557806003193601126102755760206040517f00000000000000000000000000000000000000000000000000000000000000008152f35b5034610275578060031936011261027557600a546040516001600160a01b039091168152602090f35b503461027557806003193601126102755760206040517354599c3e0bcb99ca37b286242b5ec5d331ab9d188152f35b50346102755780600319360112610275576020604051733714f242fe169ab5eb0d763cf79aeaca5f727e7b8152f35b612278565b5034610275578060031936011261027557602060405160028152f35b5034610275578060031936011261027557602060405173b56b00c38ef85633a789644415a16b4c8ea12ef88152f35b5034610275578060031936011261027557600b546040516001600160a01b039091168152602090f35b5060203660031901126102755767ffffffffffffffff80600435116102b5573660236004350112156102b557600435600401359081116102b557366024826004350101116102b55760ff60085416611dfb577f00000000000000000000000000000000000000000000000000000000000000003410611db757815490610a967f000000000000000000000000000000000000000000000000000000000000000080936122b4565b917f0000000000000000000000000000000000000000000000000000000000000000809311611d72573384526001602052610af660408520547f0000000000000000000000000000000000000000000000000000000000000000906122b4565b4210611d2e5733845260036020526040842054620151808101809111611cac57421015611d10575b3384526002602052610b348160408620546122b4565b7f000000000000000000000000000000000000000000000000000000000000000010611cc0573384526001602052426040852055600260205260408420610b7c8282546122b4565b9055610b898185546122b4565b8455338452600660205260408420610ba23482546122b4565b9055338452600760205260408420610bbb8282546122b4565b9055338452600560205260408420805460ff811615611c8a575b50507f00000000000000000000000000000000000000000000000000000000000000006001600160a01b03163b15611c86576040516340c10f1960e01b8152336004820152602481018290528481604481836001600160a01b037f0000000000000000000000000000000000000000000000000000000000000000165af18015611c7b57611c48575b507fbf17f40327ab4320cdfaa84231ada95fb1ba0d2d336edd47510a8207786f9c12906040519060608252836060830152836024600435016080840137856080858401015260208201524260408201526080813394601f80199101168101030190a281541015610ccb5780f35b6008805460ff19166001179055477f00000000000000000000000000000000000000000000000000000000000000006001600160a01b03163b156102b5576040516340c10f1960e01b81523060048201527f0000000000000000000000000000000000000000000000000000000000000000602482015282908181604481836001600160a01b037f0000000000000000000000000000000000000000000000000000000000000000165af1801561077a57611c34575b50506000805160206126358339815191523b156102b557604051630d0e30db60e41b815282908181600481866000805160206126358339815191525af1801561077a57611c20575b507f000000000000000000000000000000000000000000000000000000000000000090506001811615158381611c18575b60028316611c0a575b60048316611bfc575b60088316611bee575b80927f00000000000000000000000000000000000000000000000000000000000000009185936117f6575b508560028216611593575b50600481166112e1575b600816610ee3575b505050604051907f0000000000000000000000000000000000000000000000000000000000000000825260208201524260408201527f74ddd6b35eb9921605ec2cb7da4af12cd0020d2117b708ade1d30523471b7441606060018060a01b037f00000000000000000000000000000000000000000000000000000000000000001692a280f35b82610f17610f1d9260ff610f09961694610f11610f00878461246b565b9788978361246b565b9788936122d7565b506122d7565b5061248b565b506000805160206126358339815191527f00000000000000000000000000000000000000000000000000000000000000006001600160a01b0316109081156112a1577f00000000000000000000000000000000000000000000000000000000000000006001600160a01b031692600080516020612635833981519152925b1561129a579081815b60405163095ea7b360e01b815273be59000f37677d96115f397c91834dcb72dfc279600482015260248101919091526020816044818b7f00000000000000000000000000000000000000000000000000000000000000006001600160a01b03165af1801561128f57611270575b506040519063095ea7b360e01b825273be59000f37677d96115f397c91834dcb72dfc279600483015260248201526020816044818a6000805160206126358339815191525af1801561123657611241575b506110b3602061107284846125a2565b6040516309f56ab160e11b81526001600160a01b0380891660048301528088166024830152610bb86044830152909116606482015291829081906084820190565b03818a73be59000f37677d96115f397c91834dcb72dfc2795af1908115611236578791611207575b5060018060a01b03166bffffffffffffffffffffffff60a01b600b541617600b5561012c4201928342116111f357604051946111168661242c565b60018060a01b0316855260018060a01b03166020850152610bb86040850152620d89b3196060850152620d89b4608085015260a084015260c08301528360e0830152836101008301523061012083015261014082015261118760405191634418b22b60e11b8352600483019061251e565b608081610164818673be59000f37677d96115f397c91834dcb72dfc2795af180156111e8576111b8575b8080610e5d565b6111d99060803d6080116111e1575b6111d18183612449565b8101906124e3565b5050506111b1565b503d6111c7565b6040513d85823e3d90fd5b634e487b7160e01b87526011600452602487fd5b611229915060203d60201161122f575b6112218183612449565b8101906124c4565b386110db565b503d611217565b6040513d89823e3d90fd5b6112629060203d602011611269575b61125a8183612449565b8101906124ac565b5038611062565b503d611250565b6112889060203d6020116112695761125a8183612449565b5038611011565b6040513d8a823e3d90fd5b8082610fa4565b600080516020612635833981519152927f00000000000000000000000000000000000000000000000000000000000000006001600160a01b031692610f9b565b83929161131c61131660ff6113089716926113106112ff858361246b565b9889958861246b565b9485926122d7565b956122d7565b9461248b565b60405163e343361560e01b81527f00000000000000000000000000000000000000000000000000000000000000006001600160a01b031660048201526000805160206126358339815191526024820152909590916020836044818c733714f242fe169ab5eb0d763cf79aeaca5f727e7b5af1928315611588578993611567575b50600a80546001600160a01b0319166001600160a01b03851690811790915560405163095ea7b360e01b8152600481019190915260248101839052602081806044810103818d7f00000000000000000000000000000000000000000000000000000000000000006001600160a01b03165af1801561153d57611548575b5060405163095ea7b360e01b81526001600160a01b038416600482015260248101829052916020836044818d6000805160206126358339815191525af192831561153d57602093611520575b506000805160206126358339815191527f00000000000000000000000000000000000000000000000000000000000000006001600160a01b03161015611517576064905b8a60405195869485936321ec87bf60e21b85526004850152602484015230604484015260018060a01b03165af18015611236576114e7575b50610e55565b602090813d8311611510575b6114fd8183612449565b8101031261150b57386114e1565b600080fd5b503d6114f3565b906064906114a9565b61153690843d86116112695761125a8183612449565b5038611465565b6040513d8c823e3d90fd5b6115609060203d6020116112695761125a8183612449565b5038611419565b61158191935060203d60201161122f576112218183612449565b913861139c565b6040513d8b823e3d90fd5b8493926115c66115c060ff6113089816926115ba6115b1858361246b565b998a958961246b565b966122d7565b9561248b565b6040516364e329cb60e11b81527f00000000000000000000000000000000000000000000000000000000000000006001600160a01b031660048201526000805160206126358339815191526024820152909690916020836044818773b56b00c38ef85633a789644415a16b4c8ea12ef85af19182156117c9576116959385936117d4575b50600980546001600160a01b0319166001600160a01b03851690811790915560405163a9059cbb60e01b81526004810191909152602481019190915292602090849081906044820190565b0381877f00000000000000000000000000000000000000000000000000000000000000006001600160a01b03165af19081156117c957611708936020926117ac575b5060405163a9059cbb60e01b81526001600160a01b0384166004820152602481019190915292839081906044820190565b0381866000805160206126358339815191525af19182156111e85760209261178f575b506040516335313c2160e11b815230600482015292839160249183916001600160a01b03165af1801561123657611764575b5085610e4b565b602090813d8311611788575b61177a8183612449565b8101031261150b573861175d565b503d611770565b6117a590833d85116112695761125a8183612449565b503861172b565b6117c290833d85116112695761125a8183612449565b50386116d7565b6040513d86823e3d90fd5b60209193506117ef90823d841161122f576112218183612449565b929061164a565b925092505060ff811661183361182c827f000000000000000000000000000000000000000000000000000000000000000061246b565b918561246b565b9261185e827f00000000000000000000000000000000000000000000000000000000000000006122d7565b9161186c61131686886122d7565b946000805160206126358339815191527f00000000000000000000000000000000000000000000000000000000000000006001600160a01b031610918215611bae577f00000000000000000000000000000000000000000000000000000000000000006001600160a01b031692600080516020612635833981519152905b15611ba4578982845b60405163095ea7b360e01b81527377c39eb310be31e60068ce29855f83359bf85fc460048201526024810192909252602082604481867f00000000000000000000000000000000000000000000000000000000000000006001600160a01b03165af19182156111e857602092611b87575b5060446040518094819363095ea7b360e01b83527377c39eb310be31e60068ce29855f83359bf85fc4600484015260248301526000805160206126358339815191525af18015611b5d57611b68575b50611a0860206119c385856125a2565b6040516309f56ab160e11b81526001600160a01b0380891660048301528086166024830152610bb8604483015290911660648201529182908d90829081906084820190565b03917377c39eb310be31e60068ce29855f83359bf85fc45af1908115611b5d578b91611b3e575b5060088054610100600160a81b03191691811b610100600160a81b03169190911790554261012c810110611b2a5760405193611a6a8561242c565b60018060a01b0316845260018060a01b03166020840152610bb86040840152620d89b3196060840152620d89b4608084015260a083015260c08201528660e0820152866101008201523061012082015261012c4201610140820152611ae060405191634418b22b60e11b8352600483019061251e565b608081610164818a7377c39eb310be31e60068ce29855f83359bf85fc45af180156112365715610e4057611b229060803d6080116111e1576111d18183612449565b505050610e40565b634e487b7160e01b8a52601160045260248afd5b611b57915060203d60201161122f576112218183612449565b38611a2f565b6040513d8d823e3d90fd5b611b809060203d6020116112695761125a8183612449565b50386119b3565b611b9d90833d85116112695761125a8183612449565b5038611964565b89839280946118f3565b600080516020612635833981519152927f00000000000000000000000000000000000000000000000000000000000000006001600160a01b0316906118ea565b611bf79061249b565b610e15565b611c059061249b565b610e0c565b611c139061249b565b610e03565b506001610dfa565b611c2990612402565b6102b5578138610dc9565b611c3d90612402565b6102b5578138610d81565b93611c747fbf17f40327ab4320cdfaa84231ada95fb1ba0d2d336edd47510a8207786f9c129295612402565b9390610c5e565b6040513d87823e3d90fd5b8380fd5b60ff191660011790556004546000198114611cac576001016004553880610bd5565b634e487b7160e01b85526011600452602485fd5b60405162461bcd60e51b815260206004820152602260248201527f546f6b656e4c61756e636865723a206461696c79206c696d6974207265616368604482015261195960f21b6064820152608490fd5b33845260036020524260408520556002602052836040812055610b1e565b606460405162461bcd60e51b815260206004820152602060248201527f546f6b656e4c61756e636865723a20636f6f6c646f776e206e6f74206f7665726044820152fd5b60405162461bcd60e51b815260206004820152601e60248201527f546f6b656e4c61756e636865723a206d696e696e6720636f6d706c65746500006044820152606490fd5b606460405162461bcd60e51b815260206004820152602060248201527f546f6b656e4c61756e636865723a2055534443206665652072657175697265646044820152fd5b60405162461bcd60e51b815260206004820152602a60248201527f546f6b656e2068617320677261647561746564202d2073776170206f6e20554e6044820152694954464c4f572056332160b01b6064820152608490fd5b5034610275578060031936011261027557602060405160088152f35b5034610275578060031936011261027557602060405160ff7f0000000000000000000000000000000000000000000000000000000000000000168152f35b503461027557806003193601126102755760ff600854161580611ed8575b6020906040519015158152f35b506020611f257f00000000000000000000000000000000000000000000000000000000000000007f00000000000000000000000000000000000000000000000000000000000000006122b4565b4211159050611ecb565b50346102755780600319360112610275576020600454604051908152f35b503461027557602036600319011261027557600435906001600160a01b03821682036102755760206103b883612386565b61225a565b5034610275578060031936011261027557602060405160048152f35b5034610275578060031936011261027557602060405173be59000f37677d96115f397c91834dcb72dfc2798152f35b503461027557806003193601126102755760209054604051908152f35b503461027557806003193601126102755760206040516000805160206126358339815191528152f35b5034610275576020366003190112610275576004356001600160a01b038116908190036102b55760408260ff9260209452600584522054166040519015158152f35b50346102755780600319360112610275576009546040516001600160a01b039091168152602090f35b5034610275578060031936011261027557602060405160018152f35b5034610275576020366003190112610275576004356001600160a01b038116908190036102b5578160409160209352600283522054604051908152f35b503461027557806003193601126102755760206040517f00000000000000000000000000000000000000000000000000000000000000008152f35b503461027557806003193601126102755760206040517377c39eb310be31e60068ce29855f83359bf85fc48152f35b503461027557602036600319011261027557600435906001600160a01b03821682036102755760206103b8836122e4565b5034610275576020366003190112610275576004356001600160a01b038116908190036102b5578160409160209352600683522054604051908152f35b5034610275576020366003190112610275576004356001600160a01b038116908190036102b5578160409160209352600383522054604051908152f35b503461027557806003193601126102755760088054604051911c6001600160a01b03168152602090f35b9050346102b557816003193601126102b5577f00000000000000000000000000000000000000000000000000000000000000006001600160a01b03168152602090f35b3461150b57600036600319011261150b576020604051620d89b48152f35b3461150b57600036600319011261150b576020604051620d89b3198152f35b3461150b57600036600319011261150b576020604051610bb88152f35b919082018092116122c157565b634e487b7160e01b600052601160045260246000fd5b919082039182116122c157565b6001600160a01b03166000818152600360205260408120549091906201518081019081106123725742101561234c57816040916123499352600260205220547f00000000000000000000000000000000000000000000000000000000000000006122d7565b90565b50507f000000000000000000000000000000000000000000000000000000000000000090565b634e487b7160e01b83526011600452602483fd5b60ff600854166123fc576123da7f00000000000000000000000000000000000000000000000000000000000000007f00000000000000000000000000000000000000000000000000000000000000006122b4565b4211156123fc576001600160a01b031660009081526006602052604090205490565b50600090565b67ffffffffffffffff811161241657604052565b634e487b7160e01b600052604160045260246000fd5b610160810190811067ffffffffffffffff82111761241657604052565b90601f8019910116810190811067ffffffffffffffff82111761241657604052565b8115612475570490565b634e487b7160e01b600052601260045260246000fd5b60ff1680156122c1576000190190565b60ff1660ff81146122c15760010190565b9081602091031261150b5751801515810361150b5790565b9081602091031261150b57516001600160a01b038116810361150b5790565b919082608091031261150b5781519160208101516fffffffffffffffffffffffffffffffff8116810361150b57916060604083015192015190565b60018060a01b0380825116835280602083015116602084015262ffffff6040830151166040840152606082015160020b6060840152608082015160020b608084015260a082015160a084015260c082015160c084015260e082015160e084015261010080830151908401526101209081830151169083015261014080910151910152565b801580156125df575b6125d4576001600160a01b03916125cd916125c89160601b61246b565b6125e7565b60301b1690565b50600160601b919050565b5081156125ab565b90811561262e5760018260011c600181018091116122c15790835b84831061260e57505050565b9091935061262584612620818461246b565b6122b4565b821c9190612602565b6000915056fe000000000000000000000000911b4000d3422f482f4062a913885f7b035382dfa264697066735822122068cb183a5866f9da00f57ca409803ab3213b4dd23b07825d641963610dc2842564736f6c63430008180033","opcodes":"PUSH2 0x1E0 PUSH1 0x40 DUP2 DUP2 MSTORE CALLVALUE PUSH3 0x386 JUMPI DUP2 PUSH3 0x2A65 DUP1 CODESIZE SUB DUP1 SWAP2 PUSH3 0x23 DUP3 DUP6 PUSH3 0x38B JUMP JUMPDEST DUP4 CODECOPY PUSH2 0x100 SWAP4 DUP5 SWAP2 DUP2 ADD SUB SLT PUSH3 0x386 JUMPI PUSH3 0x3F DUP2 PUSH3 0x3C5 JUMP JUMPDEST SWAP1 PUSH1 0x20 PUSH3 0x4F DUP2 DUP4 ADD PUSH3 0x3C5 JUMP JUMPDEST SWAP4 DUP1 DUP4 ADD MLOAD SWAP1 PUSH1 0x60 DUP5 ADD MLOAD SWAP1 PUSH1 0x80 DUP6 ADD MLOAD SWAP7 PUSH1 0xA0 DUP7 ADD MLOAD SWAP3 PUSH1 0xE0 PUSH1 0xC0 DUP9 ADD MLOAD SWAP8 ADD MLOAD SWAP8 PUSH1 0xFF DUP10 AND DUP1 DUP11 SUB PUSH3 0x386 JUMPI DUP1 ISZERO ISZERO SWAP1 DUP2 PUSH3 0x379 JUMPI JUMPDEST POP ISZERO PUSH3 0x335 JUMPI PUSH1 0x1 PUSH1 0x1 PUSH1 0xA0 SHL SUB AND PUSH1 0x80 DUP2 SWAP1 MSTORE PUSH1 0xA0 SWAP3 SWAP1 SWAP3 MSTORE TIMESTAMP PUSH1 0xC0 MSTORE PUSH1 0xE0 DUP6 SWAP1 MSTORE DUP10 MSTORE PUSH2 0x120 SWAP8 DUP9 MSTORE PUSH2 0x140 SWAP3 DUP4 MSTORE PUSH2 0x1A0 SWAP6 DUP7 MSTORE PUSH2 0x1C0 SWAP7 DUP8 MSTORE DUP2 MLOAD PUSH4 0xD5ABEB01 PUSH1 0xE0 SHL DUP2 MSTORE SWAP1 DUP6 SWAP1 DUP3 SWAP1 PUSH1 0x4 SWAP1 DUP3 SWAP1 GAS STATICCALL SWAP5 DUP6 ISZERO PUSH3 0x32A JUMPI PUSH1 0x0 SWAP6 PUSH3 0x2F0 JUMPI JUMPDEST POP POP PUSH1 0x5F DUP5 MUL DUP5 DUP2 DIV PUSH1 0x5F EQ DUP6 ISZERO OR ISZERO PUSH3 0x2C4 JUMPI DUP4 ISZERO PUSH3 0x2DA JUMPI PUSH1 0x64 DUP5 SWAP2 DIV DIV DUP4 DUP2 MUL SWAP4 DUP2 DUP6 DIV EQ SWAP1 ISZERO OR ISZERO PUSH3 0x2C4 JUMPI PUSH2 0x160 SWAP3 DUP1 DUP5 MSTORE DUP5 SUB SWAP4 DUP5 GT PUSH3 0x2C4 JUMPI PUSH2 0x180 SWAP4 DUP5 MSTORE MLOAD SWAP6 PUSH2 0x268A SWAP8 DUP9 PUSH3 0x3DB DUP10 CODECOPY PUSH1 0x80 MLOAD DUP9 DUP2 DUP2 PUSH2 0x246 ADD MSTORE DUP2 DUP2 PUSH2 0x61E ADD MSTORE DUP2 DUP2 PUSH2 0xBD9 ADD MSTORE DUP2 DUP2 PUSH2 0xC31 ADD MSTORE DUP2 DUP2 PUSH2 0xCDB ADD MSTORE DUP2 DUP2 PUSH2 0xD54 ADD MSTORE DUP2 DUP2 PUSH2 0xEBE ADD MSTORE DUP2 DUP2 PUSH2 0xF2F ADD MSTORE DUP2 DUP2 PUSH2 0xF61 ADD MSTORE DUP2 DUP2 PUSH2 0xFDC ADD MSTORE DUP2 DUP2 PUSH2 0x12B3 ADD MSTORE DUP2 DUP2 PUSH2 0x132B ADD MSTORE DUP2 DUP2 PUSH2 0x13E4 ADD MSTORE DUP2 DUP2 PUSH2 0x1477 ADD MSTORE DUP2 DUP2 PUSH2 0x15D5 ADD MSTORE DUP2 DUP2 PUSH2 0x169A ADD MSTORE DUP2 DUP2 PUSH2 0x187E ADD MSTORE DUP2 DUP2 PUSH2 0x18B0 ADD MSTORE DUP2 DUP2 PUSH2 0x192B ADD MSTORE PUSH2 0x1BC0 ADD MSTORE PUSH1 0xA0 MLOAD DUP9 PUSH2 0x222B ADD MSTORE PUSH1 0xC0 MLOAD DUP9 DUP2 DUP2 PUSH2 0x394 ADD MSTORE DUP2 DUP2 PUSH2 0x4D4 ADD MSTORE DUP2 DUP2 PUSH2 0x5AE ADD MSTORE DUP2 DUP2 PUSH2 0x1F01 ADD MSTORE PUSH2 0x23B6 ADD MSTORE PUSH1 0xE0 MLOAD DUP9 DUP2 DUP2 PUSH2 0xA70 ADD MSTORE PUSH2 0x20F0 ADD MSTORE MLOAD DUP8 DUP2 DUP2 PUSH2 0x43B ADD MSTORE DUP2 DUP2 PUSH2 0x54A ADD MSTORE PUSH2 0xAD1 ADD MSTORE MLOAD DUP7 DUP2 DUP2 PUSH2 0x3D8 ADD MSTORE DUP2 DUP2 PUSH2 0xB36 ADD MSTORE DUP2 DUP2 PUSH2 0x2325 ADD MSTORE PUSH2 0x2350 ADD MSTORE MLOAD DUP6 DUP2 DUP2 PUSH2 0x891 ADD MSTORE PUSH2 0xA43 ADD MSTORE MLOAD DUP5 DUP2 DUP2 PUSH2 0x312 ADD MSTORE DUP2 DUP2 PUSH2 0x499 ADD MSTORE PUSH2 0xA99 ADD MSTORE MLOAD DUP4 DUP2 DUP2 PUSH2 0x8CC ADD MSTORE DUP2 DUP2 PUSH2 0xD1E ADD MSTORE DUP2 DUP2 PUSH2 0xE19 ADD MSTORE DUP2 DUP2 PUSH2 0xE66 ADD MSTORE DUP2 DUP2 PUSH2 0x1808 ADD MSTORE PUSH2 0x183A ADD MSTORE MLOAD DUP3 DUP2 DUP2 PUSH2 0x373 ADD MSTORE DUP2 DUP2 PUSH2 0x50F ADD MSTORE DUP2 DUP2 PUSH2 0x58D ADD MSTORE DUP2 DUP2 PUSH2 0x1EE0 ADD MSTORE PUSH2 0x2395 ADD MSTORE MLOAD DUP2 DUP2 DUP2 PUSH2 0xDCC ADD MSTORE PUSH2 0x1E89 ADD MSTORE RETURN JUMPDEST PUSH4 0x4E487B71 PUSH1 0xE0 SHL PUSH1 0x0 MSTORE PUSH1 0x11 PUSH1 0x4 MSTORE PUSH1 0x24 PUSH1 0x0 REVERT JUMPDEST PUSH4 0x4E487B71 PUSH1 0xE0 SHL PUSH1 0x0 MSTORE PUSH1 0x12 PUSH1 0x4 MSTORE PUSH1 0x24 PUSH1 0x0 REVERT JUMPDEST DUP2 DUP2 SWAP7 SWAP3 SWAP4 SWAP7 RETURNDATASIZE DUP4 GT PUSH3 0x322 JUMPI JUMPDEST PUSH3 0x30B DUP2 DUP4 PUSH3 0x38B JUMP JUMPDEST DUP2 ADD SUB SLT PUSH3 0x31F JUMPI POP MLOAD SWAP3 CODESIZE DUP1 PUSH3 0xF0 JUMP JUMPDEST DUP1 REVERT JUMPDEST POP RETURNDATASIZE PUSH3 0x2FF JUMP JUMPDEST DUP3 MLOAD RETURNDATASIZE PUSH1 0x0 DUP3 RETURNDATACOPY RETURNDATASIZE SWAP1 REVERT JUMPDEST DUP4 MLOAD PUSH3 0x461BCD PUSH1 0xE5 SHL DUP2 MSTORE PUSH1 0x4 DUP2 ADD DUP9 SWAP1 MSTORE PUSH1 0x1F PUSH1 0x24 DUP3 ADD MSTORE PUSH32 0x546F6B656E4C61756E636865723A20696E76616C696420616D6D466C61677300 PUSH1 0x44 DUP3 ADD MSTORE PUSH1 0x64 SWAP1 REVERT JUMPDEST PUSH1 0xF SWAP2 POP GT ISZERO CODESIZE PUSH3 0x89 JUMP JUMPDEST PUSH1 0x0 DUP1 REVERT JUMPDEST PUSH1 0x1F SWAP1 SWAP2 ADD PUSH1 0x1F NOT AND DUP2 ADD SWAP1 PUSH1 0x1 PUSH1 0x1 PUSH1 0x40 SHL SUB DUP3 GT SWAP1 DUP3 LT OR PUSH3 0x3AF JUMPI PUSH1 0x40 MSTORE JUMP JUMPDEST PUSH4 0x4E487B71 PUSH1 0xE0 SHL PUSH1 0x0 MSTORE PUSH1 0x41 PUSH1 0x4 MSTORE PUSH1 0x24 PUSH1 0x0 REVERT JUMPDEST MLOAD SWAP1 PUSH1 0x1 PUSH1 0x1 PUSH1 0xA0 SHL SUB DUP3 AND DUP3 SUB PUSH3 0x386 JUMPI JUMP INVALID PUSH1 0x80 DUP1 PUSH1 0x40 MSTORE PUSH1 0x4 CALLDATASIZE LT ISZERO PUSH2 0x13 JUMPI PUSH1 0x0 DUP1 REVERT JUMPDEST PUSH1 0x0 SWAP1 DUP2 CALLDATALOAD PUSH1 0xE0 SHR SWAP1 DUP2 PUSH4 0x2D05D3F EQ PUSH2 0x2217 JUMPI POP DUP1 PUSH4 0x1755FF21 EQ PUSH2 0x21ED JUMPI DUP1 PUSH4 0x189AB242 EQ PUSH2 0x21B0 JUMPI DUP1 PUSH4 0x1A561D7D EQ PUSH2 0x2173 JUMPI DUP1 PUSH4 0x1B583F90 EQ PUSH2 0x2142 JUMPI DUP1 PUSH4 0x1BEA83FE EQ PUSH2 0x2113 JUMPI DUP1 PUSH4 0x1CA944E9 EQ PUSH2 0x20D8 JUMPI DUP1 PUSH4 0x239F3AF7 EQ PUSH2 0x1F7E JUMPI DUP1 PUSH4 0x24A1E060 EQ PUSH2 0x209B JUMPI DUP1 PUSH4 0x262D8F38 EQ PUSH2 0x207F JUMPI DUP1 PUSH4 0x2ACE0730 EQ PUSH2 0x2056 JUMPI DUP1 PUSH4 0x47377D92 EQ PUSH2 0x976 JUMPI DUP1 PUSH4 0x518263A1 EQ PUSH2 0x2014 JUMPI DUP1 PUSH4 0x519BDE94 EQ PUSH2 0x1FEB JUMPI DUP1 PUSH4 0x5556DB65 EQ PUSH2 0x1FCE JUMPI DUP1 PUSH4 0x5E9CFB00 EQ PUSH2 0x1F9F JUMPI DUP1 PUSH4 0x67D11979 EQ PUSH2 0x1F83 JUMPI DUP1 PUSH4 0x6A926102 EQ PUSH2 0x1F7E JUMPI DUP1 PUSH4 0x6E1E063F EQ PUSH2 0x1F4D JUMPI DUP1 PUSH4 0x764FE7D1 EQ PUSH2 0x1F2F JUMPI DUP1 PUSH4 0x77C5FD7F EQ PUSH2 0x1EAD JUMPI DUP1 PUSH4 0x7B881515 EQ PUSH2 0x1E6F JUMPI DUP1 PUSH4 0x7FB0CF0E EQ PUSH2 0x1E53 JUMPI DUP1 PUSH4 0x841819DF EQ PUSH2 0x9EF JUMPI DUP1 PUSH4 0x8CB4997D EQ PUSH2 0x9C6 JUMPI DUP1 PUSH4 0x99D8FAE3 EQ PUSH2 0x997 JUMPI DUP1 PUSH4 0x9E7C6694 EQ PUSH2 0x97B JUMPI DUP1 PUSH4 0xA4155B44 EQ PUSH2 0x976 JUMPI DUP1 PUSH4 0xA6B0A718 EQ PUSH2 0x947 JUMPI DUP1 PUSH4 0xA82ED9EC EQ PUSH2 0x918 JUMPI DUP1 PUSH4 0xAAC4DAAC EQ PUSH2 0x8EF JUMPI DUP1 PUSH4 0xADA29FA9 EQ PUSH2 0x8B4 JUMPI DUP1 PUSH4 0xB14E5791 EQ PUSH2 0x879 JUMPI DUP1 PUSH4 0xB5545A3C EQ PUSH2 0x56D JUMPI DUP1 PUSH4 0xB8221BC4 EQ PUSH2 0x532 JUMPI DUP1 PUSH4 0xC6E8EBD8 EQ PUSH2 0x4F7 JUMPI DUP1 PUSH4 0xCF09E0D0 EQ PUSH2 0x4BC JUMPI DUP1 PUSH4 0xD6FB1678 EQ PUSH2 0x481 JUMPI DUP1 PUSH4 0xD83F5CEC EQ PUSH2 0x400 JUMPI DUP1 PUSH4 0xD9F8CE05 EQ PUSH2 0x3FB JUMPI DUP1 PUSH4 0xDD1B9C4A EQ PUSH2 0x3FB JUMPI DUP1 PUSH4 0xE0F67BC7 EQ PUSH2 0x3C0 JUMPI DUP1 PUSH4 0xE1AA1BCC EQ PUSH2 0x35B JUMPI DUP1 PUSH4 0xE7C2B772 EQ PUSH2 0x338 JUMPI DUP1 PUSH4 0xEBBA348B EQ PUSH2 0x2F6 JUMPI DUP1 PUSH4 0xEE6B373B EQ PUSH2 0x2B9 JUMPI DUP1 PUSH4 0xF6A50850 EQ PUSH2 0x278 JUMPI PUSH4 0xFC0C546A EQ PUSH2 0x231 JUMPI PUSH1 0x0 DUP1 REVERT JUMPDEST CALLVALUE PUSH2 0x275 JUMPI DUP1 PUSH1 0x3 NOT CALLDATASIZE ADD SLT PUSH2 0x275 JUMPI PUSH1 0x40 MLOAD PUSH32 0x0 PUSH1 0x1 PUSH1 0x1 PUSH1 0xA0 SHL SUB AND DUP2 MSTORE PUSH1 0x20 SWAP1 RETURN JUMPDEST DUP1 REVERT JUMPDEST POP CALLVALUE PUSH2 0x275 JUMPI PUSH1 0x20 CALLDATASIZE PUSH1 0x3 NOT ADD SLT PUSH2 0x275 JUMPI PUSH1 0x4 CALLDATALOAD PUSH1 0x1 PUSH1 0x1 PUSH1 0xA0 SHL SUB DUP2 AND SWAP1 DUP2 SWAP1 SUB PUSH2 0x2B5 JUMPI DUP2 PUSH1 0x40 SWAP2 PUSH1 0x20 SWAP4 MSTORE PUSH1 0x7 DUP4 MSTORE KECCAK256 SLOAD PUSH1 0x40 MLOAD SWAP1 DUP2 MSTORE RETURN JUMPDEST POP DUP1 REVERT JUMPDEST POP CALLVALUE PUSH2 0x275 JUMPI PUSH1 0x20 CALLDATASIZE PUSH1 0x3 NOT ADD SLT PUSH2 0x275 JUMPI PUSH1 0x4 CALLDATALOAD PUSH1 0x1 PUSH1 0x1 PUSH1 0xA0 SHL SUB DUP2 AND SWAP1 DUP2 SWAP1 SUB PUSH2 0x2B5 JUMPI DUP2 PUSH1 0x40 SWAP2 PUSH1 0x20 SWAP4 MSTORE PUSH1 0x1 DUP4 MSTORE KECCAK256 SLOAD PUSH1 0x40 MLOAD SWAP1 DUP2 MSTORE RETURN JUMPDEST POP CALLVALUE PUSH2 0x275 JUMPI DUP1 PUSH1 0x3 NOT CALLDATASIZE ADD SLT PUSH2 0x275 JUMPI PUSH1 0x40 SWAP1 SLOAD DUP2 MLOAD SWAP1 DUP2 MSTORE PUSH32 0x0 PUSH1 0x20 DUP3 ADD MSTORE RETURN JUMPDEST POP CALLVALUE PUSH2 0x275 JUMPI DUP1 PUSH1 0x3 NOT CALLDATASIZE ADD SLT PUSH2 0x275 JUMPI PUSH1 0x20 PUSH1 0xFF PUSH1 0x8 SLOAD AND PUSH1 0x40 MLOAD SWAP1 ISZERO ISZERO DUP2 MSTORE RETURN JUMPDEST POP CALLVALUE PUSH2 0x275 JUMPI DUP1 PUSH1 0x3 NOT CALLDATASIZE ADD SLT PUSH2 0x275 JUMPI PUSH1 0x20 PUSH2 0x3B8 PUSH32 0x0 PUSH32 0x0 PUSH2 0x22B4 JUMP JUMPDEST PUSH1 0x40 MLOAD SWAP1 DUP2 MSTORE RETURN JUMPDEST POP CALLVALUE PUSH2 0x275 JUMPI DUP1 PUSH1 0x3 NOT CALLDATASIZE ADD SLT PUSH2 0x275 JUMPI PUSH1 0x20 PUSH1 0x40 MLOAD PUSH32 0x0 DUP2 MSTORE RETURN JUMPDEST PUSH2 0x2297 JUMP JUMPDEST POP CALLVALUE PUSH2 0x275 JUMPI PUSH1 0x20 CALLDATASIZE PUSH1 0x3 NOT ADD SLT PUSH2 0x275 JUMPI PUSH1 0x4 CALLDATALOAD PUSH1 0x1 PUSH1 0x1 PUSH1 0xA0 SHL SUB DUP2 AND SWAP1 DUP2 SWAP1 SUB PUSH2 0x2B5 JUMPI SWAP1 PUSH1 0x20 SWAP2 DUP2 MSTORE PUSH1 0x1 DUP3 MSTORE PUSH2 0x460 PUSH1 0x40 DUP3 KECCAK256 SLOAD PUSH32 0x0 SWAP1 PUSH2 0x22B4 JUMP JUMPDEST TIMESTAMP DUP2 GT PUSH2 0x470 JUMPI POP PUSH1 0x40 MLOAD SWAP1 DUP2 MSTORE RETURN JUMPDEST PUSH2 0x47C SWAP2 POP TIMESTAMP SWAP1 PUSH2 0x22D7 JUMP JUMPDEST PUSH2 0x3B8 JUMP JUMPDEST POP CALLVALUE PUSH2 0x275 JUMPI DUP1 PUSH1 0x3 NOT CALLDATASIZE ADD SLT PUSH2 0x275 JUMPI PUSH1 0x20 PUSH1 0x40 MLOAD PUSH32 0x0 DUP2 MSTORE RETURN JUMPDEST POP CALLVALUE PUSH2 0x275 JUMPI DUP1 PUSH1 0x3 NOT CALLDATASIZE ADD SLT PUSH2 0x275 JUMPI PUSH1 0x20 PUSH1 0x40 MLOAD PUSH32 0x0 DUP2 MSTORE RETURN JUMPDEST POP CALLVALUE PUSH2 0x275 JUMPI DUP1 PUSH1 0x3 NOT CALLDATASIZE ADD SLT PUSH2 0x275 JUMPI PUSH1 0x20 PUSH1 0x40 MLOAD PUSH32 0x0 DUP2 MSTORE RETURN JUMPDEST POP CALLVALUE PUSH2 0x275 JUMPI DUP1 PUSH1 0x3 NOT CALLDATASIZE ADD SLT PUSH2 0x275 JUMPI PUSH1 0x20 PUSH1 0x40 MLOAD PUSH32 0x0 DUP2 MSTORE RETURN JUMPDEST POP CALLVALUE PUSH2 0x275 JUMPI DUP1 PUSH1 0x3 NOT CALLDATASIZE ADD SLT PUSH2 0x275 JUMPI PUSH1 0xFF PUSH1 0x8 SLOAD AND PUSH2 0x81D JUMPI PUSH2 0x5D2 PUSH32 0x0 PUSH32 0x0 PUSH2 0x22B4 JUMP JUMPDEST TIMESTAMP GT ISZERO PUSH2 0x7C8 JUMPI CALLER DUP2 MSTORE PUSH1 0x20 PUSH1 0x6 DUP2 MSTORE PUSH1 0x40 DUP3 KECCAK256 SLOAD SWAP1 DUP2 ISZERO PUSH2 0x785 JUMPI CALLER DUP4 MSTORE PUSH1 0x7 DUP2 MSTORE DUP3 PUSH1 0x40 DUP2 KECCAK256 SLOAD PUSH1 0x6 DUP4 MSTORE DUP2 PUSH1 0x40 DUP2 KECCAK256 SSTORE PUSH1 0x7 DUP4 MSTORE DUP2 PUSH1 0x40 DUP2 KECCAK256 SSTORE PUSH2 0x61A DUP2 DUP4 SLOAD PUSH2 0x22D7 JUMP JUMPDEST DUP3 SSTORE PUSH32 0x0 PUSH1 0x1 PUSH1 0x1 PUSH1 0xA0 SHL SUB AND DUP1 EXTCODESIZE ISZERO PUSH2 0x776 JUMPI PUSH1 0x40 MLOAD PUSH4 0x2770A7EB PUSH1 0xE2 SHL DUP2 MSTORE CALLER PUSH1 0x4 DUP3 ADD MSTORE PUSH1 0x24 DUP2 ADD SWAP3 SWAP1 SWAP3 MSTORE DUP3 SWAP1 DUP3 SWAP1 PUSH1 0x44 SWAP1 DUP3 SWAP1 DUP5 SWAP1 GAS CALL DUP1 ISZERO PUSH2 0x77A JUMPI PUSH2 0x762 JUMPI JUMPDEST POP DUP1 DUP1 DUP1 DUP6 CALLER GAS CALL RETURNDATASIZE ISZERO PUSH2 0x75D JUMPI RETURNDATASIZE PUSH8 0xFFFFFFFFFFFFFFFF DUP2 GT PUSH2 0x749 JUMPI PUSH1 0x40 MLOAD SWAP1 PUSH2 0x6B5 PUSH1 0x1F DUP3 ADD PUSH1 0x1F NOT AND DUP6 ADD DUP4 PUSH2 0x2449 JUMP JUMPDEST DUP2 MSTORE DUP5 DUP4 RETURNDATASIZE SWAP3 ADD RETURNDATACOPY JUMPDEST ISZERO PUSH2 0x6F7 JUMPI PUSH1 0x40 MLOAD SWAP2 DUP3 MSTORE TIMESTAMP SWAP1 DUP3 ADD MSTORE PUSH32 0x5403DB5F5A330D258426B5AEF83E03924750CE4A92D0D341669EFDC33824C44B PUSH1 0x40 CALLER SWAP3 LOG2 DUP1 RETURN JUMPDEST PUSH1 0x84 SWAP1 PUSH1 0x40 MLOAD SWAP1 PUSH3 0x461BCD PUSH1 0xE5 SHL DUP3 MSTORE PUSH1 0x4 DUP3 ADD MSTORE PUSH1 0x25 PUSH1 0x24 DUP3 ADD MSTORE PUSH32 0x546F6B656E4C61756E636865723A20726566756E64207472616E736665722066 PUSH1 0x44 DUP3 ADD MSTORE PUSH5 0x185A5B1959 PUSH1 0xDA SHL PUSH1 0x64 DUP3 ADD MSTORE REVERT JUMPDEST PUSH4 0x4E487B71 PUSH1 0xE0 SHL DUP6 MSTORE PUSH1 0x41 PUSH1 0x4 MSTORE PUSH1 0x24 DUP6 REVERT JUMPDEST PUSH2 0x6BE JUMP JUMPDEST PUSH2 0x76B SWAP1 PUSH2 0x2402 JUMP JUMPDEST PUSH2 0x776 JUMPI DUP3 CODESIZE PUSH2 0x680 JUMP JUMPDEST DUP3 DUP1 REVERT JUMPDEST PUSH1 0x40 MLOAD RETURNDATASIZE DUP5 DUP3 RETURNDATACOPY RETURNDATASIZE SWAP1 REVERT JUMPDEST PUSH1 0x64 SWAP1 PUSH1 0x40 MLOAD SWAP1 PUSH3 0x461BCD PUSH1 0xE5 SHL DUP3 MSTORE DUP1 PUSH1 0x4 DUP4 ADD MSTORE PUSH1 0x24 DUP3 ADD MSTORE PUSH32 0x546F6B656E4C61756E636865723A206E6F7468696E6720746F20726566756E64 PUSH1 0x44 DUP3 ADD MSTORE REVERT JUMPDEST PUSH1 0x40 MLOAD PUSH3 0x461BCD PUSH1 0xE5 SHL DUP2 MSTORE PUSH1 0x20 PUSH1 0x4 DUP3 ADD MSTORE PUSH1 0x27 PUSH1 0x24 DUP3 ADD MSTORE PUSH32 0x546F6B656E4C61756E636865723A206D696E696E672077696E646F7720737469 PUSH1 0x44 DUP3 ADD MSTORE PUSH7 0x36361037B832B7 PUSH1 0xC9 SHL PUSH1 0x64 DUP3 ADD MSTORE PUSH1 0x84 SWAP1 REVERT JUMPDEST PUSH1 0x40 MLOAD PUSH3 0x461BCD PUSH1 0xE5 SHL DUP2 MSTORE PUSH1 0x20 PUSH1 0x4 DUP3 ADD MSTORE PUSH1 0x2E PUSH1 0x24 DUP3 ADD MSTORE PUSH32 0x546F6B656E4C61756E636865723A20746F6B656E206861732067726164756174 PUSH1 0x44 DUP3 ADD MSTORE PUSH14 0x65642C206E6F20726566756E6473 PUSH1 0x90 SHL PUSH1 0x64 DUP3 ADD MSTORE PUSH1 0x84 SWAP1 REVERT JUMPDEST POP CALLVALUE PUSH2 0x275 JUMPI DUP1 PUSH1 0x3 NOT CALLDATASIZE ADD SLT PUSH2 0x275 JUMPI PUSH1 0x20 PUSH1 0x40 MLOAD PUSH32 0x0 DUP2 MSTORE RETURN JUMPDEST POP CALLVALUE PUSH2 0x275 JUMPI DUP1 PUSH1 0x3 NOT CALLDATASIZE ADD SLT PUSH2 0x275 JUMPI PUSH1 0x20 PUSH1 0x40 MLOAD PUSH32 0x0 DUP2 MSTORE RETURN JUMPDEST POP CALLVALUE PUSH2 0x275 JUMPI DUP1 PUSH1 0x3 NOT CALLDATASIZE ADD SLT PUSH2 0x275 JUMPI PUSH1 0xA SLOAD PUSH1 0x40 MLOAD PUSH1 0x1 PUSH1 0x1 PUSH1 0xA0 SHL SUB SWAP1 SWAP2 AND DUP2 MSTORE PUSH1 0x20 SWAP1 RETURN JUMPDEST POP CALLVALUE PUSH2 0x275 JUMPI DUP1 PUSH1 0x3 NOT CALLDATASIZE ADD SLT PUSH2 0x275 JUMPI PUSH1 0x20 PUSH1 0x40 MLOAD PUSH20 0x54599C3E0BCB99CA37B286242B5EC5D331AB9D18 DUP2 MSTORE RETURN JUMPDEST POP CALLVALUE PUSH2 0x275 JUMPI DUP1 PUSH1 0x3 NOT CALLDATASIZE ADD SLT PUSH2 0x275 JUMPI PUSH1 0x20 PUSH1 0x40 MLOAD PUSH20 0x3714F242FE169AB5EB0D763CF79AEACA5F727E7B DUP2 MSTORE RETURN JUMPDEST PUSH2 0x2278 JUMP JUMPDEST POP CALLVALUE PUSH2 0x275 JUMPI DUP1 PUSH1 0x3 NOT CALLDATASIZE ADD SLT PUSH2 0x275 JUMPI PUSH1 0x20 PUSH1 0x40 MLOAD PUSH1 0x2 DUP2 MSTORE RETURN JUMPDEST POP CALLVALUE PUSH2 0x275 JUMPI DUP1 PUSH1 0x3 NOT CALLDATASIZE ADD SLT PUSH2 0x275 JUMPI PUSH1 0x20 PUSH1 0x40 MLOAD PUSH20 0xB56B00C38EF85633A789644415A16B4C8EA12EF8 DUP2 MSTORE RETURN JUMPDEST POP CALLVALUE PUSH2 0x275 JUMPI DUP1 PUSH1 0x3 NOT CALLDATASIZE ADD SLT PUSH2 0x275 JUMPI PUSH1 0xB SLOAD PUSH1 0x40 MLOAD PUSH1 0x1 PUSH1 0x1 PUSH1 0xA0 SHL SUB SWAP1 SWAP2 AND DUP2 MSTORE PUSH1 0x20 SWAP1 RETURN JUMPDEST POP PUSH1 0x20 CALLDATASIZE PUSH1 0x3 NOT ADD SLT PUSH2 0x275 JUMPI PUSH8 0xFFFFFFFFFFFFFFFF DUP1 PUSH1 0x4 CALLDATALOAD GT PUSH2 0x2B5 JUMPI CALLDATASIZE PUSH1 0x23 PUSH1 0x4 CALLDATALOAD ADD SLT ISZERO PUSH2 0x2B5 JUMPI PUSH1 0x4 CALLDATALOAD PUSH1 0x4 ADD CALLDATALOAD SWAP1 DUP2 GT PUSH2 0x2B5 JUMPI CALLDATASIZE PUSH1 0x24 DUP3 PUSH1 0x4 CALLDATALOAD ADD ADD GT PUSH2 0x2B5 JUMPI PUSH1 0xFF PUSH1 0x8 SLOAD AND PUSH2 0x1DFB JUMPI PUSH32 0x0 CALLVALUE LT PUSH2 0x1DB7 JUMPI DUP2 SLOAD SWAP1 PUSH2 0xA96 PUSH32 0x0 DUP1 SWAP4 PUSH2 0x22B4 JUMP JUMPDEST SWAP2 PUSH32 0x0 DUP1 SWAP4 GT PUSH2 0x1D72 JUMPI CALLER DUP5 MSTORE PUSH1 0x1 PUSH1 0x20 MSTORE PUSH2 0xAF6 PUSH1 0x40 DUP6 KECCAK256 SLOAD PUSH32 0x0 SWAP1 PUSH2 0x22B4 JUMP JUMPDEST TIMESTAMP LT PUSH2 0x1D2E JUMPI CALLER DUP5 MSTORE PUSH1 0x3 PUSH1 0x20 MSTORE PUSH1 0x40 DUP5 KECCAK256 SLOAD PUSH3 0x15180 DUP2 ADD DUP1 SWAP2 GT PUSH2 0x1CAC JUMPI TIMESTAMP LT ISZERO PUSH2 0x1D10 JUMPI JUMPDEST CALLER DUP5 MSTORE PUSH1 0x2 PUSH1 0x20 MSTORE PUSH2 0xB34 DUP2 PUSH1 0x40 DUP7 KECCAK256 SLOAD PUSH2 0x22B4 JUMP JUMPDEST PUSH32 0x0 LT PUSH2 0x1CC0 JUMPI CALLER DUP5 MSTORE PUSH1 0x1 PUSH1 0x20 MSTORE TIMESTAMP PUSH1 0x40 DUP6 KECCAK256 SSTORE PUSH1 0x2 PUSH1 0x20 MSTORE PUSH1 0x40 DUP5 KECCAK256 PUSH2 0xB7C DUP3 DUP3 SLOAD PUSH2 0x22B4 JUMP JUMPDEST SWAP1 SSTORE PUSH2 0xB89 DUP2 DUP6 SLOAD PUSH2 0x22B4 JUMP JUMPDEST DUP5 SSTORE CALLER DUP5 MSTORE PUSH1 0x6 PUSH1 0x20 MSTORE PUSH1 0x40 DUP5 KECCAK256 PUSH2 0xBA2 CALLVALUE DUP3 SLOAD PUSH2 0x22B4 JUMP JUMPDEST SWAP1 SSTORE CALLER DUP5 MSTORE PUSH1 0x7 PUSH1 0x20 MSTORE PUSH1 0x40 DUP5 KECCAK256 PUSH2 0xBBB DUP3 DUP3 SLOAD PUSH2 0x22B4 JUMP JUMPDEST SWAP1 SSTORE CALLER DUP5 MSTORE PUSH1 0x5 PUSH1 0x20 MSTORE PUSH1 0x40 DUP5 KECCAK256 DUP1 SLOAD PUSH1 0xFF DUP2 AND ISZERO PUSH2 0x1C8A JUMPI JUMPDEST POP POP PUSH32 0x0 PUSH1 0x1 PUSH1 0x1 PUSH1 0xA0 SHL SUB AND EXTCODESIZE ISZERO PUSH2 0x1C86 JUMPI PUSH1 0x40 MLOAD PUSH4 0x40C10F19 PUSH1 0xE0 SHL DUP2 MSTORE CALLER PUSH1 0x4 DUP3 ADD MSTORE PUSH1 0x24 DUP2 ADD DUP3 SWAP1 MSTORE DUP5 DUP2 PUSH1 0x44 DUP2 DUP4 PUSH1 0x1 PUSH1 0x1 PUSH1 0xA0 SHL SUB PUSH32 0x0 AND GAS CALL DUP1 ISZERO PUSH2 0x1C7B JUMPI PUSH2 0x1C48 JUMPI JUMPDEST POP PUSH32 0xBF17F40327AB4320CDFAA84231ADA95FB1BA0D2D336EDD47510A8207786F9C12 SWAP1 PUSH1 0x40 MLOAD SWAP1 PUSH1 0x60 DUP3 MSTORE DUP4 PUSH1 0x60 DUP4 ADD MSTORE DUP4 PUSH1 0x24 PUSH1 0x4 CALLDATALOAD ADD PUSH1 0x80 DUP5 ADD CALLDATACOPY DUP6 PUSH1 0x80 DUP6 DUP5 ADD ADD MSTORE PUSH1 0x20 DUP3 ADD MSTORE TIMESTAMP PUSH1 0x40 DUP3 ADD MSTORE PUSH1 0x80 DUP2 CALLER SWAP5 PUSH1 0x1F DUP1 NOT SWAP2 ADD AND DUP2 ADD SUB ADD SWAP1 LOG2 DUP2 SLOAD LT ISZERO PUSH2 0xCCB JUMPI DUP1 RETURN JUMPDEST PUSH1 0x8 DUP1 SLOAD PUSH1 0xFF NOT AND PUSH1 0x1 OR SWAP1 SSTORE SELFBALANCE PUSH32 0x0 PUSH1 0x1 PUSH1 0x1 PUSH1 0xA0 SHL SUB AND EXTCODESIZE ISZERO PUSH2 0x2B5 JUMPI PUSH1 0x40 MLOAD PUSH4 0x40C10F19 PUSH1 0xE0 SHL DUP2 MSTORE ADDRESS PUSH1 0x4 DUP3 ADD MSTORE PUSH32 0x0 PUSH1 0x24 DUP3 ADD MSTORE DUP3 SWAP1 DUP2 DUP2 PUSH1 0x44 DUP2 DUP4 PUSH1 0x1 PUSH1 0x1 PUSH1 0xA0 SHL SUB PUSH32 0x0 AND GAS CALL DUP1 ISZERO PUSH2 0x77A JUMPI PUSH2 0x1C34 JUMPI JUMPDEST POP POP PUSH1 0x0 DUP1 MLOAD PUSH1 0x20 PUSH2 0x2635 DUP4 CODECOPY DUP2 MLOAD SWAP2 MSTORE EXTCODESIZE ISZERO PUSH2 0x2B5 JUMPI PUSH1 0x40 MLOAD PUSH4 0xD0E30DB PUSH1 0xE4 SHL DUP2 MSTORE DUP3 SWAP1 DUP2 DUP2 PUSH1 0x4 DUP2 DUP7 PUSH1 0x0 DUP1 MLOAD PUSH1 0x20 PUSH2 0x2635 DUP4 CODECOPY DUP2 MLOAD SWAP2 MSTORE GAS CALL DUP1 ISZERO PUSH2 0x77A JUMPI PUSH2 0x1C20 JUMPI JUMPDEST POP PUSH32 0x0 SWAP1 POP PUSH1 0x1 DUP2 AND ISZERO ISZERO DUP4 DUP2 PUSH2 0x1C18 JUMPI JUMPDEST PUSH1 0x2 DUP4 AND PUSH2 0x1C0A JUMPI JUMPDEST PUSH1 0x4 DUP4 AND PUSH2 0x1BFC JUMPI JUMPDEST PUSH1 0x8 DUP4 AND PUSH2 0x1BEE JUMPI JUMPDEST DUP1 SWAP3 PUSH32 0x0 SWAP2 DUP6 SWAP4 PUSH2 0x17F6 JUMPI JUMPDEST POP DUP6 PUSH1 0x2 DUP3 AND PUSH2 0x1593 JUMPI JUMPDEST POP PUSH1 0x4 DUP2 AND PUSH2 0x12E1 JUMPI JUMPDEST PUSH1 0x8 AND PUSH2 0xEE3 JUMPI JUMPDEST POP POP POP PUSH1 0x40 MLOAD SWAP1 PUSH32 0x0 DUP3 MSTORE PUSH1 0x20 DUP3 ADD MSTORE TIMESTAMP PUSH1 0x40 DUP3 ADD MSTORE PUSH32 0x74DDD6B35EB9921605EC2CB7DA4AF12CD0020D2117B708ADE1D30523471B7441 PUSH1 0x60 PUSH1 0x1 DUP1 PUSH1 0xA0 SHL SUB PUSH32 0x0 AND SWAP3 LOG2 DUP1 RETURN JUMPDEST DUP3 PUSH2 0xF17 PUSH2 0xF1D SWAP3 PUSH1 0xFF PUSH2 0xF09 SWAP7 AND SWAP5 PUSH2 0xF11 PUSH2 0xF00 DUP8 DUP5 PUSH2 0x246B JUMP JUMPDEST SWAP8 DUP9 SWAP8 DUP4 PUSH2 0x246B JUMP JUMPDEST SWAP8 DUP9 SWAP4 PUSH2 0x22D7 JUMP JUMPDEST POP PUSH2 0x22D7 JUMP JUMPDEST POP PUSH2 0x248B JUMP JUMPDEST POP PUSH1 0x0 DUP1 MLOAD PUSH1 0x20 PUSH2 0x2635 DUP4 CODECOPY DUP2 MLOAD SWAP2 MSTORE PUSH32 0x0 PUSH1 0x1 PUSH1 0x1 PUSH1 0xA0 SHL SUB AND LT SWAP1 DUP2 ISZERO PUSH2 0x12A1 JUMPI PUSH32 0x0 PUSH1 0x1 PUSH1 0x1 PUSH1 0xA0 SHL SUB AND SWAP3 PUSH1 0x0 DUP1 MLOAD PUSH1 0x20 PUSH2 0x2635 DUP4 CODECOPY DUP2 MLOAD SWAP2 MSTORE SWAP3 JUMPDEST ISZERO PUSH2 0x129A JUMPI SWAP1 DUP2 DUP2 JUMPDEST PUSH1 0x40 MLOAD PUSH4 0x95EA7B3 PUSH1 0xE0 SHL DUP2 MSTORE PUSH20 0xBE59000F37677D96115F397C91834DCB72DFC279 PUSH1 0x4 DUP3 ADD MSTORE PUSH1 0x24 DUP2 ADD SWAP2 SWAP1 SWAP2 MSTORE PUSH1 0x20 DUP2 PUSH1 0x44 DUP2 DUP12 PUSH32 0x0 PUSH1 0x1 PUSH1 0x1 PUSH1 0xA0 SHL SUB AND GAS CALL DUP1 ISZERO PUSH2 0x128F JUMPI PUSH2 0x1270 JUMPI JUMPDEST POP PUSH1 0x40 MLOAD SWAP1 PUSH4 0x95EA7B3 PUSH1 0xE0 SHL DUP3 MSTORE PUSH20 0xBE59000F37677D96115F397C91834DCB72DFC279 PUSH1 0x4 DUP4 ADD MSTORE PUSH1 0x24 DUP3 ADD MSTORE PUSH1 0x20 DUP2 PUSH1 0x44 DUP2 DUP11 PUSH1 0x0 DUP1 MLOAD PUSH1 0x20 PUSH2 0x2635 DUP4 CODECOPY DUP2 MLOAD SWAP2 MSTORE GAS CALL DUP1 ISZERO PUSH2 0x1236 JUMPI PUSH2 0x1241 JUMPI JUMPDEST POP PUSH2 0x10B3 PUSH1 0x20 PUSH2 0x1072 DUP5 DUP5 PUSH2 0x25A2 JUMP JUMPDEST PUSH1 0x40 MLOAD PUSH4 0x9F56AB1 PUSH1 0xE1 SHL DUP2 MSTORE PUSH1 0x1 PUSH1 0x1 PUSH1 0xA0 SHL SUB DUP1 DUP10 AND PUSH1 0x4 DUP4 ADD MSTORE DUP1 DUP9 AND PUSH1 0x24 DUP4 ADD MSTORE PUSH2 0xBB8 PUSH1 0x44 DUP4 ADD MSTORE SWAP1 SWAP2 AND PUSH1 0x64 DUP3 ADD MSTORE SWAP2 DUP3 SWAP1 DUP2 SWAP1 PUSH1 0x84 DUP3 ADD SWAP1 JUMP JUMPDEST SUB DUP2 DUP11 PUSH20 0xBE59000F37677D96115F397C91834DCB72DFC279 GAS CALL SWAP1 DUP2 ISZERO PUSH2 0x1236 JUMPI DUP8 SWAP2 PUSH2 0x1207 JUMPI JUMPDEST POP PUSH1 0x1 DUP1 PUSH1 0xA0 SHL SUB AND PUSH12 0xFFFFFFFFFFFFFFFFFFFFFFFF PUSH1 0xA0 SHL PUSH1 0xB SLOAD AND OR PUSH1 0xB SSTORE PUSH2 0x12C TIMESTAMP ADD SWAP3 DUP4 TIMESTAMP GT PUSH2 0x11F3 JUMPI PUSH1 0x40 MLOAD SWAP5 PUSH2 0x1116 DUP7 PUSH2 0x242C JUMP JUMPDEST PUSH1 0x1 DUP1 PUSH1 0xA0 SHL SUB AND DUP6 MSTORE PUSH1 0x1 DUP1 PUSH1 0xA0 SHL SUB AND PUSH1 0x20 DUP6 ADD MSTORE PUSH2 0xBB8 PUSH1 0x40 DUP6 ADD MSTORE PUSH3 0xD89B3 NOT PUSH1 0x60 DUP6 ADD MSTORE PUSH3 0xD89B4 PUSH1 0x80 DUP6 ADD MSTORE PUSH1 0xA0 DUP5 ADD MSTORE PUSH1 0xC0 DUP4 ADD MSTORE DUP4 PUSH1 0xE0 DUP4 ADD MSTORE DUP4 PUSH2 0x100 DUP4 ADD MSTORE ADDRESS PUSH2 0x120 DUP4 ADD MSTORE PUSH2 0x140 DUP3 ADD MSTORE PUSH2 0x1187 PUSH1 0x40 MLOAD SWAP2 PUSH4 0x4418B22B PUSH1 0xE1 SHL DUP4 MSTORE PUSH1 0x4 DUP4 ADD SWAP1 PUSH2 0x251E JUMP JUMPDEST PUSH1 0x80 DUP2 PUSH2 0x164 DUP2 DUP7 PUSH20 0xBE59000F37677D96115F397C91834DCB72DFC279 GAS CALL DUP1 ISZERO PUSH2 0x11E8 JUMPI PUSH2 0x11B8 JUMPI JUMPDEST DUP1 DUP1 PUSH2 0xE5D JUMP JUMPDEST PUSH2 0x11D9 SWAP1 PUSH1 0x80 RETURNDATASIZE PUSH1 0x80 GT PUSH2 0x11E1 JUMPI JUMPDEST PUSH2 0x11D1 DUP2 DUP4 PUSH2 0x2449 JUMP JUMPDEST DUP2 ADD SWAP1 PUSH2 0x24E3 JUMP JUMPDEST POP POP POP PUSH2 0x11B1 JUMP JUMPDEST POP RETURNDATASIZE PUSH2 0x11C7 JUMP JUMPDEST PUSH1 0x40 MLOAD RETURNDATASIZE DUP6 DUP3 RETURNDATACOPY RETURNDATASIZE SWAP1 REVERT JUMPDEST PUSH4 0x4E487B71 PUSH1 0xE0 SHL DUP8 MSTORE PUSH1 0x11 PUSH1 0x4 MSTORE PUSH1 0x24 DUP8 REVERT JUMPDEST PUSH2 0x1229 SWAP2 POP PUSH1 0x20 RETURNDATASIZE PUSH1 0x20 GT PUSH2 0x122F JUMPI JUMPDEST PUSH2 0x1221 DUP2 DUP4 PUSH2 0x2449 JUMP JUMPDEST DUP2 ADD SWAP1 PUSH2 0x24C4 JUMP JUMPDEST CODESIZE PUSH2 0x10DB JUMP JUMPDEST POP RETURNDATASIZE PUSH2 0x1217 JUMP JUMPDEST PUSH1 0x40 MLOAD RETURNDATASIZE DUP10 DUP3 RETURNDATACOPY RETURNDATASIZE SWAP1 REVERT JUMPDEST PUSH2 0x1262 SWAP1 PUSH1 0x20 RETURNDATASIZE PUSH1 0x20 GT PUSH2 0x1269 JUMPI JUMPDEST PUSH2 0x125A DUP2 DUP4 PUSH2 0x2449 JUMP JUMPDEST DUP2 ADD SWAP1 PUSH2 0x24AC JUMP JUMPDEST POP CODESIZE PUSH2 0x1062 JUMP JUMPDEST POP RETURNDATASIZE PUSH2 0x1250 JUMP JUMPDEST PUSH2 0x1288 SWAP1 PUSH1 0x20 RETURNDATASIZE PUSH1 0x20 GT PUSH2 0x1269 JUMPI PUSH2 0x125A DUP2 DUP4 PUSH2 0x2449 JUMP JUMPDEST POP CODESIZE PUSH2 0x1011 JUMP JUMPDEST PUSH1 0x40 MLOAD RETURNDATASIZE DUP11 DUP3 RETURNDATACOPY RETURNDATASIZE SWAP1 REVERT JUMPDEST DUP1 DUP3 PUSH2 0xFA4 JUMP JUMPDEST PUSH1 0x0 DUP1 MLOAD PUSH1 0x20 PUSH2 0x2635 DUP4 CODECOPY DUP2 MLOAD SWAP2 MSTORE SWAP3 PUSH32 0x0 PUSH1 0x1 PUSH1 0x1 PUSH1 0xA0 SHL SUB AND SWAP3 PUSH2 0xF9B JUMP JUMPDEST DUP4 SWAP3 SWAP2 PUSH2 0x131C PUSH2 0x1316 PUSH1 0xFF PUSH2 0x1308 SWAP8 AND SWAP3 PUSH2 0x1310 PUSH2 0x12FF DUP6 DUP4 PUSH2 0x246B JUMP JUMPDEST SWAP9 DUP10 SWAP6 DUP9 PUSH2 0x246B JUMP JUMPDEST SWAP5 DUP6 SWAP3 PUSH2 0x22D7 JUMP JUMPDEST SWAP6 PUSH2 0x22D7 JUMP JUMPDEST SWAP5 PUSH2 0x248B JUMP JUMPDEST PUSH1 0x40 MLOAD PUSH4 0xE3433615 PUSH1 0xE0 SHL DUP2 MSTORE PUSH32 0x0 PUSH1 0x1 PUSH1 0x1 PUSH1 0xA0 SHL SUB AND PUSH1 0x4 DUP3 ADD MSTORE PUSH1 0x0 DUP1 MLOAD PUSH1 0x20 PUSH2 0x2635 DUP4 CODECOPY DUP2 MLOAD SWAP2 MSTORE PUSH1 0x24 DUP3 ADD MSTORE SWAP1 SWAP6 SWAP1 SWAP2 PUSH1 0x20 DUP4 PUSH1 0x44 DUP2 DUP13 PUSH20 0x3714F242FE169AB5EB0D763CF79AEACA5F727E7B GAS CALL SWAP3 DUP4 ISZERO PUSH2 0x1588 JUMPI DUP10 SWAP4 PUSH2 0x1567 JUMPI JUMPDEST POP PUSH1 0xA DUP1 SLOAD PUSH1 0x1 PUSH1 0x1 PUSH1 0xA0 SHL SUB NOT AND PUSH1 0x1 PUSH1 0x1 PUSH1 0xA0 SHL SUB DUP6 AND SWAP1 DUP2 OR SWAP1 SWAP2 SSTORE PUSH1 0x40 MLOAD PUSH4 0x95EA7B3 PUSH1 0xE0 SHL DUP2 MSTORE PUSH1 0x4 DUP2 ADD SWAP2 SWAP1 SWAP2 MSTORE PUSH1 0x24 DUP2 ADD DUP4 SWAP1 MSTORE PUSH1 0x20 DUP2 DUP1 PUSH1 0x44 DUP2 ADD SUB DUP2 DUP14 PUSH32 0x0 PUSH1 0x1 PUSH1 0x1 PUSH1 0xA0 SHL SUB AND GAS CALL DUP1 ISZERO PUSH2 0x153D JUMPI PUSH2 0x1548 JUMPI JUMPDEST POP PUSH1 0x40 MLOAD PUSH4 0x95EA7B3 PUSH1 0xE0 SHL DUP2 MSTORE PUSH1 0x1 PUSH1 0x1 PUSH1 0xA0 SHL SUB DUP5 AND PUSH1 0x4 DUP3 ADD MSTORE PUSH1 0x24 DUP2 ADD DUP3 SWAP1 MSTORE SWAP2 PUSH1 0x20 DUP4 PUSH1 0x44 DUP2 DUP14 PUSH1 0x0 DUP1 MLOAD PUSH1 0x20 PUSH2 0x2635 DUP4 CODECOPY DUP2 MLOAD SWAP2 MSTORE GAS CALL SWAP3 DUP4 ISZERO PUSH2 0x153D JUMPI PUSH1 0x20 SWAP4 PUSH2 0x1520 JUMPI JUMPDEST POP PUSH1 0x0 DUP1 MLOAD PUSH1 0x20 PUSH2 0x2635 DUP4 CODECOPY DUP2 MLOAD SWAP2 MSTORE PUSH32 0x0 PUSH1 0x1 PUSH1 0x1 PUSH1 0xA0 SHL SUB AND LT ISZERO PUSH2 0x1517 JUMPI PUSH1 0x64 SWAP1 JUMPDEST DUP11 PUSH1 0x40 MLOAD SWAP6 DUP7 SWAP5 DUP6 SWAP4 PUSH4 0x21EC87BF PUSH1 0xE2 SHL DUP6 MSTORE PUSH1 0x4 DUP6 ADD MSTORE PUSH1 0x24 DUP5 ADD MSTORE ADDRESS PUSH1 0x44 DUP5 ADD MSTORE PUSH1 0x1 DUP1 PUSH1 0xA0 SHL SUB AND GAS CALL DUP1 ISZERO PUSH2 0x1236 JUMPI PUSH2 0x14E7 JUMPI JUMPDEST POP PUSH2 0xE55 JUMP JUMPDEST PUSH1 0x20 SWAP1 DUP2 RETURNDATASIZE DUP4 GT PUSH2 0x1510 JUMPI JUMPDEST PUSH2 0x14FD DUP2 DUP4 PUSH2 0x2449 JUMP JUMPDEST DUP2 ADD SUB SLT PUSH2 0x150B JUMPI CODESIZE PUSH2 0x14E1 JUMP JUMPDEST PUSH1 0x0 DUP1 REVERT JUMPDEST POP RETURNDATASIZE PUSH2 0x14F3 JUMP JUMPDEST SWAP1 PUSH1 0x64 SWAP1 PUSH2 0x14A9 JUMP JUMPDEST PUSH2 0x1536 SWAP1 DUP5 RETURNDATASIZE DUP7 GT PUSH2 0x1269 JUMPI PUSH2 0x125A DUP2 DUP4 PUSH2 0x2449 JUMP JUMPDEST POP CODESIZE PUSH2 0x1465 JUMP JUMPDEST PUSH1 0x40 MLOAD RETURNDATASIZE DUP13 DUP3 RETURNDATACOPY RETURNDATASIZE SWAP1 REVERT JUMPDEST PUSH2 0x1560 SWAP1 PUSH1 0x20 RETURNDATASIZE PUSH1 0x20 GT PUSH2 0x1269 JUMPI PUSH2 0x125A DUP2 DUP4 PUSH2 0x2449 JUMP JUMPDEST POP CODESIZE PUSH2 0x1419 JUMP JUMPDEST PUSH2 0x1581 SWAP2 SWAP4 POP PUSH1 0x20 RETURNDATASIZE PUSH1 0x20 GT PUSH2 0x122F JUMPI PUSH2 0x1221 DUP2 DUP4 PUSH2 0x2449 JUMP JUMPDEST SWAP2 CODESIZE PUSH2 0x139C JUMP JUMPDEST PUSH1 0x40 MLOAD RETURNDATASIZE DUP12 DUP3 RETURNDATACOPY RETURNDATASIZE SWAP1 REVERT JUMPDEST DUP5 SWAP4 SWAP3 PUSH2 0x15C6 PUSH2 0x15C0 PUSH1 0xFF PUSH2 0x1308 SWAP9 AND SWAP3 PUSH2 0x15BA PUSH2 0x15B1 DUP6 DUP4 PUSH2 0x246B JUMP JUMPDEST SWAP10 DUP11 SWAP6 DUP10 PUSH2 0x246B JUMP JUMPDEST SWAP7 PUSH2 0x22D7 JUMP JUMPDEST SWAP6 PUSH2 0x248B JUMP JUMPDEST PUSH1 0x40 MLOAD PUSH4 0x64E329CB PUSH1 0xE1 SHL DUP2 MSTORE PUSH32 0x0 PUSH1 0x1 PUSH1 0x1 PUSH1 0xA0 SHL SUB AND PUSH1 0x4 DUP3 ADD MSTORE PUSH1 0x0 DUP1 MLOAD PUSH1 0x20 PUSH2 0x2635 DUP4 CODECOPY DUP2 MLOAD SWAP2 MSTORE PUSH1 0x24 DUP3 ADD MSTORE SWAP1 SWAP7 SWAP1 SWAP2 PUSH1 0x20 DUP4 PUSH1 0x44 DUP2 DUP8 PUSH20 0xB56B00C38EF85633A789644415A16B4C8EA12EF8 GAS CALL SWAP2 DUP3 ISZERO PUSH2 0x17C9 JUMPI PUSH2 0x1695 SWAP4 DUP6 SWAP4 PUSH2 0x17D4 JUMPI JUMPDEST POP PUSH1 0x9 DUP1 SLOAD PUSH1 0x1 PUSH1 0x1 PUSH1 0xA0 SHL SUB NOT AND PUSH1 0x1 PUSH1 0x1 PUSH1 0xA0 SHL SUB DUP6 AND SWAP1 DUP2 OR SWAP1 SWAP2 SSTORE PUSH1 0x40 MLOAD PUSH4 0xA9059CBB PUSH1 0xE0 SHL DUP2 MSTORE PUSH1 0x4 DUP2 ADD SWAP2 SWAP1 SWAP2 MSTORE PUSH1 0x24 DUP2 ADD SWAP2 SWAP1 SWAP2 MSTORE SWAP3 PUSH1 0x20 SWAP1 DUP5 SWAP1 DUP2 SWAP1 PUSH1 0x44 DUP3 ADD SWAP1 JUMP JUMPDEST SUB DUP2 DUP8 PUSH32 0x0 PUSH1 0x1 PUSH1 0x1 PUSH1 0xA0 SHL SUB AND GAS CALL SWAP1 DUP2 ISZERO PUSH2 0x17C9 JUMPI PUSH2 0x1708 SWAP4 PUSH1 0x20 SWAP3 PUSH2 0x17AC JUMPI JUMPDEST POP PUSH1 0x40 MLOAD PUSH4 0xA9059CBB PUSH1 0xE0 SHL DUP2 MSTORE PUSH1 0x1 PUSH1 0x1 PUSH1 0xA0 SHL SUB DUP5 AND PUSH1 0x4 DUP3 ADD MSTORE PUSH1 0x24 DUP2 ADD SWAP2 SWAP1 SWAP2 MSTORE SWAP3 DUP4 SWAP1 DUP2 SWAP1 PUSH1 0x44 DUP3 ADD SWAP1 JUMP JUMPDEST SUB DUP2 DUP7 PUSH1 0x0 DUP1 MLOAD PUSH1 0x20 PUSH2 0x2635 DUP4 CODECOPY DUP2 MLOAD SWAP2 MSTORE GAS CALL SWAP2 DUP3 ISZERO PUSH2 0x11E8 JUMPI PUSH1 0x20 SWAP3 PUSH2 0x178F JUMPI JUMPDEST POP PUSH1 0x40 MLOAD PUSH4 0x35313C21 PUSH1 0xE1 SHL DUP2 MSTORE ADDRESS PUSH1 0x4 DUP3 ADD MSTORE SWAP3 DUP4 SWAP2 PUSH1 0x24 SWAP2 DUP4 SWAP2 PUSH1 0x1 PUSH1 0x1 PUSH1 0xA0 SHL SUB AND GAS CALL DUP1 ISZERO PUSH2 0x1236 JUMPI PUSH2 0x1764 JUMPI JUMPDEST POP DUP6 PUSH2 0xE4B JUMP JUMPDEST PUSH1 0x20 SWAP1 DUP2 RETURNDATASIZE DUP4 GT PUSH2 0x1788 JUMPI JUMPDEST PUSH2 0x177A DUP2 DUP4 PUSH2 0x2449 JUMP JUMPDEST DUP2 ADD SUB SLT PUSH2 0x150B JUMPI CODESIZE PUSH2 0x175D JUMP JUMPDEST POP RETURNDATASIZE PUSH2 0x1770 JUMP JUMPDEST PUSH2 0x17A5 SWAP1 DUP4 RETURNDATASIZE DUP6 GT PUSH2 0x1269 JUMPI PUSH2 0x125A DUP2 DUP4 PUSH2 0x2449 JUMP JUMPDEST POP CODESIZE PUSH2 0x172B JUMP JUMPDEST PUSH2 0x17C2 SWAP1 DUP4 RETURNDATASIZE DUP6 GT PUSH2 0x1269 JUMPI PUSH2 0x125A DUP2 DUP4 PUSH2 0x2449 JUMP JUMPDEST POP CODESIZE PUSH2 0x16D7 JUMP JUMPDEST PUSH1 0x40 MLOAD RETURNDATASIZE DUP7 DUP3 RETURNDATACOPY RETURNDATASIZE SWAP1 REVERT JUMPDEST PUSH1 0x20 SWAP2 SWAP4 POP PUSH2 0x17EF SWAP1 DUP3 RETURNDATASIZE DUP5 GT PUSH2 0x122F JUMPI PUSH2 0x1221 DUP2 DUP4 PUSH2 0x2449 JUMP JUMPDEST SWAP3 SWAP1 PUSH2 0x164A JUMP JUMPDEST SWAP3 POP SWAP3 POP POP PUSH1 0xFF DUP2 AND PUSH2 0x1833 PUSH2 0x182C DUP3 PUSH32 0x0 PUSH2 0x246B JUMP JUMPDEST SWAP2 DUP6 PUSH2 0x246B JUMP JUMPDEST SWAP3 PUSH2 0x185E DUP3 PUSH32 0x0 PUSH2 0x22D7 JUMP JUMPDEST SWAP2 PUSH2 0x186C PUSH2 0x1316 DUP7 DUP9 PUSH2 0x22D7 JUMP JUMPDEST SWAP5 PUSH1 0x0 DUP1 MLOAD PUSH1 0x20 PUSH2 0x2635 DUP4 CODECOPY DUP2 MLOAD SWAP2 MSTORE PUSH32 0x0 PUSH1 0x1 PUSH1 0x1 PUSH1 0xA0 SHL SUB AND LT SWAP2 DUP3 ISZERO PUSH2 0x1BAE JUMPI PUSH32 0x0 PUSH1 0x1 PUSH1 0x1 PUSH1 0xA0 SHL SUB AND SWAP3 PUSH1 0x0 DUP1 MLOAD PUSH1 0x20 PUSH2 0x2635 DUP4 CODECOPY DUP2 MLOAD SWAP2 MSTORE SWAP1 JUMPDEST ISZERO PUSH2 0x1BA4 JUMPI DUP10 DUP3 DUP5 JUMPDEST PUSH1 0x40 MLOAD PUSH4 0x95EA7B3 PUSH1 0xE0 SHL DUP2 MSTORE PUSH20 0x77C39EB310BE31E60068CE29855F83359BF85FC4 PUSH1 0x4 DUP3 ADD MSTORE PUSH1 0x24 DUP2 ADD SWAP3 SWAP1 SWAP3 MSTORE PUSH1 0x20 DUP3 PUSH1 0x44 DUP2 DUP7 PUSH32 0x0 PUSH1 0x1 PUSH1 0x1 PUSH1 0xA0 SHL SUB AND GAS CALL SWAP2 DUP3 ISZERO PUSH2 0x11E8 JUMPI PUSH1 0x20 SWAP3 PUSH2 0x1B87 JUMPI JUMPDEST POP PUSH1 0x44 PUSH1 0x40 MLOAD DUP1 SWAP5 DUP2 SWAP4 PUSH4 0x95EA7B3 PUSH1 0xE0 SHL DUP4 MSTORE PUSH20 0x77C39EB310BE31E60068CE29855F83359BF85FC4 PUSH1 0x4 DUP5 ADD MSTORE PUSH1 0x24 DUP4 ADD MSTORE PUSH1 0x0 DUP1 MLOAD PUSH1 0x20 PUSH2 0x2635 DUP4 CODECOPY DUP2 MLOAD SWAP2 MSTORE GAS CALL DUP1 ISZERO PUSH2 0x1B5D JUMPI PUSH2 0x1B68 JUMPI JUMPDEST POP PUSH2 0x1A08 PUSH1 0x20 PUSH2 0x19C3 DUP6 DUP6 PUSH2 0x25A2 JUMP JUMPDEST PUSH1 0x40 MLOAD PUSH4 0x9F56AB1 PUSH1 0xE1 SHL DUP2 MSTORE PUSH1 0x1 PUSH1 0x1 PUSH1 0xA0 SHL SUB DUP1 DUP10 AND PUSH1 0x4 DUP4 ADD MSTORE DUP1 DUP7 AND PUSH1 0x24 DUP4 ADD MSTORE PUSH2 0xBB8 PUSH1 0x44 DUP4 ADD MSTORE SWAP1 SWAP2 AND PUSH1 0x64 DUP3 ADD MSTORE SWAP2 DUP3 SWAP1 DUP14 SWAP1 DUP3 SWAP1 DUP2 SWAP1 PUSH1 0x84 DUP3 ADD SWAP1 JUMP JUMPDEST SUB SWAP2 PUSH20 0x77C39EB310BE31E60068CE29855F83359BF85FC4 GAS CALL SWAP1 DUP2 ISZERO PUSH2 0x1B5D JUMPI DUP12 SWAP2 PUSH2 0x1B3E JUMPI JUMPDEST POP PUSH1 0x8 DUP1 SLOAD PUSH2 0x100 PUSH1 0x1 PUSH1 0xA8 SHL SUB NOT AND SWAP2 DUP2 SHL PUSH2 0x100 PUSH1 0x1 PUSH1 0xA8 SHL SUB AND SWAP2 SWAP1 SWAP2 OR SWAP1 SSTORE TIMESTAMP PUSH2 0x12C DUP2 ADD LT PUSH2 0x1B2A JUMPI PUSH1 0x40 MLOAD SWAP4 PUSH2 0x1A6A DUP6 PUSH2 0x242C JUMP JUMPDEST PUSH1 0x1 DUP1 PUSH1 0xA0 SHL SUB AND DUP5 MSTORE PUSH1 0x1 DUP1 PUSH1 0xA0 SHL SUB AND PUSH1 0x20 DUP5 ADD MSTORE PUSH2 0xBB8 PUSH1 0x40 DUP5 ADD MSTORE PUSH3 0xD89B3 NOT PUSH1 0x60 DUP5 ADD MSTORE PUSH3 0xD89B4 PUSH1 0x80 DUP5 ADD MSTORE PUSH1 0xA0 DUP4 ADD MSTORE PUSH1 0xC0 DUP3 ADD MSTORE DUP7 PUSH1 0xE0 DUP3 ADD MSTORE DUP7 PUSH2 0x100 DUP3 ADD MSTORE ADDRESS PUSH2 0x120 DUP3 ADD MSTORE PUSH2 0x12C TIMESTAMP ADD PUSH2 0x140 DUP3 ADD MSTORE PUSH2 0x1AE0 PUSH1 0x40 MLOAD SWAP2 PUSH4 0x4418B22B PUSH1 0xE1 SHL DUP4 MSTORE PUSH1 0x4 DUP4 ADD SWAP1 PUSH2 0x251E JUMP JUMPDEST PUSH1 0x80 DUP2 PUSH2 0x164 DUP2 DUP11 PUSH20 0x77C39EB310BE31E60068CE29855F83359BF85FC4 GAS CALL DUP1 ISZERO PUSH2 0x1236 JUMPI ISZERO PUSH2 0xE40 JUMPI PUSH2 0x1B22 SWAP1 PUSH1 0x80 RETURNDATASIZE PUSH1 0x80 GT PUSH2 0x11E1 JUMPI PUSH2 0x11D1 DUP2 DUP4 PUSH2 0x2449 JUMP JUMPDEST POP POP POP PUSH2 0xE40 JUMP JUMPDEST PUSH4 0x4E487B71 PUSH1 0xE0 SHL DUP11 MSTORE PUSH1 0x11 PUSH1 0x4 MSTORE PUSH1 0x24 DUP11 REVERT JUMPDEST PUSH2 0x1B57 SWAP2 POP PUSH1 0x20 RETURNDATASIZE PUSH1 0x20 GT PUSH2 0x122F JUMPI PUSH2 0x1221 DUP2 DUP4 PUSH2 0x2449 JUMP JUMPDEST CODESIZE PUSH2 0x1A2F JUMP JUMPDEST PUSH1 0x40 MLOAD RETURNDATASIZE DUP14 DUP3 RETURNDATACOPY RETURNDATASIZE SWAP1 REVERT JUMPDEST PUSH2 0x1B80 SWAP1 PUSH1 0x20 RETURNDATASIZE PUSH1 0x20 GT PUSH2 0x1269 JUMPI PUSH2 0x125A DUP2 DUP4 PUSH2 0x2449 JUMP JUMPDEST POP CODESIZE PUSH2 0x19B3 JUMP JUMPDEST PUSH2 0x1B9D SWAP1 DUP4 RETURNDATASIZE DUP6 GT PUSH2 0x1269 JUMPI PUSH2 0x125A DUP2 DUP4 PUSH2 0x2449 JUMP JUMPDEST POP CODESIZE PUSH2 0x1964 JUMP JUMPDEST DUP10 DUP4 SWAP3 DUP1 SWAP5 PUSH2 0x18F3 JUMP JUMPDEST PUSH1 0x0 DUP1 MLOAD PUSH1 0x20 PUSH2 0x2635 DUP4 CODECOPY DUP2 MLOAD SWAP2 MSTORE SWAP3 PUSH32 0x0 PUSH1 0x1 PUSH1 0x1 PUSH1 0xA0 SHL SUB AND SWAP1 PUSH2 0x18EA JUMP JUMPDEST PUSH2 0x1BF7 SWAP1 PUSH2 0x249B JUMP JUMPDEST PUSH2 0xE15 JUMP JUMPDEST PUSH2 0x1C05 SWAP1 PUSH2 0x249B JUMP JUMPDEST PUSH2 0xE0C JUMP JUMPDEST PUSH2 0x1C13 SWAP1 PUSH2 0x249B JUMP JUMPDEST PUSH2 0xE03 JUMP JUMPDEST POP PUSH1 0x1 PUSH2 0xDFA JUMP JUMPDEST PUSH2 0x1C29 SWAP1 PUSH2 0x2402 JUMP JUMPDEST PUSH2 0x2B5 JUMPI DUP2 CODESIZE PUSH2 0xDC9 JUMP JUMPDEST PUSH2 0x1C3D SWAP1 PUSH2 0x2402 JUMP JUMPDEST PUSH2 0x2B5 JUMPI DUP2 CODESIZE PUSH2 0xD81 JUMP JUMPDEST SWAP4 PUSH2 0x1C74 PUSH32 0xBF17F40327AB4320CDFAA84231ADA95FB1BA0D2D336EDD47510A8207786F9C12 SWAP3 SWAP6 PUSH2 0x2402 JUMP JUMPDEST SWAP4 SWAP1 PUSH2 0xC5E JUMP JUMPDEST PUSH1 0x40 MLOAD RETURNDATASIZE DUP8 DUP3 RETURNDATACOPY RETURNDATASIZE SWAP1 REVERT JUMPDEST DUP4 DUP1 REVERT JUMPDEST PUSH1 0xFF NOT AND PUSH1 0x1 OR SWAP1 SSTORE PUSH1 0x4 SLOAD PUSH1 0x0 NOT DUP2 EQ PUSH2 0x1CAC JUMPI PUSH1 0x1 ADD PUSH1 0x4 SSTORE CODESIZE DUP1 PUSH2 0xBD5 JUMP JUMPDEST PUSH4 0x4E487B71 PUSH1 0xE0 SHL DUP6 MSTORE PUSH1 0x11 PUSH1 0x4 MSTORE PUSH1 0x24 DUP6 REVERT JUMPDEST PUSH1 0x40 MLOAD PUSH3 0x461BCD PUSH1 0xE5 SHL DUP2 MSTORE PUSH1 0x20 PUSH1 0x4 DUP3 ADD MSTORE PUSH1 0x22 PUSH1 0x24 DUP3 ADD MSTORE PUSH32 0x546F6B656E4C61756E636865723A206461696C79206C696D6974207265616368 PUSH1 0x44 DUP3 ADD MSTORE PUSH2 0x1959 PUSH1 0xF2 SHL PUSH1 0x64 DUP3 ADD MSTORE PUSH1 0x84 SWAP1 REVERT JUMPDEST CALLER DUP5 MSTORE PUSH1 0x3 PUSH1 0x20 MSTORE TIMESTAMP PUSH1 0x40 DUP6 KECCAK256 SSTORE PUSH1 0x2 PUSH1 0x20 MSTORE DUP4 PUSH1 0x40 DUP2 KECCAK256 SSTORE PUSH2 0xB1E JUMP JUMPDEST PUSH1 0x64 PUSH1 0x40 MLOAD PUSH3 0x461BCD PUSH1 0xE5 SHL DUP2 MSTORE PUSH1 0x20 PUSH1 0x4 DUP3 ADD MSTORE PUSH1 0x20 PUSH1 0x24 DUP3 ADD MSTORE PUSH32 0x546F6B656E4C61756E636865723A20636F6F6C646F776E206E6F74206F766572 PUSH1 0x44 DUP3 ADD MSTORE REVERT JUMPDEST PUSH1 0x40 MLOAD PUSH3 0x461BCD PUSH1 0xE5 SHL DUP2 MSTORE PUSH1 0x20 PUSH1 0x4 DUP3 ADD MSTORE PUSH1 0x1E PUSH1 0x24 DUP3 ADD MSTORE PUSH32 0x546F6B656E4C61756E636865723A206D696E696E6720636F6D706C6574650000 PUSH1 0x44 DUP3 ADD MSTORE PUSH1 0x64 SWAP1 REVERT JUMPDEST PUSH1 0x64 PUSH1 0x40 MLOAD PUSH3 0x461BCD PUSH1 0xE5 SHL DUP2 MSTORE PUSH1 0x20 PUSH1 0x4 DUP3 ADD MSTORE PUSH1 0x20 PUSH1 0x24 DUP3 ADD MSTORE PUSH32 0x546F6B656E4C61756E636865723A205553444320666565207265717569726564 PUSH1 0x44 DUP3 ADD MSTORE REVERT JUMPDEST PUSH1 0x40 MLOAD PUSH3 0x461BCD PUSH1 0xE5 SHL DUP2 MSTORE PUSH1 0x20 PUSH1 0x4 DUP3 ADD MSTORE PUSH1 0x2A PUSH1 0x24 DUP3 ADD MSTORE PUSH32 0x546F6B656E2068617320677261647561746564202D2073776170206F6E20554E PUSH1 0x44 DUP3 ADD MSTORE PUSH10 0x4954464C4F5720563321 PUSH1 0xB0 SHL PUSH1 0x64 DUP3 ADD MSTORE PUSH1 0x84 SWAP1 REVERT JUMPDEST POP CALLVALUE PUSH2 0x275 JUMPI DUP1 PUSH1 0x3 NOT CALLDATASIZE ADD SLT PUSH2 0x275 JUMPI PUSH1 0x20 PUSH1 0x40 MLOAD PUSH1 0x8 DUP2 MSTORE RETURN JUMPDEST POP CALLVALUE PUSH2 0x275 JUMPI DUP1 PUSH1 0x3 NOT CALLDATASIZE ADD SLT PUSH2 0x275 JUMPI PUSH1 0x20 PUSH1 0x40 MLOAD PUSH1 0xFF PUSH32 0x0 AND DUP2 MSTORE RETURN JUMPDEST POP CALLVALUE PUSH2 0x275 JUMPI DUP1 PUSH1 0x3 NOT CALLDATASIZE ADD SLT PUSH2 0x275 JUMPI PUSH1 0xFF PUSH1 0x8 SLOAD AND ISZERO DUP1 PUSH2 0x1ED8 JUMPI JUMPDEST PUSH1 0x20 SWAP1 PUSH1 0x40 MLOAD SWAP1 ISZERO ISZERO DUP2 MSTORE RETURN JUMPDEST POP PUSH1 0x20 PUSH2 0x1F25 PUSH32 0x0 PUSH32 0x0 PUSH2 0x22B4 JUMP JUMPDEST TIMESTAMP GT ISZERO SWAP1 POP PUSH2 0x1ECB JUMP JUMPDEST POP CALLVALUE PUSH2 0x275 JUMPI DUP1 PUSH1 0x3 NOT CALLDATASIZE ADD SLT PUSH2 0x275 JUMPI PUSH1 0x20 PUSH1 0x4 SLOAD PUSH1 0x40 MLOAD SWAP1 DUP2 MSTORE RETURN JUMPDEST POP CALLVALUE PUSH2 0x275 JUMPI PUSH1 0x20 CALLDATASIZE PUSH1 0x3 NOT ADD SLT PUSH2 0x275 JUMPI PUSH1 0x4 CALLDATALOAD SWAP1 PUSH1 0x1 PUSH1 0x1 PUSH1 0xA0 SHL SUB DUP3 AND DUP3 SUB PUSH2 0x275 JUMPI PUSH1 0x20 PUSH2 0x3B8 DUP4 PUSH2 0x2386 JUMP JUMPDEST PUSH2 0x225A JUMP JUMPDEST POP CALLVALUE PUSH2 0x275 JUMPI DUP1 PUSH1 0x3 NOT CALLDATASIZE ADD SLT PUSH2 0x275 JUMPI PUSH1 0x20 PUSH1 0x40 MLOAD PUSH1 0x4 DUP2 MSTORE RETURN JUMPDEST POP CALLVALUE PUSH2 0x275 JUMPI DUP1 PUSH1 0x3 NOT CALLDATASIZE ADD SLT PUSH2 0x275 JUMPI PUSH1 0x20 PUSH1 0x40 MLOAD PUSH20 0xBE59000F37677D96115F397C91834DCB72DFC279 DUP2 MSTORE RETURN JUMPDEST POP CALLVALUE PUSH2 0x275 JUMPI DUP1 PUSH1 0x3 NOT CALLDATASIZE ADD SLT PUSH2 0x275 JUMPI PUSH1 0x20 SWAP1 SLOAD PUSH1 0x40 MLOAD SWAP1 DUP2 MSTORE RETURN JUMPDEST POP CALLVALUE PUSH2 0x275 JUMPI DUP1 PUSH1 0x3 NOT CALLDATASIZE ADD SLT PUSH2 0x275 JUMPI PUSH1 0x20 PUSH1 0x40 MLOAD PUSH1 0x0 DUP1 MLOAD PUSH1 0x20 PUSH2 0x2635 DUP4 CODECOPY DUP2 MLOAD SWAP2 MSTORE DUP2 MSTORE RETURN JUMPDEST POP CALLVALUE PUSH2 0x275 JUMPI PUSH1 0x20 CALLDATASIZE PUSH1 0x3 NOT ADD SLT PUSH2 0x275 JUMPI PUSH1 0x4 CALLDATALOAD PUSH1 0x1 PUSH1 0x1 PUSH1 0xA0 SHL SUB DUP2 AND SWAP1 DUP2 SWAP1 SUB PUSH2 0x2B5 JUMPI PUSH1 0x40 DUP3 PUSH1 0xFF SWAP3 PUSH1 0x20 SWAP5 MSTORE PUSH1 0x5 DUP5 MSTORE KECCAK256 SLOAD AND PUSH1 0x40 MLOAD SWAP1 ISZERO ISZERO DUP2 MSTORE RETURN JUMPDEST POP CALLVALUE PUSH2 0x275 JUMPI DUP1 PUSH1 0x3 NOT CALLDATASIZE ADD SLT PUSH2 0x275 JUMPI PUSH1 0x9 SLOAD PUSH1 0x40 MLOAD PUSH1 0x1 PUSH1 0x1 PUSH1 0xA0 SHL SUB SWAP1 SWAP2 AND DUP2 MSTORE PUSH1 0x20 SWAP1 RETURN JUMPDEST POP CALLVALUE PUSH2 0x275 JUMPI DUP1 PUSH1 0x3 NOT CALLDATASIZE ADD SLT PUSH2 0x275 JUMPI PUSH1 0x20 PUSH1 0x40 MLOAD PUSH1 0x1 DUP2 MSTORE RETURN JUMPDEST POP CALLVALUE PUSH2 0x275 JUMPI PUSH1 0x20 CALLDATASIZE PUSH1 0x3 NOT ADD SLT PUSH2 0x275 JUMPI PUSH1 0x4 CALLDATALOAD PUSH1 0x1 PUSH1 0x1 PUSH1 0xA0 SHL SUB DUP2 AND SWAP1 DUP2 SWAP1 SUB PUSH2 0x2B5 JUMPI DUP2 PUSH1 0x40 SWAP2 PUSH1 0x20 SWAP4 MSTORE PUSH1 0x2 DUP4 MSTORE KECCAK256 SLOAD PUSH1 0x40 MLOAD SWAP1 DUP2 MSTORE RETURN JUMPDEST POP CALLVALUE PUSH2 0x275 JUMPI DUP1 PUSH1 0x3 NOT CALLDATASIZE ADD SLT PUSH2 0x275 JUMPI PUSH1 0x20 PUSH1 0x40 MLOAD PUSH32 0x0 DUP2 MSTORE RETURN JUMPDEST POP CALLVALUE PUSH2 0x275 JUMPI DUP1 PUSH1 0x3 NOT CALLDATASIZE ADD SLT PUSH2 0x275 JUMPI PUSH1 0x20 PUSH1 0x40 MLOAD PUSH20 0x77C39EB310BE31E60068CE29855F83359BF85FC4 DUP2 MSTORE RETURN JUMPDEST POP CALLVALUE PUSH2 0x275 JUMPI PUSH1 0x20 CALLDATASIZE PUSH1 0x3 NOT ADD SLT PUSH2 0x275 JUMPI PUSH1 0x4 CALLDATALOAD SWAP1 PUSH1 0x1 PUSH1 0x1 PUSH1 0xA0 SHL SUB DUP3 AND DUP3 SUB PUSH2 0x275 JUMPI PUSH1 0x20 PUSH2 0x3B8 DUP4 PUSH2 0x22E4 JUMP JUMPDEST POP CALLVALUE PUSH2 0x275 JUMPI PUSH1 0x20 CALLDATASIZE PUSH1 0x3 NOT ADD SLT PUSH2 0x275 JUMPI PUSH1 0x4 CALLDATALOAD PUSH1 0x1 PUSH1 0x1 PUSH1 0xA0 SHL SUB DUP2 AND SWAP1 DUP2 SWAP1 SUB PUSH2 0x2B5 JUMPI DUP2 PUSH1 0x40 SWAP2 PUSH1 0x20 SWAP4 MSTORE PUSH1 0x6 DUP4 MSTORE KECCAK256 SLOAD PUSH1 0x40 MLOAD SWAP1 DUP2 MSTORE RETURN JUMPDEST POP CALLVALUE PUSH2 0x275 JUMPI PUSH1 0x20 CALLDATASIZE PUSH1 0x3 NOT ADD SLT PUSH2 0x275 JUMPI PUSH1 0x4 CALLDATALOAD PUSH1 0x1 PUSH1 0x1 PUSH1 0xA0 SHL SUB DUP2 AND SWAP1 DUP2 SWAP1 SUB PUSH2 0x2B5 JUMPI DUP2 PUSH1 0x40 SWAP2 PUSH1 0x20 SWAP4 MSTORE PUSH1 0x3 DUP4 MSTORE KECCAK256 SLOAD PUSH1 0x40 MLOAD SWAP1 DUP2 MSTORE RETURN JUMPDEST POP CALLVALUE PUSH2 0x275 JUMPI DUP1 PUSH1 0x3 NOT CALLDATASIZE ADD SLT PUSH2 0x275 JUMPI PUSH1 0x8 DUP1 SLOAD PUSH1 0x40 MLOAD SWAP2 SHR PUSH1 0x1 PUSH1 0x1 PUSH1 0xA0 SHL SUB AND DUP2 MSTORE PUSH1 0x20 SWAP1 RETURN JUMPDEST SWAP1 POP CALLVALUE PUSH2 0x2B5 JUMPI DUP2 PUSH1 0x3 NOT CALLDATASIZE ADD SLT PUSH2 0x2B5 JUMPI PUSH32 0x0 PUSH1 0x1 PUSH1 0x1 PUSH1 0xA0 SHL SUB AND DUP2 MSTORE PUSH1 0x20 SWAP1 RETURN JUMPDEST CALLVALUE PUSH2 0x150B JUMPI PUSH1 0x0 CALLDATASIZE PUSH1 0x3 NOT ADD SLT PUSH2 0x150B JUMPI PUSH1 0x20 PUSH1 0x40 MLOAD PUSH3 0xD89B4 DUP2 MSTORE RETURN JUMPDEST CALLVALUE PUSH2 0x150B JUMPI PUSH1 0x0 CALLDATASIZE PUSH1 0x3 NOT ADD SLT PUSH2 0x150B JUMPI PUSH1 0x20 PUSH1 0x40 MLOAD PUSH3 0xD89B3 NOT DUP2 MSTORE RETURN JUMPDEST CALLVALUE PUSH2 0x150B JUMPI PUSH1 0x0 CALLDATASIZE PUSH1 0x3 NOT ADD SLT PUSH2 0x150B JUMPI PUSH1 0x20 PUSH1 0x40 MLOAD PUSH2 0xBB8 DUP2 MSTORE RETURN JUMPDEST SWAP2 SWAP1 DUP3 ADD DUP1 SWAP3 GT PUSH2 0x22C1 JUMPI JUMP JUMPDEST PUSH4 0x4E487B71 PUSH1 0xE0 SHL PUSH1 0x0 MSTORE PUSH1 0x11 PUSH1 0x4 MSTORE PUSH1 0x24 PUSH1 0x0 REVERT JUMPDEST SWAP2 SWAP1 DUP3 SUB SWAP2 DUP3 GT PUSH2 0x22C1 JUMPI JUMP JUMPDEST PUSH1 0x1 PUSH1 0x1 PUSH1 0xA0 SHL SUB AND PUSH1 0x0 DUP2 DUP2 MSTORE PUSH1 0x3 PUSH1 0x20 MSTORE PUSH1 0x40 DUP2 KECCAK256 SLOAD SWAP1 SWAP2 SWAP1 PUSH3 0x15180 DUP2 ADD SWAP1 DUP2 LT PUSH2 0x2372 JUMPI TIMESTAMP LT ISZERO PUSH2 0x234C JUMPI DUP2 PUSH1 0x40 SWAP2 PUSH2 0x2349 SWAP4 MSTORE PUSH1 0x2 PUSH1 0x20 MSTORE KECCAK256 SLOAD PUSH32 0x0 PUSH2 0x22D7 JUMP JUMPDEST SWAP1 JUMP JUMPDEST POP POP PUSH32 0x0 SWAP1 JUMP JUMPDEST PUSH4 0x4E487B71 PUSH1 0xE0 SHL DUP4 MSTORE PUSH1 0x11 PUSH1 0x4 MSTORE PUSH1 0x24 DUP4 REVERT JUMPDEST PUSH1 0xFF PUSH1 0x8 SLOAD AND PUSH2 0x23FC JUMPI PUSH2 0x23DA PUSH32 0x0 PUSH32 0x0 PUSH2 0x22B4 JUMP JUMPDEST TIMESTAMP GT ISZERO PUSH2 0x23FC JUMPI PUSH1 0x1 PUSH1 0x1 PUSH1 0xA0 SHL SUB AND PUSH1 0x0 SWAP1 DUP2 MSTORE PUSH1 0x6 PUSH1 0x20 MSTORE PUSH1 0x40 SWAP1 KECCAK256 SLOAD SWAP1 JUMP JUMPDEST POP PUSH1 0x0 SWAP1 JUMP JUMPDEST PUSH8 0xFFFFFFFFFFFFFFFF DUP2 GT PUSH2 0x2416 JUMPI PUSH1 0x40 MSTORE JUMP JUMPDEST PUSH4 0x4E487B71 PUSH1 0xE0 SHL PUSH1 0x0 MSTORE PUSH1 0x41 PUSH1 0x4 MSTORE PUSH1 0x24 PUSH1 0x0 REVERT JUMPDEST PUSH2 0x160 DUP2 ADD SWAP1 DUP2 LT PUSH8 0xFFFFFFFFFFFFFFFF DUP3 GT OR PUSH2 0x2416 JUMPI PUSH1 0x40 MSTORE JUMP JUMPDEST SWAP1 PUSH1 0x1F DUP1 NOT SWAP2 ADD AND DUP2 ADD SWAP1 DUP2 LT PUSH8 0xFFFFFFFFFFFFFFFF DUP3 GT OR PUSH2 0x2416 JUMPI PUSH1 0x40 MSTORE JUMP JUMPDEST DUP2 ISZERO PUSH2 0x2475 JUMPI DIV SWAP1 JUMP JUMPDEST PUSH4 0x4E487B71 PUSH1 0xE0 SHL PUSH1 0x0 MSTORE PUSH1 0x12 PUSH1 0x4 MSTORE PUSH1 0x24 PUSH1 0x0 REVERT JUMPDEST PUSH1 0xFF AND DUP1 ISZERO PUSH2 0x22C1 JUMPI PUSH1 0x0 NOT ADD SWAP1 JUMP JUMPDEST PUSH1 0xFF AND PUSH1 0xFF DUP2 EQ PUSH2 0x22C1 JUMPI PUSH1 0x1 ADD SWAP1 JUMP JUMPDEST SWAP1 DUP2 PUSH1 0x20 SWAP2 SUB SLT PUSH2 0x150B JUMPI MLOAD DUP1 ISZERO ISZERO DUP2 SUB PUSH2 0x150B JUMPI SWAP1 JUMP JUMPDEST SWAP1 DUP2 PUSH1 0x20 SWAP2 SUB SLT PUSH2 0x150B JUMPI MLOAD PUSH1 0x1 PUSH1 0x1 PUSH1 0xA0 SHL SUB DUP2 AND DUP2 SUB PUSH2 0x150B JUMPI SWAP1 JUMP JUMPDEST SWAP2 SWAP1 DUP3 PUSH1 0x80 SWAP2 SUB SLT PUSH2 0x150B JUMPI DUP2 MLOAD SWAP2 PUSH1 0x20 DUP2 ADD MLOAD PUSH16 0xFFFFFFFFFFFFFFFFFFFFFFFFFFFFFFFF DUP2 AND DUP2 SUB PUSH2 0x150B JUMPI SWAP2 PUSH1 0x60 PUSH1 0x40 DUP4 ADD MLOAD SWAP3 ADD MLOAD SWAP1 JUMP JUMPDEST PUSH1 0x1 DUP1 PUSH1 0xA0 SHL SUB DUP1 DUP3 MLOAD AND DUP4 MSTORE DUP1 PUSH1 0x20 DUP4 ADD MLOAD AND PUSH1 0x20 DUP5 ADD MSTORE PUSH3 0xFFFFFF PUSH1 0x40 DUP4 ADD MLOAD AND PUSH1 0x40 DUP5 ADD MSTORE PUSH1 0x60 DUP3 ADD MLOAD PUSH1 0x2 SIGNEXTEND PUSH1 0x60 DUP5 ADD MSTORE PUSH1 0x80 DUP3 ADD MLOAD PUSH1 0x2 SIGNEXTEND PUSH1 0x80 DUP5 ADD MSTORE PUSH1 0xA0 DUP3 ADD MLOAD PUSH1 0xA0 DUP5 ADD MSTORE PUSH1 0xC0 DUP3 ADD MLOAD PUSH1 0xC0 DUP5 ADD MSTORE PUSH1 0xE0 DUP3 ADD MLOAD PUSH1 0xE0 DUP5 ADD MSTORE PUSH2 0x100 DUP1 DUP4 ADD MLOAD SWAP1 DUP5 ADD MSTORE PUSH2 0x120 SWAP1 DUP2 DUP4 ADD MLOAD AND SWAP1 DUP4 ADD MSTORE PUSH2 0x140 DUP1 SWAP2 ADD MLOAD SWAP2 ADD MSTORE JUMP JUMPDEST DUP1 ISZERO DUP1 ISZERO PUSH2 0x25DF JUMPI JUMPDEST PUSH2 0x25D4 JUMPI PUSH1 0x1 PUSH1 0x1 PUSH1 0xA0 SHL SUB SWAP2 PUSH2 0x25CD SWAP2 PUSH2 0x25C8 SWAP2 PUSH1 0x60 SHL PUSH2 0x246B JUMP JUMPDEST PUSH2 0x25E7 JUMP JUMPDEST PUSH1 0x30 SHL AND SWAP1 JUMP JUMPDEST POP PUSH1 0x1 PUSH1 0x60 SHL SWAP2 SWAP1 POP JUMP JUMPDEST POP DUP2 ISZERO PUSH2 0x25AB JUMP JUMPDEST SWAP1 DUP2 ISZERO PUSH2 0x262E JUMPI PUSH1 0x1 DUP3 PUSH1 0x1 SHR PUSH1 0x1 DUP2 ADD DUP1 SWAP2 GT PUSH2 0x22C1 JUMPI SWAP1 DUP4 JUMPDEST DUP5 DUP4 LT PUSH2 0x260E JUMPI POP POP POP JUMP JUMPDEST SWAP1 SWAP2 SWAP4 POP PUSH2 0x2625 DUP5 PUSH2 0x2620 DUP2 DUP5 PUSH2 0x246B JUMP JUMPDEST PUSH2 0x22B4 JUMP JUMPDEST DUP3 SHR SWAP2 SWAP1 PUSH2 0x2602 JUMP JUMPDEST PUSH1 0x0 SWAP2 POP JUMP INVALID STOP STOP STOP STOP STOP STOP STOP STOP STOP STOP STOP STOP SWAP2 SHL BLOCKHASH STOP 0xD3 TIMESTAMP 0x2F BASEFEE 0x2F BLOCKHASH PUSH3 0xA91388 PUSH0 PUSH28 0x35382DFA264697066735822122068CB183A5866F9DA00F57CA40980 GASPRICE 0xB3 0x21 EXTCODESIZE 0x4D 0xD2 EXTCODESIZE SMOD DUP3 TSTORE PUSH5 0x1963610DC2 DUP5 0x25 PUSH5 0x736F6C6343 STOP ADDMOD XOR STOP CALLER "},"methodIdentifiers":{"AMM_STABLESWAP()":"67d11979","AMM_SYNTHRA()":"7fb0cf0e","AMM_UNISWAP_V2()":"9e7c6694","AMM_UNITFLOW_V3()":"262d8f38","POOL_FEE()":"dd1b9c4a","POSITION_MANAGER()":"1bea83fe","STABLESWAP_FACTORY()":"a6b0a718","SYNTHRA_FEE()":"d9f8ce05","SYNTHRA_POSITION_MANAGER()":"5e9cfb00","SYNTHRA_TICK_LOWER()":"a4155b44","SYNTHRA_TICK_UPPER()":"6a926102","TICK_LOWER()":"47377d92","TICK_UPPER()":"239f3af7","UNISWAP_V2_FACTORY()":"99d8fae3","UNISWAP_V2_ROUTER()":"a82ed9ec","WUSDC_ADDRESS()":"519bde94","ammFlags()":"7b881515","claimRefund()":"b5545a3c","claimableRefund(address)":"6e1e063f","cooldownSeconds()":"b8221bc4","createdAt()":"cf09e0d0","creator()":"02d05d3f","dailyMax()":"e0f67bc7","dailyMined(address)":"24a1e060","dailyWindowStart(address)":"189ab242","feePaid(address)":"1a561d7d","feePerMine()":"b14e5791","getMiningProgress()":"ebba348b","getRemainingDailyAllowance(address)":"1b583f90","getTimeUntilNextMine(address)":"d83f5cec","graduated()":"e7c2b772","hasMined(address)":"518263a1","lastMineTime(address)":"ee6b373b","lpReserve()":"ada29fa9","mine(string)":"841819df","mineAmount()":"1ca944e9","mineableSupply()":"d6fb1678","poolAddress()":"1755ff21","refundDeadline()":"e1aa1bcc","refundWindowOpen()":"77c5fd7f","refundWindowSeconds()":"c6e8ebd8","stablePoolAddress()":"aac4daac","synthraPoolAddress()":"8cb4997d","token()":"fc0c546a","tokensMined(address)":"f6a50850","totalMined()":"5556db65","totalMiners()":"764fe7d1","v2PairAddress()":"2ace0730"}}}}}