{
  "_format": "hh-sol-artifact-1",
  "contractName": "TokenLauncher",
  "sourceName": "src/TokenLauncher.sol",
  "abi": [
    {
      "inputs": [
        {
          "internalType": "address",
          "name": "_token",
          "type": "address"
        },
        {
          "internalType": "address",
          "name": "_creator",
          "type": "address"
        },
        {
          "internalType": "uint256",
          "name": "_mineAmount",
          "type": "uint256"
        },
        {
          "internalType": "uint256",
          "name": "_cooldownSeconds",
          "type": "uint256"
        },
        {
          "internalType": "uint256",
          "name": "_dailyMax",
          "type": "uint256"
        },
        {
          "internalType": "uint256",
          "name": "_feePerMine",
          "type": "uint256"
        },
        {
          "internalType": "uint256",
          "name": "_refundWindowSeconds",
          "type": "uint256"
        },
        {
          "internalType": "uint8",
          "name": "_ammFlags",
          "type": "uint8"
        }
      ],
      "stateMutability": "nonpayable",
      "type": "constructor"
    },
    {
      "anonymous": false,
      "inputs": [
        {
          "indexed": true,
          "internalType": "address",
          "name": "user",
          "type": "address"
        },
        {
          "indexed": false,
          "internalType": "string",
          "name": "funnyPost",
          "type": "string"
        },
        {
          "indexed": false,
          "internalType": "uint256",
          "name": "amount",
          "type": "uint256"
        },
        {
          "indexed": false,
          "internalType": "uint256",
          "name": "timestamp",
          "type": "uint256"
        }
      ],
      "name": "ActedFun",
      "type": "event"
    },
    {
      "anonymous": false,
      "inputs": [
        {
          "indexed": true,
          "internalType": "address",
          "name": "user",
          "type": "address"
        },
        {
          "indexed": false,
          "internalType": "uint256",
          "name": "amount",
          "type": "uint256"
        },
        {
          "indexed": false,
          "internalType": "uint256",
          "name": "timestamp",
          "type": "uint256"
        }
      ],
      "name": "ArcRefundClaimed",
      "type": "event"
    },
    {
      "anonymous": false,
      "inputs": [
        {
          "indexed": true,
          "internalType": "address",
          "name": "token",
          "type": "address"
        },
        {
          "indexed": false,
          "internalType": "uint256",
          "name": "tokenSeeded",
          "type": "uint256"
        },
        {
          "indexed": false,
          "internalType": "uint256",
          "name": "arcSeeded",
          "type": "uint256"
        },
        {
          "indexed": false,
          "internalType": "uint256",
          "name": "timestamp",
          "type": "uint256"
        }
      ],
      "name": "TokenGraduated",
      "type": "event"
    },
    {
      "inputs": [],
      "name": "AMM_STABLESWAP",
      "outputs": [
        {
          "internalType": "uint8",
          "name": "",
          "type": "uint8"
        }
      ],
      "stateMutability": "view",
      "type": "function"
    },
    {
      "inputs": [],
      "name": "AMM_SYNTHRA",
      "outputs": [
        {
          "internalType": "uint8",
          "name": "",
          "type": "uint8"
        }
      ],
      "stateMutability": "view",
      "type": "function"
    },
    {
      "inputs": [],
      "name": "AMM_UNISWAP_V2",
      "outputs": [
        {
          "internalType": "uint8",
          "name": "",
          "type": "uint8"
        }
      ],
      "stateMutability": "view",
      "type": "function"
    },
    {
      "inputs": [],
      "name": "AMM_UNITFLOW_V3",
      "outputs": [
        {
          "internalType": "uint8",
          "name": "",
          "type": "uint8"
        }
      ],
      "stateMutability": "view",
      "type": "function"
    },
    {
      "inputs": [],
      "name": "POOL_FEE",
      "outputs": [
        {
          "internalType": "uint24",
          "name": "",
          "type": "uint24"
        }
      ],
      "stateMutability": "view",
      "type": "function"
    },
    {
      "inputs": [],
      "name": "POSITION_MANAGER",
      "outputs": [
        {
          "internalType": "address",
          "name": "",
          "type": "address"
        }
      ],
      "stateMutability": "view",
      "type": "function"
    },
    {
      "inputs": [],
      "name": "STABLESWAP_FACTORY",
      "outputs": [
        {
          "internalType": "address",
          "name": "",
          "type": "address"
        }
      ],
      "stateMutability": "view",
      "type": "function"
    },
    {
      "inputs": [],
      "name": "SYNTHRA_FEE",
      "outputs": [
        {
          "internalType": "uint24",
          "name": "",
          "type": "uint24"
        }
      ],
      "stateMutability": "view",
      "type": "function"
    },
    {
      "inputs": [],
      "name": "SYNTHRA_POSITION_MANAGER",
      "outputs": [
        {
          "internalType": "address",
          "name": "",
          "type": "address"
        }
      ],
      "stateMutability": "view",
      "type": "function"
    },
    {
      "inputs": [],
      "name": "SYNTHRA_TICK_LOWER",
      "outputs": [
        {
          "internalType": "int24",
          "name": "",
          "type": "int24"
        }
      ],
      "stateMutability": "view",
      "type": "function"
    },
    {
      "inputs": [],
      "name": "SYNTHRA_TICK_UPPER",
      "outputs": [
        {
          "internalType": "int24",
          "name": "",
          "type": "int24"
        }
      ],
      "stateMutability": "view",
      "type": "function"
    },
    {
      "inputs": [],
      "name": "TICK_LOWER",
      "outputs": [
        {
          "internalType": "int24",
          "name": "",
          "type": "int24"
        }
      ],
      "stateMutability": "view",
      "type": "function"
    },
    {
      "inputs": [],
      "name": "TICK_UPPER",
      "outputs": [
        {
          "internalType": "int24",
          "name": "",
          "type": "int24"
        }
      ],
      "stateMutability": "view",
      "type": "function"
    },
    {
      "inputs": [],
      "name": "UNISWAP_V2_FACTORY",
      "outputs": [
        {
          "internalType": "address",
          "name": "",
          "type": "address"
        }
      ],
      "stateMutability": "view",
      "type": "function"
    },
    {
      "inputs": [],
      "name": "UNISWAP_V2_ROUTER",
      "outputs": [
        {
          "internalType": "address",
          "name": "",
          "type": "address"
        }
      ],
      "stateMutability": "view",
      "type": "function"
    },
    {
      "inputs": [],
      "name": "WUSDC_ADDRESS",
      "outputs": [
        {
          "internalType": "address",
          "name": "",
          "type": "address"
        }
      ],
      "stateMutability": "view",
      "type": "function"
    },
    {
      "inputs": [],
      "name": "ammFlags",
      "outputs": [
        {
          "internalType": "uint8",
          "name": "",
          "type": "uint8"
        }
      ],
      "stateMutability": "view",
      "type": "function"
    },
    {
      "inputs": [],
      "name": "claimRefund",
      "outputs": [],
      "stateMutability": "nonpayable",
      "type": "function"
    },
    {
      "inputs": [
        {
          "internalType": "address",
          "name": "user",
          "type": "address"
        }
      ],
      "name": "claimableRefund",
      "outputs": [
        {
          "internalType": "uint256",
          "name": "",
          "type": "uint256"
        }
      ],
      "stateMutability": "view",
      "type": "function"
    },
    {
      "inputs": [],
      "name": "cooldownSeconds",
      "outputs": [
        {
          "internalType": "uint256",
          "name": "",
          "type": "uint256"
        }
      ],
      "stateMutability": "view",
      "type": "function"
    },
    {
      "inputs": [],
      "name": "createdAt",
      "outputs": [
        {
          "internalType": "uint256",
          "name": "",
          "type": "uint256"
        }
      ],
      "stateMutability": "view",
      "type": "function"
    },
    {
      "inputs": [],
      "name": "creator",
      "outputs": [
        {
          "internalType": "address",
          "name": "",
          "type": "address"
        }
      ],
      "stateMutability": "view",
      "type": "function"
    },
    {
      "inputs": [],
      "name": "dailyMax",
      "outputs": [
        {
          "internalType": "uint256",
          "name": "",
          "type": "uint256"
        }
      ],
      "stateMutability": "view",
      "type": "function"
    },
    {
      "inputs": [
        {
          "internalType": "address",
          "name": "",
          "type": "address"
        }
      ],
      "name": "dailyMined",
      "outputs": [
        {
          "internalType": "uint256",
          "name": "",
          "type": "uint256"
        }
      ],
      "stateMutability": "view",
      "type": "function"
    },
    {
      "inputs": [
        {
          "internalType": "address",
          "name": "",
          "type": "address"
        }
      ],
      "name": "dailyWindowStart",
      "outputs": [
        {
          "internalType": "uint256",
          "name": "",
          "type": "uint256"
        }
      ],
      "stateMutability": "view",
      "type": "function"
    },
    {
      "inputs": [
        {
          "internalType": "address",
          "name": "",
          "type": "address"
        }
      ],
      "name": "feePaid",
      "outputs": [
        {
          "internalType": "uint256",
          "name": "",
          "type": "uint256"
        }
      ],
      "stateMutability": "view",
      "type": "function"
    },
    {
      "inputs": [],
      "name": "feePerMine",
      "outputs": [
        {
          "internalType": "uint256",
          "name": "",
          "type": "uint256"
        }
      ],
      "stateMutability": "view",
      "type": "function"
    },
    {
      "inputs": [],
      "name": "getMiningProgress",
      "outputs": [
        {
          "internalType": "uint256",
          "name": "mined",
          "type": "uint256"
        },
        {
          "internalType": "uint256",
          "name": "total",
          "type": "uint256"
        }
      ],
      "stateMutability": "view",
      "type": "function"
    },
    {
      "inputs": [
        {
          "internalType": "address",
          "name": "user",
          "type": "address"
        }
      ],
      "name": "getRemainingDailyAllowance",
      "outputs": [
        {
          "internalType": "uint256",
          "name": "",
          "type": "uint256"
        }
      ],
      "stateMutability": "view",
      "type": "function"
    },
    {
      "inputs": [
        {
          "internalType": "address",
          "name": "user",
          "type": "address"
        }
      ],
      "name": "getTimeUntilNextMine",
      "outputs": [
        {
          "internalType": "uint256",
          "name": "",
          "type": "uint256"
        }
      ],
      "stateMutability": "view",
      "type": "function"
    },
    {
      "inputs": [],
      "name": "graduated",
      "outputs": [
        {
          "internalType": "bool",
          "name": "",
          "type": "bool"
        }
      ],
      "stateMutability": "view",
      "type": "function"
    },
    {
      "inputs": [
        {
          "internalType": "address",
          "name": "",
          "type": "address"
        }
      ],
      "name": "hasMined",
      "outputs": [
        {
          "internalType": "bool",
          "name": "",
          "type": "bool"
        }
      ],
      "stateMutability": "view",
      "type": "function"
    },
    {
      "inputs": [
        {
          "internalType": "address",
          "name": "",
          "type": "address"
        }
      ],
      "name": "lastMineTime",
      "outputs": [
        {
          "internalType": "uint256",
          "name": "",
          "type": "uint256"
        }
      ],
      "stateMutability": "view",
      "type": "function"
    },
    {
      "inputs": [],
      "name": "lpReserve",
      "outputs": [
        {
          "internalType": "uint256",
          "name": "",
          "type": "uint256"
        }
      ],
      "stateMutability": "view",
      "type": "function"
    },
    {
      "inputs": [
        {
          "internalType": "string",
          "name": "funnyPost",
          "type": "string"
        }
      ],
      "name": "mine",
      "outputs": [],
      "stateMutability": "payable",
      "type": "function"
    },
    {
      "inputs": [],
      "name": "mineAmount",
      "outputs": [
        {
          "internalType": "uint256",
          "name": "",
          "type": "uint256"
        }
      ],
      "stateMutability": "view",
      "type": "function"
    },
    {
      "inputs": [],
      "name": "mineableSupply",
      "outputs": [
        {
          "internalType": "uint256",
          "name": "",
          "type": "uint256"
        }
      ],
      "stateMutability": "view",
      "type": "function"
    },
    {
      "inputs": [],
      "name": "poolAddress",
      "outputs": [
        {
          "internalType": "address",
          "name": "",
          "type": "address"
        }
      ],
      "stateMutability": "view",
      "type": "function"
    },
    {
      "inputs": [],
      "name": "refundDeadline",
      "outputs": [
        {
          "internalType": "uint256",
          "name": "",
          "type": "uint256"
        }
      ],
      "stateMutability": "view",
      "type": "function"
    },
    {
      "inputs": [],
      "name": "refundWindowOpen",
      "outputs": [
        {
          "internalType": "bool",
          "name": "",
          "type": "bool"
        }
      ],
      "stateMutability": "view",
      "type": "function"
    },
    {
      "inputs": [],
      "name": "refundWindowSeconds",
      "outputs": [
        {
          "internalType": "uint256",
          "name": "",
          "type": "uint256"
        }
      ],
      "stateMutability": "view",
      "type": "function"
    },
    {
      "inputs": [],
      "name": "stablePoolAddress",
      "outputs": [
        {
          "internalType": "address",
          "name": "",
          "type": "address"
        }
      ],
      "stateMutability": "view",
      "type": "function"
    },
    {
      "inputs": [],
      "name": "synthraPoolAddress",
      "outputs": [
        {
          "internalType": "address",
          "name": "",
          "type": "address"
        }
      ],
      "stateMutability": "view",
      "type": "function"
    },
    {
      "inputs": [],
      "name": "token",
      "outputs": [
        {
          "internalType": "contract LaunchToken",
          "name": "",
          "type": "address"
        }
      ],
      "stateMutability": "view",
      "type": "function"
    },
    {
      "inputs": [
        {
          "internalType": "address",
          "name": "",
          "type": "address"
        }
      ],
      "name": "tokensMined",
      "outputs": [
        {
          "internalType": "uint256",
          "name": "",
          "type": "uint256"
        }
      ],
      "stateMutability": "view",
      "type": "function"
    },
    {
      "inputs": [],
      "name": "totalMined",
      "outputs": [
        {
          "internalType": "uint256",
          "name": "",
          "type": "uint256"
        }
      ],
      "stateMutability": "view",
      "type": "function"
    },
    {
      "inputs": [],
      "name": "totalMiners",
      "outputs": [
        {
          "internalType": "uint256",
          "name": "",
          "type": "uint256"
        }
      ],
      "stateMutability": "view",
      "type": "function"
    },
    {
      "inputs": [],
      "name": "v2PairAddress",
      "outputs": [
        {
          "internalType": "address",
          "name": "",
          "type": "address"
        }
      ],
      "stateMutability": "view",
      "type": "function"
    }
  ],
  "bytecode": "0x6101e060408181523462000386578162002a6580380380916200002382856200038b565b83396101009384918101031262000386576200003f81620003c5565b9060206200004f818301620003c5565b93808301519060608401519060808501519660a08601519260e060c08801519701519760ff8916808a036200038657801515908162000379575b501562000335576001600160a01b0316608081905260a0929092524260c05260e085905289526101209788526101409283526101a09586526101c0968752815163d5abeb0160e01b8152908590829060049082905afa9485156200032a57600095620002f0575b5050605f8402848104605f1485151715620002c4578315620002da57606484910404838102938185041490151715620002c457610160928084528403938411620002c457610180938452519561268a9788620003db89396080518881816102460152818161061e01528181610bd901528181610c3101528181610cdb01528181610d5401528181610ebe01528181610f2f01528181610f6101528181610fdc015281816112b30152818161132b015281816113e401528181611477015281816115d50152818161169a0152818161187e015281816118b00152818161192b0152611bc0015260a0518861222b015260c051888181610394015281816104d4015281816105ae01528181611f0101526123b6015260e051888181610a7001526120f001525187818161043b0152818161054a0152610ad10152518681816103d801528181610b360152818161232501526123500152518581816108910152610a43015251848181610312015281816104990152610a990152518381816108cc01528181610d1e01528181610e1901528181610e6601528181611808015261183a0152518281816103730152818161050f0152818161058d01528181611ee00152612395015251818181610dcc0152611e890152f35b634e487b7160e01b600052601160045260246000fd5b634e487b7160e01b600052601260045260246000fd5b8181969293963d831162000322575b6200030b81836200038b565b810103126200031f575051923880620000f0565b80fd5b503d620002ff565b82513d6000823e3d90fd5b835162461bcd60e51b815260048101889052601f60248201527f546f6b656e4c61756e636865723a20696e76616c696420616d6d466c616773006044820152606490fd5b600f915011153862000089565b600080fd5b601f909101601f19168101906001600160401b03821190821017620003af57604052565b634e487b7160e01b600052604160045260246000fd5b51906001600160a01b0382168203620003865756fe608080604052600436101561001357600080fd5b600090813560e01c90816302d05d3f14612217575080631755ff21146121ed578063189ab242146121b05780631a561d7d146121735780631b583f90146121425780631bea83fe146121135780631ca944e9146120d8578063239f3af714611f7e57806324a1e0601461209b578063262d8f381461207f5780632ace07301461205657806347377d9214610976578063518263a114612014578063519bde9414611feb5780635556db6514611fce5780635e9cfb0014611f9f57806367d1197914611f835780636a92610214611f7e5780636e1e063f14611f4d578063764fe7d114611f2f57806377c5fd7f14611ead5780637b88151514611e6f5780637fb0cf0e14611e53578063841819df146109ef5780638cb4997d146109c657806399d8fae3146109975780639e7c66941461097b578063a4155b4414610976578063a6b0a71814610947578063a82ed9ec14610918578063aac4daac146108ef578063ada29fa9146108b4578063b14e579114610879578063b5545a3c1461056d578063b8221bc414610532578063c6e8ebd8146104f7578063cf09e0d0146104bc578063d6fb167814610481578063d83f5cec14610400578063d9f8ce05146103fb578063dd1b9c4a146103fb578063e0f67bc7146103c0578063e1aa1bcc1461035b578063e7c2b77214610338578063ebba348b146102f6578063ee6b373b146102b9578063f6a50850146102785763fc0c546a1461023157600080fd5b346102755780600319360112610275576040517f00000000000000000000000000000000000000000000000000000000000000006001600160a01b03168152602090f35b80fd5b5034610275576020366003190112610275576004356001600160a01b038116908190036102b5578160409160209352600783522054604051908152f35b5080fd5b5034610275576020366003190112610275576004356001600160a01b038116908190036102b5578160409160209352600183522054604051908152f35b50346102755780600319360112610275576040905481519081527f00000000000000000000000000000000000000000000000000000000000000006020820152f35b5034610275578060031936011261027557602060ff600854166040519015158152f35b503461027557806003193601126102755760206103b87f00000000000000000000000000000000000000000000000000000000000000007f00000000000000000000000000000000000000000000000000000000000000006122b4565b604051908152f35b503461027557806003193601126102755760206040517f00000000000000000000000000000000000000000000000000000000000000008152f35b612297565b5034610275576020366003190112610275576004356001600160a01b038116908190036102b5579060209181526001825261046060408220547f0000000000000000000000000000000000000000000000000000000000000000906122b4565b4281116104705750604051908152f35b61047c915042906122d7565b6103b8565b503461027557806003193601126102755760206040517f00000000000000000000000000000000000000000000000000000000000000008152f35b503461027557806003193601126102755760206040517f00000000000000000000000000000000000000000000000000000000000000008152f35b503461027557806003193601126102755760206040517f00000000000000000000000000000000000000000000000000000000000000008152f35b503461027557806003193601126102755760206040517f00000000000000000000000000000000000000000000000000000000000000008152f35b503461027557806003193601126102755760ff6008541661081d576105d27f00000000000000000000000000000000000000000000000000000000000000007f00000000000000000000000000000000000000000000000000000000000000006122b4565b4211156107c85733815260206006815260408220549081156107855733835260078152826040812054600683528160408120556007835281604081205561061a8183546122d7565b82557f00000000000000000000000000000000000000000000000000000000000000006001600160a01b0316803b1561077657604051632770a7eb60e21b8152336004820152602481019290925282908290604490829084905af1801561077a57610762575b5080808085335af13d1561075d573d67ffffffffffffffff811161074957604051906106b5601f8201601f1916850183612449565b815284833d92013e5b156106f75760405191825242908201527f5403db5f5a330d258426b5aef83e03924750ce4a92d0d341669efdc33824c44b60403392a280f35b6084906040519062461bcd60e51b82526004820152602560248201527f546f6b656e4c61756e636865723a20726566756e64207472616e736665722066604482015264185a5b195960da1b6064820152fd5b634e487b7160e01b85526041600452602485fd5b6106be565b61076b90612402565b610776578238610680565b8280fd5b6040513d84823e3d90fd5b6064906040519062461bcd60e51b825280600483015260248201527f546f6b656e4c61756e636865723a206e6f7468696e6720746f20726566756e646044820152fd5b60405162461bcd60e51b815260206004820152602760248201527f546f6b656e4c61756e636865723a206d696e696e672077696e646f772073746960448201526636361037b832b760c91b6064820152608490fd5b60405162461bcd60e51b815260206004820152602e60248201527f546f6b656e4c61756e636865723a20746f6b656e20686173206772616475617460448201526d65642c206e6f20726566756e647360901b6064820152608490fd5b503461027557806003193601126102755760206040517f00000000000000000000000000000000000000000000000000000000000000008152f35b503461027557806003193601126102755760206040517f00000000000000000000000000000000000000000000000000000000000000008152f35b5034610275578060031936011261027557600a546040516001600160a01b039091168152602090f35b503461027557806003193601126102755760206040517354599c3e0bcb99ca37b286242b5ec5d331ab9d188152f35b50346102755780600319360112610275576020604051733714f242fe169ab5eb0d763cf79aeaca5f727e7b8152f35b612278565b5034610275578060031936011261027557602060405160028152f35b5034610275578060031936011261027557602060405173b56b00c38ef85633a789644415a16b4c8ea12ef88152f35b5034610275578060031936011261027557600b546040516001600160a01b039091168152602090f35b5060203660031901126102755767ffffffffffffffff80600435116102b5573660236004350112156102b557600435600401359081116102b557366024826004350101116102b55760ff60085416611dfb577f00000000000000000000000000000000000000000000000000000000000000003410611db757815490610a967f000000000000000000000000000000000000000000000000000000000000000080936122b4565b917f0000000000000000000000000000000000000000000000000000000000000000809311611d72573384526001602052610af660408520547f0000000000000000000000000000000000000000000000000000000000000000906122b4565b4210611d2e5733845260036020526040842054620151808101809111611cac57421015611d10575b3384526002602052610b348160408620546122b4565b7f000000000000000000000000000000000000000000000000000000000000000010611cc0573384526001602052426040852055600260205260408420610b7c8282546122b4565b9055610b898185546122b4565b8455338452600660205260408420610ba23482546122b4565b9055338452600760205260408420610bbb8282546122b4565b9055338452600560205260408420805460ff811615611c8a575b50507f00000000000000000000000000000000000000000000000000000000000000006001600160a01b03163b15611c86576040516340c10f1960e01b8152336004820152602481018290528481604481836001600160a01b037f0000000000000000000000000000000000000000000000000000000000000000165af18015611c7b57611c48575b507fbf17f40327ab4320cdfaa84231ada95fb1ba0d2d336edd47510a8207786f9c12906040519060608252836060830152836024600435016080840137856080858401015260208201524260408201526080813394601f80199101168101030190a281541015610ccb5780f35b6008805460ff19166001179055477f00000000000000000000000000000000000000000000000000000000000000006001600160a01b03163b156102b5576040516340c10f1960e01b81523060048201527f0000000000000000000000000000000000000000000000000000000000000000602482015282908181604481836001600160a01b037f0000000000000000000000000000000000000000000000000000000000000000165af1801561077a57611c34575b50506000805160206126358339815191523b156102b557604051630d0e30db60e41b815282908181600481866000805160206126358339815191525af1801561077a57611c20575b507f000000000000000000000000000000000000000000000000000000000000000090506001811615158381611c18575b60028316611c0a575b60048316611bfc575b60088316611bee575b80927f00000000000000000000000000000000000000000000000000000000000000009185936117f6575b508560028216611593575b50600481166112e1575b600816610ee3575b505050604051907f0000000000000000000000000000000000000000000000000000000000000000825260208201524260408201527f74ddd6b35eb9921605ec2cb7da4af12cd0020d2117b708ade1d30523471b7441606060018060a01b037f00000000000000000000000000000000000000000000000000000000000000001692a280f35b82610f17610f1d9260ff610f09961694610f11610f00878461246b565b9788978361246b565b9788936122d7565b506122d7565b5061248b565b506000805160206126358339815191527f00000000000000000000000000000000000000000000000000000000000000006001600160a01b0316109081156112a1577f00000000000000000000000000000000000000000000000000000000000000006001600160a01b031692600080516020612635833981519152925b1561129a579081815b60405163095ea7b360e01b815273be59000f37677d96115f397c91834dcb72dfc279600482015260248101919091526020816044818b7f00000000000000000000000000000000000000000000000000000000000000006001600160a01b03165af1801561128f57611270575b506040519063095ea7b360e01b825273be59000f37677d96115f397c91834dcb72dfc279600483015260248201526020816044818a6000805160206126358339815191525af1801561123657611241575b506110b3602061107284846125a2565b6040516309f56ab160e11b81526001600160a01b0380891660048301528088166024830152610bb86044830152909116606482015291829081906084820190565b03818a73be59000f37677d96115f397c91834dcb72dfc2795af1908115611236578791611207575b5060018060a01b03166bffffffffffffffffffffffff60a01b600b541617600b5561012c4201928342116111f357604051946111168661242c565b60018060a01b0316855260018060a01b03166020850152610bb86040850152620d89b3196060850152620d89b4608085015260a084015260c08301528360e0830152836101008301523061012083015261014082015261118760405191634418b22b60e11b8352600483019061251e565b608081610164818673be59000f37677d96115f397c91834dcb72dfc2795af180156111e8576111b8575b8080610e5d565b6111d99060803d6080116111e1575b6111d18183612449565b8101906124e3565b5050506111b1565b503d6111c7565b6040513d85823e3d90fd5b634e487b7160e01b87526011600452602487fd5b611229915060203d60201161122f575b6112218183612449565b8101906124c4565b386110db565b503d611217565b6040513d89823e3d90fd5b6112629060203d602011611269575b61125a8183612449565b8101906124ac565b5038611062565b503d611250565b6112889060203d6020116112695761125a8183612449565b5038611011565b6040513d8a823e3d90fd5b8082610fa4565b600080516020612635833981519152927f00000000000000000000000000000000000000000000000000000000000000006001600160a01b031692610f9b565b83929161131c61131660ff6113089716926113106112ff858361246b565b9889958861246b565b9485926122d7565b956122d7565b9461248b565b60405163e343361560e01b81527f00000000000000000000000000000000000000000000000000000000000000006001600160a01b031660048201526000805160206126358339815191526024820152909590916020836044818c733714f242fe169ab5eb0d763cf79aeaca5f727e7b5af1928315611588578993611567575b50600a80546001600160a01b0319166001600160a01b03851690811790915560405163095ea7b360e01b8152600481019190915260248101839052602081806044810103818d7f00000000000000000000000000000000000000000000000000000000000000006001600160a01b03165af1801561153d57611548575b5060405163095ea7b360e01b81526001600160a01b038416600482015260248101829052916020836044818d6000805160206126358339815191525af192831561153d57602093611520575b506000805160206126358339815191527f00000000000000000000000000000000000000000000000000000000000000006001600160a01b03161015611517576064905b8a60405195869485936321ec87bf60e21b85526004850152602484015230604484015260018060a01b03165af18015611236576114e7575b50610e55565b602090813d8311611510575b6114fd8183612449565b8101031261150b57386114e1565b600080fd5b503d6114f3565b906064906114a9565b61153690843d86116112695761125a8183612449565b5038611465565b6040513d8c823e3d90fd5b6115609060203d6020116112695761125a8183612449565b5038611419565b61158191935060203d60201161122f576112218183612449565b913861139c565b6040513d8b823e3d90fd5b8493926115c66115c060ff6113089816926115ba6115b1858361246b565b998a958961246b565b966122d7565b9561248b565b6040516364e329cb60e11b81527f00000000000000000000000000000000000000000000000000000000000000006001600160a01b031660048201526000805160206126358339815191526024820152909690916020836044818773b56b00c38ef85633a789644415a16b4c8ea12ef85af19182156117c9576116959385936117d4575b50600980546001600160a01b0319166001600160a01b03851690811790915560405163a9059cbb60e01b81526004810191909152602481019190915292602090849081906044820190565b0381877f00000000000000000000000000000000000000000000000000000000000000006001600160a01b03165af19081156117c957611708936020926117ac575b5060405163a9059cbb60e01b81526001600160a01b0384166004820152602481019190915292839081906044820190565b0381866000805160206126358339815191525af19182156111e85760209261178f575b506040516335313c2160e11b815230600482015292839160249183916001600160a01b03165af1801561123657611764575b5085610e4b565b602090813d8311611788575b61177a8183612449565b8101031261150b573861175d565b503d611770565b6117a590833d85116112695761125a8183612449565b503861172b565b6117c290833d85116112695761125a8183612449565b50386116d7565b6040513d86823e3d90fd5b60209193506117ef90823d841161122f576112218183612449565b929061164a565b925092505060ff811661183361182c827f000000000000000000000000000000000000000000000000000000000000000061246b565b918561246b565b9261185e827f00000000000000000000000000000000000000000000000000000000000000006122d7565b9161186c61131686886122d7565b946000805160206126358339815191527f00000000000000000000000000000000000000000000000000000000000000006001600160a01b031610918215611bae577f00000000000000000000000000000000000000000000000000000000000000006001600160a01b031692600080516020612635833981519152905b15611ba4578982845b60405163095ea7b360e01b81527377c39eb310be31e60068ce29855f83359bf85fc460048201526024810192909252602082604481867f00000000000000000000000000000000000000000000000000000000000000006001600160a01b03165af19182156111e857602092611b87575b5060446040518094819363095ea7b360e01b83527377c39eb310be31e60068ce29855f83359bf85fc4600484015260248301526000805160206126358339815191525af18015611b5d57611b68575b50611a0860206119c385856125a2565b6040516309f56ab160e11b81526001600160a01b0380891660048301528086166024830152610bb8604483015290911660648201529182908d90829081906084820190565b03917377c39eb310be31e60068ce29855f83359bf85fc45af1908115611b5d578b91611b3e575b5060088054610100600160a81b03191691811b610100600160a81b03169190911790554261012c810110611b2a5760405193611a6a8561242c565b60018060a01b0316845260018060a01b03166020840152610bb86040840152620d89b3196060840152620d89b4608084015260a083015260c08201528660e0820152866101008201523061012082015261012c4201610140820152611ae060405191634418b22b60e11b8352600483019061251e565b608081610164818a7377c39eb310be31e60068ce29855f83359bf85fc45af180156112365715610e4057611b229060803d6080116111e1576111d18183612449565b505050610e40565b634e487b7160e01b8a52601160045260248afd5b611b57915060203d60201161122f576112218183612449565b38611a2f565b6040513d8d823e3d90fd5b611b809060203d6020116112695761125a8183612449565b50386119b3565b611b9d90833d85116112695761125a8183612449565b5038611964565b89839280946118f3565b600080516020612635833981519152927f00000000000000000000000000000000000000000000000000000000000000006001600160a01b0316906118ea565b611bf79061249b565b610e15565b611c059061249b565b610e0c565b611c139061249b565b610e03565b506001610dfa565b611c2990612402565b6102b5578138610dc9565b611c3d90612402565b6102b5578138610d81565b93611c747fbf17f40327ab4320cdfaa84231ada95fb1ba0d2d336edd47510a8207786f9c129295612402565b9390610c5e565b6040513d87823e3d90fd5b8380fd5b60ff191660011790556004546000198114611cac576001016004553880610bd5565b634e487b7160e01b85526011600452602485fd5b60405162461bcd60e51b815260206004820152602260248201527f546f6b656e4c61756e636865723a206461696c79206c696d6974207265616368604482015261195960f21b6064820152608490fd5b33845260036020524260408520556002602052836040812055610b1e565b606460405162461bcd60e51b815260206004820152602060248201527f546f6b656e4c61756e636865723a20636f6f6c646f776e206e6f74206f7665726044820152fd5b60405162461bcd60e51b815260206004820152601e60248201527f546f6b656e4c61756e636865723a206d696e696e6720636f6d706c65746500006044820152606490fd5b606460405162461bcd60e51b815260206004820152602060248201527f546f6b656e4c61756e636865723a2055534443206665652072657175697265646044820152fd5b60405162461bcd60e51b815260206004820152602a60248201527f546f6b656e2068617320677261647561746564202d2073776170206f6e20554e6044820152694954464c4f572056332160b01b6064820152608490fd5b5034610275578060031936011261027557602060405160088152f35b5034610275578060031936011261027557602060405160ff7f0000000000000000000000000000000000000000000000000000000000000000168152f35b503461027557806003193601126102755760ff600854161580611ed8575b6020906040519015158152f35b506020611f257f00000000000000000000000000000000000000000000000000000000000000007f00000000000000000000000000000000000000000000000000000000000000006122b4565b4211159050611ecb565b50346102755780600319360112610275576020600454604051908152f35b503461027557602036600319011261027557600435906001600160a01b03821682036102755760206103b883612386565b61225a565b5034610275578060031936011261027557602060405160048152f35b5034610275578060031936011261027557602060405173be59000f37677d96115f397c91834dcb72dfc2798152f35b503461027557806003193601126102755760209054604051908152f35b503461027557806003193601126102755760206040516000805160206126358339815191528152f35b5034610275576020366003190112610275576004356001600160a01b038116908190036102b55760408260ff9260209452600584522054166040519015158152f35b50346102755780600319360112610275576009546040516001600160a01b039091168152602090f35b5034610275578060031936011261027557602060405160018152f35b5034610275576020366003190112610275576004356001600160a01b038116908190036102b5578160409160209352600283522054604051908152f35b503461027557806003193601126102755760206040517f00000000000000000000000000000000000000000000000000000000000000008152f35b503461027557806003193601126102755760206040517377c39eb310be31e60068ce29855f83359bf85fc48152f35b503461027557602036600319011261027557600435906001600160a01b03821682036102755760206103b8836122e4565b5034610275576020366003190112610275576004356001600160a01b038116908190036102b5578160409160209352600683522054604051908152f35b5034610275576020366003190112610275576004356001600160a01b038116908190036102b5578160409160209352600383522054604051908152f35b503461027557806003193601126102755760088054604051911c6001600160a01b03168152602090f35b9050346102b557816003193601126102b5577f00000000000000000000000000000000000000000000000000000000000000006001600160a01b03168152602090f35b3461150b57600036600319011261150b576020604051620d89b48152f35b3461150b57600036600319011261150b576020604051620d89b3198152f35b3461150b57600036600319011261150b576020604051610bb88152f35b919082018092116122c157565b634e487b7160e01b600052601160045260246000fd5b919082039182116122c157565b6001600160a01b03166000818152600360205260408120549091906201518081019081106123725742101561234c57816040916123499352600260205220547f00000000000000000000000000000000000000000000000000000000000000006122d7565b90565b50507f000000000000000000000000000000000000000000000000000000000000000090565b634e487b7160e01b83526011600452602483fd5b60ff600854166123fc576123da7f00000000000000000000000000000000000000000000000000000000000000007f00000000000000000000000000000000000000000000000000000000000000006122b4565b4211156123fc576001600160a01b031660009081526006602052604090205490565b50600090565b67ffffffffffffffff811161241657604052565b634e487b7160e01b600052604160045260246000fd5b610160810190811067ffffffffffffffff82111761241657604052565b90601f8019910116810190811067ffffffffffffffff82111761241657604052565b8115612475570490565b634e487b7160e01b600052601260045260246000fd5b60ff1680156122c1576000190190565b60ff1660ff81146122c15760010190565b9081602091031261150b5751801515810361150b5790565b9081602091031261150b57516001600160a01b038116810361150b5790565b919082608091031261150b5781519160208101516fffffffffffffffffffffffffffffffff8116810361150b57916060604083015192015190565b60018060a01b0380825116835280602083015116602084015262ffffff6040830151166040840152606082015160020b6060840152608082015160020b608084015260a082015160a084015260c082015160c084015260e082015160e084015261010080830151908401526101209081830151169083015261014080910151910152565b801580156125df575b6125d4576001600160a01b03916125cd916125c89160601b61246b565b6125e7565b60301b1690565b50600160601b919050565b5081156125ab565b90811561262e5760018260011c600181018091116122c15790835b84831061260e57505050565b9091935061262584612620818461246b565b6122b4565b821c9190612602565b6000915056fe000000000000000000000000911b4000d3422f482f4062a913885f7b035382dfa264697066735822122068cb183a5866f9da00f57ca409803ab3213b4dd23b07825d641963610dc2842564736f6c63430008180033",
  "linkReferences": {},
  "deployedLinkReferences": {}
}