{
  "_format": "hh-sol-artifact-1",
  "contractName": "StableSwapFactory",
  "sourceName": "src/StableSwapFactory.sol",
  "abi": [
    {
      "anonymous": false,
      "inputs": [
        {
          "indexed": true,
          "internalType": "address",
          "name": "token0",
          "type": "address"
        },
        {
          "indexed": true,
          "internalType": "address",
          "name": "token1",
          "type": "address"
        },
        {
          "indexed": false,
          "internalType": "address",
          "name": "pool",
          "type": "address"
        },
        {
          "indexed": false,
          "internalType": "uint256",
          "name": "index",
          "type": "uint256"
        }
      ],
      "name": "PoolCreated",
      "type": "event"
    },
    {
      "inputs": [
        {
          "internalType": "uint256",
          "name": "",
          "type": "uint256"
        }
      ],
      "name": "allPools",
      "outputs": [
        {
          "internalType": "address",
          "name": "",
          "type": "address"
        }
      ],
      "stateMutability": "view",
      "type": "function"
    },
    {
      "inputs": [],
      "name": "allPoolsLength",
      "outputs": [
        {
          "internalType": "uint256",
          "name": "",
          "type": "uint256"
        }
      ],
      "stateMutability": "view",
      "type": "function"
    },
    {
      "inputs": [
        {
          "internalType": "address",
          "name": "tokenA",
          "type": "address"
        },
        {
          "internalType": "address",
          "name": "tokenB",
          "type": "address"
        }
      ],
      "name": "createPool",
      "outputs": [
        {
          "internalType": "address",
          "name": "pool",
          "type": "address"
        }
      ],
      "stateMutability": "nonpayable",
      "type": "function"
    },
    {
      "inputs": [
        {
          "internalType": "address",
          "name": "",
          "type": "address"
        },
        {
          "internalType": "address",
          "name": "",
          "type": "address"
        }
      ],
      "name": "getPool",
      "outputs": [
        {
          "internalType": "address",
          "name": "",
          "type": "address"
        }
      ],
      "stateMutability": "view",
      "type": "function"
    }
  ],
  "bytecode": "0x6080806040523461001657611292908161001c8239f35b600080fdfe6040608081526004908136101561001557600080fd5b600091823560e01c90816341d1de97146103a5578163531aa03e1461035a578163e343361514610070575063efde4e641461004f57600080fd5b3461006c578160031936011261006c576020906001549051908152f35b5080fd5b83833461006c578060031936011261006c5761008a61043a565b92610093610455565b6001600160a01b0394909190858316818716808214610308578792911115610302575b169081156102bf5781855260209585875280858720941693848752875280858720541661027c57845195610df19687810167ffffffffffffffff988282108a8311176102695790829161046c8339039082f0801561025d57821696873b1561006c5786519063485cc95560e01b825285858301528660248301528282604481838d5af1801561025357610231575b505090838252818852858220856000528852856000206bffffffffffffffffffffffff60a01b9088828254161790558583528289528683208560005289528787600020918254161790556001546801000000000000000081101561021e578060016101b292016001556103ed565b819291549060031b9189831b921b191617905560015491600019830192831161020b575050837febbbe9dc3a19d2f959ac76ac0372b4983cdfb945f5d6aef4873c36fabb2ba8aa9181519087825288820152a351908152f35b634e487b7160e01b825260119052602490fd5b634e487b7160e01b835260418452602483fd5b81116102405786528880610144565b634e487b7160e01b825260418452602482fd5b88513d85823e3d90fd5b508551903d90823e3d90fd5b634e487b7160e01b845260418652602484fd5b845162461bcd60e51b8152808301889052601e60248201527f537461626c6553776170466163746f72793a20504f4f4c5f45584953545300006044820152606490fd5b606490602085519162461bcd60e51b8352820152601f60248201527f537461626c6553776170466163746f72793a205a45524f5f41444452455353006044820152fd5b926100b6565b855162461bcd60e51b8152602081860152602660248201527f537461626c6553776170466163746f72793a204944454e544943414c5f41444460448201526552455353455360d01b6064820152608490fd5b50503461006c578060031936011261006c576020918161037861043a565b91610381610455565b6001600160a01b039384168252818652828220908416825285522054915191168152f35b9050346103e95760203660031901126103e95735916001548310156103e657506103d06020926103ed565b905491519160018060a01b039160031b1c168152f35b80fd5b8280fd5b6001548110156104245760016000527fb10e2d527612073b26eecdfd717e6a320cf44b4afac2b0732d9fcbe2b7fa0cf60190600090565b634e487b7160e01b600052603260045260246000fd5b600435906001600160a01b038216820361045057565b600080fd5b602435906001600160a01b03821682036104505756fe6080806040523461001657610dd5908161001c8239f35b600080fdfe608080604052600436101561001357600080fd5b600090813560e01c9081630dfe168114610a1c5750806311106ee21461097057806318160ddd146109525780632935775014610936578063443cb4bc14610918578063485cc9551461086b5780634af0871b146105c65780635a76f25e146105a857806370a082311461056f57806387b21efc146101e6578063aaf5eb68146101c3578063c57981b5146101a7578063d011f9181461018b578063d21220a714610162578063d73792a914610145578063dd62ed3e146100fa5763f446c1d0146100dc57600080fd5b346100f757806003193601126100f757602060405160558152f35b80fd5b50346100f75760403660031901126100f7576040602091610119610a58565b610121610a6e565b6001600160a01b039182168352600685528383209116825283522054604051908152f35b50346100f757806003193601126100f75760206040516127108152f35b50346100f757806003193601126100f7576001546040516001600160a01b039091168152602090f35b50346100f757806003193601126100f757602060405160648152f35b50346100f757806003193601126100f757602060405160048152f35b50346100f757806003193601126100f7576020604051670de0b6b3a76400008152f35b50346100f75760603660031901126100f75760043590602435610207610a84565b9260018060a01b03835416908115610538576040516370a0823160e01b8082523060048301529091602083602481875afa9283156104f9578693610504575b50600154604051928352306004840152602090839060249082906001600160a01b03165afa9182156104f95786926104c1575b50600254600354918115806104b9575b1561047e578096955b6040516323b872dd60e01b808252336004830152306024830152604482019390935290602090829060649082908d905af190811561047357906102dc918a91610439575b50610b4d565b60015460405191825233600483015230602483015260448201879052602090829060649082908c906001600160a01b03165af1908115610468578761033d610357969561034d956103388b96610343968f916104395750610b4d565b610b8b565b96610a9a565b9283600255610a9a565b9081600355610b8b565b600454918280610418575050935b84156103da5760209561037a86604094610a9a565b6004556001600160a01b031681526005865220805461039a908590610a9a565b9055604051918252838201528160408201527fb4c03061fb5b7fed76389d5af8f2e0ddb09f8c70d1333abbb62582835e10accb60603392a2604051908152f35b60405162461bcd60e51b8152602060048201526016602482015275494e53554646494349454e545f4c495155494449545960501b6044820152606490fd5b61042e906104298361043395610abd565b610aca565b610add565b93610365565b61045b915060203d602011610461575b6104538183610afd565b810190610b35565b386102d6565b503d610449565b6040513d8a823e3d90fd5b6040513d8b823e3d90fd5b61048f8261042e85849a999a610aca565b9580871161049f57508096610292565b969550506104b18261042e8389610aca565b809695610292565b508215610289565b9091506020813d6020116104f1575b816104dd60209383610afd565b810103126104ed57519038610279565b8580fd5b3d91506104d0565b6040513d88823e3d90fd5b9092506020813d602011610530575b8161052060209383610afd565b810103126104ed57519138610246565b3d9150610513565b60405162461bcd60e51b815260206004820152600f60248201526e139bdd081a5b9a5d1a585b1a5e9959608a1b6044820152606490fd5b50346100f75760203660031901126100f7576020906040906001600160a01b03610597610a58565b168152600583522054604051908152f35b50346100f757806003193601126100f7576020600354604051908152f35b50346100f75760603660031901126100f7576004356105e3610a44565b906105ec610a84565b9181156108315780156108195783546001546001600160a01b039182169591165b6040516323b872dd60e01b8152336004820152306024820152604481018590526020966001600160a01b039190889082906064908290889087165af190811561080e57906106619185916107f75750610b4d565b83156107ee57600254955b84156107e557600354965b61069e6106986106918961068b8c86610b8b565b94610a9a565b9283610cae565b89610abd565b8060021b818104600414821517156107d157906127106106bf920490610abd565b9788156107965791604491898b959489600014610782576106e292600255610abd565b6003555b8583604051968795869463a9059cbb60e01b86521660048501528b6024850152165af1918215610776579061071f9261075f5750610b4d565b6040519182528284830152151560408201527fcc65e4d9060ece2ecf63011ac580550b04c8daeba63fac4dfe8669353cd8885960603392a2604051908152f35b61045b9150863d8811610461576104538183610afd565b604051903d90823e3d90fd5b61078e92600355610abd565b6002556106e6565b60405162461bcd60e51b8152600481018b90526013602482015272125394d551919250d251539517d3d555141555606a1b6044820152606490fd5b634e487b7160e01b87526011600452602487fd5b60025496610677565b6003549561066c565b61045b9150893d8b11610461576104538183610afd565b6040513d86823e3d90fd5b60015484546001600160a01b0391821695911661060d565b60405162461bcd60e51b8152602060048201526012602482015271125394d551919250d251539517d25394155560721b6044820152606490fd5b50346100f75760403660031901126100f757610885610a58565b61088d610a6e565b82546001600160a01b03929190838116158061090c575b156108d15783926bffffffffffffffffffffffff60a01b9485911691161784551690600154161760015580f35b60405162461bcd60e51b8152602060048201526013602482015272105b1c9958591e481a5b9a5d1a585b1a5e9959606a1b6044820152606490fd5b508360015416156108a4565b50346100f757806003193601126100f7576020600254604051908152f35b50346100f757806003193601126100f757602060405160028152f35b50346100f757806003193601126100f7576020600454604051908152f35b50346100f75760403660031901126100f7576109c761098d610a44565b8015610a1357600254905b15610a07576109c1600354915b6109bc6109b28483610b8b565b9160043590610a9a565b610cae565b90610abd565b908160021b90828204600414831517156109f35760206109eb612710840485610abd565b604051908152f35b634e487b7160e01b81526011600452602490fd5b6109c1600254916109a5565b60035490610998565b905034610a405781600319360112610a405790546001600160a01b03168152602090f35b5080fd5b602435908115158203610a5357565b600080fd5b600435906001600160a01b0382168203610a5357565b602435906001600160a01b0382168203610a5357565b604435906001600160a01b0382168203610a5357565b91908201809211610aa757565b634e487b7160e01b600052601160045260246000fd5b91908203918211610aa757565b81810292918115918404141715610aa757565b8115610ae7570490565b634e487b7160e01b600052601260045260246000fd5b90601f8019910116810190811067ffffffffffffffff821117610b1f57604052565b634e487b7160e01b600052604160045260246000fd5b90816020910312610a5357518015158103610a535790565b15610b5457565b60405162461bcd60e51b815260206004820152600f60248201526e151c985b9cd9995c8819985a5b1959608a1b6044820152606490fd5b610b958282610a9a565b908115610ca657908092600091614268908082029182041415936064809204935b60ff8110610bc8575b50505050505090565b610bd58780969798610aca565b60019060029084831b851586820484141715610aa7576104298991610bf993610add565b9686831b97878904831488151715610aa7578a98610c1691610add565b91819a610aa75782841b908382041483151715610aa75781610429610c3b928c610a9a565b906142049080820291820403610aa75760039280840293840403610aa757610c6e9287610c689204610a9a565b90610add565b978881811115610c985790610c8291610abd565b1115610c9357600101949394610bb6565b610bbf565b610ca191610abd565b610c82565b505050600090565b610cb88280610aca565b906001918160011b82810460021483151715610aa7576104298591610cdc93610add565b606481029080820460641490151715610aa7576184d0900490606484029084820460641485151715610aa757614268610d16920490610a9a565b908360005b60ff8110610d2c575b505050505090565b85610d4084610d3b8380610aca565b610a9a565b906001600160ff1b0381168103610aa7578691610c6885610d6689610d6b95871b610a9a565b610abd565b968781811115610d915790610d7f91610abd565b1115610d8c578401610d1b565b610d24565b610d9a91610abd565b610d7f56fea2646970667358221220e9b8dbc70c7e152b72fc7d1c8f0703d2baa636d035865f5cb0e715566ba5791664736f6c63430008180033a264697066735822122012fa46a4e4ab627661fc79693bb310ff6db78693852ecccdc60670ad9c03fabb64736f6c63430008180033",
  "linkReferences": {},
  "deployedLinkReferences": {}
}