{
  "_format": "hh-sol-artifact-1",
  "contractName": "TestToken",
  "sourceName": "src/TestToken.sol",
  "abi": [
    {
      "inputs": [
        {
          "internalType": "string",
          "name": "name_",
          "type": "string"
        },
        {
          "internalType": "string",
          "name": "symbol_",
          "type": "string"
        },
        {
          "internalType": "uint8",
          "name": "decimals_",
          "type": "uint8"
        }
      ],
      "stateMutability": "nonpayable",
      "type": "constructor"
    },
    {
      "inputs": [
        {
          "internalType": "address",
          "name": "spender",
          "type": "address"
        },
        {
          "internalType": "uint256",
          "name": "allowance",
          "type": "uint256"
        },
        {
          "internalType": "uint256",
          "name": "needed",
          "type": "uint256"
        }
      ],
      "name": "ERC20InsufficientAllowance",
      "type": "error"
    },
    {
      "inputs": [
        {
          "internalType": "address",
          "name": "sender",
          "type": "address"
        },
        {
          "internalType": "uint256",
          "name": "balance",
          "type": "uint256"
        },
        {
          "internalType": "uint256",
          "name": "needed",
          "type": "uint256"
        }
      ],
      "name": "ERC20InsufficientBalance",
      "type": "error"
    },
    {
      "inputs": [
        {
          "internalType": "address",
          "name": "approver",
          "type": "address"
        }
      ],
      "name": "ERC20InvalidApprover",
      "type": "error"
    },
    {
      "inputs": [
        {
          "internalType": "address",
          "name": "receiver",
          "type": "address"
        }
      ],
      "name": "ERC20InvalidReceiver",
      "type": "error"
    },
    {
      "inputs": [
        {
          "internalType": "address",
          "name": "sender",
          "type": "address"
        }
      ],
      "name": "ERC20InvalidSender",
      "type": "error"
    },
    {
      "inputs": [
        {
          "internalType": "address",
          "name": "spender",
          "type": "address"
        }
      ],
      "name": "ERC20InvalidSpender",
      "type": "error"
    },
    {
      "inputs": [
        {
          "internalType": "address",
          "name": "owner",
          "type": "address"
        }
      ],
      "name": "OwnableInvalidOwner",
      "type": "error"
    },
    {
      "inputs": [
        {
          "internalType": "address",
          "name": "account",
          "type": "address"
        }
      ],
      "name": "OwnableUnauthorizedAccount",
      "type": "error"
    },
    {
      "anonymous": false,
      "inputs": [
        {
          "indexed": true,
          "internalType": "address",
          "name": "owner",
          "type": "address"
        },
        {
          "indexed": true,
          "internalType": "address",
          "name": "spender",
          "type": "address"
        },
        {
          "indexed": false,
          "internalType": "uint256",
          "name": "value",
          "type": "uint256"
        }
      ],
      "name": "Approval",
      "type": "event"
    },
    {
      "anonymous": false,
      "inputs": [
        {
          "indexed": true,
          "internalType": "address",
          "name": "previousOwner",
          "type": "address"
        },
        {
          "indexed": true,
          "internalType": "address",
          "name": "newOwner",
          "type": "address"
        }
      ],
      "name": "OwnershipTransferred",
      "type": "event"
    },
    {
      "anonymous": false,
      "inputs": [
        {
          "indexed": true,
          "internalType": "address",
          "name": "from",
          "type": "address"
        },
        {
          "indexed": true,
          "internalType": "address",
          "name": "to",
          "type": "address"
        },
        {
          "indexed": false,
          "internalType": "uint256",
          "name": "value",
          "type": "uint256"
        }
      ],
      "name": "Transfer",
      "type": "event"
    },
    {
      "inputs": [
        {
          "internalType": "address",
          "name": "owner",
          "type": "address"
        },
        {
          "internalType": "address",
          "name": "spender",
          "type": "address"
        }
      ],
      "name": "allowance",
      "outputs": [
        {
          "internalType": "uint256",
          "name": "",
          "type": "uint256"
        }
      ],
      "stateMutability": "view",
      "type": "function"
    },
    {
      "inputs": [
        {
          "internalType": "address",
          "name": "spender",
          "type": "address"
        },
        {
          "internalType": "uint256",
          "name": "value",
          "type": "uint256"
        }
      ],
      "name": "approve",
      "outputs": [
        {
          "internalType": "bool",
          "name": "",
          "type": "bool"
        }
      ],
      "stateMutability": "nonpayable",
      "type": "function"
    },
    {
      "inputs": [
        {
          "internalType": "address",
          "name": "account",
          "type": "address"
        }
      ],
      "name": "balanceOf",
      "outputs": [
        {
          "internalType": "uint256",
          "name": "",
          "type": "uint256"
        }
      ],
      "stateMutability": "view",
      "type": "function"
    },
    {
      "inputs": [],
      "name": "decimals",
      "outputs": [
        {
          "internalType": "uint8",
          "name": "",
          "type": "uint8"
        }
      ],
      "stateMutability": "view",
      "type": "function"
    },
    {
      "inputs": [],
      "name": "faucet",
      "outputs": [],
      "stateMutability": "nonpayable",
      "type": "function"
    },
    {
      "inputs": [
        {
          "internalType": "address",
          "name": "to",
          "type": "address"
        },
        {
          "internalType": "uint256",
          "name": "amount",
          "type": "uint256"
        }
      ],
      "name": "mint",
      "outputs": [],
      "stateMutability": "nonpayable",
      "type": "function"
    },
    {
      "inputs": [],
      "name": "name",
      "outputs": [
        {
          "internalType": "string",
          "name": "",
          "type": "string"
        }
      ],
      "stateMutability": "view",
      "type": "function"
    },
    {
      "inputs": [],
      "name": "owner",
      "outputs": [
        {
          "internalType": "address",
          "name": "",
          "type": "address"
        }
      ],
      "stateMutability": "view",
      "type": "function"
    },
    {
      "inputs": [],
      "name": "renounceOwnership",
      "outputs": [],
      "stateMutability": "nonpayable",
      "type": "function"
    },
    {
      "inputs": [],
      "name": "symbol",
      "outputs": [
        {
          "internalType": "string",
          "name": "",
          "type": "string"
        }
      ],
      "stateMutability": "view",
      "type": "function"
    },
    {
      "inputs": [],
      "name": "totalSupply",
      "outputs": [
        {
          "internalType": "uint256",
          "name": "",
          "type": "uint256"
        }
      ],
      "stateMutability": "view",
      "type": "function"
    },
    {
      "inputs": [
        {
          "internalType": "address",
          "name": "to",
          "type": "address"
        },
        {
          "internalType": "uint256",
          "name": "value",
          "type": "uint256"
        }
      ],
      "name": "transfer",
      "outputs": [
        {
          "internalType": "bool",
          "name": "",
          "type": "bool"
        }
      ],
      "stateMutability": "nonpayable",
      "type": "function"
    },
    {
      "inputs": [
        {
          "internalType": "address",
          "name": "from",
          "type": "address"
        },
        {
          "internalType": "address",
          "name": "to",
          "type": "address"
        },
        {
          "internalType": "uint256",
          "name": "value",
          "type": "uint256"
        }
      ],
      "name": "transferFrom",
      "outputs": [
        {
          "internalType": "bool",
          "name": "",
          "type": "bool"
        }
      ],
      "stateMutability": "nonpayable",
      "type": "function"
    },
    {
      "inputs": [
        {
          "internalType": "address",
          "name": "newOwner",
          "type": "address"
        }
      ],
      "name": "transferOwnership",
      "outputs": [],
      "stateMutability": "nonpayable",
      "type": "function"
    }
  ],
  "bytecode": "0x604060a0815234620004355762000e40803803806200001e816200043a565b9283398101606082820312620004355781516001600160401b03908181116200043557826200004f91850162000460565b60209283850151838111620004355786916200006d91870162000460565b9401519060ff8216928383036200043557815181811162000335576003908154906001948583811c931680156200042a575b8984101462000414578190601f93848111620003be575b50899084831160011462000357576000926200034b575b505060001982851b1c191690851b1782555b8751928311620003355760049788548581811c911680156200032a575b898210146200031557828111620002ca575b50879184116001146200025f5793839491849260009562000253575b50501b92600019911b1c19161784555b33156200023c5760058054336001600160a01b0319821681179092556001600160a01b03167f8be0079c531659141344cd1fd0a4f28419497f9722a3daafe3b4186f6b6457e0600080a3608052604d81116200022757600a0a916298968092808402938404036200021257600254908382018092116200021257506000917fddf252ad1be2c89b69c2b068fc378daa952ba7f163c4a11628f55a4df523b3ef9160025533835282815284832084815401905584519384523393a35161096d9081620004d3823960805181818161016501526104660152f35b601190634e487b7160e01b6000525260246000fd5b601183634e487b7160e01b6000525260246000fd5b8451631e4fbdf760e01b8152600081860152602490fd5b0151935038806200012a565b9190601f198416928960005284896000209460005b8b89838310620002b2575050501062000297575b50505050811b0184556200013a565b01519060f884600019921b161c191690553880808062000288565b86860151895590970196948501948893500162000274565b89600052886000208380870160051c8201928b88106200030b575b0160051c019086905b828110620002fe5750506200010e565b60008155018690620002ee565b92508192620002e5565b60228a634e487b7160e01b6000525260246000fd5b90607f1690620000fc565b634e487b7160e01b600052604160045260246000fd5b015190503880620000cd565b90879350601f19831691866000528b6000209260005b8d828210620003a757505084116200038e575b505050811b018255620000df565b015160001983871b60f8161c1916905538808062000380565b8385015186558b979095019493840193016200036d565b90915084600052896000208480850160051c8201928c86106200040a575b918991869594930160051c01915b828110620003fa575050620000b6565b60008155859450899101620003ea565b92508192620003dc565b634e487b7160e01b600052602260045260246000fd5b92607f16926200009f565b600080fd5b6040519190601f01601f191682016001600160401b038111838210176200033557604052565b919080601f84011215620004355782516001600160401b038111620003355760209062000496601f8201601f191683016200043a565b92818452828287010111620004355760005b818110620004be57508260009394955001015290565b8581018301518482018401528201620004a856fe6080604081815260048036101561001557600080fd5b600092833560e01c90816306fdde031461064557508063095ea7b31461059c57806318160ddd1461057d57806323b872dd1461048a578063313ce5671461044c57806340c10f191461041f57806370a08231146103e8578063715018a61461038b5780638da5cb5b1461036257806395d89b4114610240578063a9059cbb1461020f578063dd62ed3e146101c2578063de5f72fd1461014f5763f2fde38b146100bd57600080fd5b3461014b57602036600319011261014b576100d6610785565b906100df610894565b6001600160a01b03918216928315610135575050600554826bffffffffffffffffffffffff60a01b821617600555167f8be0079c531659141344cd1fd0a4f28419497f9722a3daafe3b4186f6b6457e08380a380f35b51631e4fbdf760e01b8152908101849052602490fd5b8280fd5b5082346101bf57806003193601126101bf5760ff7f000000000000000000000000000000000000000000000000000000000000000016604d81116101ac57600a0a6103e890808202918204036101ac576101a990336108c0565b80f35b506011602492634e487b7160e01b835252fd5b80fd5b50503461020b578060031936011261020b57806020926101e0610785565b6101e86107a0565b6001600160a01b0391821683526001865283832091168252845220549051908152f35b5080fd5b50503461020b578060031936011261020b5760209061023961022f610785565b60243590336107b6565b5160018152f35b5091903461020b578160031936011261020b5780519082845460018160011c9060018316928315610358575b60209384841081146103455783885290811561032957506001146102d4575b505050829003601f01601f191682019267ffffffffffffffff8411838510176102c157508291826102bd92528261073c565b0390f35b634e487b7160e01b815260418552602490fd5b8787529192508591837f8a35acfbc15ff81a39ae7d344fd709f28e8600b4aa8c65c6b64bfe7fe36bd19b5b838510610315575050505083010138808061028b565b8054888601830152930192849082016102ff565b60ff1916878501525050151560051b840101905038808061028b565b634e487b7160e01b895260228a52602489fd5b91607f169161026c565b50503461020b578160031936011261020b5760055490516001600160a01b039091168152602090f35b83346101bf57806003193601126101bf576103a4610894565b600580546001600160a01b0319811690915581906001600160a01b03167f8be0079c531659141344cd1fd0a4f28419497f9722a3daafe3b4186f6b6457e08280a380f35b50503461020b57602036600319011261020b5760209181906001600160a01b03610410610785565b16815280845220549051908152f35b50503461020b573660031901126101bf576101a961043b610785565b610443610894565b602435906108c0565b50503461020b578160031936011261020b576020905160ff7f0000000000000000000000000000000000000000000000000000000000000000168152f35b5082346101bf5760603660031901126101bf576104a5610785565b6104ad6107a0565b916044359360018060a01b0383168083526001602052868320338452602052868320549160001983106104e9575b6020886102398989896107b6565b86831061055157811561053a57331561052357508252600160209081528683203384528152918690209085900390558290610239876104db565b8751634a1406b160e11b8152908101849052602490fd5b875163e602df0560e01b8152908101849052602490fd5b8751637dc7a0d960e11b8152339181019182526020820193909352604081018790528291506060010390fd5b50503461020b578160031936011261020b576020906002549051908152f35b503461014b578160031936011261014b576105b5610785565b60243590331561062e576001600160a01b031691821561061757508083602095338152600187528181208582528752205582519081527f8c5be1e5ebec7d5bd14f71427d1e84f3dd0314c0f7b2291e5b200ac8c7c3b925843392a35160018152f35b8351634a1406b160e11b8152908101859052602490fd5b835163e602df0560e01b8152808401869052602490fd5b849150833461014b578260031936011261014b578260035460018160011c9060018316928315610732575b60209384841081146103455783885290811561071657506001146106c057505050829003601f01601f191682019267ffffffffffffffff8411838510176102c157508291826102bd92528261073c565b600387529192508591837fc2575a0e9e593c00f959f8c92f12db2869c3395a3b0502d05e2516446f71f85b5b838510610702575050505083010185808061028b565b8054888601830152930192849082016106ec565b60ff1916878501525050151560051b840101905085808061028b565b91607f1691610670565b6020808252825181830181905290939260005b82811061077157505060409293506000838284010152601f8019910116010190565b81810186015184820160400152850161074f565b600435906001600160a01b038216820361079b57565b600080fd5b602435906001600160a01b038216820361079b57565b916001600160a01b0380841692831561087b57169283156108625760009083825281602052604082205490838210610830575091604082827fddf252ad1be2c89b69c2b068fc378daa952ba7f163c4a11628f55a4df523b3ef958760209652828652038282205586815220818154019055604051908152a3565b60405163391434e360e21b81526001600160a01b03919091166004820152602481019190915260448101839052606490fd5b60405163ec442f0560e01b815260006004820152602490fd5b604051634b637e8f60e11b815260006004820152602490fd5b6005546001600160a01b031633036108a857565b60405163118cdaa760e01b8152336004820152602490fd5b6001600160a01b031690811561086257600254908082018092116109215760207fddf252ad1be2c89b69c2b068fc378daa952ba7f163c4a11628f55a4df523b3ef9160009360025584845283825260408420818154019055604051908152a3565b634e487b7160e01b600052601160045260246000fdfea264697066735822122095512fd8986ab9fe5e896f516b151d89dcc407e79076f4fddb97ba8d8bb5dc9064736f6c63430008180033",
  "linkReferences": {},
  "deployedLinkReferences": {}
}