{
  "_format": "hh-sol-artifact-1",
  "contractName": "PredictionMarket",
  "sourceName": "src/PredictionMarket.sol",
  "abi": [
    {
      "inputs": [
        {
          "internalType": "address",
          "name": "_usdc",
          "type": "address"
        },
        {
          "internalType": "address",
          "name": "_resolver",
          "type": "address"
        },
        {
          "internalType": "string",
          "name": "_question",
          "type": "string"
        },
        {
          "internalType": "string",
          "name": "_category",
          "type": "string"
        },
        {
          "internalType": "uint256",
          "name": "_expiry",
          "type": "uint256"
        }
      ],
      "stateMutability": "nonpayable",
      "type": "constructor"
    },
    {
      "inputs": [],
      "name": "ReentrancyGuardReentrantCall",
      "type": "error"
    },
    {
      "inputs": [
        {
          "internalType": "address",
          "name": "token",
          "type": "address"
        }
      ],
      "name": "SafeERC20FailedOperation",
      "type": "error"
    },
    {
      "anonymous": false,
      "inputs": [
        {
          "indexed": false,
          "internalType": "uint8",
          "name": "outcome",
          "type": "uint8"
        }
      ],
      "name": "MarketResolved",
      "type": "event"
    },
    {
      "anonymous": false,
      "inputs": [
        {
          "indexed": true,
          "internalType": "address",
          "name": "user",
          "type": "address"
        },
        {
          "indexed": false,
          "internalType": "bool",
          "name": "isYes",
          "type": "bool"
        },
        {
          "indexed": false,
          "internalType": "uint256",
          "name": "usdcIn",
          "type": "uint256"
        }
      ],
      "name": "PositionBought",
      "type": "event"
    },
    {
      "anonymous": false,
      "inputs": [
        {
          "indexed": true,
          "internalType": "address",
          "name": "user",
          "type": "address"
        },
        {
          "indexed": false,
          "internalType": "bool",
          "name": "isYes",
          "type": "bool"
        },
        {
          "indexed": false,
          "internalType": "uint256",
          "name": "usdcOut",
          "type": "uint256"
        }
      ],
      "name": "PositionSold",
      "type": "event"
    },
    {
      "anonymous": false,
      "inputs": [
        {
          "indexed": true,
          "internalType": "address",
          "name": "user",
          "type": "address"
        },
        {
          "indexed": false,
          "internalType": "uint256",
          "name": "usdcOut",
          "type": "uint256"
        }
      ],
      "name": "WinningsClaimed",
      "type": "event"
    },
    {
      "inputs": [],
      "name": "SELL_FEE_BPS",
      "outputs": [
        {
          "internalType": "uint256",
          "name": "",
          "type": "uint256"
        }
      ],
      "stateMutability": "view",
      "type": "function"
    },
    {
      "inputs": [
        {
          "internalType": "uint256",
          "name": "usdcAmount",
          "type": "uint256"
        }
      ],
      "name": "buyNo",
      "outputs": [],
      "stateMutability": "nonpayable",
      "type": "function"
    },
    {
      "inputs": [
        {
          "internalType": "uint256",
          "name": "usdcAmount",
          "type": "uint256"
        }
      ],
      "name": "buyYes",
      "outputs": [],
      "stateMutability": "nonpayable",
      "type": "function"
    },
    {
      "inputs": [],
      "name": "category",
      "outputs": [
        {
          "internalType": "string",
          "name": "",
          "type": "string"
        }
      ],
      "stateMutability": "view",
      "type": "function"
    },
    {
      "inputs": [],
      "name": "claimWinnings",
      "outputs": [],
      "stateMutability": "nonpayable",
      "type": "function"
    },
    {
      "inputs": [],
      "name": "expiry",
      "outputs": [
        {
          "internalType": "uint256",
          "name": "",
          "type": "uint256"
        }
      ],
      "stateMutability": "view",
      "type": "function"
    },
    {
      "inputs": [
        {
          "internalType": "address",
          "name": "",
          "type": "address"
        }
      ],
      "name": "noBalance",
      "outputs": [
        {
          "internalType": "uint256",
          "name": "",
          "type": "uint256"
        }
      ],
      "stateMutability": "view",
      "type": "function"
    },
    {
      "inputs": [],
      "name": "noPool",
      "outputs": [
        {
          "internalType": "uint256",
          "name": "",
          "type": "uint256"
        }
      ],
      "stateMutability": "view",
      "type": "function"
    },
    {
      "inputs": [],
      "name": "outcome",
      "outputs": [
        {
          "internalType": "uint8",
          "name": "",
          "type": "uint8"
        }
      ],
      "stateMutability": "view",
      "type": "function"
    },
    {
      "inputs": [],
      "name": "question",
      "outputs": [
        {
          "internalType": "string",
          "name": "",
          "type": "string"
        }
      ],
      "stateMutability": "view",
      "type": "function"
    },
    {
      "inputs": [
        {
          "internalType": "uint8",
          "name": "_outcome",
          "type": "uint8"
        }
      ],
      "name": "resolve",
      "outputs": [],
      "stateMutability": "nonpayable",
      "type": "function"
    },
    {
      "inputs": [],
      "name": "resolved",
      "outputs": [
        {
          "internalType": "bool",
          "name": "",
          "type": "bool"
        }
      ],
      "stateMutability": "view",
      "type": "function"
    },
    {
      "inputs": [],
      "name": "resolver",
      "outputs": [
        {
          "internalType": "address",
          "name": "",
          "type": "address"
        }
      ],
      "stateMutability": "view",
      "type": "function"
    },
    {
      "inputs": [
        {
          "internalType": "uint256",
          "name": "usdcAmount",
          "type": "uint256"
        }
      ],
      "name": "sellNo",
      "outputs": [],
      "stateMutability": "nonpayable",
      "type": "function"
    },
    {
      "inputs": [
        {
          "internalType": "uint256",
          "name": "usdcAmount",
          "type": "uint256"
        }
      ],
      "name": "sellYes",
      "outputs": [],
      "stateMutability": "nonpayable",
      "type": "function"
    },
    {
      "inputs": [],
      "name": "totalVolume",
      "outputs": [
        {
          "internalType": "uint256",
          "name": "",
          "type": "uint256"
        }
      ],
      "stateMutability": "view",
      "type": "function"
    },
    {
      "inputs": [],
      "name": "usdc",
      "outputs": [
        {
          "internalType": "contract IERC20",
          "name": "",
          "type": "address"
        }
      ],
      "stateMutability": "view",
      "type": "function"
    },
    {
      "inputs": [
        {
          "internalType": "address",
          "name": "",
          "type": "address"
        }
      ],
      "name": "yesBalance",
      "outputs": [
        {
          "internalType": "uint256",
          "name": "",
          "type": "uint256"
        }
      ],
      "stateMutability": "view",
      "type": "function"
    },
    {
      "inputs": [],
      "name": "yesPool",
      "outputs": [
        {
          "internalType": "uint256",
          "name": "",
          "type": "uint256"
        }
      ],
      "stateMutability": "view",
      "type": "function"
    },
    {
      "inputs": [],
      "name": "yesProb",
      "outputs": [
        {
          "internalType": "uint256",
          "name": "bps",
          "type": "uint256"
        }
      ],
      "stateMutability": "view",
      "type": "function"
    }
  ],
  "bytecode": "0x60c060405234620003b257620013e0803803806200001d81620003b7565b928339810160a082820312620003b2576200003882620003dd565b60209262000048848201620003dd565b604082015190936001600160401b03929091838111620003b2578262000070918301620003f2565b916060820151848111620003b2576080916200008e918401620003f2565b91015194600194857f9b779b17422d0df92223018b32b4d1fa46e071723d6817e2486d003becc55f005560018060a01b031660805260a05281518381116200039c576000908154938685811c9516801562000391575b898610146200037d578190601f958681116200032a575b508990868311600114620002c6578492620002ba575b5050600019600383901b1c191690861b1781555b8151938411620002a65784548581811c911680156200029b575b8882101462000287578381116200023f575b5086928411600114620001d957839495965092620001cd575b5050600019600383901b1c191690821b1790555b600255604051610f7b90816200046582396080518181816102f50152818161040d01528181610858015281816109d701528181610ad90152610bf4015260a0518181816105f40152610c770152f35b0151905038806200016a565b9190601f1984169685845280842093905b8882106200022757505083859697106200020d575b505050811b0190556200017e565b015160001960f88460031b161c19169055388080620001ff565b808785968294968601518155019501930190620001ea565b8582528782208480870160051c8201928a88106200027d575b0160051c019086905b8281106200027157505062000151565b83815501869062000261565b9250819262000258565b634e487b7160e01b82526022600452602482fd5b90607f16906200013f565b634e487b7160e01b81526041600452602490fd5b01519050388062000111565b8480528a85208994509190601f198416865b8d828210620003135750508411620002f9575b505050811b01815562000125565b015160001960f88460031b161c19169055388080620002eb565b8385015186558c97909501949384019301620002d8565b9091508380528984208680850160051c8201928c861062000373575b918a91869594930160051c01915b82811062000364575050620000fb565b8681558594508a910162000354565b9250819262000346565b634e487b7160e01b83526022600452602483fd5b94607f1694620000e4565b634e487b7160e01b600052604160045260246000fd5b600080fd5b6040519190601f01601f191682016001600160401b038111838210176200039c57604052565b51906001600160a01b0382168203620003b257565b919080601f84011215620003b25782516001600160401b0381116200039c5760209062000428601f8201601f19168301620003b7565b92818452828287010111620003b25760005b8181106200045057508260009394955001015290565b85810183015184820184015282016200043a56fe60806040908082526004918236101561001757600080fd5b600091823560e01c90816304f3bcec14610c6357508063061dd98d14610b905780630ffa9bed14610b5657806311f957fd14610a2757806327793f8714610a065780633e413bee146109c35780633f6fa6551461099d5780633fad9ae0146108c457806358c36e5c146107f25780635b883917146107b85780635f81a57c146107915780636f1d4ea41461077357806383a30f2a146107505780639731aa2e14610735578063a0270dbc146105d0578063a3b5afb1146105b2578063b401faf114610383578063c545ab5414610244578063e184c9be146102265763ef430aa61461010157600080fd5b346102225781600319360112610222578051908260018054908160011c9060018316928315610218575b6020938484108114610205578388529081156101e95750600114610193575b505050829003601f01601f191682019267ffffffffffffffff841183851017610180575082918261017c925282610ca6565b0390f35b634e487b7160e01b815260418552602490fd5b600187529192508591837fb10e2d527612073b26eecdfd717e6a320cf44b4afac2b0732d9fcbe2b7fa0cf65b8385106101d5575050505083010138808061014a565b8054888601830152930192849082016101bf565b60ff1916878501525050151560051b840101905038808061014a565b634e487b7160e01b895260228a52602489fd5b91607f169161012b565b5080fd5b50346102225781600319360112610222576020906002549051908152f35b503461022257602036600319011261022257823590610261610e07565b61027360ff60075460081c1615610cef565b338352600660205281818420541061034f57606482028281046064148315171561033c5790846102c86127107ffbdb18150f1548f92bef14ec13aaca92a801ed96744042ab21a732e145b9b774940485610dbd565b9333865260066020526102df838720918254610dbd565b90556102ec848254610dbd565b905561031983337f0000000000000000000000000000000000000000000000000000000000000000610ec4565b80519284845260208401523392a26001600080516020610f268339815191525580f35b634e487b7160e01b845260118552602484fd5b5162461bcd60e51b8152602081850152600f60248201526e496e73756666696369656e74204e4f60881b6044820152606490fd5b5082346105ae57826003193601126105ae5761039d610e07565b60075460ff8160081c161561057c57600354600160ff6103bf85548094610d67565b9316036104d9575033845260056020528284205480156104a45760035492831561047057506103f792916103f291610d8a565b610d9d565b90338352600560205282818120555b61043182337f0000000000000000000000000000000000000000000000000000000000000000610ec4565b519081527f1a31e733a172afcf46074b3106c17f0c298e226442682a03c1e99ce256139ec260203392a26001600080516020610f268339815191525580f35b606490602086519162461bcd60e51b8352820152600e60248201526d115b5c1d1e48165154c81c1bdbdb60921b6044820152fd5b835162461bcd60e51b8152602081850152600f60248201526e2737902ca2a9903837b9b4ba34b7b760891b6044820152606490fd5b91338552600660205283852054908115610548578315610515575061050292916103f291610d8a565b9033835260066020528281812055610406565b606490602086519162461bcd60e51b8352820152600d60248201526c115b5c1d1e481393c81c1bdbdb609a1b6044820152fd5b606490602086519162461bcd60e51b8352820152600e60248201526d2737902727903837b9b4ba34b7b760911b6044820152fd5b506020606492519162461bcd60e51b8352820152600c60248201526b139bdd081c995cdbdb1d995960a21b6044820152fd5b8280fd5b5082346105ae57826003193601126105ae5760209250549051908152f35b508290346105ae5760203660031901126105ae5781359160ff8316809303610731577f00000000000000000000000000000000000000000000000000000000000000006001600160a01b03163303610700576007549060ff8260081c166106ca576001841480156106c0575b1561067d575061ffff1916821761010017600755519081527f94e5f71d5001613eb5e4ad876acb1da127582270c692c34fbcf810be21728b1d90602090a180f35b606490602084519162461bcd60e51b8352820152601c60248201527f496e76616c6964206f7574636f6d652028313d59455320323d4e4f29000000006044820152fd5b506002841461063c565b606490602084519162461bcd60e51b8352820152601060248201526f105b1c9958591e481c995cdbdb1d995960821b6044820152fd5b6020606492519162461bcd60e51b8352820152600c60248201526b2737ba103932b9b7b63b32b960a11b6044820152fd5b8380fd5b50346102225781600319360112610222576020905160648152f35b503461022257816003193601126102225760209061076c610dca565b9051908152f35b50346102225781600319360112610222576020906003549051908152f35b5090346107b557806003193601126107b5575061076c602092600354905490610d67565b80fd5b5082346105ae5760203660031901126105ae57356001600160a01b038116908190036105ae57828291602094526005845220549051908152f35b508290346105ae5760203660031901126105ae577fce33b1a575fb35da3d3f46cea9fa626686e5725921cff95e22f86d4727f71bd190823592610833610e07565b61084560ff60075460081c1615610cef565b610850841515610d2d565b61087c8430337f0000000000000000000000000000000000000000000000000000000000000000610e37565b3385526006602052818520610892858254610d67565b905561089f848254610d67565b905580519284845260208401523392a26001600080516020610f268339815191525580f35b503461022257816003193601126102225780519082835460018160011c9060018316928315610993575b6020938484108114610205578388529081156101e9575060011461093e57505050829003601f01601f191682019267ffffffffffffffff841183851017610180575082918261017c925282610ca6565b8680529192508591837f290decd9548b62a8d60345a988386fc84ba6bc95484008f6362f93160ef3e5635b83851061097f575050505083010138808061014a565b805488860183015293019284908201610969565b91607f16916108ee565b503461022257816003193601126102225760209060ff60075460081c1690519015158152f35b5034610222578160031936011261022257517f00000000000000000000000000000000000000000000000000000000000000006001600160a01b03168152602090f35b503461022257816003193601126102225760209060ff600754169051908152f35b503461022257602036600319011261022257823590610a44610e07565b610a5660ff60075460081c1615610cef565b3383526005602052818184205410610b2157606482028281046064148315171561033c5790610aaa6127107ffbdb18150f1548f92bef14ec13aaca92a801ed96744042ab21a732e145b9b774930484610dbd565b923385526005602052610ac1828620918254610dbd565b9055610acf83600354610dbd565b600355610afd83337f0000000000000000000000000000000000000000000000000000000000000000610ec4565b8051926001845260208401523392a26001600080516020610f268339815191525580f35b5162461bcd60e51b8152602081850152601060248201526f496e73756666696369656e742059455360801b6044820152606490fd5b5082346105ae5760203660031901126105ae57356001600160a01b038116908190036105ae57828291602094526006845220549051908152f35b5082346105ae5760203660031901126105ae577fce33b1a575fb35da3d3f46cea9fa626686e5725921cff95e22f86d4727f71bd1903591610bcf610e07565b610be160ff60075460081c1615610cef565b610bec831515610d2d565b610c188330337f0000000000000000000000000000000000000000000000000000000000000000610e37565b3384526005602052808420610c2e848254610d67565b9055610c3c83600354610d67565b6003558051926001845260208401523392a26001600080516020610f268339815191525580f35b8390346102225781600319360112610222577f00000000000000000000000000000000000000000000000000000000000000006001600160a01b03168152602090f35b6020808252825181830181905290939260005b828110610cdb57505060409293506000838284010152601f8019910116010190565b818101860151848201604001528501610cb9565b15610cf657565b60405162461bcd60e51b815260206004820152600f60248201526e13585c9ad95d081c995cdbdb1d9959608a1b6044820152606490fd5b15610d3457565b60405162461bcd60e51b815260206004820152600b60248201526a16995c9bc8185b5bdd5b9d60aa1b6044820152606490fd5b91908201809211610d7457565b634e487b7160e01b600052601160045260246000fd5b81810292918115918404141715610d7457565b8115610da7570490565b634e487b7160e01b600052601260045260246000fd5b91908203918211610d7457565b600354610dd960045482610d67565b8015610dff5761271091828102928184041490151715610d7457610dfc91610d9d565b90565b505061138890565b600080516020610f268339815191526002815414610e255760029055565b604051633ee5aeb560e01b8152600490fd5b6040516323b872dd60e01b60009081526001600160a01b03938416600452938316602452604494909452909160209060648180855af1600160005114811615610ea4575b83604052600060605215610e8e57505050565b635274afe760e01b835216600482015260249150fd5b6001811516610eba57813b15153d151616610e7b565b833d6000823e3d90fd5b60405163a9059cbb60e01b60009081526001600160a01b039384166004526024949094529260209060448180855af1600160005114811615610f0f575b8360405215610e8e57505050565b6001811516610eba57813b15153d151616610f0156fe9b779b17422d0df92223018b32b4d1fa46e071723d6817e2486d003becc55f00a264697066735822122056dc8df146bbbaa74931b49dc749014ec079ba9940f27efa2ee3f9fc04fec3c564736f6c63430008180033",
  "linkReferences": {},
  "deployedLinkReferences": {}
}